{
	"contracts/web3Clubs/payable.sol": {
		"transferEther": {
			"abi": [
				{
					"inputs": [],
					"stateMutability": "payable",
					"type": "constructor"
				},
				{
					"inputs": [],
					"name": "deposit",
					"outputs": [],
					"stateMutability": "payable",
					"type": "function"
				},
				{
					"inputs": [],
					"name": "depositOne",
					"outputs": [],
					"stateMutability": "nonpayable",
					"type": "function"
				},
				{
					"inputs": [],
					"name": "owner",
					"outputs": [
						{
							"internalType": "address payable",
							"name": "",
							"type": "address"
						}
					],
					"stateMutability": "view",
					"type": "function"
				},
				{
					"inputs": [
						{
							"internalType": "address payable",
							"name": "_to",
							"type": "address"
						},
						{
							"internalType": "uint256",
							"name": "amount",
							"type": "uint256"
						}
					],
					"name": "transfer",
					"outputs": [],
					"stateMutability": "nonpayable",
					"type": "function"
				}
			],
			"devdoc": {
				"kind": "dev",
				"methods": {},
				"version": 1
			},
			"evm": {
				"assembly": "    /* \"contracts/web3Clubs/payable.sol\":58:525  contract transferEther {... */\n  mstore(0x40, 0x80)\n    /* \"contracts/web3Clubs/payable.sol\":270:280  msg.sender */\n  caller\n    /* \"contracts/web3Clubs/payable.sol\":252:257  owner */\n  0x00\n  dup1\n    /* \"contracts/web3Clubs/payable.sol\":252:281  owner = payable ( msg.sender) */\n  0x0100\n  exp\n  dup2\n  sload\n  dup2\n  0xffffffffffffffffffffffffffffffffffffffff\n  mul\n  not\n  and\n  swap1\n  dup4\n  0xffffffffffffffffffffffffffffffffffffffff\n  and\n  mul\n  or\n  swap1\n  sstore\n  pop\n    /* \"contracts/web3Clubs/payable.sol\":58:525  contract transferEther {... */\n  dataSize(sub_0)\n  dup1\n  dataOffset(sub_0)\n  0x00\n  codecopy\n  0x00\n  return\nstop\n\nsub_0: assembly {\n        /* \"contracts/web3Clubs/payable.sol\":58:525  contract transferEther {... */\n      mstore(0x40, 0x80)\n      jumpi(tag_1, lt(calldatasize, 0x04))\n      shr(0xe0, calldataload(0x00))\n      dup1\n      0x8da5cb5b\n      eq\n      tag_2\n      jumpi\n      dup1\n      0x909dd8f6\n      eq\n      tag_3\n      jumpi\n      dup1\n      0xa9059cbb\n      eq\n      tag_4\n      jumpi\n      dup1\n      0xd0e30db0\n      eq\n      tag_5\n      jumpi\n    tag_1:\n      0x00\n      dup1\n      revert\n        /* \"contracts/web3Clubs/payable.sol\":162:192  address payable  public  owner */\n    tag_2:\n      callvalue\n      dup1\n      iszero\n      tag_6\n      jumpi\n      0x00\n      dup1\n      revert\n    tag_6:\n      pop\n      tag_7\n      tag_8\n      jump\t// in\n    tag_7:\n      mload(0x40)\n      tag_9\n      swap2\n      swap1\n      tag_10\n      jump\t// in\n    tag_9:\n      mload(0x40)\n      dup1\n      swap2\n      sub\n      swap1\n      return\n        /* \"contracts/web3Clubs/payable.sol\":345:381  function depositOne() public{... */\n    tag_3:\n      callvalue\n      dup1\n      iszero\n      tag_11\n      jumpi\n      0x00\n      dup1\n      revert\n    tag_11:\n      pop\n      tag_12\n      tag_13\n      jump\t// in\n    tag_12:\n      stop\n        /* \"contracts/web3Clubs/payable.sol\":387:523  function transfer(address payable _to, uint amount) public {... */\n    tag_4:\n      callvalue\n      dup1\n      iszero\n      tag_14\n      jumpi\n      0x00\n      dup1\n      revert\n    tag_14:\n      pop\n      tag_15\n      0x04\n      dup1\n      calldatasize\n      sub\n      dup2\n      add\n      swap1\n      tag_16\n      swap2\n      swap1\n      tag_17\n      jump\t// in\n    tag_16:\n      tag_18\n      jump\t// in\n    tag_15:\n      stop\n        /* \"contracts/web3Clubs/payable.sol\":295:338  function deposit() public payable  {... */\n    tag_5:\n      tag_19\n      tag_20\n      jump\t// in\n    tag_19:\n      stop\n        /* \"contracts/web3Clubs/payable.sol\":162:192  address payable  public  owner */\n    tag_8:\n      0x00\n      dup1\n      sload\n      swap1\n      0x0100\n      exp\n      swap1\n      div\n      0xffffffffffffffffffffffffffffffffffffffff\n      and\n      dup2\n      jump\t// out\n        /* \"contracts/web3Clubs/payable.sol\":345:381  function depositOne() public{... */\n    tag_13:\n      jump\t// out\n        /* \"contracts/web3Clubs/payable.sol\":387:523  function transfer(address payable _to, uint amount) public {... */\n    tag_18:\n        /* \"contracts/web3Clubs/payable.sol\":490:497  _amount */\n      sload(0x01)\n        /* \"contracts/web3Clubs/payable.sol\":465:486  address(this).balance */\n      selfbalance\n        /* \"contracts/web3Clubs/payable.sol\":465:497  address(this).balance >= _amount */\n      lt\n      iszero\n        /* \"contracts/web3Clubs/payable.sol\":456:509  require (address(this).balance >= _amount, \"balance\") */\n      tag_23\n      jumpi\n      mload(0x40)\n      0x08c379a000000000000000000000000000000000000000000000000000000000\n      dup2\n      mstore\n      0x04\n      add\n      tag_24\n      swap1\n      tag_25\n      jump\t// in\n    tag_24:\n      mload(0x40)\n      dup1\n      swap2\n      sub\n      swap1\n      revert\n    tag_23:\n        /* \"contracts/web3Clubs/payable.sol\":387:523  function transfer(address payable _to, uint amount) public {... */\n      pop\n      pop\n      jump\t// out\n        /* \"contracts/web3Clubs/payable.sol\":295:338  function deposit() public payable  {... */\n    tag_20:\n      jump\t// out\n        /* \"#utility.yul\":7:133   */\n    tag_27:\n        /* \"#utility.yul\":44:51   */\n      0x00\n        /* \"#utility.yul\":84:126   */\n      0xffffffffffffffffffffffffffffffffffffffff\n        /* \"#utility.yul\":77:82   */\n      dup3\n        /* \"#utility.yul\":73:127   */\n      and\n        /* \"#utility.yul\":62:127   */\n      swap1\n      pop\n        /* \"#utility.yul\":7:133   */\n      swap2\n      swap1\n      pop\n      jump\t// out\n        /* \"#utility.yul\":139:243   */\n    tag_28:\n        /* \"#utility.yul\":184:191   */\n      0x00\n        /* \"#utility.yul\":213:237   */\n      tag_44\n        /* \"#utility.yul\":231:236   */\n      dup3\n        /* \"#utility.yul\":213:237   */\n      tag_27\n      jump\t// in\n    tag_44:\n        /* \"#utility.yul\":202:237   */\n      swap1\n      pop\n        /* \"#utility.yul\":139:243   */\n      swap2\n      swap1\n      pop\n      jump\t// out\n        /* \"#utility.yul\":249:391   */\n    tag_29:\n        /* \"#utility.yul\":352:384   */\n      tag_46\n        /* \"#utility.yul\":378:383   */\n      dup2\n        /* \"#utility.yul\":352:384   */\n      tag_28\n      jump\t// in\n    tag_46:\n        /* \"#utility.yul\":347:350   */\n      dup3\n        /* \"#utility.yul\":340:385   */\n      mstore\n        /* \"#utility.yul\":249:391   */\n      pop\n      pop\n      jump\t// out\n        /* \"#utility.yul\":397:651   */\n    tag_10:\n        /* \"#utility.yul\":506:510   */\n      0x00\n        /* \"#utility.yul\":544:546   */\n      0x20\n        /* \"#utility.yul\":533:542   */\n      dup3\n        /* \"#utility.yul\":529:547   */\n      add\n        /* \"#utility.yul\":521:547   */\n      swap1\n      pop\n        /* \"#utility.yul\":557:644   */\n      tag_48\n        /* \"#utility.yul\":641:642   */\n      0x00\n        /* \"#utility.yul\":630:639   */\n      dup4\n        /* \"#utility.yul\":626:643   */\n      add\n        /* \"#utility.yul\":617:623   */\n      dup5\n        /* \"#utility.yul\":557:644   */\n      tag_29\n      jump\t// in\n    tag_48:\n        /* \"#utility.yul\":397:651   */\n      swap3\n      swap2\n      pop\n      pop\n      jump\t// out\n        /* \"#utility.yul\":738:855   */\n    tag_31:\n        /* \"#utility.yul\":847:848   */\n      0x00\n        /* \"#utility.yul\":844:845   */\n      dup1\n        /* \"#utility.yul\":837:849   */\n      revert\n        /* \"#utility.yul\":984:1122   */\n    tag_33:\n        /* \"#utility.yul\":1065:1097   */\n      tag_53\n        /* \"#utility.yul\":1091:1096   */\n      dup2\n        /* \"#utility.yul\":1065:1097   */\n      tag_28\n      jump\t// in\n    tag_53:\n        /* \"#utility.yul\":1058:1063   */\n      dup2\n        /* \"#utility.yul\":1055:1098   */\n      eq\n        /* \"#utility.yul\":1045:1116   */\n      tag_54\n      jumpi\n        /* \"#utility.yul\":1112:1113   */\n      0x00\n        /* \"#utility.yul\":1109:1110   */\n      dup1\n        /* \"#utility.yul\":1102:1114   */\n      revert\n        /* \"#utility.yul\":1045:1116   */\n    tag_54:\n        /* \"#utility.yul\":984:1122   */\n      pop\n      jump\t// out\n        /* \"#utility.yul\":1128:1283   */\n    tag_34:\n        /* \"#utility.yul\":1182:1187   */\n      0x00\n        /* \"#utility.yul\":1220:1226   */\n      dup2\n        /* \"#utility.yul\":1207:1227   */\n      calldataload\n        /* \"#utility.yul\":1198:1227   */\n      swap1\n      pop\n        /* \"#utility.yul\":1236:1277   */\n      tag_56\n        /* \"#utility.yul\":1271:1276   */\n      dup2\n        /* \"#utility.yul\":1236:1277   */\n      tag_33\n      jump\t// in\n    tag_56:\n        /* \"#utility.yul\":1128:1283   */\n      swap3\n      swap2\n      pop\n      pop\n      jump\t// out\n        /* \"#utility.yul\":1289:1366   */\n    tag_35:\n        /* \"#utility.yul\":1326:1333   */\n      0x00\n        /* \"#utility.yul\":1355:1360   */\n      dup2\n        /* \"#utility.yul\":1344:1360   */\n      swap1\n      pop\n        /* \"#utility.yul\":1289:1366   */\n      swap2\n      swap1\n      pop\n      jump\t// out\n        /* \"#utility.yul\":1372:1494   */\n    tag_36:\n        /* \"#utility.yul\":1445:1469   */\n      tag_59\n        /* \"#utility.yul\":1463:1468   */\n      dup2\n        /* \"#utility.yul\":1445:1469   */\n      tag_35\n      jump\t// in\n    tag_59:\n        /* \"#utility.yul\":1438:1443   */\n      dup2\n        /* \"#utility.yul\":1435:1470   */\n      eq\n        /* \"#utility.yul\":1425:1488   */\n      tag_60\n      jumpi\n        /* \"#utility.yul\":1484:1485   */\n      0x00\n        /* \"#utility.yul\":1481:1482   */\n      dup1\n        /* \"#utility.yul\":1474:1486   */\n      revert\n        /* \"#utility.yul\":1425:1488   */\n    tag_60:\n        /* \"#utility.yul\":1372:1494   */\n      pop\n      jump\t// out\n        /* \"#utility.yul\":1500:1639   */\n    tag_37:\n        /* \"#utility.yul\":1546:1551   */\n      0x00\n        /* \"#utility.yul\":1584:1590   */\n      dup2\n        /* \"#utility.yul\":1571:1591   */\n      calldataload\n        /* \"#utility.yul\":1562:1591   */\n      swap1\n      pop\n        /* \"#utility.yul\":1600:1633   */\n      tag_62\n        /* \"#utility.yul\":1627:1632   */\n      dup2\n        /* \"#utility.yul\":1600:1633   */\n      tag_36\n      jump\t// in\n    tag_62:\n        /* \"#utility.yul\":1500:1639   */\n      swap3\n      swap2\n      pop\n      pop\n      jump\t// out\n        /* \"#utility.yul\":1645:2135   */\n    tag_17:\n        /* \"#utility.yul\":1721:1727   */\n      0x00\n        /* \"#utility.yul\":1729:1735   */\n      dup1\n        /* \"#utility.yul\":1778:1780   */\n      0x40\n        /* \"#utility.yul\":1766:1775   */\n      dup4\n        /* \"#utility.yul\":1757:1764   */\n      dup6\n        /* \"#utility.yul\":1753:1776   */\n      sub\n        /* \"#utility.yul\":1749:1781   */\n      slt\n        /* \"#utility.yul\":1746:1865   */\n      iszero\n      tag_64\n      jumpi\n        /* \"#utility.yul\":1784:1863   */\n      tag_65\n      tag_31\n      jump\t// in\n    tag_65:\n        /* \"#utility.yul\":1746:1865   */\n    tag_64:\n        /* \"#utility.yul\":1904:1905   */\n      0x00\n        /* \"#utility.yul\":1929:1990   */\n      tag_66\n        /* \"#utility.yul\":1982:1989   */\n      dup6\n        /* \"#utility.yul\":1973:1979   */\n      dup3\n        /* \"#utility.yul\":1962:1971   */\n      dup7\n        /* \"#utility.yul\":1958:1980   */\n      add\n        /* \"#utility.yul\":1929:1990   */\n      tag_34\n      jump\t// in\n    tag_66:\n        /* \"#utility.yul\":1919:1990   */\n      swap3\n      pop\n        /* \"#utility.yul\":1875:2000   */\n      pop\n        /* \"#utility.yul\":2039:2041   */\n      0x20\n        /* \"#utility.yul\":2065:2118   */\n      tag_67\n        /* \"#utility.yul\":2110:2117   */\n      dup6\n        /* \"#utility.yul\":2101:2107   */\n      dup3\n        /* \"#utility.yul\":2090:2099   */\n      dup7\n        /* \"#utility.yul\":2086:2108   */\n      add\n        /* \"#utility.yul\":2065:2118   */\n      tag_37\n      jump\t// in\n    tag_67:\n        /* \"#utility.yul\":2055:2118   */\n      swap2\n      pop\n        /* \"#utility.yul\":2010:2128   */\n      pop\n        /* \"#utility.yul\":1645:2135   */\n      swap3\n      pop\n      swap3\n      swap1\n      pop\n      jump\t// out\n        /* \"#utility.yul\":2141:2310   */\n    tag_38:\n        /* \"#utility.yul\":2225:2236   */\n      0x00\n        /* \"#utility.yul\":2259:2265   */\n      dup3\n        /* \"#utility.yul\":2254:2257   */\n      dup3\n        /* \"#utility.yul\":2247:2266   */\n      mstore\n        /* \"#utility.yul\":2299:2303   */\n      0x20\n        /* \"#utility.yul\":2294:2297   */\n      dup3\n        /* \"#utility.yul\":2290:2304   */\n      add\n        /* \"#utility.yul\":2275:2304   */\n      swap1\n      pop\n        /* \"#utility.yul\":2141:2310   */\n      swap3\n      swap2\n      pop\n      pop\n      jump\t// out\n        /* \"#utility.yul\":2316:2473   */\n    tag_39:\n        /* \"#utility.yul\":2456:2465   */\n      0x62616c616e636500000000000000000000000000000000000000000000000000\n        /* \"#utility.yul\":2452:2453   */\n      0x00\n        /* \"#utility.yul\":2444:2450   */\n      dup3\n        /* \"#utility.yul\":2440:2454   */\n      add\n        /* \"#utility.yul\":2433:2466   */\n      mstore\n        /* \"#utility.yul\":2316:2473   */\n      pop\n      jump\t// out\n        /* \"#utility.yul\":2479:2844   */\n    tag_40:\n        /* \"#utility.yul\":2621:2624   */\n      0x00\n        /* \"#utility.yul\":2642:2708   */\n      tag_71\n        /* \"#utility.yul\":2706:2707   */\n      0x07\n        /* \"#utility.yul\":2701:2704   */\n      dup4\n        /* \"#utility.yul\":2642:2708   */\n      tag_38\n      jump\t// in\n    tag_71:\n        /* \"#utility.yul\":2635:2708   */\n      swap2\n      pop\n        /* \"#utility.yul\":2717:2810   */\n      tag_72\n        /* \"#utility.yul\":2806:2809   */\n      dup3\n        /* \"#utility.yul\":2717:2810   */\n      tag_39\n      jump\t// in\n    tag_72:\n        /* \"#utility.yul\":2835:2837   */\n      0x20\n        /* \"#utility.yul\":2830:2833   */\n      dup3\n        /* \"#utility.yul\":2826:2838   */\n      add\n        /* \"#utility.yul\":2819:2838   */\n      swap1\n      pop\n        /* \"#utility.yul\":2479:2844   */\n      swap2\n      swap1\n      pop\n      jump\t// out\n        /* \"#utility.yul\":2850:3269   */\n    tag_25:\n        /* \"#utility.yul\":3016:3020   */\n      0x00\n        /* \"#utility.yul\":3054:3056   */\n      0x20\n        /* \"#utility.yul\":3043:3052   */\n      dup3\n        /* \"#utility.yul\":3039:3057   */\n      add\n        /* \"#utility.yul\":3031:3057   */\n      swap1\n      pop\n        /* \"#utility.yul\":3103:3112   */\n      dup2\n        /* \"#utility.yul\":3097:3101   */\n      dup2\n        /* \"#utility.yul\":3093:3113   */\n      sub\n        /* \"#utility.yul\":3089:3090   */\n      0x00\n        /* \"#utility.yul\":3078:3087   */\n      dup4\n        /* \"#utility.yul\":3074:3091   */\n      add\n        /* \"#utility.yul\":3067:3114   */\n      mstore\n        /* \"#utility.yul\":3131:3262   */\n      tag_74\n        /* \"#utility.yul\":3257:3261   */\n      dup2\n        /* \"#utility.yul\":3131:3262   */\n      tag_40\n      jump\t// in\n    tag_74:\n        /* \"#utility.yul\":3123:3262   */\n      swap1\n      pop\n        /* \"#utility.yul\":2850:3269   */\n      swap2\n      swap1\n      pop\n      jump\t// out\n\n    auxdata: 0xa2646970667358221220bf2f67d5ce565f74cc22cbe3344201fed21b1393b448e7c0f48e1dbf8e28758a64736f6c63430008130033\n}\n",
				"bytecode": {
					"linkReferences": {},
					"object": "6080604052336000806101000a81548173ffffffffffffffffffffffffffffffffffffffff021916908373ffffffffffffffffffffffffffffffffffffffff1602179055506102e0806100536000396000f3fe60806040526004361061003f5760003560e01c80638da5cb5b14610044578063909dd8f61461006f578063a9059cbb14610086578063d0e30db0146100af575b600080fd5b34801561005057600080fd5b506100596100b9565b604051610066919061016b565b60405180910390f35b34801561007b57600080fd5b506100846100dd565b005b34801561009257600080fd5b506100ad60048036038101906100a891906101ed565b6100df565b005b6100b7610128565b005b60008054906101000a900473ffffffffffffffffffffffffffffffffffffffff1681565b565b600154471015610124576040517f08c379a000000000000000000000000000000000000000000000000000000000815260040161011b9061028a565b60405180910390fd5b5050565b565b600073ffffffffffffffffffffffffffffffffffffffff82169050919050565b60006101558261012a565b9050919050565b6101658161014a565b82525050565b6000602082019050610180600083018461015c565b92915050565b600080fd5b6101948161014a565b811461019f57600080fd5b50565b6000813590506101b18161018b565b92915050565b6000819050919050565b6101ca816101b7565b81146101d557600080fd5b50565b6000813590506101e7816101c1565b92915050565b6000806040838503121561020457610203610186565b5b6000610212858286016101a2565b9250506020610223858286016101d8565b9150509250929050565b600082825260208201905092915050565b7f62616c616e636500000000000000000000000000000000000000000000000000600082015250565b600061027460078361022d565b915061027f8261023e565b602082019050919050565b600060208201905081810360008301526102a381610267565b905091905056fea2646970667358221220bf2f67d5ce565f74cc22cbe3344201fed21b1393b448e7c0f48e1dbf8e28758a64736f6c63430008130033",
					"opcodes": "PUSH1 0x80 PUSH1 0x40 MSTORE CALLER PUSH1 0x0 DUP1 PUSH2 0x100 EXP DUP2 SLOAD DUP2 PUSH20 0xFFFFFFFFFFFFFFFFFFFFFFFFFFFFFFFFFFFFFFFF MUL NOT AND SWAP1 DUP4 PUSH20 0xFFFFFFFFFFFFFFFFFFFFFFFFFFFFFFFFFFFFFFFF AND MUL OR SWAP1 SSTORE POP PUSH2 0x2E0 DUP1 PUSH2 0x53 PUSH1 0x0 CODECOPY PUSH1 0x0 RETURN INVALID PUSH1 0x80 PUSH1 0x40 MSTORE PUSH1 0x4 CALLDATASIZE LT PUSH2 0x3F JUMPI PUSH1 0x0 CALLDATALOAD PUSH1 0xE0 SHR DUP1 PUSH4 0x8DA5CB5B EQ PUSH2 0x44 JUMPI DUP1 PUSH4 0x909DD8F6 EQ PUSH2 0x6F JUMPI DUP1 PUSH4 0xA9059CBB EQ PUSH2 0x86 JUMPI DUP1 PUSH4 0xD0E30DB0 EQ PUSH2 0xAF JUMPI JUMPDEST PUSH1 0x0 DUP1 REVERT JUMPDEST CALLVALUE DUP1 ISZERO PUSH2 0x50 JUMPI PUSH1 0x0 DUP1 REVERT JUMPDEST POP PUSH2 0x59 PUSH2 0xB9 JUMP JUMPDEST PUSH1 0x40 MLOAD PUSH2 0x66 SWAP2 SWAP1 PUSH2 0x16B JUMP JUMPDEST PUSH1 0x40 MLOAD DUP1 SWAP2 SUB SWAP1 RETURN JUMPDEST CALLVALUE DUP1 ISZERO PUSH2 0x7B JUMPI PUSH1 0x0 DUP1 REVERT JUMPDEST POP PUSH2 0x84 PUSH2 0xDD JUMP JUMPDEST STOP JUMPDEST CALLVALUE DUP1 ISZERO PUSH2 0x92 JUMPI PUSH1 0x0 DUP1 REVERT JUMPDEST POP PUSH2 0xAD PUSH1 0x4 DUP1 CALLDATASIZE SUB DUP2 ADD SWAP1 PUSH2 0xA8 SWAP2 SWAP1 PUSH2 0x1ED JUMP JUMPDEST PUSH2 0xDF JUMP JUMPDEST STOP JUMPDEST PUSH2 0xB7 PUSH2 0x128 JUMP JUMPDEST STOP JUMPDEST PUSH1 0x0 DUP1 SLOAD SWAP1 PUSH2 0x100 EXP SWAP1 DIV PUSH20 0xFFFFFFFFFFFFFFFFFFFFFFFFFFFFFFFFFFFFFFFF AND DUP2 JUMP JUMPDEST JUMP JUMPDEST PUSH1 0x1 SLOAD SELFBALANCE LT ISZERO PUSH2 0x124 JUMPI PUSH1 0x40 MLOAD PUSH32 0x8C379A000000000000000000000000000000000000000000000000000000000 DUP2 MSTORE PUSH1 0x4 ADD PUSH2 0x11B SWAP1 PUSH2 0x28A JUMP JUMPDEST PUSH1 0x40 MLOAD DUP1 SWAP2 SUB SWAP1 REVERT JUMPDEST POP POP JUMP JUMPDEST JUMP JUMPDEST PUSH1 0x0 PUSH20 0xFFFFFFFFFFFFFFFFFFFFFFFFFFFFFFFFFFFFFFFF DUP3 AND SWAP1 POP SWAP2 SWAP1 POP JUMP JUMPDEST PUSH1 0x0 PUSH2 0x155 DUP3 PUSH2 0x12A JUMP JUMPDEST SWAP1 POP SWAP2 SWAP1 POP JUMP JUMPDEST PUSH2 0x165 DUP2 PUSH2 0x14A JUMP JUMPDEST DUP3 MSTORE POP POP JUMP JUMPDEST PUSH1 0x0 PUSH1 0x20 DUP3 ADD SWAP1 POP PUSH2 0x180 PUSH1 0x0 DUP4 ADD DUP5 PUSH2 0x15C JUMP JUMPDEST SWAP3 SWAP2 POP POP JUMP JUMPDEST PUSH1 0x0 DUP1 REVERT JUMPDEST PUSH2 0x194 DUP2 PUSH2 0x14A JUMP JUMPDEST DUP2 EQ PUSH2 0x19F JUMPI PUSH1 0x0 DUP1 REVERT JUMPDEST POP JUMP JUMPDEST PUSH1 0x0 DUP2 CALLDATALOAD SWAP1 POP PUSH2 0x1B1 DUP2 PUSH2 0x18B JUMP JUMPDEST SWAP3 SWAP2 POP POP JUMP JUMPDEST PUSH1 0x0 DUP2 SWAP1 POP SWAP2 SWAP1 POP JUMP JUMPDEST PUSH2 0x1CA DUP2 PUSH2 0x1B7 JUMP JUMPDEST DUP2 EQ PUSH2 0x1D5 JUMPI PUSH1 0x0 DUP1 REVERT JUMPDEST POP JUMP JUMPDEST PUSH1 0x0 DUP2 CALLDATALOAD SWAP1 POP PUSH2 0x1E7 DUP2 PUSH2 0x1C1 JUMP JUMPDEST SWAP3 SWAP2 POP POP JUMP JUMPDEST PUSH1 0x0 DUP1 PUSH1 0x40 DUP4 DUP6 SUB SLT ISZERO PUSH2 0x204 JUMPI PUSH2 0x203 PUSH2 0x186 JUMP JUMPDEST JUMPDEST PUSH1 0x0 PUSH2 0x212 DUP6 DUP3 DUP7 ADD PUSH2 0x1A2 JUMP JUMPDEST SWAP3 POP POP PUSH1 0x20 PUSH2 0x223 DUP6 DUP3 DUP7 ADD PUSH2 0x1D8 JUMP JUMPDEST SWAP2 POP POP SWAP3 POP SWAP3 SWAP1 POP JUMP JUMPDEST PUSH1 0x0 DUP3 DUP3 MSTORE PUSH1 0x20 DUP3 ADD SWAP1 POP SWAP3 SWAP2 POP POP JUMP JUMPDEST PUSH32 0x62616C616E636500000000000000000000000000000000000000000000000000 PUSH1 0x0 DUP3 ADD MSTORE POP JUMP JUMPDEST PUSH1 0x0 PUSH2 0x274 PUSH1 0x7 DUP4 PUSH2 0x22D JUMP JUMPDEST SWAP2 POP PUSH2 0x27F DUP3 PUSH2 0x23E JUMP JUMPDEST PUSH1 0x20 DUP3 ADD SWAP1 POP SWAP2 SWAP1 POP JUMP JUMPDEST PUSH1 0x0 PUSH1 0x20 DUP3 ADD SWAP1 POP DUP2 DUP2 SUB PUSH1 0x0 DUP4 ADD MSTORE PUSH2 0x2A3 DUP2 PUSH2 0x267 JUMP JUMPDEST SWAP1 POP SWAP2 SWAP1 POP JUMP INVALID LOG2 PUSH5 0x6970667358 0x22 SLT KECCAK256 0xBF 0x2F PUSH8 0xD5CE565F74CC22CB 0xE3 CALLVALUE TIMESTAMP ADD INVALID 0xD2 SHL SGT SWAP4 0xB4 BASEFEE 0xE7 0xC0 DELEGATECALL DUP15 SAR 0xBF DUP15 0x28 PUSH22 0x8A64736F6C6343000813003300000000000000000000 "
				},
				"gasEstimates": {
					"creation": {
						"codeDepositCost": "147200",
						"executionCost": "24432",
						"totalCost": "171632"
					},
					"external": {
						"deposit()": "164",
						"depositOne()": "144",
						"owner()": "2489",
						"transfer(address,uint256)": "3063"
					}
				},
				"methodIdentifiers": {
					"deposit()": "d0e30db0",
					"depositOne()": "909dd8f6",
					"owner()": "8da5cb5b",
					"transfer(address,uint256)": "a9059cbb"
				}
			},
			"storageLayout": {
				"storage": [
					{
						"astId": 3,
						"contract": "contracts/web3Clubs/payable.sol:transferEther",
						"label": "owner",
						"offset": 0,
						"slot": "0",
						"type": "t_address_payable"
					},
					{
						"astId": 5,
						"contract": "contracts/web3Clubs/payable.sol:transferEther",
						"label": "_amount",
						"offset": 0,
						"slot": "1",
						"type": "t_uint256"
					}
				],
				"types": {
					"t_address_payable": {
						"encoding": "inplace",
						"label": "address payable",
						"numberOfBytes": "20"
					},
					"t_uint256": {
						"encoding": "inplace",
						"label": "uint256",
						"numberOfBytes": "32"
					}
				}
			},
			"userdoc": {
				"kind": "user",
				"methods": {},
				"version": 1
			}
		}
	}
}