{
	"contracts/Apps/Tracking.sol": {
		"Tracking": {
			"abi": [
				{
					"inputs": [],
					"stateMutability": "nonpayable",
					"type": "constructor"
				},
				{
					"anonymous": false,
					"inputs": [
						{
							"indexed": true,
							"internalType": "address",
							"name": "sender",
							"type": "address"
						},
						{
							"indexed": true,
							"internalType": "address",
							"name": "receiver",
							"type": "address"
						},
						{
							"indexed": false,
							"internalType": "uint256",
							"name": "pickuptime",
							"type": "uint256"
						},
						{
							"indexed": false,
							"internalType": "uint256",
							"name": "distance",
							"type": "uint256"
						},
						{
							"indexed": false,
							"internalType": "uint256",
							"name": "price",
							"type": "uint256"
						}
					],
					"name": "ShipmentCreated",
					"type": "event"
				},
				{
					"anonymous": false,
					"inputs": [
						{
							"indexed": true,
							"internalType": "address",
							"name": "sender",
							"type": "address"
						},
						{
							"indexed": true,
							"internalType": "address",
							"name": "receiver",
							"type": "address"
						},
						{
							"indexed": false,
							"internalType": "uint256",
							"name": "deliveryTime",
							"type": "uint256"
						}
					],
					"name": "ShipmentDelivered",
					"type": "event"
				},
				{
					"anonymous": false,
					"inputs": [
						{
							"indexed": true,
							"internalType": "address",
							"name": "sender",
							"type": "address"
						},
						{
							"indexed": true,
							"internalType": "address",
							"name": "receiver",
							"type": "address"
						},
						{
							"indexed": false,
							"internalType": "uint256",
							"name": "pickuptime",
							"type": "uint256"
						}
					],
					"name": "ShipmentInTransit",
					"type": "event"
				},
				{
					"anonymous": false,
					"inputs": [
						{
							"indexed": true,
							"internalType": "address",
							"name": "sender",
							"type": "address"
						},
						{
							"indexed": true,
							"internalType": "address",
							"name": "receiver",
							"type": "address"
						},
						{
							"indexed": false,
							"internalType": "uint256",
							"name": "amount",
							"type": "uint256"
						}
					],
					"name": "ShipmentPaid",
					"type": "event"
				},
				{
					"inputs": [
						{
							"internalType": "address",
							"name": "_sender",
							"type": "address"
						},
						{
							"internalType": "address",
							"name": "_receiver",
							"type": "address"
						},
						{
							"internalType": "uint256",
							"name": "_index",
							"type": "uint256"
						}
					],
					"name": "completShipment",
					"outputs": [],
					"stateMutability": "nonpayable",
					"type": "function"
				},
				{
					"inputs": [
						{
							"internalType": "address",
							"name": "_receiver",
							"type": "address"
						},
						{
							"internalType": "uint256",
							"name": "_pickupTime",
							"type": "uint256"
						},
						{
							"internalType": "uint256",
							"name": "_distance",
							"type": "uint256"
						},
						{
							"internalType": "uint256",
							"name": "_price",
							"type": "uint256"
						}
					],
					"name": "createShipment",
					"outputs": [],
					"stateMutability": "payable",
					"type": "function"
				},
				{
					"inputs": [],
					"name": "getAllTransactions",
					"outputs": [
						{
							"components": [
								{
									"internalType": "address",
									"name": "sender",
									"type": "address"
								},
								{
									"internalType": "address",
									"name": "receiver",
									"type": "address"
								},
								{
									"internalType": "uint256",
									"name": "pickupTime",
									"type": "uint256"
								},
								{
									"internalType": "uint256",
									"name": "deliveryTime",
									"type": "uint256"
								},
								{
									"internalType": "uint256",
									"name": "distance",
									"type": "uint256"
								},
								{
									"internalType": "uint256",
									"name": "price",
									"type": "uint256"
								},
								{
									"internalType": "enum Tracking.ShipmentStatus",
									"name": "status",
									"type": "uint8"
								},
								{
									"internalType": "bool",
									"name": "isPaid",
									"type": "bool"
								}
							],
							"internalType": "struct Tracking.TypeShipment[]",
							"name": "",
							"type": "tuple[]"
						}
					],
					"stateMutability": "view",
					"type": "function"
				},
				{
					"inputs": [
						{
							"internalType": "address",
							"name": "_sender",
							"type": "address"
						},
						{
							"internalType": "uint256",
							"name": "_index",
							"type": "uint256"
						}
					],
					"name": "getShipment",
					"outputs": [
						{
							"internalType": "address",
							"name": "",
							"type": "address"
						},
						{
							"internalType": "address",
							"name": "",
							"type": "address"
						},
						{
							"internalType": "uint256",
							"name": "",
							"type": "uint256"
						},
						{
							"internalType": "uint256",
							"name": "",
							"type": "uint256"
						},
						{
							"internalType": "uint256",
							"name": "",
							"type": "uint256"
						},
						{
							"internalType": "uint256",
							"name": "",
							"type": "uint256"
						},
						{
							"internalType": "enum Tracking.ShipmentStatus",
							"name": "",
							"type": "uint8"
						},
						{
							"internalType": "bool",
							"name": "",
							"type": "bool"
						}
					],
					"stateMutability": "view",
					"type": "function"
				},
				{
					"inputs": [
						{
							"internalType": "address",
							"name": "_sender",
							"type": "address"
						}
					],
					"name": "getShipmentCount",
					"outputs": [
						{
							"internalType": "uint256",
							"name": "",
							"type": "uint256"
						}
					],
					"stateMutability": "view",
					"type": "function"
				},
				{
					"inputs": [],
					"name": "shipmentCount",
					"outputs": [
						{
							"internalType": "uint256",
							"name": "",
							"type": "uint256"
						}
					],
					"stateMutability": "view",
					"type": "function"
				},
				{
					"inputs": [
						{
							"internalType": "address",
							"name": "",
							"type": "address"
						},
						{
							"internalType": "uint256",
							"name": "",
							"type": "uint256"
						}
					],
					"name": "shipments",
					"outputs": [
						{
							"internalType": "address",
							"name": "sender",
							"type": "address"
						},
						{
							"internalType": "address",
							"name": "receiver",
							"type": "address"
						},
						{
							"internalType": "uint256",
							"name": "pickupTime",
							"type": "uint256"
						},
						{
							"internalType": "uint256",
							"name": "deliveryTime",
							"type": "uint256"
						},
						{
							"internalType": "uint256",
							"name": "distance",
							"type": "uint256"
						},
						{
							"internalType": "uint256",
							"name": "price",
							"type": "uint256"
						},
						{
							"internalType": "enum Tracking.ShipmentStatus",
							"name": "status",
							"type": "uint8"
						},
						{
							"internalType": "bool",
							"name": "isPaid",
							"type": "bool"
						}
					],
					"stateMutability": "view",
					"type": "function"
				},
				{
					"inputs": [
						{
							"internalType": "address",
							"name": "_sender",
							"type": "address"
						},
						{
							"internalType": "address",
							"name": "_receiver",
							"type": "address"
						},
						{
							"internalType": "uint256",
							"name": "_index",
							"type": "uint256"
						}
					],
					"name": "startShipment",
					"outputs": [],
					"stateMutability": "nonpayable",
					"type": "function"
				}
			],
			"devdoc": {
				"kind": "dev",
				"methods": {},
				"version": 1
			},
			"evm": {
				"assembly": "    /* \"contracts/Apps/Tracking.sol\":59:4656  contract Tracking {... */\n  mstore(0x40, 0x80)\n    /* \"contracts/Apps/Tracking.sol\":1323:1371  constructor() {... */\n  callvalue\n  dup1\n  iszero\n  tag_1\n  jumpi\n  0x00\n  dup1\n  revert\ntag_1:\n  pop\n    /* \"contracts/Apps/Tracking.sol\":1363:1364  0 */\n  0x00\n    /* \"contracts/Apps/Tracking.sol\":1347:1360  shipmentCount */\n  0x01\n    /* \"contracts/Apps/Tracking.sol\":1347:1364  shipmentCount = 0 */\n  dup2\n  swap1\n  sstore\n  pop\n    /* \"contracts/Apps/Tracking.sol\":59:4656  contract Tracking {... */\n  dataSize(sub_0)\n  dup1\n  dataOffset(sub_0)\n  0x00\n  codecopy\n  0x00\n  return\nstop\n\nsub_0: assembly {\n        /* \"contracts/Apps/Tracking.sol\":59:4656  contract Tracking {... */\n      mstore(0x40, 0x80)\n      jumpi(tag_1, lt(calldatasize, 0x04))\n      shr(0xe0, calldataload(0x00))\n      dup1\n      0x97caddfd\n      gt\n      tag_10\n      jumpi\n      dup1\n      0x97caddfd\n      eq\n      tag_6\n      jumpi\n      dup1\n      0xaace20b7\n      eq\n      tag_7\n      jumpi\n      dup1\n      0xb7dfd93d\n      eq\n      tag_8\n      jumpi\n      dup1\n      0xcbc4b181\n      eq\n      tag_9\n      jumpi\n      jump(tag_1)\n    tag_10:\n      dup1\n      0x27506f53\n      eq\n      tag_2\n      jumpi\n      dup1\n      0x5667e02f\n      eq\n      tag_3\n      jumpi\n      dup1\n      0x7ff5265d\n      eq\n      tag_4\n      jumpi\n      dup1\n      0x8365da54\n      eq\n      tag_5\n      jumpi\n    tag_1:\n      0x00\n      dup1\n      revert\n        /* \"contracts/Apps/Tracking.sol\":4539:4649  function getAllTransactions() public view returns(TypeShipment[] memory) {... */\n    tag_2:\n      callvalue\n      dup1\n      iszero\n      tag_11\n      jumpi\n      0x00\n      dup1\n      revert\n    tag_11:\n      pop\n      tag_12\n      tag_13\n      jump\t// in\n    tag_12:\n      mload(0x40)\n      tag_14\n      swap2\n      swap1\n      tag_15\n      jump\t// in\n    tag_14:\n      mload(0x40)\n      dup1\n      swap2\n      sub\n      swap1\n      return\n        /* \"contracts/Apps/Tracking.sol\":435:482  mapping(address => Shipment[]) public shipments */\n    tag_3:\n      callvalue\n      dup1\n      iszero\n      tag_16\n      jumpi\n      0x00\n      dup1\n      revert\n    tag_16:\n      pop\n      tag_17\n      0x04\n      dup1\n      calldatasize\n      sub\n      dup2\n      add\n      swap1\n      tag_18\n      swap2\n      swap1\n      tag_19\n      jump\t// in\n    tag_18:\n      tag_20\n      jump\t// in\n    tag_17:\n      mload(0x40)\n      tag_21\n      swap9\n      swap8\n      swap7\n      swap6\n      swap5\n      swap4\n      swap3\n      swap2\n      swap1\n      tag_22\n      jump\t// in\n    tag_21:\n      mload(0x40)\n      dup1\n      swap2\n      sub\n      swap1\n      return\n        /* \"contracts/Apps/Tracking.sol\":2271:2865  function startShipment(address _sender, address _receiver, uint256 _index) public{... */\n    tag_4:\n      callvalue\n      dup1\n      iszero\n      tag_23\n      jumpi\n      0x00\n      dup1\n      revert\n    tag_23:\n      pop\n      tag_24\n      0x04\n      dup1\n      calldatasize\n      sub\n      dup2\n      add\n      swap1\n      tag_25\n      swap2\n      swap1\n      tag_26\n      jump\t// in\n    tag_25:\n      tag_27\n      jump\t// in\n    tag_24:\n      stop\n        /* \"contracts/Apps/Tracking.sol\":3876:4399  function getShipment  (address _sender, uint256 _index) public view returns ( ... */\n    tag_5:\n      callvalue\n      dup1\n      iszero\n      tag_28\n      jumpi\n      0x00\n      dup1\n      revert\n    tag_28:\n      pop\n      tag_29\n      0x04\n      dup1\n      calldatasize\n      sub\n      dup2\n      add\n      swap1\n      tag_30\n      swap2\n      swap1\n      tag_19\n      jump\t// in\n    tag_30:\n      tag_31\n      jump\t// in\n    tag_29:\n      mload(0x40)\n      tag_32\n      swap9\n      swap8\n      swap7\n      swap6\n      swap5\n      swap4\n      swap3\n      swap2\n      swap1\n      tag_22\n      jump\t// in\n    tag_32:\n      mload(0x40)\n      dup1\n      swap2\n      sub\n      swap1\n      return\n        /* \"contracts/Apps/Tracking.sol\":2872:3870  function completShipment (address _sender, address _receiver, uint256 _index) public {... */\n    tag_6:\n      callvalue\n      dup1\n      iszero\n      tag_33\n      jumpi\n      0x00\n      dup1\n      revert\n    tag_33:\n      pop\n      tag_34\n      0x04\n      dup1\n      calldatasize\n      sub\n      dup2\n      add\n      swap1\n      tag_35\n      swap2\n      swap1\n      tag_26\n      jump\t// in\n    tag_35:\n      tag_36\n      jump\t// in\n    tag_34:\n      stop\n        /* \"contracts/Apps/Tracking.sol\":490:518  uint256 public shipmentCount */\n    tag_7:\n      callvalue\n      dup1\n      iszero\n      tag_37\n      jumpi\n      0x00\n      dup1\n      revert\n    tag_37:\n      pop\n      tag_38\n      tag_39\n      jump\t// in\n    tag_38:\n      mload(0x40)\n      tag_40\n      swap2\n      swap1\n      tag_41\n      jump\t// in\n    tag_40:\n      mload(0x40)\n      dup1\n      swap2\n      sub\n      swap1\n      return\n        /* \"contracts/Apps/Tracking.sol\":4410:4531  function getShipmentCount(address _sender) public view returns (uint256){... */\n    tag_8:\n      callvalue\n      dup1\n      iszero\n      tag_42\n      jumpi\n      0x00\n      dup1\n      revert\n    tag_42:\n      pop\n      tag_43\n      0x04\n      dup1\n      calldatasize\n      sub\n      dup2\n      add\n      swap1\n      tag_44\n      swap2\n      swap1\n      tag_45\n      jump\t// in\n    tag_44:\n      tag_46\n      jump\t// in\n    tag_43:\n      mload(0x40)\n      tag_47\n      swap2\n      swap1\n      tag_41\n      jump\t// in\n    tag_47:\n      mload(0x40)\n      dup1\n      swap2\n      sub\n      swap1\n      return\n        /* \"contracts/Apps/Tracking.sol\":1410:2264  function createShipment (address _receiver, uint256 _pickupTime, uint256 _distance, uint256 _price)  public payable {... */\n    tag_9:\n      tag_48\n      0x04\n      dup1\n      calldatasize\n      sub\n      dup2\n      add\n      swap1\n      tag_49\n      swap2\n      swap1\n      tag_50\n      jump\t// in\n    tag_49:\n      tag_51\n      jump\t// in\n    tag_48:\n      stop\n        /* \"contracts/Apps/Tracking.sol\":4539:4649  function getAllTransactions() public view returns(TypeShipment[] memory) {... */\n    tag_13:\n        /* \"contracts/Apps/Tracking.sol\":4589:4610  TypeShipment[] memory */\n      0x60\n        /* \"contracts/Apps/Tracking.sol\":4629:4642  typeShipments */\n      0x02\n        /* \"contracts/Apps/Tracking.sol\":4622:4642  return typeShipments */\n      dup1\n      sload\n      dup1\n      0x20\n      mul\n      0x20\n      add\n      mload(0x40)\n      swap1\n      dup2\n      add\n      0x40\n      mstore\n      dup1\n      swap3\n      swap2\n      swap1\n      dup2\n      dup2\n      mstore\n      0x20\n      add\n      0x00\n      swap1\n    tag_53:\n      dup3\n      dup3\n      lt\n      iszero\n      tag_54\n      jumpi\n      dup4\n      dup3\n      swap1\n      0x00\n      mstore\n      keccak256(0x00, 0x20)\n      swap1\n      0x07\n      mul\n      add\n      mload(0x40)\n      dup1\n      0x0100\n      add\n      0x40\n      mstore\n      swap1\n      dup2\n      0x00\n      dup3\n      add\n      0x00\n      swap1\n      sload\n      swap1\n      0x0100\n      exp\n      swap1\n      div\n      0xffffffffffffffffffffffffffffffffffffffff\n      and\n      0xffffffffffffffffffffffffffffffffffffffff\n      and\n      0xffffffffffffffffffffffffffffffffffffffff\n      and\n      dup2\n      mstore\n      0x20\n      add\n      0x01\n      dup3\n      add\n      0x00\n      swap1\n      sload\n      swap1\n      0x0100\n      exp\n      swap1\n      div\n      0xffffffffffffffffffffffffffffffffffffffff\n      and\n      0xffffffffffffffffffffffffffffffffffffffff\n      and\n      0xffffffffffffffffffffffffffffffffffffffff\n      and\n      dup2\n      mstore\n      0x20\n      add\n      0x02\n      dup3\n      add\n      sload\n      dup2\n      mstore\n      0x20\n      add\n      0x03\n      dup3\n      add\n      sload\n      dup2\n      mstore\n      0x20\n      add\n      0x04\n      dup3\n      add\n      sload\n      dup2\n      mstore\n      0x20\n      add\n      0x05\n      dup3\n      add\n      sload\n      dup2\n      mstore\n      0x20\n      add\n      0x06\n      dup3\n      add\n      0x00\n      swap1\n      sload\n      swap1\n      0x0100\n      exp\n      swap1\n      div\n      0xff\n      and\n      0x02\n      dup2\n      gt\n      iszero\n      tag_56\n      jumpi\n      tag_57\n      tag_58\n      jump\t// in\n    tag_57:\n    tag_56:\n      0x02\n      dup2\n      gt\n      iszero\n      tag_59\n      jumpi\n      tag_60\n      tag_58\n      jump\t// in\n    tag_60:\n    tag_59:\n      dup2\n      mstore\n      0x20\n      add\n      0x06\n      dup3\n      add\n      0x01\n      swap1\n      sload\n      swap1\n      0x0100\n      exp\n      swap1\n      div\n      0xff\n      and\n      iszero\n      iszero\n      iszero\n      iszero\n      dup2\n      mstore\n      pop\n      pop\n      dup2\n      mstore\n      0x20\n      add\n      swap1\n      0x01\n      add\n      swap1\n      jump(tag_53)\n    tag_54:\n      pop\n      pop\n      pop\n      pop\n      swap1\n      pop\n        /* \"contracts/Apps/Tracking.sol\":4539:4649  function getAllTransactions() public view returns(TypeShipment[] memory) {... */\n      swap1\n      jump\t// out\n        /* \"contracts/Apps/Tracking.sol\":435:482  mapping(address => Shipment[]) public shipments */\n    tag_20:\n      mstore(0x20, 0x00)\n      dup2\n      0x00\n      mstore\n      keccak256(0x00, 0x40)\n      dup2\n      dup2\n      sload\n      dup2\n      lt\n      tag_61\n      jumpi\n      0x00\n      dup1\n      revert\n    tag_61:\n      swap1\n      0x00\n      mstore\n      keccak256(0x00, 0x20)\n      swap1\n      0x07\n      mul\n      add\n      0x00\n      swap2\n      pop\n      swap2\n      pop\n      pop\n      dup1\n      0x00\n      add\n      0x00\n      swap1\n      sload\n      swap1\n      0x0100\n      exp\n      swap1\n      div\n      0xffffffffffffffffffffffffffffffffffffffff\n      and\n      swap1\n      dup1\n      0x01\n      add\n      0x00\n      swap1\n      sload\n      swap1\n      0x0100\n      exp\n      swap1\n      div\n      0xffffffffffffffffffffffffffffffffffffffff\n      and\n      swap1\n      dup1\n      0x02\n      add\n      sload\n      swap1\n      dup1\n      0x03\n      add\n      sload\n      swap1\n      dup1\n      0x04\n      add\n      sload\n      swap1\n      dup1\n      0x05\n      add\n      sload\n      swap1\n      dup1\n      0x06\n      add\n      0x00\n      swap1\n      sload\n      swap1\n      0x0100\n      exp\n      swap1\n      div\n      0xff\n      and\n      swap1\n      dup1\n      0x06\n      add\n      0x01\n      swap1\n      sload\n      swap1\n      0x0100\n      exp\n      swap1\n      div\n      0xff\n      and\n      swap1\n      pop\n      dup9\n      jump\t// out\n        /* \"contracts/Apps/Tracking.sol\":2271:2865  function startShipment(address _sender, address _receiver, uint256 _index) public{... */\n    tag_27:\n        /* \"contracts/Apps/Tracking.sol\":2387:2412  Shipment storage shipment */\n      0x00\n        /* \"contracts/Apps/Tracking.sol\":2415:2424  shipments */\n      dup1\n        /* \"contracts/Apps/Tracking.sol\":2415:2433  shipments[_sender] */\n      0x00\n        /* \"contracts/Apps/Tracking.sol\":2425:2432  _sender */\n      dup6\n        /* \"contracts/Apps/Tracking.sol\":2415:2433  shipments[_sender] */\n      0xffffffffffffffffffffffffffffffffffffffff\n      and\n      0xffffffffffffffffffffffffffffffffffffffff\n      and\n      dup2\n      mstore\n      0x20\n      add\n      swap1\n      dup2\n      mstore\n      0x20\n      add\n      0x00\n      keccak256\n        /* \"contracts/Apps/Tracking.sol\":2434:2440  _index */\n      dup3\n        /* \"contracts/Apps/Tracking.sol\":2415:2441  shipments[_sender][_index] */\n      dup2\n      sload\n      dup2\n      lt\n      tag_64\n      jumpi\n      tag_65\n      tag_66\n      jump\t// in\n    tag_65:\n    tag_64:\n      swap1\n      0x00\n      mstore\n      keccak256(0x00, 0x20)\n      swap1\n      0x07\n      mul\n      add\n        /* \"contracts/Apps/Tracking.sol\":2387:2441  Shipment storage shipment = shipments[_sender][_index] */\n      swap1\n      pop\n        /* \"contracts/Apps/Tracking.sol\":2451:2484  TypeShipment storage typeShipment */\n      0x00\n        /* \"contracts/Apps/Tracking.sol\":2488:2501  typeShipments */\n      0x02\n        /* \"contracts/Apps/Tracking.sol\":2502:2508  _index */\n      dup4\n        /* \"contracts/Apps/Tracking.sol\":2488:2509  typeShipments[_index] */\n      dup2\n      sload\n      dup2\n      lt\n      tag_68\n      jumpi\n      tag_69\n      tag_66\n      jump\t// in\n    tag_69:\n    tag_68:\n      swap1\n      0x00\n      mstore\n      keccak256(0x00, 0x20)\n      swap1\n      0x07\n      mul\n      add\n        /* \"contracts/Apps/Tracking.sol\":2451:2509  TypeShipment storage typeShipment  = typeShipments[_index] */\n      swap1\n      pop\n        /* \"contracts/Apps/Tracking.sol\":2549:2558  _receiver */\n      dup4\n        /* \"contracts/Apps/Tracking.sol\":2528:2558  shipment.receiver == _receiver */\n      0xffffffffffffffffffffffffffffffffffffffff\n      and\n        /* \"contracts/Apps/Tracking.sol\":2528:2536  shipment */\n      dup3\n        /* \"contracts/Apps/Tracking.sol\":2528:2545  shipment.receiver */\n      0x01\n      add\n      0x00\n      swap1\n      sload\n      swap1\n      0x0100\n      exp\n      swap1\n      div\n      0xffffffffffffffffffffffffffffffffffffffff\n      and\n        /* \"contracts/Apps/Tracking.sol\":2528:2558  shipment.receiver == _receiver */\n      0xffffffffffffffffffffffffffffffffffffffff\n      and\n      eq\n        /* \"contracts/Apps/Tracking.sol\":2520:2579  require(shipment.receiver == _receiver, \"Invalid receiver\") */\n      tag_71\n      jumpi\n      mload(0x40)\n      0x08c379a000000000000000000000000000000000000000000000000000000000\n      dup2\n      mstore\n      0x04\n      add\n      tag_72\n      swap1\n      tag_73\n      jump\t// in\n    tag_72:\n      mload(0x40)\n      dup1\n      swap2\n      sub\n      swap1\n      revert\n    tag_71:\n        /* \"contracts/Apps/Tracking.sol\":2616:2638  ShipmentStatus.PENDING */\n      0x00\n        /* \"contracts/Apps/Tracking.sol\":2597:2638  shipment.status == ShipmentStatus.PENDING */\n      0x02\n      dup2\n      gt\n      iszero\n      tag_74\n      jumpi\n      tag_75\n      tag_58\n      jump\t// in\n    tag_75:\n    tag_74:\n        /* \"contracts/Apps/Tracking.sol\":2597:2605  shipment */\n      dup3\n        /* \"contracts/Apps/Tracking.sol\":2597:2612  shipment.status */\n      0x06\n      add\n      0x00\n      swap1\n      sload\n      swap1\n      0x0100\n      exp\n      swap1\n      div\n      0xff\n      and\n        /* \"contracts/Apps/Tracking.sol\":2597:2638  shipment.status == ShipmentStatus.PENDING */\n      0x02\n      dup2\n      gt\n      iszero\n      tag_76\n      jumpi\n      tag_77\n      tag_58\n      jump\t// in\n    tag_77:\n    tag_76:\n      eq\n        /* \"contracts/Apps/Tracking.sol\":2589:2670  require(shipment.status == ShipmentStatus.PENDING, \"Shipment already in transit\") */\n      tag_78\n      jumpi\n      mload(0x40)\n      0x08c379a000000000000000000000000000000000000000000000000000000000\n      dup2\n      mstore\n      0x04\n      add\n      tag_79\n      swap1\n      tag_80\n      jump\t// in\n    tag_79:\n      mload(0x40)\n      dup1\n      swap2\n      sub\n      swap1\n      revert\n    tag_78:\n        /* \"contracts/Apps/Tracking.sol\":2701:2726  ShipmentStatus.IN_TRANSIT */\n      0x01\n        /* \"contracts/Apps/Tracking.sol\":2682:2690  shipment */\n      dup3\n        /* \"contracts/Apps/Tracking.sol\":2682:2697  shipment.status */\n      0x06\n      add\n      0x00\n        /* \"contracts/Apps/Tracking.sol\":2682:2726  shipment.status  = ShipmentStatus.IN_TRANSIT */\n      0x0100\n      exp\n      dup2\n      sload\n      dup2\n      0xff\n      mul\n      not\n      and\n      swap1\n      dup4\n      0x02\n      dup2\n      gt\n      iszero\n      tag_81\n      jumpi\n      tag_82\n      tag_58\n      jump\t// in\n    tag_82:\n    tag_81:\n      mul\n      or\n      swap1\n      sstore\n      pop\n        /* \"contracts/Apps/Tracking.sol\":2758:2783  ShipmentStatus.IN_TRANSIT */\n      0x01\n        /* \"contracts/Apps/Tracking.sol\":2736:2748  typeShipment */\n      dup2\n        /* \"contracts/Apps/Tracking.sol\":2736:2755  typeShipment.status */\n      0x06\n      add\n      0x00\n        /* \"contracts/Apps/Tracking.sol\":2736:2783  typeShipment.status = ShipmentStatus.IN_TRANSIT */\n      0x0100\n      exp\n      dup2\n      sload\n      dup2\n      0xff\n      mul\n      not\n      and\n      swap1\n      dup4\n      0x02\n      dup2\n      gt\n      iszero\n      tag_83\n      jumpi\n      tag_84\n      tag_58\n      jump\t// in\n    tag_84:\n    tag_83:\n      mul\n      or\n      swap1\n      sstore\n      pop\n        /* \"contracts/Apps/Tracking.sol\":2826:2835  _receiver */\n      dup4\n        /* \"contracts/Apps/Tracking.sol\":2799:2857  ShipmentInTransit(_sender, _receiver, shipment.pickupTime) */\n      0xffffffffffffffffffffffffffffffffffffffff\n      and\n        /* \"contracts/Apps/Tracking.sol\":2817:2824  _sender */\n      dup6\n        /* \"contracts/Apps/Tracking.sol\":2799:2857  ShipmentInTransit(_sender, _receiver, shipment.pickupTime) */\n      0xffffffffffffffffffffffffffffffffffffffff\n      and\n      0xaafab9f94340179ff9cefd29621e1772a4b8efab8023163838f1b0a8f6ce5df5\n        /* \"contracts/Apps/Tracking.sol\":2837:2845  shipment */\n      dup5\n        /* \"contracts/Apps/Tracking.sol\":2837:2856  shipment.pickupTime */\n      0x02\n      add\n      sload\n        /* \"contracts/Apps/Tracking.sol\":2799:2857  ShipmentInTransit(_sender, _receiver, shipment.pickupTime) */\n      mload(0x40)\n      tag_85\n      swap2\n      swap1\n      tag_41\n      jump\t// in\n    tag_85:\n      mload(0x40)\n      dup1\n      swap2\n      sub\n      swap1\n      log3\n        /* \"contracts/Apps/Tracking.sol\":2352:2865  {... */\n      pop\n      pop\n        /* \"contracts/Apps/Tracking.sol\":2271:2865  function startShipment(address _sender, address _receiver, uint256 _index) public{... */\n      pop\n      pop\n      pop\n      jump\t// out\n        /* \"contracts/Apps/Tracking.sol\":3876:4399  function getShipment  (address _sender, uint256 _index) public view returns ( ... */\n    tag_31:\n        /* \"contracts/Apps/Tracking.sol\":3963:3970  address */\n      0x00\n        /* \"contracts/Apps/Tracking.sol\":3972:3979  address */\n      dup1\n        /* \"contracts/Apps/Tracking.sol\":3981:3988  uint256 */\n      0x00\n        /* \"contracts/Apps/Tracking.sol\":3990:3997  uint256 */\n      dup1\n        /* \"contracts/Apps/Tracking.sol\":3999:4006  uint256 */\n      0x00\n        /* \"contracts/Apps/Tracking.sol\":4007:4014  uint256 */\n      dup1\n        /* \"contracts/Apps/Tracking.sol\":4016:4030  ShipmentStatus */\n      0x00\n        /* \"contracts/Apps/Tracking.sol\":4032:4036  bool */\n      dup1\n        /* \"contracts/Apps/Tracking.sol\":4049:4073  Shipment memory shipment */\n      0x00\n        /* \"contracts/Apps/Tracking.sol\":4076:4085  shipments */\n      dup1\n        /* \"contracts/Apps/Tracking.sol\":4076:4094  shipments[_sender] */\n      0x00\n        /* \"contracts/Apps/Tracking.sol\":4086:4093  _sender */\n      dup13\n        /* \"contracts/Apps/Tracking.sol\":4076:4094  shipments[_sender] */\n      0xffffffffffffffffffffffffffffffffffffffff\n      and\n      0xffffffffffffffffffffffffffffffffffffffff\n      and\n      dup2\n      mstore\n      0x20\n      add\n      swap1\n      dup2\n      mstore\n      0x20\n      add\n      0x00\n      keccak256\n        /* \"contracts/Apps/Tracking.sol\":4095:4101  _index */\n      dup11\n        /* \"contracts/Apps/Tracking.sol\":4076:4102  shipments[_sender][_index] */\n      dup2\n      sload\n      dup2\n      lt\n      tag_87\n      jumpi\n      tag_88\n      tag_66\n      jump\t// in\n    tag_88:\n    tag_87:\n      swap1\n      0x00\n      mstore\n      keccak256(0x00, 0x20)\n      swap1\n      0x07\n      mul\n      add\n        /* \"contracts/Apps/Tracking.sol\":4049:4102  Shipment memory shipment = shipments[_sender][_index] */\n      mload(0x40)\n      dup1\n      0x0100\n      add\n      0x40\n      mstore\n      swap1\n      dup2\n      0x00\n      dup3\n      add\n      0x00\n      swap1\n      sload\n      swap1\n      0x0100\n      exp\n      swap1\n      div\n      0xffffffffffffffffffffffffffffffffffffffff\n      and\n      0xffffffffffffffffffffffffffffffffffffffff\n      and\n      0xffffffffffffffffffffffffffffffffffffffff\n      and\n      dup2\n      mstore\n      0x20\n      add\n      0x01\n      dup3\n      add\n      0x00\n      swap1\n      sload\n      swap1\n      0x0100\n      exp\n      swap1\n      div\n      0xffffffffffffffffffffffffffffffffffffffff\n      and\n      0xffffffffffffffffffffffffffffffffffffffff\n      and\n      0xffffffffffffffffffffffffffffffffffffffff\n      and\n      dup2\n      mstore\n      0x20\n      add\n      0x02\n      dup3\n      add\n      sload\n      dup2\n      mstore\n      0x20\n      add\n      0x03\n      dup3\n      add\n      sload\n      dup2\n      mstore\n      0x20\n      add\n      0x04\n      dup3\n      add\n      sload\n      dup2\n      mstore\n      0x20\n      add\n      0x05\n      dup3\n      add\n      sload\n      dup2\n      mstore\n      0x20\n      add\n      0x06\n      dup3\n      add\n      0x00\n      swap1\n      sload\n      swap1\n      0x0100\n      exp\n      swap1\n      div\n      0xff\n      and\n      0x02\n      dup2\n      gt\n      iszero\n      tag_90\n      jumpi\n      tag_91\n      tag_58\n      jump\t// in\n    tag_91:\n    tag_90:\n      0x02\n      dup2\n      gt\n      iszero\n      tag_92\n      jumpi\n      tag_93\n      tag_58\n      jump\t// in\n    tag_93:\n    tag_92:\n      dup2\n      mstore\n      0x20\n      add\n      0x06\n      dup3\n      add\n      0x01\n      swap1\n      sload\n      swap1\n      0x0100\n      exp\n      swap1\n      div\n      0xff\n      and\n      iszero\n      iszero\n      iszero\n      iszero\n      dup2\n      mstore\n      pop\n      pop\n      swap1\n      pop\n        /* \"contracts/Apps/Tracking.sol\":4133:4141  shipment */\n      dup1\n        /* \"contracts/Apps/Tracking.sol\":4133:4148  shipment.sender */\n      0x00\n      add\n      mload\n        /* \"contracts/Apps/Tracking.sol\":4163:4171  shipment */\n      dup2\n        /* \"contracts/Apps/Tracking.sol\":4163:4180  shipment.receiver */\n      0x20\n      add\n      mload\n        /* \"contracts/Apps/Tracking.sol\":4194:4202  shipment */\n      dup3\n        /* \"contracts/Apps/Tracking.sol\":4194:4208  shipment.price */\n      0xa0\n      add\n      mload\n        /* \"contracts/Apps/Tracking.sol\":4222:4230  shipment */\n      dup4\n        /* \"contracts/Apps/Tracking.sol\":4222:4241  shipment.pickupTime */\n      0x40\n      add\n      mload\n        /* \"contracts/Apps/Tracking.sol\":4255:4263  shipment */\n      dup5\n        /* \"contracts/Apps/Tracking.sol\":4255:4276  shipment.deliveryTime */\n      0x60\n      add\n      mload\n        /* \"contracts/Apps/Tracking.sol\":4290:4298  shipment */\n      dup6\n        /* \"contracts/Apps/Tracking.sol\":4290:4307  shipment.distance */\n      0x80\n      add\n      mload\n        /* \"contracts/Apps/Tracking.sol\":4321:4329  shipment */\n      dup7\n        /* \"contracts/Apps/Tracking.sol\":4321:4336  shipment.status */\n      0xc0\n      add\n      mload\n        /* \"contracts/Apps/Tracking.sol\":4350:4358  shipment */\n      dup8\n        /* \"contracts/Apps/Tracking.sol\":4350:4365  shipment.isPaid */\n      0xe0\n      add\n      mload\n        /* \"contracts/Apps/Tracking.sol\":4113:4391  return(... */\n      swap9\n      pop\n      swap9\n      pop\n      swap9\n      pop\n      swap9\n      pop\n      swap9\n      pop\n      swap9\n      pop\n      swap9\n      pop\n      swap9\n      pop\n      pop\n        /* \"contracts/Apps/Tracking.sol\":3876:4399  function getShipment  (address _sender, uint256 _index) public view returns ( ... */\n      swap3\n      swap6\n      swap9\n      pop\n      swap3\n      swap6\n      swap9\n      swap1\n      swap4\n      swap7\n      pop\n      jump\t// out\n        /* \"contracts/Apps/Tracking.sol\":2872:3870  function completShipment (address _sender, address _receiver, uint256 _index) public {... */\n    tag_36:\n        /* \"contracts/Apps/Tracking.sol\":2993:3018  Shipment storage shipment */\n      0x00\n        /* \"contracts/Apps/Tracking.sol\":3021:3030  shipments */\n      dup1\n        /* \"contracts/Apps/Tracking.sol\":3021:3039  shipments[_sender] */\n      0x00\n        /* \"contracts/Apps/Tracking.sol\":3031:3038  _sender */\n      dup6\n        /* \"contracts/Apps/Tracking.sol\":3021:3039  shipments[_sender] */\n      0xffffffffffffffffffffffffffffffffffffffff\n      and\n      0xffffffffffffffffffffffffffffffffffffffff\n      and\n      dup2\n      mstore\n      0x20\n      add\n      swap1\n      dup2\n      mstore\n      0x20\n      add\n      0x00\n      keccak256\n        /* \"contracts/Apps/Tracking.sol\":3041:3047  _index */\n      dup3\n        /* \"contracts/Apps/Tracking.sol\":3021:3048  shipments[_sender] [_index] */\n      dup2\n      sload\n      dup2\n      lt\n      tag_95\n      jumpi\n      tag_96\n      tag_66\n      jump\t// in\n    tag_96:\n    tag_95:\n      swap1\n      0x00\n      mstore\n      keccak256(0x00, 0x20)\n      swap1\n      0x07\n      mul\n      add\n        /* \"contracts/Apps/Tracking.sol\":2993:3048  Shipment storage shipment = shipments[_sender] [_index] */\n      swap1\n      pop\n        /* \"contracts/Apps/Tracking.sol\":3058:3091  TypeShipment storage typeShipment */\n      0x00\n        /* \"contracts/Apps/Tracking.sol\":3095:3108  typeShipments */\n      0x02\n        /* \"contracts/Apps/Tracking.sol\":3109:3115  _index */\n      dup4\n        /* \"contracts/Apps/Tracking.sol\":3095:3116  typeShipments[_index] */\n      dup2\n      sload\n      dup2\n      lt\n      tag_98\n      jumpi\n      tag_99\n      tag_66\n      jump\t// in\n    tag_99:\n    tag_98:\n      swap1\n      0x00\n      mstore\n      keccak256(0x00, 0x20)\n      swap1\n      0x07\n      mul\n      add\n        /* \"contracts/Apps/Tracking.sol\":3058:3116  TypeShipment storage typeShipment  = typeShipments[_index] */\n      swap1\n      pop\n        /* \"contracts/Apps/Tracking.sol\":3156:3165  _receiver */\n      dup4\n        /* \"contracts/Apps/Tracking.sol\":3135:3165  shipment.receiver == _receiver */\n      0xffffffffffffffffffffffffffffffffffffffff\n      and\n        /* \"contracts/Apps/Tracking.sol\":3135:3143  shipment */\n      dup3\n        /* \"contracts/Apps/Tracking.sol\":3135:3152  shipment.receiver */\n      0x01\n      add\n      0x00\n      swap1\n      sload\n      swap1\n      0x0100\n      exp\n      swap1\n      div\n      0xffffffffffffffffffffffffffffffffffffffff\n      and\n        /* \"contracts/Apps/Tracking.sol\":3135:3165  shipment.receiver == _receiver */\n      0xffffffffffffffffffffffffffffffffffffffff\n      and\n      eq\n        /* \"contracts/Apps/Tracking.sol\":3127:3186  require(shipment.receiver == _receiver, \"Invalid receiver\") */\n      tag_101\n      jumpi\n      mload(0x40)\n      0x08c379a000000000000000000000000000000000000000000000000000000000\n      dup2\n      mstore\n      0x04\n      add\n      tag_102\n      swap1\n      tag_73\n      jump\t// in\n    tag_102:\n      mload(0x40)\n      dup1\n      swap2\n      sub\n      swap1\n      revert\n    tag_101:\n        /* \"contracts/Apps/Tracking.sol\":3223:3248  ShipmentStatus.IN_TRANSIT */\n      0x01\n        /* \"contracts/Apps/Tracking.sol\":3204:3248  shipment.status == ShipmentStatus.IN_TRANSIT */\n      0x02\n      dup2\n      gt\n      iszero\n      tag_103\n      jumpi\n      tag_104\n      tag_58\n      jump\t// in\n    tag_104:\n    tag_103:\n        /* \"contracts/Apps/Tracking.sol\":3204:3212  shipment */\n      dup3\n        /* \"contracts/Apps/Tracking.sol\":3204:3219  shipment.status */\n      0x06\n      add\n      0x00\n      swap1\n      sload\n      swap1\n      0x0100\n      exp\n      swap1\n      div\n      0xff\n      and\n        /* \"contracts/Apps/Tracking.sol\":3204:3248  shipment.status == ShipmentStatus.IN_TRANSIT */\n      0x02\n      dup2\n      gt\n      iszero\n      tag_105\n      jumpi\n      tag_106\n      tag_58\n      jump\t// in\n    tag_106:\n    tag_105:\n      eq\n        /* \"contracts/Apps/Tracking.sol\":3196:3276  require(shipment.status == ShipmentStatus.IN_TRANSIT, \"Shipment Not in transit\") */\n      tag_107\n      jumpi\n      mload(0x40)\n      0x08c379a000000000000000000000000000000000000000000000000000000000\n      dup2\n      mstore\n      0x04\n      add\n      tag_108\n      swap1\n      tag_109\n      jump\t// in\n    tag_108:\n      mload(0x40)\n      dup1\n      swap2\n      sub\n      swap1\n      revert\n    tag_107:\n        /* \"contracts/Apps/Tracking.sol\":3296:3304  shipment */\n      dup2\n        /* \"contracts/Apps/Tracking.sol\":3296:3311  shipment.isPaid */\n      0x06\n      add\n      0x01\n      swap1\n      sload\n      swap1\n      0x0100\n      exp\n      swap1\n      div\n      0xff\n      and\n        /* \"contracts/Apps/Tracking.sol\":3295:3311  !shipment.isPaid */\n      iszero\n        /* \"contracts/Apps/Tracking.sol\":3287:3338  require(!shipment.isPaid, \"Shipment already Paid \") */\n      tag_110\n      jumpi\n      mload(0x40)\n      0x08c379a000000000000000000000000000000000000000000000000000000000\n      dup2\n      mstore\n      0x04\n      add\n      tag_111\n      swap1\n      tag_112\n      jump\t// in\n    tag_111:\n      mload(0x40)\n      dup1\n      swap2\n      sub\n      swap1\n      revert\n    tag_110:\n        /* \"contracts/Apps/Tracking.sol\":3368:3392  ShipmentStatus.DELIVERED */\n      0x02\n        /* \"contracts/Apps/Tracking.sol\":3349:3357  shipment */\n      dup3\n        /* \"contracts/Apps/Tracking.sol\":3349:3364  shipment.status */\n      0x06\n      add\n      0x00\n        /* \"contracts/Apps/Tracking.sol\":3349:3392  shipment.status  = ShipmentStatus.DELIVERED */\n      0x0100\n      exp\n      dup2\n      sload\n      dup2\n      0xff\n      mul\n      not\n      and\n      swap1\n      dup4\n      0x02\n      dup2\n      gt\n      iszero\n      tag_113\n      jumpi\n      tag_114\n      tag_58\n      jump\t// in\n    tag_114:\n    tag_113:\n      mul\n      or\n      swap1\n      sstore\n      pop\n        /* \"contracts/Apps/Tracking.sol\":3424:3448  ShipmentStatus.DELIVERED */\n      0x02\n        /* \"contracts/Apps/Tracking.sol\":3402:3414  typeShipment */\n      dup2\n        /* \"contracts/Apps/Tracking.sol\":3402:3421  typeShipment.status */\n      0x06\n      add\n      0x00\n        /* \"contracts/Apps/Tracking.sol\":3402:3448  typeShipment.status = ShipmentStatus.DELIVERED */\n      0x0100\n      exp\n      dup2\n      sload\n      dup2\n      0xff\n      mul\n      not\n      and\n      swap1\n      dup4\n      0x02\n      dup2\n      gt\n      iszero\n      tag_115\n      jumpi\n      tag_116\n      tag_58\n      jump\t// in\n    tag_116:\n    tag_115:\n      mul\n      or\n      swap1\n      sstore\n      pop\n        /* \"contracts/Apps/Tracking.sol\":3486:3501  block.timestamp */\n      timestamp\n        /* \"contracts/Apps/Tracking.sol\":3458:3470  typeShipment */\n      dup2\n        /* \"contracts/Apps/Tracking.sol\":3458:3483  typeShipment.deliveryTime */\n      0x03\n      add\n        /* \"contracts/Apps/Tracking.sol\":3458:3501  typeShipment.deliveryTime = block.timestamp */\n      dup2\n      swap1\n      sstore\n      pop\n        /* \"contracts/Apps/Tracking.sol\":3535:3550  block.timestamp */\n      timestamp\n        /* \"contracts/Apps/Tracking.sol\":3511:3519  shipment */\n      dup3\n        /* \"contracts/Apps/Tracking.sol\":3511:3532  shipment.deliveryTime */\n      0x03\n      add\n        /* \"contracts/Apps/Tracking.sol\":3511:3550  shipment.deliveryTime = block.timestamp */\n      dup2\n      swap1\n      sstore\n      pop\n        /* \"contracts/Apps/Tracking.sol\":3569:3583  uint256 amount */\n      0x00\n        /* \"contracts/Apps/Tracking.sol\":3586:3594  shipment */\n      dup3\n        /* \"contracts/Apps/Tracking.sol\":3586:3600  shipment.price */\n      0x05\n      add\n      sload\n        /* \"contracts/Apps/Tracking.sol\":3569:3600  uint256 amount = shipment.price */\n      swap1\n      pop\n        /* \"contracts/Apps/Tracking.sol\":3618:3626  shipment */\n      dup3\n        /* \"contracts/Apps/Tracking.sol\":3618:3633  shipment.sender */\n      0x00\n      add\n      0x00\n      swap1\n      sload\n      swap1\n      0x0100\n      exp\n      swap1\n      div\n      0xffffffffffffffffffffffffffffffffffffffff\n      and\n        /* \"contracts/Apps/Tracking.sol\":3610:3644  payable(shipment.sender). transfer */\n      0xffffffffffffffffffffffffffffffffffffffff\n      and\n        /* \"contracts/Apps/Tracking.sol\":3610:3652  payable(shipment.sender). transfer(amount) */\n      0x08fc\n        /* \"contracts/Apps/Tracking.sol\":3645:3651  amount */\n      dup3\n        /* \"contracts/Apps/Tracking.sol\":3610:3652  payable(shipment.sender). transfer(amount) */\n      swap1\n      dup2\n      iszero\n      mul\n      swap1\n      mload(0x40)\n      0x00\n      mload(0x40)\n      dup1\n      dup4\n      sub\n      dup2\n      dup6\n      dup9\n      dup9\n      call\n      swap4\n      pop\n      pop\n      pop\n      pop\n      iszero\n      dup1\n      iszero\n      tag_118\n      jumpi\n      returndatasize\n      0x00\n      dup1\n      returndatacopy\n      revert(0x00, returndatasize)\n    tag_118:\n      pop\n        /* \"contracts/Apps/Tracking.sol\":3681:3685  true */\n      0x01\n        /* \"contracts/Apps/Tracking.sol\":3663:3671  shipment */\n      dup4\n        /* \"contracts/Apps/Tracking.sol\":3663:3678  shipment.isPaid */\n      0x06\n      add\n      0x01\n        /* \"contracts/Apps/Tracking.sol\":3663:3685  shipment.isPaid = true */\n      0x0100\n      exp\n      dup2\n      sload\n      dup2\n      0xff\n      mul\n      not\n      and\n      swap1\n      dup4\n      iszero\n      iszero\n      mul\n      or\n      swap1\n      sstore\n      pop\n        /* \"contracts/Apps/Tracking.sol\":3717:3721  true */\n      0x01\n        /* \"contracts/Apps/Tracking.sol\":3695:3707  typeShipment */\n      dup3\n        /* \"contracts/Apps/Tracking.sol\":3695:3714  typeShipment.isPaid */\n      0x06\n      add\n      0x01\n        /* \"contracts/Apps/Tracking.sol\":3695:3721  typeShipment.isPaid = true */\n      0x0100\n      exp\n      dup2\n      sload\n      dup2\n      0xff\n      mul\n      not\n      and\n      swap1\n      dup4\n      iszero\n      iszero\n      mul\n      or\n      swap1\n      sstore\n      pop\n        /* \"contracts/Apps/Tracking.sol\":3769:3778  _receiver */\n      dup5\n        /* \"contracts/Apps/Tracking.sol\":3742:3787  ShipmentDelivered(_sender, _receiver, amount) */\n      0xffffffffffffffffffffffffffffffffffffffff\n      and\n        /* \"contracts/Apps/Tracking.sol\":3760:3767  _sender */\n      dup7\n        /* \"contracts/Apps/Tracking.sol\":3742:3787  ShipmentDelivered(_sender, _receiver, amount) */\n      0xffffffffffffffffffffffffffffffffffffffff\n      and\n      0x3746ccceb54f44c9b0ee0120e596168d07ec9f6ca303cfdd9810d3b2e2686a2e\n        /* \"contracts/Apps/Tracking.sol\":3780:3786  amount */\n      dup4\n        /* \"contracts/Apps/Tracking.sol\":3742:3787  ShipmentDelivered(_sender, _receiver, amount) */\n      mload(0x40)\n      tag_119\n      swap2\n      swap1\n      tag_41\n      jump\t// in\n    tag_119:\n      mload(0x40)\n      dup1\n      swap2\n      sub\n      swap1\n      log3\n        /* \"contracts/Apps/Tracking.sol\":3829:3838  _receiver */\n      dup5\n        /* \"contracts/Apps/Tracking.sol\":3802:3862  ShipmentDelivered(_sender, _receiver, shipment.deliveryTime) */\n      0xffffffffffffffffffffffffffffffffffffffff\n      and\n        /* \"contracts/Apps/Tracking.sol\":3820:3827  _sender */\n      dup7\n        /* \"contracts/Apps/Tracking.sol\":3802:3862  ShipmentDelivered(_sender, _receiver, shipment.deliveryTime) */\n      0xffffffffffffffffffffffffffffffffffffffff\n      and\n      0x3746ccceb54f44c9b0ee0120e596168d07ec9f6ca303cfdd9810d3b2e2686a2e\n        /* \"contracts/Apps/Tracking.sol\":3840:3848  shipment */\n      dup6\n        /* \"contracts/Apps/Tracking.sol\":3840:3861  shipment.deliveryTime */\n      0x03\n      add\n      sload\n        /* \"contracts/Apps/Tracking.sol\":3802:3862  ShipmentDelivered(_sender, _receiver, shipment.deliveryTime) */\n      mload(0x40)\n      tag_120\n      swap2\n      swap1\n      tag_41\n      jump\t// in\n    tag_120:\n      mload(0x40)\n      dup1\n      swap2\n      sub\n      swap1\n      log3\n        /* \"contracts/Apps/Tracking.sol\":2957:3870  {... */\n      pop\n      pop\n      pop\n        /* \"contracts/Apps/Tracking.sol\":2872:3870  function completShipment (address _sender, address _receiver, uint256 _index) public {... */\n      pop\n      pop\n      pop\n      jump\t// out\n        /* \"contracts/Apps/Tracking.sol\":490:518  uint256 public shipmentCount */\n    tag_39:\n      sload(0x01)\n      dup2\n      jump\t// out\n        /* \"contracts/Apps/Tracking.sol\":4410:4531  function getShipmentCount(address _sender) public view returns (uint256){... */\n    tag_46:\n        /* \"contracts/Apps/Tracking.sol\":4474:4481  uint256 */\n      0x00\n        /* \"contracts/Apps/Tracking.sol\":4499:4508  shipments */\n      dup1\n        /* \"contracts/Apps/Tracking.sol\":4499:4517  shipments[_sender] */\n      0x00\n        /* \"contracts/Apps/Tracking.sol\":4509:4516  _sender */\n      dup4\n        /* \"contracts/Apps/Tracking.sol\":4499:4517  shipments[_sender] */\n      0xffffffffffffffffffffffffffffffffffffffff\n      and\n      0xffffffffffffffffffffffffffffffffffffffff\n      and\n      dup2\n      mstore\n      0x20\n      add\n      swap1\n      dup2\n      mstore\n      0x20\n      add\n      0x00\n      keccak256\n        /* \"contracts/Apps/Tracking.sol\":4499:4524  shipments[_sender].length */\n      dup1\n      sload\n      swap1\n      pop\n        /* \"contracts/Apps/Tracking.sol\":4492:4524  return shipments[_sender].length */\n      swap1\n      pop\n        /* \"contracts/Apps/Tracking.sol\":4410:4531  function getShipmentCount(address _sender) public view returns (uint256){... */\n      swap2\n      swap1\n      pop\n      jump\t// out\n        /* \"contracts/Apps/Tracking.sol\":1410:2264  function createShipment (address _receiver, uint256 _pickupTime, uint256 _distance, uint256 _price)  public payable {... */\n    tag_51:\n        /* \"contracts/Apps/Tracking.sol\":1559:1565  _price */\n      dup1\n        /* \"contracts/Apps/Tracking.sol\":1546:1555  msg.value */\n      callvalue\n        /* \"contracts/Apps/Tracking.sol\":1546:1565  msg.value == _price */\n      eq\n        /* \"contracts/Apps/Tracking.sol\":1538:1608  require(msg.value == _price, \"  Payment amount must match the price.\") */\n      tag_123\n      jumpi\n      mload(0x40)\n      0x08c379a000000000000000000000000000000000000000000000000000000000\n      dup2\n      mstore\n      0x04\n      add\n      tag_124\n      swap1\n      tag_125\n      jump\t// in\n    tag_124:\n      mload(0x40)\n      dup1\n      swap2\n      sub\n      swap1\n      revert\n    tag_123:\n        /* \"contracts/Apps/Tracking.sol\":1641:1665  Shipment memory shipment */\n      0x00\n        /* \"contracts/Apps/Tracking.sol\":1668:1765  Shipment(msg.sender, _receiver, _pickupTime, 0, _distance, _price, ShipmentStatus.PENDING, false) */\n      mload(0x40)\n      dup1\n      0x0100\n      add\n      0x40\n      mstore\n      dup1\n        /* \"contracts/Apps/Tracking.sol\":1677:1687  msg.sender */\n      caller\n        /* \"contracts/Apps/Tracking.sol\":1668:1765  Shipment(msg.sender, _receiver, _pickupTime, 0, _distance, _price, ShipmentStatus.PENDING, false) */\n      0xffffffffffffffffffffffffffffffffffffffff\n      and\n      dup2\n      mstore\n      0x20\n      add\n        /* \"contracts/Apps/Tracking.sol\":1689:1698  _receiver */\n      dup7\n        /* \"contracts/Apps/Tracking.sol\":1668:1765  Shipment(msg.sender, _receiver, _pickupTime, 0, _distance, _price, ShipmentStatus.PENDING, false) */\n      0xffffffffffffffffffffffffffffffffffffffff\n      and\n      dup2\n      mstore\n      0x20\n      add\n        /* \"contracts/Apps/Tracking.sol\":1700:1711  _pickupTime */\n      dup6\n        /* \"contracts/Apps/Tracking.sol\":1668:1765  Shipment(msg.sender, _receiver, _pickupTime, 0, _distance, _price, ShipmentStatus.PENDING, false) */\n      dup2\n      mstore\n      0x20\n      add\n        /* \"contracts/Apps/Tracking.sol\":1713:1714  0 */\n      0x00\n        /* \"contracts/Apps/Tracking.sol\":1668:1765  Shipment(msg.sender, _receiver, _pickupTime, 0, _distance, _price, ShipmentStatus.PENDING, false) */\n      dup2\n      mstore\n      0x20\n      add\n        /* \"contracts/Apps/Tracking.sol\":1716:1725  _distance */\n      dup5\n        /* \"contracts/Apps/Tracking.sol\":1668:1765  Shipment(msg.sender, _receiver, _pickupTime, 0, _distance, _price, ShipmentStatus.PENDING, false) */\n      dup2\n      mstore\n      0x20\n      add\n        /* \"contracts/Apps/Tracking.sol\":1727:1733  _price */\n      dup4\n        /* \"contracts/Apps/Tracking.sol\":1668:1765  Shipment(msg.sender, _receiver, _pickupTime, 0, _distance, _price, ShipmentStatus.PENDING, false) */\n      dup2\n      mstore\n      0x20\n      add\n        /* \"contracts/Apps/Tracking.sol\":1735:1757  ShipmentStatus.PENDING */\n      0x00\n        /* \"contracts/Apps/Tracking.sol\":1668:1765  Shipment(msg.sender, _receiver, _pickupTime, 0, _distance, _price, ShipmentStatus.PENDING, false) */\n      0x02\n      dup2\n      gt\n      iszero\n      tag_126\n      jumpi\n      tag_127\n      tag_58\n      jump\t// in\n    tag_127:\n    tag_126:\n      dup2\n      mstore\n      0x20\n      add\n        /* \"contracts/Apps/Tracking.sol\":1759:1764  false */\n      0x00\n        /* \"contracts/Apps/Tracking.sol\":1668:1765  Shipment(msg.sender, _receiver, _pickupTime, 0, _distance, _price, ShipmentStatus.PENDING, false) */\n      iszero\n      iszero\n      dup2\n      mstore\n      pop\n        /* \"contracts/Apps/Tracking.sol\":1641:1765  Shipment memory shipment = Shipment(msg.sender, _receiver, _pickupTime, 0, _distance, _price, ShipmentStatus.PENDING, false) */\n      swap1\n      pop\n        /* \"contracts/Apps/Tracking.sol\":1802:1811  shipments */\n      0x00\n        /* \"contracts/Apps/Tracking.sol\":1802:1823  shipments[msg.sender] */\n      dup1\n        /* \"contracts/Apps/Tracking.sol\":1812:1822  msg.sender */\n      caller\n        /* \"contracts/Apps/Tracking.sol\":1802:1823  shipments[msg.sender] */\n      0xffffffffffffffffffffffffffffffffffffffff\n      and\n      0xffffffffffffffffffffffffffffffffffffffff\n      and\n      dup2\n      mstore\n      0x20\n      add\n      swap1\n      dup2\n      mstore\n      0x20\n      add\n      0x00\n      keccak256\n        /* \"contracts/Apps/Tracking.sol\":1829:1837  shipment */\n      dup2\n        /* \"contracts/Apps/Tracking.sol\":1802:1838  shipments[msg.sender].push(shipment) */\n      swap1\n      dup1\n      0x01\n      dup2\n      sload\n      add\n      dup1\n      dup3\n      sstore\n      dup1\n      swap2\n      pop\n      pop\n      0x01\n      swap1\n      sub\n      swap1\n      0x00\n      mstore\n      keccak256(0x00, 0x20)\n      swap1\n      0x07\n      mul\n      add\n      0x00\n      swap1\n      swap2\n      swap1\n      swap2\n      swap1\n      swap2\n      pop\n      0x00\n      dup3\n      add\n      mload\n      dup2\n      0x00\n      add\n      exp(0x0100, 0x00)\n      dup2\n      sload\n      dup2\n      0xffffffffffffffffffffffffffffffffffffffff\n      mul\n      not\n      and\n      swap1\n      dup4\n      0xffffffffffffffffffffffffffffffffffffffff\n      and\n      mul\n      or\n      swap1\n      sstore\n      pop\n      0x20\n      dup3\n      add\n      mload\n      dup2\n      0x01\n      add\n      exp(0x0100, 0x00)\n      dup2\n      sload\n      dup2\n      0xffffffffffffffffffffffffffffffffffffffff\n      mul\n      not\n      and\n      swap1\n      dup4\n      0xffffffffffffffffffffffffffffffffffffffff\n      and\n      mul\n      or\n      swap1\n      sstore\n      pop\n      0x40\n      dup3\n      add\n      mload\n      dup2\n      0x02\n      add\n      sstore\n      0x60\n      dup3\n      add\n      mload\n      dup2\n      0x03\n      add\n      sstore\n      0x80\n      dup3\n      add\n      mload\n      dup2\n      0x04\n      add\n      sstore\n      0xa0\n      dup3\n      add\n      mload\n      dup2\n      0x05\n      add\n      sstore\n      0xc0\n      dup3\n      add\n      mload\n      dup2\n      0x06\n      add\n      exp(0x0100, 0x00)\n      dup2\n      sload\n      dup2\n      0xff\n      mul\n      not\n      and\n      swap1\n      dup4\n      0x02\n      dup2\n      gt\n      iszero\n      tag_129\n      jumpi\n      tag_130\n      tag_58\n      jump\t// in\n    tag_130:\n    tag_129:\n      mul\n      or\n      swap1\n      sstore\n      pop\n      0xe0\n      dup3\n      add\n      mload\n      dup2\n      0x06\n      add\n      exp(0x0100, 0x01)\n      dup2\n      sload\n      dup2\n      0xff\n      mul\n      not\n      and\n      swap1\n      dup4\n      iszero\n      iszero\n      mul\n      or\n      swap1\n      sstore\n      pop\n      pop\n      pop\n        /* \"contracts/Apps/Tracking.sol\":1848:1861  shipmentCount */\n      0x01\n      0x00\n        /* \"contracts/Apps/Tracking.sol\":1848:1863  shipmentCount++ */\n      dup2\n      sload\n      dup1\n      swap3\n      swap2\n      swap1\n      tag_131\n      swap1\n      tag_132\n      jump\t// in\n    tag_131:\n      swap2\n      swap1\n      pop\n      sstore\n      pop\n        /* \"contracts/Apps/Tracking.sol\":1889:1902  typeShipments */\n      0x02\n        /* \"contracts/Apps/Tracking.sol\":1921:2164  TypeShipment(... */\n      mload(0x40)\n      dup1\n      0x0100\n      add\n      0x40\n      mstore\n      dup1\n        /* \"contracts/Apps/Tracking.sol\":1951:1961  msg.sender */\n      caller\n        /* \"contracts/Apps/Tracking.sol\":1921:2164  TypeShipment(... */\n      0xffffffffffffffffffffffffffffffffffffffff\n      and\n      dup2\n      mstore\n      0x20\n      add\n        /* \"contracts/Apps/Tracking.sol\":1979:1988  _receiver */\n      dup8\n        /* \"contracts/Apps/Tracking.sol\":1921:2164  TypeShipment(... */\n      0xffffffffffffffffffffffffffffffffffffffff\n      and\n      dup2\n      mstore\n      0x20\n      add\n        /* \"contracts/Apps/Tracking.sol\":2006:2017  _pickupTime */\n      dup7\n        /* \"contracts/Apps/Tracking.sol\":1921:2164  TypeShipment(... */\n      dup2\n      mstore\n      0x20\n      add\n        /* \"contracts/Apps/Tracking.sol\":2035:2036  0 */\n      0x00\n        /* \"contracts/Apps/Tracking.sol\":1921:2164  TypeShipment(... */\n      dup2\n      mstore\n      0x20\n      add\n        /* \"contracts/Apps/Tracking.sol\":2054:2063  _distance */\n      dup6\n        /* \"contracts/Apps/Tracking.sol\":1921:2164  TypeShipment(... */\n      dup2\n      mstore\n      0x20\n      add\n        /* \"contracts/Apps/Tracking.sol\":2081:2087  _price */\n      dup5\n        /* \"contracts/Apps/Tracking.sol\":1921:2164  TypeShipment(... */\n      dup2\n      mstore\n      0x20\n      add\n        /* \"contracts/Apps/Tracking.sol\":2105:2127  ShipmentStatus.PENDING */\n      0x00\n        /* \"contracts/Apps/Tracking.sol\":1921:2164  TypeShipment(... */\n      0x02\n      dup2\n      gt\n      iszero\n      tag_133\n      jumpi\n      tag_134\n      tag_58\n      jump\t// in\n    tag_134:\n    tag_133:\n      dup2\n      mstore\n      0x20\n      add\n        /* \"contracts/Apps/Tracking.sol\":2145:2150  false */\n      0x00\n        /* \"contracts/Apps/Tracking.sol\":1921:2164  TypeShipment(... */\n      iszero\n      iszero\n      dup2\n      mstore\n      pop\n        /* \"contracts/Apps/Tracking.sol\":1889:2174  typeShipments.push(... */\n      swap1\n      dup1\n      0x01\n      dup2\n      sload\n      add\n      dup1\n      dup3\n      sstore\n      dup1\n      swap2\n      pop\n      pop\n      0x01\n      swap1\n      sub\n      swap1\n      0x00\n      mstore\n      keccak256(0x00, 0x20)\n      swap1\n      0x07\n      mul\n      add\n      0x00\n      swap1\n      swap2\n      swap1\n      swap2\n      swap1\n      swap2\n      pop\n      0x00\n      dup3\n      add\n      mload\n      dup2\n      0x00\n      add\n      exp(0x0100, 0x00)\n      dup2\n      sload\n      dup2\n      0xffffffffffffffffffffffffffffffffffffffff\n      mul\n      not\n      and\n      swap1\n      dup4\n      0xffffffffffffffffffffffffffffffffffffffff\n      and\n      mul\n      or\n      swap1\n      sstore\n      pop\n      0x20\n      dup3\n      add\n      mload\n      dup2\n      0x01\n      add\n      exp(0x0100, 0x00)\n      dup2\n      sload\n      dup2\n      0xffffffffffffffffffffffffffffffffffffffff\n      mul\n      not\n      and\n      swap1\n      dup4\n      0xffffffffffffffffffffffffffffffffffffffff\n      and\n      mul\n      or\n      swap1\n      sstore\n      pop\n      0x40\n      dup3\n      add\n      mload\n      dup2\n      0x02\n      add\n      sstore\n      0x60\n      dup3\n      add\n      mload\n      dup2\n      0x03\n      add\n      sstore\n      0x80\n      dup3\n      add\n      mload\n      dup2\n      0x04\n      add\n      sstore\n      0xa0\n      dup3\n      add\n      mload\n      dup2\n      0x05\n      add\n      sstore\n      0xc0\n      dup3\n      add\n      mload\n      dup2\n      0x06\n      add\n      exp(0x0100, 0x00)\n      dup2\n      sload\n      dup2\n      0xff\n      mul\n      not\n      and\n      swap1\n      dup4\n      0x02\n      dup2\n      gt\n      iszero\n      tag_136\n      jumpi\n      tag_137\n      tag_58\n      jump\t// in\n    tag_137:\n    tag_136:\n      mul\n      or\n      swap1\n      sstore\n      pop\n      0xe0\n      dup3\n      add\n      mload\n      dup2\n      0x06\n      add\n      exp(0x0100, 0x01)\n      dup2\n      sload\n      dup2\n      0xff\n      mul\n      not\n      and\n      swap1\n      dup4\n      iszero\n      iszero\n      mul\n      or\n      swap1\n      sstore\n      pop\n      pop\n      pop\n        /* \"contracts/Apps/Tracking.sol\":2215:2224  _receiver */\n      dup5\n        /* \"contracts/Apps/Tracking.sol\":2187:2257  ShipmentCreated(msg.sender, _receiver, _pickupTime, _distance, _price) */\n      0xffffffffffffffffffffffffffffffffffffffff\n      and\n        /* \"contracts/Apps/Tracking.sol\":2203:2213  msg.sender */\n      caller\n        /* \"contracts/Apps/Tracking.sol\":2187:2257  ShipmentCreated(msg.sender, _receiver, _pickupTime, _distance, _price) */\n      0xffffffffffffffffffffffffffffffffffffffff\n      and\n      0x5001b34ecf2db5b7bbeddcbbe761ec9ecadcc7638018b98ce3e24995b0e946b6\n        /* \"contracts/Apps/Tracking.sol\":2226:2237  _pickupTime */\n      dup7\n        /* \"contracts/Apps/Tracking.sol\":2239:2248  _distance */\n      dup7\n        /* \"contracts/Apps/Tracking.sol\":2250:2256  _price */\n      dup7\n        /* \"contracts/Apps/Tracking.sol\":2187:2257  ShipmentCreated(msg.sender, _receiver, _pickupTime, _distance, _price) */\n      mload(0x40)\n      tag_138\n      swap4\n      swap3\n      swap2\n      swap1\n      tag_139\n      jump\t// in\n    tag_138:\n      mload(0x40)\n      dup1\n      swap2\n      sub\n      swap1\n      log3\n        /* \"contracts/Apps/Tracking.sol\":1526:2264  {... */\n      pop\n        /* \"contracts/Apps/Tracking.sol\":1410:2264  function createShipment (address _receiver, uint256 _pickupTime, uint256 _distance, uint256 _price)  public payable {... */\n      pop\n      pop\n      pop\n      pop\n      jump\t// out\n        /* \"#utility.yul\":7:149   */\n    tag_140:\n        /* \"#utility.yul\":102:108   */\n      0x00\n        /* \"#utility.yul\":136:141   */\n      dup2\n        /* \"#utility.yul\":130:142   */\n      mload\n        /* \"#utility.yul\":120:142   */\n      swap1\n      pop\n        /* \"#utility.yul\":7:149   */\n      swap2\n      swap1\n      pop\n      jump\t// out\n        /* \"#utility.yul\":155:367   */\n    tag_141:\n        /* \"#utility.yul\":282:293   */\n      0x00\n        /* \"#utility.yul\":316:322   */\n      dup3\n        /* \"#utility.yul\":311:314   */\n      dup3\n        /* \"#utility.yul\":304:323   */\n      mstore\n        /* \"#utility.yul\":356:360   */\n      0x20\n        /* \"#utility.yul\":351:354   */\n      dup3\n        /* \"#utility.yul\":347:361   */\n      add\n        /* \"#utility.yul\":332:361   */\n      swap1\n      pop\n        /* \"#utility.yul\":155:367   */\n      swap3\n      swap2\n      pop\n      pop\n      jump\t// out\n        /* \"#utility.yul\":373:533   */\n    tag_142:\n        /* \"#utility.yul\":468:472   */\n      0x00\n        /* \"#utility.yul\":491:494   */\n      dup2\n        /* \"#utility.yul\":483:494   */\n      swap1\n      pop\n        /* \"#utility.yul\":521:525   */\n      0x20\n        /* \"#utility.yul\":516:519   */\n      dup3\n        /* \"#utility.yul\":512:526   */\n      add\n        /* \"#utility.yul\":504:526   */\n      swap1\n      pop\n        /* \"#utility.yul\":373:533   */\n      swap2\n      swap1\n      pop\n      jump\t// out\n        /* \"#utility.yul\":539:665   */\n    tag_143:\n        /* \"#utility.yul\":576:583   */\n      0x00\n        /* \"#utility.yul\":616:658   */\n      0xffffffffffffffffffffffffffffffffffffffff\n        /* \"#utility.yul\":609:614   */\n      dup3\n        /* \"#utility.yul\":605:659   */\n      and\n        /* \"#utility.yul\":594:659   */\n      swap1\n      pop\n        /* \"#utility.yul\":539:665   */\n      swap2\n      swap1\n      pop\n      jump\t// out\n        /* \"#utility.yul\":671:767   */\n    tag_144:\n        /* \"#utility.yul\":708:715   */\n      0x00\n        /* \"#utility.yul\":737:761   */\n      tag_187\n        /* \"#utility.yul\":755:760   */\n      dup3\n        /* \"#utility.yul\":737:761   */\n      tag_143\n      jump\t// in\n    tag_187:\n        /* \"#utility.yul\":726:761   */\n      swap1\n      pop\n        /* \"#utility.yul\":671:767   */\n      swap2\n      swap1\n      pop\n      jump\t// out\n        /* \"#utility.yul\":773:881   */\n    tag_145:\n        /* \"#utility.yul\":850:874   */\n      tag_189\n        /* \"#utility.yul\":868:873   */\n      dup2\n        /* \"#utility.yul\":850:874   */\n      tag_144\n      jump\t// in\n    tag_189:\n        /* \"#utility.yul\":845:848   */\n      dup3\n        /* \"#utility.yul\":838:875   */\n      mstore\n        /* \"#utility.yul\":773:881   */\n      pop\n      pop\n      jump\t// out\n        /* \"#utility.yul\":887:964   */\n    tag_146:\n        /* \"#utility.yul\":924:931   */\n      0x00\n        /* \"#utility.yul\":953:958   */\n      dup2\n        /* \"#utility.yul\":942:958   */\n      swap1\n      pop\n        /* \"#utility.yul\":887:964   */\n      swap2\n      swap1\n      pop\n      jump\t// out\n        /* \"#utility.yul\":970:1078   */\n    tag_147:\n        /* \"#utility.yul\":1047:1071   */\n      tag_192\n        /* \"#utility.yul\":1065:1070   */\n      dup2\n        /* \"#utility.yul\":1047:1071   */\n      tag_146\n      jump\t// in\n    tag_192:\n        /* \"#utility.yul\":1042:1045   */\n      dup3\n        /* \"#utility.yul\":1035:1072   */\n      mstore\n        /* \"#utility.yul\":970:1078   */\n      pop\n      pop\n      jump\t// out\n        /* \"#utility.yul\":1084:1264   */\n    tag_58:\n        /* \"#utility.yul\":1132:1209   */\n      0x4e487b7100000000000000000000000000000000000000000000000000000000\n        /* \"#utility.yul\":1129:1130   */\n      0x00\n        /* \"#utility.yul\":1122:1210   */\n      mstore\n        /* \"#utility.yul\":1229:1233   */\n      0x21\n        /* \"#utility.yul\":1226:1227   */\n      0x04\n        /* \"#utility.yul\":1219:1234   */\n      mstore\n        /* \"#utility.yul\":1253:1257   */\n      0x24\n        /* \"#utility.yul\":1250:1251   */\n      0x00\n        /* \"#utility.yul\":1243:1258   */\n      revert\n        /* \"#utility.yul\":1270:1391   */\n    tag_148:\n        /* \"#utility.yul\":1359:1360   */\n      0x03\n        /* \"#utility.yul\":1352:1357   */\n      dup2\n        /* \"#utility.yul\":1349:1361   */\n      lt\n        /* \"#utility.yul\":1339:1385   */\n      tag_195\n      jumpi\n        /* \"#utility.yul\":1365:1383   */\n      tag_196\n      tag_58\n      jump\t// in\n    tag_196:\n        /* \"#utility.yul\":1339:1385   */\n    tag_195:\n        /* \"#utility.yul\":1270:1391   */\n      pop\n      jump\t// out\n        /* \"#utility.yul\":1397:1540   */\n    tag_149:\n        /* \"#utility.yul\":1450:1457   */\n      0x00\n        /* \"#utility.yul\":1479:1484   */\n      dup2\n        /* \"#utility.yul\":1468:1484   */\n      swap1\n      pop\n        /* \"#utility.yul\":1485:1534   */\n      tag_198\n        /* \"#utility.yul\":1528:1533   */\n      dup3\n        /* \"#utility.yul\":1485:1534   */\n      tag_148\n      jump\t// in\n    tag_198:\n        /* \"#utility.yul\":1397:1540   */\n      swap2\n      swap1\n      pop\n      jump\t// out\n        /* \"#utility.yul\":1546:1689   */\n    tag_150:\n        /* \"#utility.yul\":1610:1619   */\n      0x00\n        /* \"#utility.yul\":1643:1683   */\n      tag_200\n        /* \"#utility.yul\":1677:1682   */\n      dup3\n        /* \"#utility.yul\":1643:1683   */\n      tag_149\n      jump\t// in\n    tag_200:\n        /* \"#utility.yul\":1630:1683   */\n      swap1\n      pop\n        /* \"#utility.yul\":1546:1689   */\n      swap2\n      swap1\n      pop\n      jump\t// out\n        /* \"#utility.yul\":1695:1844   */\n    tag_151:\n        /* \"#utility.yul\":1786:1837   */\n      tag_202\n        /* \"#utility.yul\":1831:1836   */\n      dup2\n        /* \"#utility.yul\":1786:1837   */\n      tag_150\n      jump\t// in\n    tag_202:\n        /* \"#utility.yul\":1781:1784   */\n      dup3\n        /* \"#utility.yul\":1774:1838   */\n      mstore\n        /* \"#utility.yul\":1695:1844   */\n      pop\n      pop\n      jump\t// out\n        /* \"#utility.yul\":1850:1940   */\n    tag_152:\n        /* \"#utility.yul\":1884:1891   */\n      0x00\n        /* \"#utility.yul\":1927:1932   */\n      dup2\n        /* \"#utility.yul\":1920:1933   */\n      iszero\n        /* \"#utility.yul\":1913:1934   */\n      iszero\n        /* \"#utility.yul\":1902:1934   */\n      swap1\n      pop\n        /* \"#utility.yul\":1850:1940   */\n      swap2\n      swap1\n      pop\n      jump\t// out\n        /* \"#utility.yul\":1946:2045   */\n    tag_153:\n        /* \"#utility.yul\":2017:2038   */\n      tag_205\n        /* \"#utility.yul\":2032:2037   */\n      dup2\n        /* \"#utility.yul\":2017:2038   */\n      tag_152\n      jump\t// in\n    tag_205:\n        /* \"#utility.yul\":2012:2015   */\n      dup3\n        /* \"#utility.yul\":2005:2039   */\n      mstore\n        /* \"#utility.yul\":1946:2045   */\n      pop\n      pop\n      jump\t// out\n        /* \"#utility.yul\":2119:3705   */\n    tag_154:\n        /* \"#utility.yul\":2262:2268   */\n      0x0100\n        /* \"#utility.yul\":2257:2260   */\n      dup3\n        /* \"#utility.yul\":2253:2269   */\n      add\n        /* \"#utility.yul\":2353:2357   */\n      0x00\n        /* \"#utility.yul\":2346:2351   */\n      dup3\n        /* \"#utility.yul\":2342:2358   */\n      add\n        /* \"#utility.yul\":2336:2359   */\n      mload\n        /* \"#utility.yul\":2372:2435   */\n      tag_207\n        /* \"#utility.yul\":2429:2433   */\n      0x00\n        /* \"#utility.yul\":2424:2427   */\n      dup6\n        /* \"#utility.yul\":2420:2434   */\n      add\n        /* \"#utility.yul\":2406:2418   */\n      dup3\n        /* \"#utility.yul\":2372:2435   */\n      tag_145\n      jump\t// in\n    tag_207:\n        /* \"#utility.yul\":2279:2445   */\n      pop\n        /* \"#utility.yul\":2531:2535   */\n      0x20\n        /* \"#utility.yul\":2524:2529   */\n      dup3\n        /* \"#utility.yul\":2520:2536   */\n      add\n        /* \"#utility.yul\":2514:2537   */\n      mload\n        /* \"#utility.yul\":2550:2613   */\n      tag_208\n        /* \"#utility.yul\":2607:2611   */\n      0x20\n        /* \"#utility.yul\":2602:2605   */\n      dup6\n        /* \"#utility.yul\":2598:2612   */\n      add\n        /* \"#utility.yul\":2584:2596   */\n      dup3\n        /* \"#utility.yul\":2550:2613   */\n      tag_145\n      jump\t// in\n    tag_208:\n        /* \"#utility.yul\":2455:2623   */\n      pop\n        /* \"#utility.yul\":2711:2715   */\n      0x40\n        /* \"#utility.yul\":2704:2709   */\n      dup3\n        /* \"#utility.yul\":2700:2716   */\n      add\n        /* \"#utility.yul\":2694:2717   */\n      mload\n        /* \"#utility.yul\":2730:2793   */\n      tag_209\n        /* \"#utility.yul\":2787:2791   */\n      0x40\n        /* \"#utility.yul\":2782:2785   */\n      dup6\n        /* \"#utility.yul\":2778:2792   */\n      add\n        /* \"#utility.yul\":2764:2776   */\n      dup3\n        /* \"#utility.yul\":2730:2793   */\n      tag_147\n      jump\t// in\n    tag_209:\n        /* \"#utility.yul\":2633:2803   */\n      pop\n        /* \"#utility.yul\":2893:2897   */\n      0x60\n        /* \"#utility.yul\":2886:2891   */\n      dup3\n        /* \"#utility.yul\":2882:2898   */\n      add\n        /* \"#utility.yul\":2876:2899   */\n      mload\n        /* \"#utility.yul\":2912:2975   */\n      tag_210\n        /* \"#utility.yul\":2969:2973   */\n      0x60\n        /* \"#utility.yul\":2964:2967   */\n      dup6\n        /* \"#utility.yul\":2960:2974   */\n      add\n        /* \"#utility.yul\":2946:2958   */\n      dup3\n        /* \"#utility.yul\":2912:2975   */\n      tag_147\n      jump\t// in\n    tag_210:\n        /* \"#utility.yul\":2813:2985   */\n      pop\n        /* \"#utility.yul\":3071:3075   */\n      0x80\n        /* \"#utility.yul\":3064:3069   */\n      dup3\n        /* \"#utility.yul\":3060:3076   */\n      add\n        /* \"#utility.yul\":3054:3077   */\n      mload\n        /* \"#utility.yul\":3090:3153   */\n      tag_211\n        /* \"#utility.yul\":3147:3151   */\n      0x80\n        /* \"#utility.yul\":3142:3145   */\n      dup6\n        /* \"#utility.yul\":3138:3152   */\n      add\n        /* \"#utility.yul\":3124:3136   */\n      dup3\n        /* \"#utility.yul\":3090:3153   */\n      tag_147\n      jump\t// in\n    tag_211:\n        /* \"#utility.yul\":2995:3163   */\n      pop\n        /* \"#utility.yul\":3246:3250   */\n      0xa0\n        /* \"#utility.yul\":3239:3244   */\n      dup3\n        /* \"#utility.yul\":3235:3251   */\n      add\n        /* \"#utility.yul\":3229:3252   */\n      mload\n        /* \"#utility.yul\":3265:3328   */\n      tag_212\n        /* \"#utility.yul\":3322:3326   */\n      0xa0\n        /* \"#utility.yul\":3317:3320   */\n      dup6\n        /* \"#utility.yul\":3313:3327   */\n      add\n        /* \"#utility.yul\":3299:3311   */\n      dup3\n        /* \"#utility.yul\":3265:3328   */\n      tag_147\n      jump\t// in\n    tag_212:\n        /* \"#utility.yul\":3173:3338   */\n      pop\n        /* \"#utility.yul\":3422:3426   */\n      0xc0\n        /* \"#utility.yul\":3415:3420   */\n      dup3\n        /* \"#utility.yul\":3411:3427   */\n      add\n        /* \"#utility.yul\":3405:3428   */\n      mload\n        /* \"#utility.yul\":3441:3518   */\n      tag_213\n        /* \"#utility.yul\":3512:3516   */\n      0xc0\n        /* \"#utility.yul\":3507:3510   */\n      dup6\n        /* \"#utility.yul\":3503:3517   */\n      add\n        /* \"#utility.yul\":3489:3501   */\n      dup3\n        /* \"#utility.yul\":3441:3518   */\n      tag_151\n      jump\t// in\n    tag_213:\n        /* \"#utility.yul\":3348:3528   */\n      pop\n        /* \"#utility.yul\":3612:3616   */\n      0xe0\n        /* \"#utility.yul\":3605:3610   */\n      dup3\n        /* \"#utility.yul\":3601:3617   */\n      add\n        /* \"#utility.yul\":3595:3618   */\n      mload\n        /* \"#utility.yul\":3631:3688   */\n      tag_214\n        /* \"#utility.yul\":3682:3686   */\n      0xe0\n        /* \"#utility.yul\":3677:3680   */\n      dup6\n        /* \"#utility.yul\":3673:3687   */\n      add\n        /* \"#utility.yul\":3659:3671   */\n      dup3\n        /* \"#utility.yul\":3631:3688   */\n      tag_153\n      jump\t// in\n    tag_214:\n        /* \"#utility.yul\":3538:3698   */\n      pop\n        /* \"#utility.yul\":2231:3705   */\n      pop\n        /* \"#utility.yul\":2119:3705   */\n      pop\n      pop\n      jump\t// out\n        /* \"#utility.yul\":3711:4004   */\n    tag_155:\n        /* \"#utility.yul\":3836:3846   */\n      0x00\n        /* \"#utility.yul\":3857:3959   */\n      tag_216\n        /* \"#utility.yul\":3955:3958   */\n      dup4\n        /* \"#utility.yul\":3947:3953   */\n      dup4\n        /* \"#utility.yul\":3857:3959   */\n      tag_154\n      jump\t// in\n    tag_216:\n        /* \"#utility.yul\":3991:3997   */\n      0x0100\n        /* \"#utility.yul\":3986:3989   */\n      dup4\n        /* \"#utility.yul\":3982:3998   */\n      add\n        /* \"#utility.yul\":3968:3998   */\n      swap1\n      pop\n        /* \"#utility.yul\":3711:4004   */\n      swap3\n      swap2\n      pop\n      pop\n      jump\t// out\n        /* \"#utility.yul\":4010:4151   */\n    tag_156:\n        /* \"#utility.yul\":4108:4112   */\n      0x00\n        /* \"#utility.yul\":4140:4144   */\n      0x20\n        /* \"#utility.yul\":4135:4138   */\n      dup3\n        /* \"#utility.yul\":4131:4145   */\n      add\n        /* \"#utility.yul\":4123:4145   */\n      swap1\n      pop\n        /* \"#utility.yul\":4010:4151   */\n      swap2\n      swap1\n      pop\n      jump\t// out\n        /* \"#utility.yul\":4229:5185   */\n    tag_157:\n        /* \"#utility.yul\":4404:4407   */\n      0x00\n        /* \"#utility.yul\":4433:4515   */\n      tag_219\n        /* \"#utility.yul\":4509:4514   */\n      dup3\n        /* \"#utility.yul\":4433:4515   */\n      tag_140\n      jump\t// in\n    tag_219:\n        /* \"#utility.yul\":4531:4645   */\n      tag_220\n        /* \"#utility.yul\":4638:4644   */\n      dup2\n        /* \"#utility.yul\":4633:4636   */\n      dup6\n        /* \"#utility.yul\":4531:4645   */\n      tag_141\n      jump\t// in\n    tag_220:\n        /* \"#utility.yul\":4524:4645   */\n      swap4\n      pop\n        /* \"#utility.yul\":4669:4753   */\n      tag_221\n        /* \"#utility.yul\":4747:4752   */\n      dup4\n        /* \"#utility.yul\":4669:4753   */\n      tag_142\n      jump\t// in\n    tag_221:\n        /* \"#utility.yul\":4776:4783   */\n      dup1\n        /* \"#utility.yul\":4807:4808   */\n      0x00\n        /* \"#utility.yul\":4792:5160   */\n    tag_222:\n        /* \"#utility.yul\":4817:4823   */\n      dup4\n        /* \"#utility.yul\":4814:4815   */\n      dup2\n        /* \"#utility.yul\":4811:4824   */\n      lt\n        /* \"#utility.yul\":4792:5160   */\n      iszero\n      tag_224\n      jumpi\n        /* \"#utility.yul\":4893:4899   */\n      dup2\n        /* \"#utility.yul\":4887:4900   */\n      mload\n        /* \"#utility.yul\":4920:5039   */\n      tag_225\n        /* \"#utility.yul\":5035:5038   */\n      dup9\n        /* \"#utility.yul\":5020:5033   */\n      dup3\n        /* \"#utility.yul\":4920:5039   */\n      tag_155\n      jump\t// in\n    tag_225:\n        /* \"#utility.yul\":4913:5039   */\n      swap8\n      pop\n        /* \"#utility.yul\":5062:5150   */\n      tag_226\n        /* \"#utility.yul\":5143:5149   */\n      dup4\n        /* \"#utility.yul\":5062:5150   */\n      tag_156\n      jump\t// in\n    tag_226:\n        /* \"#utility.yul\":5052:5150   */\n      swap3\n      pop\n        /* \"#utility.yul\":4852:5160   */\n      pop\n        /* \"#utility.yul\":4839:4840   */\n      0x01\n        /* \"#utility.yul\":4836:4837   */\n      dup2\n        /* \"#utility.yul\":4832:4841   */\n      add\n        /* \"#utility.yul\":4827:4841   */\n      swap1\n      pop\n        /* \"#utility.yul\":4792:5160   */\n      jump(tag_222)\n    tag_224:\n        /* \"#utility.yul\":4796:4810   */\n      pop\n        /* \"#utility.yul\":5176:5179   */\n      dup6\n        /* \"#utility.yul\":5169:5179   */\n      swap4\n      pop\n        /* \"#utility.yul\":4409:5185   */\n      pop\n      pop\n      pop\n        /* \"#utility.yul\":4229:5185   */\n      swap3\n      swap2\n      pop\n      pop\n      jump\t// out\n        /* \"#utility.yul\":5191:5676   */\n    tag_15:\n        /* \"#utility.yul\":5390:5394   */\n      0x00\n        /* \"#utility.yul\":5428:5430   */\n      0x20\n        /* \"#utility.yul\":5417:5426   */\n      dup3\n        /* \"#utility.yul\":5413:5431   */\n      add\n        /* \"#utility.yul\":5405:5431   */\n      swap1\n      pop\n        /* \"#utility.yul\":5477:5486   */\n      dup2\n        /* \"#utility.yul\":5471:5475   */\n      dup2\n        /* \"#utility.yul\":5467:5487   */\n      sub\n        /* \"#utility.yul\":5463:5464   */\n      0x00\n        /* \"#utility.yul\":5452:5461   */\n      dup4\n        /* \"#utility.yul\":5448:5465   */\n      add\n        /* \"#utility.yul\":5441:5488   */\n      mstore\n        /* \"#utility.yul\":5505:5669   */\n      tag_228\n        /* \"#utility.yul\":5664:5668   */\n      dup2\n        /* \"#utility.yul\":5655:5661   */\n      dup5\n        /* \"#utility.yul\":5505:5669   */\n      tag_157\n      jump\t// in\n    tag_228:\n        /* \"#utility.yul\":5497:5669   */\n      swap1\n      pop\n        /* \"#utility.yul\":5191:5676   */\n      swap3\n      swap2\n      pop\n      pop\n      jump\t// out\n        /* \"#utility.yul\":5763:5880   */\n    tag_159:\n        /* \"#utility.yul\":5872:5873   */\n      0x00\n        /* \"#utility.yul\":5869:5870   */\n      dup1\n        /* \"#utility.yul\":5862:5874   */\n      revert\n        /* \"#utility.yul\":6009:6131   */\n    tag_161:\n        /* \"#utility.yul\":6082:6106   */\n      tag_233\n        /* \"#utility.yul\":6100:6105   */\n      dup2\n        /* \"#utility.yul\":6082:6106   */\n      tag_144\n      jump\t// in\n    tag_233:\n        /* \"#utility.yul\":6075:6080   */\n      dup2\n        /* \"#utility.yul\":6072:6107   */\n      eq\n        /* \"#utility.yul\":6062:6125   */\n      tag_234\n      jumpi\n        /* \"#utility.yul\":6121:6122   */\n      0x00\n        /* \"#utility.yul\":6118:6119   */\n      dup1\n        /* \"#utility.yul\":6111:6123   */\n      revert\n        /* \"#utility.yul\":6062:6125   */\n    tag_234:\n        /* \"#utility.yul\":6009:6131   */\n      pop\n      jump\t// out\n        /* \"#utility.yul\":6137:6276   */\n    tag_162:\n        /* \"#utility.yul\":6183:6188   */\n      0x00\n        /* \"#utility.yul\":6221:6227   */\n      dup2\n        /* \"#utility.yul\":6208:6228   */\n      calldataload\n        /* \"#utility.yul\":6199:6228   */\n      swap1\n      pop\n        /* \"#utility.yul\":6237:6270   */\n      tag_236\n        /* \"#utility.yul\":6264:6269   */\n      dup2\n        /* \"#utility.yul\":6237:6270   */\n      tag_161\n      jump\t// in\n    tag_236:\n        /* \"#utility.yul\":6137:6276   */\n      swap3\n      swap2\n      pop\n      pop\n      jump\t// out\n        /* \"#utility.yul\":6282:6404   */\n    tag_163:\n        /* \"#utility.yul\":6355:6379   */\n      tag_238\n        /* \"#utility.yul\":6373:6378   */\n      dup2\n        /* \"#utility.yul\":6355:6379   */\n      tag_146\n      jump\t// in\n    tag_238:\n        /* \"#utility.yul\":6348:6353   */\n      dup2\n        /* \"#utility.yul\":6345:6380   */\n      eq\n        /* \"#utility.yul\":6335:6398   */\n      tag_239\n      jumpi\n        /* \"#utility.yul\":6394:6395   */\n      0x00\n        /* \"#utility.yul\":6391:6392   */\n      dup1\n        /* \"#utility.yul\":6384:6396   */\n      revert\n        /* \"#utility.yul\":6335:6398   */\n    tag_239:\n        /* \"#utility.yul\":6282:6404   */\n      pop\n      jump\t// out\n        /* \"#utility.yul\":6410:6549   */\n    tag_164:\n        /* \"#utility.yul\":6456:6461   */\n      0x00\n        /* \"#utility.yul\":6494:6500   */\n      dup2\n        /* \"#utility.yul\":6481:6501   */\n      calldataload\n        /* \"#utility.yul\":6472:6501   */\n      swap1\n      pop\n        /* \"#utility.yul\":6510:6543   */\n      tag_241\n        /* \"#utility.yul\":6537:6542   */\n      dup2\n        /* \"#utility.yul\":6510:6543   */\n      tag_163\n      jump\t// in\n    tag_241:\n        /* \"#utility.yul\":6410:6549   */\n      swap3\n      swap2\n      pop\n      pop\n      jump\t// out\n        /* \"#utility.yul\":6555:7029   */\n    tag_19:\n        /* \"#utility.yul\":6623:6629   */\n      0x00\n        /* \"#utility.yul\":6631:6637   */\n      dup1\n        /* \"#utility.yul\":6680:6682   */\n      0x40\n        /* \"#utility.yul\":6668:6677   */\n      dup4\n        /* \"#utility.yul\":6659:6666   */\n      dup6\n        /* \"#utility.yul\":6655:6678   */\n      sub\n        /* \"#utility.yul\":6651:6683   */\n      slt\n        /* \"#utility.yul\":6648:6767   */\n      iszero\n      tag_243\n      jumpi\n        /* \"#utility.yul\":6686:6765   */\n      tag_244\n      tag_159\n      jump\t// in\n    tag_244:\n        /* \"#utility.yul\":6648:6767   */\n    tag_243:\n        /* \"#utility.yul\":6806:6807   */\n      0x00\n        /* \"#utility.yul\":6831:6884   */\n      tag_245\n        /* \"#utility.yul\":6876:6883   */\n      dup6\n        /* \"#utility.yul\":6867:6873   */\n      dup3\n        /* \"#utility.yul\":6856:6865   */\n      dup7\n        /* \"#utility.yul\":6852:6874   */\n      add\n        /* \"#utility.yul\":6831:6884   */\n      tag_162\n      jump\t// in\n    tag_245:\n        /* \"#utility.yul\":6821:6884   */\n      swap3\n      pop\n        /* \"#utility.yul\":6777:6894   */\n      pop\n        /* \"#utility.yul\":6933:6935   */\n      0x20\n        /* \"#utility.yul\":6959:7012   */\n      tag_246\n        /* \"#utility.yul\":7004:7011   */\n      dup6\n        /* \"#utility.yul\":6995:7001   */\n      dup3\n        /* \"#utility.yul\":6984:6993   */\n      dup7\n        /* \"#utility.yul\":6980:7002   */\n      add\n        /* \"#utility.yul\":6959:7012   */\n      tag_164\n      jump\t// in\n    tag_246:\n        /* \"#utility.yul\":6949:7012   */\n      swap2\n      pop\n        /* \"#utility.yul\":6904:7022   */\n      pop\n        /* \"#utility.yul\":6555:7029   */\n      swap3\n      pop\n      swap3\n      swap1\n      pop\n      jump\t// out\n        /* \"#utility.yul\":7035:7153   */\n    tag_165:\n        /* \"#utility.yul\":7122:7146   */\n      tag_248\n        /* \"#utility.yul\":7140:7145   */\n      dup2\n        /* \"#utility.yul\":7122:7146   */\n      tag_144\n      jump\t// in\n    tag_248:\n        /* \"#utility.yul\":7117:7120   */\n      dup3\n        /* \"#utility.yul\":7110:7147   */\n      mstore\n        /* \"#utility.yul\":7035:7153   */\n      pop\n      pop\n      jump\t// out\n        /* \"#utility.yul\":7159:7277   */\n    tag_166:\n        /* \"#utility.yul\":7246:7270   */\n      tag_250\n        /* \"#utility.yul\":7264:7269   */\n      dup2\n        /* \"#utility.yul\":7246:7270   */\n      tag_146\n      jump\t// in\n    tag_250:\n        /* \"#utility.yul\":7241:7244   */\n      dup3\n        /* \"#utility.yul\":7234:7271   */\n      mstore\n        /* \"#utility.yul\":7159:7277   */\n      pop\n      pop\n      jump\t// out\n        /* \"#utility.yul\":7283:7442   */\n    tag_167:\n        /* \"#utility.yul\":7384:7435   */\n      tag_252\n        /* \"#utility.yul\":7429:7434   */\n      dup2\n        /* \"#utility.yul\":7384:7435   */\n      tag_150\n      jump\t// in\n    tag_252:\n        /* \"#utility.yul\":7379:7382   */\n      dup3\n        /* \"#utility.yul\":7372:7436   */\n      mstore\n        /* \"#utility.yul\":7283:7442   */\n      pop\n      pop\n      jump\t// out\n        /* \"#utility.yul\":7448:7557   */\n    tag_168:\n        /* \"#utility.yul\":7529:7550   */\n      tag_254\n        /* \"#utility.yul\":7544:7549   */\n      dup2\n        /* \"#utility.yul\":7529:7550   */\n      tag_152\n      jump\t// in\n    tag_254:\n        /* \"#utility.yul\":7524:7527   */\n      dup3\n        /* \"#utility.yul\":7517:7551   */\n      mstore\n        /* \"#utility.yul\":7448:7557   */\n      pop\n      pop\n      jump\t// out\n        /* \"#utility.yul\":7563:8576   */\n    tag_22:\n        /* \"#utility.yul\":7860:7864   */\n      0x00\n        /* \"#utility.yul\":7898:7901   */\n      0x0100\n        /* \"#utility.yul\":7887:7896   */\n      dup3\n        /* \"#utility.yul\":7883:7902   */\n      add\n        /* \"#utility.yul\":7875:7902   */\n      swap1\n      pop\n        /* \"#utility.yul\":7912:7983   */\n      tag_256\n        /* \"#utility.yul\":7980:7981   */\n      0x00\n        /* \"#utility.yul\":7969:7978   */\n      dup4\n        /* \"#utility.yul\":7965:7982   */\n      add\n        /* \"#utility.yul\":7956:7962   */\n      dup12\n        /* \"#utility.yul\":7912:7983   */\n      tag_165\n      jump\t// in\n    tag_256:\n        /* \"#utility.yul\":7993:8065   */\n      tag_257\n        /* \"#utility.yul\":8061:8063   */\n      0x20\n        /* \"#utility.yul\":8050:8059   */\n      dup4\n        /* \"#utility.yul\":8046:8064   */\n      add\n        /* \"#utility.yul\":8037:8043   */\n      dup11\n        /* \"#utility.yul\":7993:8065   */\n      tag_165\n      jump\t// in\n    tag_257:\n        /* \"#utility.yul\":8075:8147   */\n      tag_258\n        /* \"#utility.yul\":8143:8145   */\n      0x40\n        /* \"#utility.yul\":8132:8141   */\n      dup4\n        /* \"#utility.yul\":8128:8146   */\n      add\n        /* \"#utility.yul\":8119:8125   */\n      dup10\n        /* \"#utility.yul\":8075:8147   */\n      tag_166\n      jump\t// in\n    tag_258:\n        /* \"#utility.yul\":8157:8229   */\n      tag_259\n        /* \"#utility.yul\":8225:8227   */\n      0x60\n        /* \"#utility.yul\":8214:8223   */\n      dup4\n        /* \"#utility.yul\":8210:8228   */\n      add\n        /* \"#utility.yul\":8201:8207   */\n      dup9\n        /* \"#utility.yul\":8157:8229   */\n      tag_166\n      jump\t// in\n    tag_259:\n        /* \"#utility.yul\":8239:8312   */\n      tag_260\n        /* \"#utility.yul\":8307:8310   */\n      0x80\n        /* \"#utility.yul\":8296:8305   */\n      dup4\n        /* \"#utility.yul\":8292:8311   */\n      add\n        /* \"#utility.yul\":8283:8289   */\n      dup8\n        /* \"#utility.yul\":8239:8312   */\n      tag_166\n      jump\t// in\n    tag_260:\n        /* \"#utility.yul\":8322:8395   */\n      tag_261\n        /* \"#utility.yul\":8390:8393   */\n      0xa0\n        /* \"#utility.yul\":8379:8388   */\n      dup4\n        /* \"#utility.yul\":8375:8394   */\n      add\n        /* \"#utility.yul\":8366:8372   */\n      dup7\n        /* \"#utility.yul\":8322:8395   */\n      tag_166\n      jump\t// in\n    tag_261:\n        /* \"#utility.yul\":8405:8492   */\n      tag_262\n        /* \"#utility.yul\":8487:8490   */\n      0xc0\n        /* \"#utility.yul\":8476:8485   */\n      dup4\n        /* \"#utility.yul\":8472:8491   */\n      add\n        /* \"#utility.yul\":8463:8469   */\n      dup6\n        /* \"#utility.yul\":8405:8492   */\n      tag_167\n      jump\t// in\n    tag_262:\n        /* \"#utility.yul\":8502:8569   */\n      tag_263\n        /* \"#utility.yul\":8564:8567   */\n      0xe0\n        /* \"#utility.yul\":8553:8562   */\n      dup4\n        /* \"#utility.yul\":8549:8568   */\n      add\n        /* \"#utility.yul\":8540:8546   */\n      dup5\n        /* \"#utility.yul\":8502:8569   */\n      tag_168\n      jump\t// in\n    tag_263:\n        /* \"#utility.yul\":7563:8576   */\n      swap10\n      swap9\n      pop\n      pop\n      pop\n      pop\n      pop\n      pop\n      pop\n      pop\n      pop\n      jump\t// out\n        /* \"#utility.yul\":8582:9201   */\n    tag_26:\n        /* \"#utility.yul\":8659:8665   */\n      0x00\n        /* \"#utility.yul\":8667:8673   */\n      dup1\n        /* \"#utility.yul\":8675:8681   */\n      0x00\n        /* \"#utility.yul\":8724:8726   */\n      0x60\n        /* \"#utility.yul\":8712:8721   */\n      dup5\n        /* \"#utility.yul\":8703:8710   */\n      dup7\n        /* \"#utility.yul\":8699:8722   */\n      sub\n        /* \"#utility.yul\":8695:8727   */\n      slt\n        /* \"#utility.yul\":8692:8811   */\n      iszero\n      tag_265\n      jumpi\n        /* \"#utility.yul\":8730:8809   */\n      tag_266\n      tag_159\n      jump\t// in\n    tag_266:\n        /* \"#utility.yul\":8692:8811   */\n    tag_265:\n        /* \"#utility.yul\":8850:8851   */\n      0x00\n        /* \"#utility.yul\":8875:8928   */\n      tag_267\n        /* \"#utility.yul\":8920:8927   */\n      dup7\n        /* \"#utility.yul\":8911:8917   */\n      dup3\n        /* \"#utility.yul\":8900:8909   */\n      dup8\n        /* \"#utility.yul\":8896:8918   */\n      add\n        /* \"#utility.yul\":8875:8928   */\n      tag_162\n      jump\t// in\n    tag_267:\n        /* \"#utility.yul\":8865:8928   */\n      swap4\n      pop\n        /* \"#utility.yul\":8821:8938   */\n      pop\n        /* \"#utility.yul\":8977:8979   */\n      0x20\n        /* \"#utility.yul\":9003:9056   */\n      tag_268\n        /* \"#utility.yul\":9048:9055   */\n      dup7\n        /* \"#utility.yul\":9039:9045   */\n      dup3\n        /* \"#utility.yul\":9028:9037   */\n      dup8\n        /* \"#utility.yul\":9024:9046   */\n      add\n        /* \"#utility.yul\":9003:9056   */\n      tag_162\n      jump\t// in\n    tag_268:\n        /* \"#utility.yul\":8993:9056   */\n      swap3\n      pop\n        /* \"#utility.yul\":8948:9066   */\n      pop\n        /* \"#utility.yul\":9105:9107   */\n      0x40\n        /* \"#utility.yul\":9131:9184   */\n      tag_269\n        /* \"#utility.yul\":9176:9183   */\n      dup7\n        /* \"#utility.yul\":9167:9173   */\n      dup3\n        /* \"#utility.yul\":9156:9165   */\n      dup8\n        /* \"#utility.yul\":9152:9174   */\n      add\n        /* \"#utility.yul\":9131:9184   */\n      tag_164\n      jump\t// in\n    tag_269:\n        /* \"#utility.yul\":9121:9184   */\n      swap2\n      pop\n        /* \"#utility.yul\":9076:9194   */\n      pop\n        /* \"#utility.yul\":8582:9201   */\n      swap3\n      pop\n      swap3\n      pop\n      swap3\n      jump\t// out\n        /* \"#utility.yul\":9207:9429   */\n    tag_41:\n        /* \"#utility.yul\":9300:9304   */\n      0x00\n        /* \"#utility.yul\":9338:9340   */\n      0x20\n        /* \"#utility.yul\":9327:9336   */\n      dup3\n        /* \"#utility.yul\":9323:9341   */\n      add\n        /* \"#utility.yul\":9315:9341   */\n      swap1\n      pop\n        /* \"#utility.yul\":9351:9422   */\n      tag_271\n        /* \"#utility.yul\":9419:9420   */\n      0x00\n        /* \"#utility.yul\":9408:9417   */\n      dup4\n        /* \"#utility.yul\":9404:9421   */\n      add\n        /* \"#utility.yul\":9395:9401   */\n      dup5\n        /* \"#utility.yul\":9351:9422   */\n      tag_166\n      jump\t// in\n    tag_271:\n        /* \"#utility.yul\":9207:9429   */\n      swap3\n      swap2\n      pop\n      pop\n      jump\t// out\n        /* \"#utility.yul\":9435:9764   */\n    tag_45:\n        /* \"#utility.yul\":9494:9500   */\n      0x00\n        /* \"#utility.yul\":9543:9545   */\n      0x20\n        /* \"#utility.yul\":9531:9540   */\n      dup3\n        /* \"#utility.yul\":9522:9529   */\n      dup5\n        /* \"#utility.yul\":9518:9541   */\n      sub\n        /* \"#utility.yul\":9514:9546   */\n      slt\n        /* \"#utility.yul\":9511:9630   */\n      iszero\n      tag_273\n      jumpi\n        /* \"#utility.yul\":9549:9628   */\n      tag_274\n      tag_159\n      jump\t// in\n    tag_274:\n        /* \"#utility.yul\":9511:9630   */\n    tag_273:\n        /* \"#utility.yul\":9669:9670   */\n      0x00\n        /* \"#utility.yul\":9694:9747   */\n      tag_275\n        /* \"#utility.yul\":9739:9746   */\n      dup5\n        /* \"#utility.yul\":9730:9736   */\n      dup3\n        /* \"#utility.yul\":9719:9728   */\n      dup6\n        /* \"#utility.yul\":9715:9737   */\n      add\n        /* \"#utility.yul\":9694:9747   */\n      tag_162\n      jump\t// in\n    tag_275:\n        /* \"#utility.yul\":9684:9747   */\n      swap2\n      pop\n        /* \"#utility.yul\":9640:9757   */\n      pop\n        /* \"#utility.yul\":9435:9764   */\n      swap3\n      swap2\n      pop\n      pop\n      jump\t// out\n        /* \"#utility.yul\":9770:10535   */\n    tag_50:\n        /* \"#utility.yul\":9856:9862   */\n      0x00\n        /* \"#utility.yul\":9864:9870   */\n      dup1\n        /* \"#utility.yul\":9872:9878   */\n      0x00\n        /* \"#utility.yul\":9880:9886   */\n      dup1\n        /* \"#utility.yul\":9929:9932   */\n      0x80\n        /* \"#utility.yul\":9917:9926   */\n      dup6\n        /* \"#utility.yul\":9908:9915   */\n      dup8\n        /* \"#utility.yul\":9904:9927   */\n      sub\n        /* \"#utility.yul\":9900:9933   */\n      slt\n        /* \"#utility.yul\":9897:10017   */\n      iszero\n      tag_277\n      jumpi\n        /* \"#utility.yul\":9936:10015   */\n      tag_278\n      tag_159\n      jump\t// in\n    tag_278:\n        /* \"#utility.yul\":9897:10017   */\n    tag_277:\n        /* \"#utility.yul\":10056:10057   */\n      0x00\n        /* \"#utility.yul\":10081:10134   */\n      tag_279\n        /* \"#utility.yul\":10126:10133   */\n      dup8\n        /* \"#utility.yul\":10117:10123   */\n      dup3\n        /* \"#utility.yul\":10106:10115   */\n      dup9\n        /* \"#utility.yul\":10102:10124   */\n      add\n        /* \"#utility.yul\":10081:10134   */\n      tag_162\n      jump\t// in\n    tag_279:\n        /* \"#utility.yul\":10071:10134   */\n      swap5\n      pop\n        /* \"#utility.yul\":10027:10144   */\n      pop\n        /* \"#utility.yul\":10183:10185   */\n      0x20\n        /* \"#utility.yul\":10209:10262   */\n      tag_280\n        /* \"#utility.yul\":10254:10261   */\n      dup8\n        /* \"#utility.yul\":10245:10251   */\n      dup3\n        /* \"#utility.yul\":10234:10243   */\n      dup9\n        /* \"#utility.yul\":10230:10252   */\n      add\n        /* \"#utility.yul\":10209:10262   */\n      tag_164\n      jump\t// in\n    tag_280:\n        /* \"#utility.yul\":10199:10262   */\n      swap4\n      pop\n        /* \"#utility.yul\":10154:10272   */\n      pop\n        /* \"#utility.yul\":10311:10313   */\n      0x40\n        /* \"#utility.yul\":10337:10390   */\n      tag_281\n        /* \"#utility.yul\":10382:10389   */\n      dup8\n        /* \"#utility.yul\":10373:10379   */\n      dup3\n        /* \"#utility.yul\":10362:10371   */\n      dup9\n        /* \"#utility.yul\":10358:10380   */\n      add\n        /* \"#utility.yul\":10337:10390   */\n      tag_164\n      jump\t// in\n    tag_281:\n        /* \"#utility.yul\":10327:10390   */\n      swap3\n      pop\n        /* \"#utility.yul\":10282:10400   */\n      pop\n        /* \"#utility.yul\":10439:10441   */\n      0x60\n        /* \"#utility.yul\":10465:10518   */\n      tag_282\n        /* \"#utility.yul\":10510:10517   */\n      dup8\n        /* \"#utility.yul\":10501:10507   */\n      dup3\n        /* \"#utility.yul\":10490:10499   */\n      dup9\n        /* \"#utility.yul\":10486:10508   */\n      add\n        /* \"#utility.yul\":10465:10518   */\n      tag_164\n      jump\t// in\n    tag_282:\n        /* \"#utility.yul\":10455:10518   */\n      swap2\n      pop\n        /* \"#utility.yul\":10410:10528   */\n      pop\n        /* \"#utility.yul\":9770:10535   */\n      swap3\n      swap6\n      swap2\n      swap5\n      pop\n      swap3\n      pop\n      jump\t// out\n        /* \"#utility.yul\":10541:10721   */\n    tag_66:\n        /* \"#utility.yul\":10589:10666   */\n      0x4e487b7100000000000000000000000000000000000000000000000000000000\n        /* \"#utility.yul\":10586:10587   */\n      0x00\n        /* \"#utility.yul\":10579:10667   */\n      mstore\n        /* \"#utility.yul\":10686:10690   */\n      0x32\n        /* \"#utility.yul\":10683:10684   */\n      0x04\n        /* \"#utility.yul\":10676:10691   */\n      mstore\n        /* \"#utility.yul\":10710:10714   */\n      0x24\n        /* \"#utility.yul\":10707:10708   */\n      0x00\n        /* \"#utility.yul\":10700:10715   */\n      revert\n        /* \"#utility.yul\":10727:10896   */\n    tag_169:\n        /* \"#utility.yul\":10811:10822   */\n      0x00\n        /* \"#utility.yul\":10845:10851   */\n      dup3\n        /* \"#utility.yul\":10840:10843   */\n      dup3\n        /* \"#utility.yul\":10833:10852   */\n      mstore\n        /* \"#utility.yul\":10885:10889   */\n      0x20\n        /* \"#utility.yul\":10880:10883   */\n      dup3\n        /* \"#utility.yul\":10876:10890   */\n      add\n        /* \"#utility.yul\":10861:10890   */\n      swap1\n      pop\n        /* \"#utility.yul\":10727:10896   */\n      swap3\n      swap2\n      pop\n      pop\n      jump\t// out\n        /* \"#utility.yul\":10902:11068   */\n    tag_170:\n        /* \"#utility.yul\":11042:11060   */\n      0x496e76616c696420726563656976657200000000000000000000000000000000\n        /* \"#utility.yul\":11038:11039   */\n      0x00\n        /* \"#utility.yul\":11030:11036   */\n      dup3\n        /* \"#utility.yul\":11026:11040   */\n      add\n        /* \"#utility.yul\":11019:11061   */\n      mstore\n        /* \"#utility.yul\":10902:11068   */\n      pop\n      jump\t// out\n        /* \"#utility.yul\":11074:11440   */\n    tag_171:\n        /* \"#utility.yul\":11216:11219   */\n      0x00\n        /* \"#utility.yul\":11237:11304   */\n      tag_287\n        /* \"#utility.yul\":11301:11303   */\n      0x10\n        /* \"#utility.yul\":11296:11299   */\n      dup4\n        /* \"#utility.yul\":11237:11304   */\n      tag_169\n      jump\t// in\n    tag_287:\n        /* \"#utility.yul\":11230:11304   */\n      swap2\n      pop\n        /* \"#utility.yul\":11313:11406   */\n      tag_288\n        /* \"#utility.yul\":11402:11405   */\n      dup3\n        /* \"#utility.yul\":11313:11406   */\n      tag_170\n      jump\t// in\n    tag_288:\n        /* \"#utility.yul\":11431:11433   */\n      0x20\n        /* \"#utility.yul\":11426:11429   */\n      dup3\n        /* \"#utility.yul\":11422:11434   */\n      add\n        /* \"#utility.yul\":11415:11434   */\n      swap1\n      pop\n        /* \"#utility.yul\":11074:11440   */\n      swap2\n      swap1\n      pop\n      jump\t// out\n        /* \"#utility.yul\":11446:11865   */\n    tag_73:\n        /* \"#utility.yul\":11612:11616   */\n      0x00\n        /* \"#utility.yul\":11650:11652   */\n      0x20\n        /* \"#utility.yul\":11639:11648   */\n      dup3\n        /* \"#utility.yul\":11635:11653   */\n      add\n        /* \"#utility.yul\":11627:11653   */\n      swap1\n      pop\n        /* \"#utility.yul\":11699:11708   */\n      dup2\n        /* \"#utility.yul\":11693:11697   */\n      dup2\n        /* \"#utility.yul\":11689:11709   */\n      sub\n        /* \"#utility.yul\":11685:11686   */\n      0x00\n        /* \"#utility.yul\":11674:11683   */\n      dup4\n        /* \"#utility.yul\":11670:11687   */\n      add\n        /* \"#utility.yul\":11663:11710   */\n      mstore\n        /* \"#utility.yul\":11727:11858   */\n      tag_290\n        /* \"#utility.yul\":11853:11857   */\n      dup2\n        /* \"#utility.yul\":11727:11858   */\n      tag_171\n      jump\t// in\n    tag_290:\n        /* \"#utility.yul\":11719:11858   */\n      swap1\n      pop\n        /* \"#utility.yul\":11446:11865   */\n      swap2\n      swap1\n      pop\n      jump\t// out\n        /* \"#utility.yul\":11871:12048   */\n    tag_172:\n        /* \"#utility.yul\":12011:12040   */\n      0x536869706d656e7420616c726561647920696e207472616e7369740000000000\n        /* \"#utility.yul\":12007:12008   */\n      0x00\n        /* \"#utility.yul\":11999:12005   */\n      dup3\n        /* \"#utility.yul\":11995:12009   */\n      add\n        /* \"#utility.yul\":11988:12041   */\n      mstore\n        /* \"#utility.yul\":11871:12048   */\n      pop\n      jump\t// out\n        /* \"#utility.yul\":12054:12420   */\n    tag_173:\n        /* \"#utility.yul\":12196:12199   */\n      0x00\n        /* \"#utility.yul\":12217:12284   */\n      tag_293\n        /* \"#utility.yul\":12281:12283   */\n      0x1b\n        /* \"#utility.yul\":12276:12279   */\n      dup4\n        /* \"#utility.yul\":12217:12284   */\n      tag_169\n      jump\t// in\n    tag_293:\n        /* \"#utility.yul\":12210:12284   */\n      swap2\n      pop\n        /* \"#utility.yul\":12293:12386   */\n      tag_294\n        /* \"#utility.yul\":12382:12385   */\n      dup3\n        /* \"#utility.yul\":12293:12386   */\n      tag_172\n      jump\t// in\n    tag_294:\n        /* \"#utility.yul\":12411:12413   */\n      0x20\n        /* \"#utility.yul\":12406:12409   */\n      dup3\n        /* \"#utility.yul\":12402:12414   */\n      add\n        /* \"#utility.yul\":12395:12414   */\n      swap1\n      pop\n        /* \"#utility.yul\":12054:12420   */\n      swap2\n      swap1\n      pop\n      jump\t// out\n        /* \"#utility.yul\":12426:12845   */\n    tag_80:\n        /* \"#utility.yul\":12592:12596   */\n      0x00\n        /* \"#utility.yul\":12630:12632   */\n      0x20\n        /* \"#utility.yul\":12619:12628   */\n      dup3\n        /* \"#utility.yul\":12615:12633   */\n      add\n        /* \"#utility.yul\":12607:12633   */\n      swap1\n      pop\n        /* \"#utility.yul\":12679:12688   */\n      dup2\n        /* \"#utility.yul\":12673:12677   */\n      dup2\n        /* \"#utility.yul\":12669:12689   */\n      sub\n        /* \"#utility.yul\":12665:12666   */\n      0x00\n        /* \"#utility.yul\":12654:12663   */\n      dup4\n        /* \"#utility.yul\":12650:12667   */\n      add\n        /* \"#utility.yul\":12643:12690   */\n      mstore\n        /* \"#utility.yul\":12707:12838   */\n      tag_296\n        /* \"#utility.yul\":12833:12837   */\n      dup2\n        /* \"#utility.yul\":12707:12838   */\n      tag_173\n      jump\t// in\n    tag_296:\n        /* \"#utility.yul\":12699:12838   */\n      swap1\n      pop\n        /* \"#utility.yul\":12426:12845   */\n      swap2\n      swap1\n      pop\n      jump\t// out\n        /* \"#utility.yul\":12851:13024   */\n    tag_174:\n        /* \"#utility.yul\":12991:13016   */\n      0x536869706d656e74204e6f7420696e207472616e736974000000000000000000\n        /* \"#utility.yul\":12987:12988   */\n      0x00\n        /* \"#utility.yul\":12979:12985   */\n      dup3\n        /* \"#utility.yul\":12975:12989   */\n      add\n        /* \"#utility.yul\":12968:13017   */\n      mstore\n        /* \"#utility.yul\":12851:13024   */\n      pop\n      jump\t// out\n        /* \"#utility.yul\":13030:13396   */\n    tag_175:\n        /* \"#utility.yul\":13172:13175   */\n      0x00\n        /* \"#utility.yul\":13193:13260   */\n      tag_299\n        /* \"#utility.yul\":13257:13259   */\n      0x17\n        /* \"#utility.yul\":13252:13255   */\n      dup4\n        /* \"#utility.yul\":13193:13260   */\n      tag_169\n      jump\t// in\n    tag_299:\n        /* \"#utility.yul\":13186:13260   */\n      swap2\n      pop\n        /* \"#utility.yul\":13269:13362   */\n      tag_300\n        /* \"#utility.yul\":13358:13361   */\n      dup3\n        /* \"#utility.yul\":13269:13362   */\n      tag_174\n      jump\t// in\n    tag_300:\n        /* \"#utility.yul\":13387:13389   */\n      0x20\n        /* \"#utility.yul\":13382:13385   */\n      dup3\n        /* \"#utility.yul\":13378:13390   */\n      add\n        /* \"#utility.yul\":13371:13390   */\n      swap1\n      pop\n        /* \"#utility.yul\":13030:13396   */\n      swap2\n      swap1\n      pop\n      jump\t// out\n        /* \"#utility.yul\":13402:13821   */\n    tag_109:\n        /* \"#utility.yul\":13568:13572   */\n      0x00\n        /* \"#utility.yul\":13606:13608   */\n      0x20\n        /* \"#utility.yul\":13595:13604   */\n      dup3\n        /* \"#utility.yul\":13591:13609   */\n      add\n        /* \"#utility.yul\":13583:13609   */\n      swap1\n      pop\n        /* \"#utility.yul\":13655:13664   */\n      dup2\n        /* \"#utility.yul\":13649:13653   */\n      dup2\n        /* \"#utility.yul\":13645:13665   */\n      sub\n        /* \"#utility.yul\":13641:13642   */\n      0x00\n        /* \"#utility.yul\":13630:13639   */\n      dup4\n        /* \"#utility.yul\":13626:13643   */\n      add\n        /* \"#utility.yul\":13619:13666   */\n      mstore\n        /* \"#utility.yul\":13683:13814   */\n      tag_302\n        /* \"#utility.yul\":13809:13813   */\n      dup2\n        /* \"#utility.yul\":13683:13814   */\n      tag_175\n      jump\t// in\n    tag_302:\n        /* \"#utility.yul\":13675:13814   */\n      swap1\n      pop\n        /* \"#utility.yul\":13402:13821   */\n      swap2\n      swap1\n      pop\n      jump\t// out\n        /* \"#utility.yul\":13827:13999   */\n    tag_176:\n        /* \"#utility.yul\":13967:13991   */\n      0x536869706d656e7420616c726561647920506169642000000000000000000000\n        /* \"#utility.yul\":13963:13964   */\n      0x00\n        /* \"#utility.yul\":13955:13961   */\n      dup3\n        /* \"#utility.yul\":13951:13965   */\n      add\n        /* \"#utility.yul\":13944:13992   */\n      mstore\n        /* \"#utility.yul\":13827:13999   */\n      pop\n      jump\t// out\n        /* \"#utility.yul\":14005:14371   */\n    tag_177:\n        /* \"#utility.yul\":14147:14150   */\n      0x00\n        /* \"#utility.yul\":14168:14235   */\n      tag_305\n        /* \"#utility.yul\":14232:14234   */\n      0x16\n        /* \"#utility.yul\":14227:14230   */\n      dup4\n        /* \"#utility.yul\":14168:14235   */\n      tag_169\n      jump\t// in\n    tag_305:\n        /* \"#utility.yul\":14161:14235   */\n      swap2\n      pop\n        /* \"#utility.yul\":14244:14337   */\n      tag_306\n        /* \"#utility.yul\":14333:14336   */\n      dup3\n        /* \"#utility.yul\":14244:14337   */\n      tag_176\n      jump\t// in\n    tag_306:\n        /* \"#utility.yul\":14362:14364   */\n      0x20\n        /* \"#utility.yul\":14357:14360   */\n      dup3\n        /* \"#utility.yul\":14353:14365   */\n      add\n        /* \"#utility.yul\":14346:14365   */\n      swap1\n      pop\n        /* \"#utility.yul\":14005:14371   */\n      swap2\n      swap1\n      pop\n      jump\t// out\n        /* \"#utility.yul\":14377:14796   */\n    tag_112:\n        /* \"#utility.yul\":14543:14547   */\n      0x00\n        /* \"#utility.yul\":14581:14583   */\n      0x20\n        /* \"#utility.yul\":14570:14579   */\n      dup3\n        /* \"#utility.yul\":14566:14584   */\n      add\n        /* \"#utility.yul\":14558:14584   */\n      swap1\n      pop\n        /* \"#utility.yul\":14630:14639   */\n      dup2\n        /* \"#utility.yul\":14624:14628   */\n      dup2\n        /* \"#utility.yul\":14620:14640   */\n      sub\n        /* \"#utility.yul\":14616:14617   */\n      0x00\n        /* \"#utility.yul\":14605:14614   */\n      dup4\n        /* \"#utility.yul\":14601:14618   */\n      add\n        /* \"#utility.yul\":14594:14641   */\n      mstore\n        /* \"#utility.yul\":14658:14789   */\n      tag_308\n        /* \"#utility.yul\":14784:14788   */\n      dup2\n        /* \"#utility.yul\":14658:14789   */\n      tag_177\n      jump\t// in\n    tag_308:\n        /* \"#utility.yul\":14650:14789   */\n      swap1\n      pop\n        /* \"#utility.yul\":14377:14796   */\n      swap2\n      swap1\n      pop\n      jump\t// out\n        /* \"#utility.yul\":14802:15027   */\n    tag_178:\n        /* \"#utility.yul\":14942:14976   */\n      0x20205061796d656e7420616d6f756e74206d757374206d617463682074686520\n        /* \"#utility.yul\":14938:14939   */\n      0x00\n        /* \"#utility.yul\":14930:14936   */\n      dup3\n        /* \"#utility.yul\":14926:14940   */\n      add\n        /* \"#utility.yul\":14919:14977   */\n      mstore\n        /* \"#utility.yul\":15011:15019   */\n      0x70726963652e0000000000000000000000000000000000000000000000000000\n        /* \"#utility.yul\":15006:15008   */\n      0x20\n        /* \"#utility.yul\":14998:15004   */\n      dup3\n        /* \"#utility.yul\":14994:15009   */\n      add\n        /* \"#utility.yul\":14987:15020   */\n      mstore\n        /* \"#utility.yul\":14802:15027   */\n      pop\n      jump\t// out\n        /* \"#utility.yul\":15033:15399   */\n    tag_179:\n        /* \"#utility.yul\":15175:15178   */\n      0x00\n        /* \"#utility.yul\":15196:15263   */\n      tag_311\n        /* \"#utility.yul\":15260:15262   */\n      0x26\n        /* \"#utility.yul\":15255:15258   */\n      dup4\n        /* \"#utility.yul\":15196:15263   */\n      tag_169\n      jump\t// in\n    tag_311:\n        /* \"#utility.yul\":15189:15263   */\n      swap2\n      pop\n        /* \"#utility.yul\":15272:15365   */\n      tag_312\n        /* \"#utility.yul\":15361:15364   */\n      dup3\n        /* \"#utility.yul\":15272:15365   */\n      tag_178\n      jump\t// in\n    tag_312:\n        /* \"#utility.yul\":15390:15392   */\n      0x40\n        /* \"#utility.yul\":15385:15388   */\n      dup3\n        /* \"#utility.yul\":15381:15393   */\n      add\n        /* \"#utility.yul\":15374:15393   */\n      swap1\n      pop\n        /* \"#utility.yul\":15033:15399   */\n      swap2\n      swap1\n      pop\n      jump\t// out\n        /* \"#utility.yul\":15405:15824   */\n    tag_125:\n        /* \"#utility.yul\":15571:15575   */\n      0x00\n        /* \"#utility.yul\":15609:15611   */\n      0x20\n        /* \"#utility.yul\":15598:15607   */\n      dup3\n        /* \"#utility.yul\":15594:15612   */\n      add\n        /* \"#utility.yul\":15586:15612   */\n      swap1\n      pop\n        /* \"#utility.yul\":15658:15667   */\n      dup2\n        /* \"#utility.yul\":15652:15656   */\n      dup2\n        /* \"#utility.yul\":15648:15668   */\n      sub\n        /* \"#utility.yul\":15644:15645   */\n      0x00\n        /* \"#utility.yul\":15633:15642   */\n      dup4\n        /* \"#utility.yul\":15629:15646   */\n      add\n        /* \"#utility.yul\":15622:15669   */\n      mstore\n        /* \"#utility.yul\":15686:15817   */\n      tag_314\n        /* \"#utility.yul\":15812:15816   */\n      dup2\n        /* \"#utility.yul\":15686:15817   */\n      tag_179\n      jump\t// in\n    tag_314:\n        /* \"#utility.yul\":15678:15817   */\n      swap1\n      pop\n        /* \"#utility.yul\":15405:15824   */\n      swap2\n      swap1\n      pop\n      jump\t// out\n        /* \"#utility.yul\":15830:16010   */\n    tag_180:\n        /* \"#utility.yul\":15878:15955   */\n      0x4e487b7100000000000000000000000000000000000000000000000000000000\n        /* \"#utility.yul\":15875:15876   */\n      0x00\n        /* \"#utility.yul\":15868:15956   */\n      mstore\n        /* \"#utility.yul\":15975:15979   */\n      0x11\n        /* \"#utility.yul\":15972:15973   */\n      0x04\n        /* \"#utility.yul\":15965:15980   */\n      mstore\n        /* \"#utility.yul\":15999:16003   */\n      0x24\n        /* \"#utility.yul\":15996:15997   */\n      0x00\n        /* \"#utility.yul\":15989:16004   */\n      revert\n        /* \"#utility.yul\":16016:16249   */\n    tag_132:\n        /* \"#utility.yul\":16055:16058   */\n      0x00\n        /* \"#utility.yul\":16078:16102   */\n      tag_317\n        /* \"#utility.yul\":16096:16101   */\n      dup3\n        /* \"#utility.yul\":16078:16102   */\n      tag_146\n      jump\t// in\n    tag_317:\n        /* \"#utility.yul\":16069:16102   */\n      swap2\n      pop\n        /* \"#utility.yul\":16124:16190   */\n      0xffffffffffffffffffffffffffffffffffffffffffffffffffffffffffffffff\n        /* \"#utility.yul\":16117:16122   */\n      dup3\n        /* \"#utility.yul\":16114:16191   */\n      sub\n        /* \"#utility.yul\":16111:16214   */\n      tag_318\n      jumpi\n        /* \"#utility.yul\":16194:16212   */\n      tag_319\n      tag_180\n      jump\t// in\n    tag_319:\n        /* \"#utility.yul\":16111:16214   */\n    tag_318:\n        /* \"#utility.yul\":16241:16242   */\n      0x01\n        /* \"#utility.yul\":16234:16239   */\n      dup3\n        /* \"#utility.yul\":16230:16243   */\n      add\n        /* \"#utility.yul\":16223:16243   */\n      swap1\n      pop\n        /* \"#utility.yul\":16016:16249   */\n      swap2\n      swap1\n      pop\n      jump\t// out\n        /* \"#utility.yul\":16255:16697   */\n    tag_139:\n        /* \"#utility.yul\":16404:16408   */\n      0x00\n        /* \"#utility.yul\":16442:16444   */\n      0x60\n        /* \"#utility.yul\":16431:16440   */\n      dup3\n        /* \"#utility.yul\":16427:16445   */\n      add\n        /* \"#utility.yul\":16419:16445   */\n      swap1\n      pop\n        /* \"#utility.yul\":16455:16526   */\n      tag_321\n        /* \"#utility.yul\":16523:16524   */\n      0x00\n        /* \"#utility.yul\":16512:16521   */\n      dup4\n        /* \"#utility.yul\":16508:16525   */\n      add\n        /* \"#utility.yul\":16499:16505   */\n      dup7\n        /* \"#utility.yul\":16455:16526   */\n      tag_166\n      jump\t// in\n    tag_321:\n        /* \"#utility.yul\":16536:16608   */\n      tag_322\n        /* \"#utility.yul\":16604:16606   */\n      0x20\n        /* \"#utility.yul\":16593:16602   */\n      dup4\n        /* \"#utility.yul\":16589:16607   */\n      add\n        /* \"#utility.yul\":16580:16586   */\n      dup6\n        /* \"#utility.yul\":16536:16608   */\n      tag_166\n      jump\t// in\n    tag_322:\n        /* \"#utility.yul\":16618:16690   */\n      tag_323\n        /* \"#utility.yul\":16686:16688   */\n      0x40\n        /* \"#utility.yul\":16675:16684   */\n      dup4\n        /* \"#utility.yul\":16671:16689   */\n      add\n        /* \"#utility.yul\":16662:16668   */\n      dup5\n        /* \"#utility.yul\":16618:16690   */\n      tag_166\n      jump\t// in\n    tag_323:\n        /* \"#utility.yul\":16255:16697   */\n      swap5\n      swap4\n      pop\n      pop\n      pop\n      pop\n      jump\t// out\n\n    auxdata: 0xa264697066735822122005e1963fb1c7004dfd4c61775dbd22e4b660db273919da29a776cd5bf744d3e264736f6c63430008120033\n}\n",
				"bytecode": {
					"linkReferences": {},
					"object": "608060405234801561001057600080fd5b506000600181905550611947806100286000396000f3fe60806040526004361061007b5760003560e01c806397caddfd1161004e57806397caddfd1461015c578063aace20b714610185578063b7dfd93d146101b0578063cbc4b181146101ed5761007b565b806327506f53146100805780635667e02f146100ab5780637ff5265d146100ef5780638365da5414610118575b600080fd5b34801561008c57600080fd5b50610095610209565b6040516100a29190611366565b60405180910390f35b3480156100b757600080fd5b506100d260048036038101906100cd91906113e5565b610393565b6040516100e6989796959493929190611461565b60405180910390f35b3480156100fb57600080fd5b50610116600480360381019061011191906114df565b610452565b005b34801561012457600080fd5b5061013f600480360381019061013a91906113e5565b6106ae565b604051610153989796959493929190611461565b60405180910390f35b34801561016857600080fd5b50610183600480360381019061017e91906114df565b610898565b005b34801561019157600080fd5b5061019a610c6c565b6040516101a79190611532565b60405180910390f35b3480156101bc57600080fd5b506101d760048036038101906101d2919061154d565b610c72565b6040516101e49190611532565b60405180910390f35b6102076004803603810190610202919061157a565b610cbd565b005b60606002805480602002602001604051908101604052809291908181526020016000905b8282101561038a5783829060005260206000209060070201604051806101000160405290816000820160009054906101000a900473ffffffffffffffffffffffffffffffffffffffff1673ffffffffffffffffffffffffffffffffffffffff1673ffffffffffffffffffffffffffffffffffffffff1681526020016001820160009054906101000a900473ffffffffffffffffffffffffffffffffffffffff1673ffffffffffffffffffffffffffffffffffffffff1673ffffffffffffffffffffffffffffffffffffffff168152602001600282015481526020016003820154815260200160048201548152602001600582015481526020016006820160009054906101000a900460ff16600281111561034a576103496111ae565b5b600281111561035c5761035b6111ae565b5b81526020016006820160019054906101000a900460ff1615151515815250508152602001906001019061022d565b50505050905090565b600060205281600052604060002081815481106103af57600080fd5b9060005260206000209060070201600091509150508060000160009054906101000a900473ffffffffffffffffffffffffffffffffffffffff16908060010160009054906101000a900473ffffffffffffffffffffffffffffffffffffffff16908060020154908060030154908060040154908060050154908060060160009054906101000a900460ff16908060060160019054906101000a900460ff16905088565b60008060008573ffffffffffffffffffffffffffffffffffffffff1673ffffffffffffffffffffffffffffffffffffffff16815260200190815260200160002082815481106104a4576104a36115e1565b5b906000526020600020906007020190506000600283815481106104ca576104c96115e1565b5b906000526020600020906007020190508373ffffffffffffffffffffffffffffffffffffffff168260010160009054906101000a900473ffffffffffffffffffffffffffffffffffffffff1673ffffffffffffffffffffffffffffffffffffffff161461056c576040517f08c379a00000000000000000000000000000000000000000000000000000000081526004016105639061166d565b60405180910390fd5b600060028111156105805761057f6111ae565b5b8260060160009054906101000a900460ff1660028111156105a4576105a36111ae565b5b146105e4576040517f08c379a00000000000000000000000000000000000000000000000000000000081526004016105db906116d9565b60405180910390fd5b60018260060160006101000a81548160ff0219169083600281111561060c5761060b6111ae565b5b021790555060018160060160006101000a81548160ff02191690836002811115610639576106386111ae565b5b02179055508373ffffffffffffffffffffffffffffffffffffffff168573ffffffffffffffffffffffffffffffffffffffff167faafab9f94340179ff9cefd29621e1772a4b8efab8023163838f1b0a8f6ce5df5846002015460405161069f9190611532565b60405180910390a35050505050565b60008060008060008060008060008060008c73ffffffffffffffffffffffffffffffffffffffff1673ffffffffffffffffffffffffffffffffffffffff1681526020019081526020016000208a8154811061070c5761070b6115e1565b5b9060005260206000209060070201604051806101000160405290816000820160009054906101000a900473ffffffffffffffffffffffffffffffffffffffff1673ffffffffffffffffffffffffffffffffffffffff1673ffffffffffffffffffffffffffffffffffffffff1681526020016001820160009054906101000a900473ffffffffffffffffffffffffffffffffffffffff1673ffffffffffffffffffffffffffffffffffffffff1673ffffffffffffffffffffffffffffffffffffffff168152602001600282015481526020016003820154815260200160048201548152602001600582015481526020016006820160009054906101000a900460ff16600281111561081f5761081e6111ae565b5b6002811115610831576108306111ae565b5b81526020016006820160019054906101000a900460ff1615151515815250509050806000015181602001518260a001518360400151846060015185608001518660c001518760e0015198509850985098509850985098509850509295985092959890939650565b60008060008573ffffffffffffffffffffffffffffffffffffffff1673ffffffffffffffffffffffffffffffffffffffff16815260200190815260200160002082815481106108ea576108e96115e1565b5b906000526020600020906007020190506000600283815481106109105761090f6115e1565b5b906000526020600020906007020190508373ffffffffffffffffffffffffffffffffffffffff168260010160009054906101000a900473ffffffffffffffffffffffffffffffffffffffff1673ffffffffffffffffffffffffffffffffffffffff16146109b2576040517f08c379a00000000000000000000000000000000000000000000000000000000081526004016109a99061166d565b60405180910390fd5b600160028111156109c6576109c56111ae565b5b8260060160009054906101000a900460ff1660028111156109ea576109e96111ae565b5b14610a2a576040517f08c379a0000000000000000000000000000000000000000000000000000000008152600401610a2190611745565b60405180910390fd5b8160060160019054906101000a900460ff1615610a7c576040517f08c379a0000000000000000000000000000000000000000000000000000000008152600401610a73906117b1565b60405180910390fd5b60028260060160006101000a81548160ff02191690836002811115610aa457610aa36111ae565b5b021790555060028160060160006101000a81548160ff02191690836002811115610ad157610ad06111ae565b5b02179055504281600301819055504282600301819055506000826005015490508260000160009054906101000a900473ffffffffffffffffffffffffffffffffffffffff1673ffffffffffffffffffffffffffffffffffffffff166108fc829081150290604051600060405180830381858888f19350505050158015610b5b573d6000803e3d6000fd5b5060018360060160016101000a81548160ff02191690831515021790555060018260060160016101000a81548160ff0219169083151502179055508473ffffffffffffffffffffffffffffffffffffffff168673ffffffffffffffffffffffffffffffffffffffff167f3746ccceb54f44c9b0ee0120e596168d07ec9f6ca303cfdd9810d3b2e2686a2e83604051610bf39190611532565b60405180910390a38473ffffffffffffffffffffffffffffffffffffffff168673ffffffffffffffffffffffffffffffffffffffff167f3746ccceb54f44c9b0ee0120e596168d07ec9f6ca303cfdd9810d3b2e2686a2e8560030154604051610c5c9190611532565b60405180910390a3505050505050565b60015481565b60008060008373ffffffffffffffffffffffffffffffffffffffff1673ffffffffffffffffffffffffffffffffffffffff168152602001908152602001600020805490509050919050565b803414610cff576040517f08c379a0000000000000000000000000000000000000000000000000000000008152600401610cf690611843565b60405180910390fd5b60006040518061010001604052803373ffffffffffffffffffffffffffffffffffffffff1681526020018673ffffffffffffffffffffffffffffffffffffffff1681526020018581526020016000815260200184815260200183815260200160006002811115610d7257610d716111ae565b5b81526020016000151581525090506000803373ffffffffffffffffffffffffffffffffffffffff1673ffffffffffffffffffffffffffffffffffffffff16815260200190815260200160002081908060018154018082558091505060019003906000526020600020906007020160009091909190915060008201518160000160006101000a81548173ffffffffffffffffffffffffffffffffffffffff021916908373ffffffffffffffffffffffffffffffffffffffff16021790555060208201518160010160006101000a81548173ffffffffffffffffffffffffffffffffffffffff021916908373ffffffffffffffffffffffffffffffffffffffff16021790555060408201518160020155606082015181600301556080820151816004015560a0820151816005015560c08201518160060160006101000a81548160ff02191690836002811115610ec957610ec86111ae565b5b021790555060e08201518160060160016101000a81548160ff021916908315150217905550505060016000815480929190610f0390611892565b919050555060026040518061010001604052803373ffffffffffffffffffffffffffffffffffffffff1681526020018773ffffffffffffffffffffffffffffffffffffffff1681526020018681526020016000815260200185815260200184815260200160006002811115610f7b57610f7a6111ae565b5b815260200160001515815250908060018154018082558091505060019003906000526020600020906007020160009091909190915060008201518160000160006101000a81548173ffffffffffffffffffffffffffffffffffffffff021916908373ffffffffffffffffffffffffffffffffffffffff16021790555060208201518160010160006101000a81548173ffffffffffffffffffffffffffffffffffffffff021916908373ffffffffffffffffffffffffffffffffffffffff16021790555060408201518160020155606082015181600301556080820151816004015560a0820151816005015560c08201518160060160006101000a81548160ff02191690836002811115611091576110906111ae565b5b021790555060e08201518160060160016101000a81548160ff02191690831515021790555050508473ffffffffffffffffffffffffffffffffffffffff163373ffffffffffffffffffffffffffffffffffffffff167f5001b34ecf2db5b7bbeddcbbe761ec9ecadcc7638018b98ce3e24995b0e946b6868686604051611119939291906118da565b60405180910390a35050505050565b600081519050919050565b600082825260208201905092915050565b6000819050602082019050919050565b600073ffffffffffffffffffffffffffffffffffffffff82169050919050565b600061117f82611154565b9050919050565b61118f81611174565b82525050565b6000819050919050565b6111a881611195565b82525050565b7f4e487b7100000000000000000000000000000000000000000000000000000000600052602160045260246000fd5b600381106111ee576111ed6111ae565b5b50565b60008190506111ff826111dd565b919050565b600061120f826111f1565b9050919050565b61121f81611204565b82525050565b60008115159050919050565b61123a81611225565b82525050565b610100820160008201516112576000850182611186565b50602082015161126a6020850182611186565b50604082015161127d604085018261119f565b506060820151611290606085018261119f565b5060808201516112a3608085018261119f565b5060a08201516112b660a085018261119f565b5060c08201516112c960c0850182611216565b5060e08201516112dc60e0850182611231565b50505050565b60006112ee8383611240565b6101008301905092915050565b6000602082019050919050565b600061131382611128565b61131d8185611133565b935061132883611144565b8060005b8381101561135957815161134088826112e2565b975061134b836112fb565b92505060018101905061132c565b5085935050505092915050565b600060208201905081810360008301526113808184611308565b905092915050565b600080fd5b61139681611174565b81146113a157600080fd5b50565b6000813590506113b38161138d565b92915050565b6113c281611195565b81146113cd57600080fd5b50565b6000813590506113df816113b9565b92915050565b600080604083850312156113fc576113fb611388565b5b600061140a858286016113a4565b925050602061141b858286016113d0565b9150509250929050565b61142e81611174565b82525050565b61143d81611195565b82525050565b61144c81611204565b82525050565b61145b81611225565b82525050565b600061010082019050611477600083018b611425565b611484602083018a611425565b6114916040830189611434565b61149e6060830188611434565b6114ab6080830187611434565b6114b860a0830186611434565b6114c560c0830185611443565b6114d260e0830184611452565b9998505050505050505050565b6000806000606084860312156114f8576114f7611388565b5b6000611506868287016113a4565b9350506020611517868287016113a4565b9250506040611528868287016113d0565b9150509250925092565b60006020820190506115476000830184611434565b92915050565b60006020828403121561156357611562611388565b5b6000611571848285016113a4565b91505092915050565b6000806000806080858703121561159457611593611388565b5b60006115a2878288016113a4565b94505060206115b3878288016113d0565b93505060406115c4878288016113d0565b92505060606115d5878288016113d0565b91505092959194509250565b7f4e487b7100000000000000000000000000000000000000000000000000000000600052603260045260246000fd5b600082825260208201905092915050565b7f496e76616c696420726563656976657200000000000000000000000000000000600082015250565b6000611657601083611610565b915061166282611621565b602082019050919050565b600060208201905081810360008301526116868161164a565b9050919050565b7f536869706d656e7420616c726561647920696e207472616e7369740000000000600082015250565b60006116c3601b83611610565b91506116ce8261168d565b602082019050919050565b600060208201905081810360008301526116f2816116b6565b9050919050565b7f536869706d656e74204e6f7420696e207472616e736974000000000000000000600082015250565b600061172f601783611610565b915061173a826116f9565b602082019050919050565b6000602082019050818103600083015261175e81611722565b9050919050565b7f536869706d656e7420616c726561647920506169642000000000000000000000600082015250565b600061179b601683611610565b91506117a682611765565b602082019050919050565b600060208201905081810360008301526117ca8161178e565b9050919050565b7f20205061796d656e7420616d6f756e74206d757374206d61746368207468652060008201527f70726963652e0000000000000000000000000000000000000000000000000000602082015250565b600061182d602683611610565b9150611838826117d1565b604082019050919050565b6000602082019050818103600083015261185c81611820565b9050919050565b7f4e487b7100000000000000000000000000000000000000000000000000000000600052601160045260246000fd5b600061189d82611195565b91507fffffffffffffffffffffffffffffffffffffffffffffffffffffffffffffffff82036118cf576118ce611863565b5b600182019050919050565b60006060820190506118ef6000830186611434565b6118fc6020830185611434565b6119096040830184611434565b94935050505056fea264697066735822122005e1963fb1c7004dfd4c61775dbd22e4b660db273919da29a776cd5bf744d3e264736f6c63430008120033",
					"opcodes": "PUSH1 0x80 PUSH1 0x40 MSTORE CALLVALUE DUP1 ISZERO PUSH2 0x10 JUMPI PUSH1 0x0 DUP1 REVERT JUMPDEST POP PUSH1 0x0 PUSH1 0x1 DUP2 SWAP1 SSTORE POP PUSH2 0x1947 DUP1 PUSH2 0x28 PUSH1 0x0 CODECOPY PUSH1 0x0 RETURN INVALID PUSH1 0x80 PUSH1 0x40 MSTORE PUSH1 0x4 CALLDATASIZE LT PUSH2 0x7B JUMPI PUSH1 0x0 CALLDATALOAD PUSH1 0xE0 SHR DUP1 PUSH4 0x97CADDFD GT PUSH2 0x4E JUMPI DUP1 PUSH4 0x97CADDFD EQ PUSH2 0x15C JUMPI DUP1 PUSH4 0xAACE20B7 EQ PUSH2 0x185 JUMPI DUP1 PUSH4 0xB7DFD93D EQ PUSH2 0x1B0 JUMPI DUP1 PUSH4 0xCBC4B181 EQ PUSH2 0x1ED JUMPI PUSH2 0x7B JUMP JUMPDEST DUP1 PUSH4 0x27506F53 EQ PUSH2 0x80 JUMPI DUP1 PUSH4 0x5667E02F EQ PUSH2 0xAB JUMPI DUP1 PUSH4 0x7FF5265D EQ PUSH2 0xEF JUMPI DUP1 PUSH4 0x8365DA54 EQ PUSH2 0x118 JUMPI JUMPDEST PUSH1 0x0 DUP1 REVERT JUMPDEST CALLVALUE DUP1 ISZERO PUSH2 0x8C JUMPI PUSH1 0x0 DUP1 REVERT JUMPDEST POP PUSH2 0x95 PUSH2 0x209 JUMP JUMPDEST PUSH1 0x40 MLOAD PUSH2 0xA2 SWAP2 SWAP1 PUSH2 0x1366 JUMP JUMPDEST PUSH1 0x40 MLOAD DUP1 SWAP2 SUB SWAP1 RETURN JUMPDEST CALLVALUE DUP1 ISZERO PUSH2 0xB7 JUMPI PUSH1 0x0 DUP1 REVERT JUMPDEST POP PUSH2 0xD2 PUSH1 0x4 DUP1 CALLDATASIZE SUB DUP2 ADD SWAP1 PUSH2 0xCD SWAP2 SWAP1 PUSH2 0x13E5 JUMP JUMPDEST PUSH2 0x393 JUMP JUMPDEST PUSH1 0x40 MLOAD PUSH2 0xE6 SWAP9 SWAP8 SWAP7 SWAP6 SWAP5 SWAP4 SWAP3 SWAP2 SWAP1 PUSH2 0x1461 JUMP JUMPDEST PUSH1 0x40 MLOAD DUP1 SWAP2 SUB SWAP1 RETURN JUMPDEST CALLVALUE DUP1 ISZERO PUSH2 0xFB JUMPI PUSH1 0x0 DUP1 REVERT JUMPDEST POP PUSH2 0x116 PUSH1 0x4 DUP1 CALLDATASIZE SUB DUP2 ADD SWAP1 PUSH2 0x111 SWAP2 SWAP1 PUSH2 0x14DF JUMP JUMPDEST PUSH2 0x452 JUMP JUMPDEST STOP JUMPDEST CALLVALUE DUP1 ISZERO PUSH2 0x124 JUMPI PUSH1 0x0 DUP1 REVERT JUMPDEST POP PUSH2 0x13F PUSH1 0x4 DUP1 CALLDATASIZE SUB DUP2 ADD SWAP1 PUSH2 0x13A SWAP2 SWAP1 PUSH2 0x13E5 JUMP JUMPDEST PUSH2 0x6AE JUMP JUMPDEST PUSH1 0x40 MLOAD PUSH2 0x153 SWAP9 SWAP8 SWAP7 SWAP6 SWAP5 SWAP4 SWAP3 SWAP2 SWAP1 PUSH2 0x1461 JUMP JUMPDEST PUSH1 0x40 MLOAD DUP1 SWAP2 SUB SWAP1 RETURN JUMPDEST CALLVALUE DUP1 ISZERO PUSH2 0x168 JUMPI PUSH1 0x0 DUP1 REVERT JUMPDEST POP PUSH2 0x183 PUSH1 0x4 DUP1 CALLDATASIZE SUB DUP2 ADD SWAP1 PUSH2 0x17E SWAP2 SWAP1 PUSH2 0x14DF JUMP JUMPDEST PUSH2 0x898 JUMP JUMPDEST STOP JUMPDEST CALLVALUE DUP1 ISZERO PUSH2 0x191 JUMPI PUSH1 0x0 DUP1 REVERT JUMPDEST POP PUSH2 0x19A PUSH2 0xC6C JUMP JUMPDEST PUSH1 0x40 MLOAD PUSH2 0x1A7 SWAP2 SWAP1 PUSH2 0x1532 JUMP JUMPDEST PUSH1 0x40 MLOAD DUP1 SWAP2 SUB SWAP1 RETURN JUMPDEST CALLVALUE DUP1 ISZERO PUSH2 0x1BC JUMPI PUSH1 0x0 DUP1 REVERT JUMPDEST POP PUSH2 0x1D7 PUSH1 0x4 DUP1 CALLDATASIZE SUB DUP2 ADD SWAP1 PUSH2 0x1D2 SWAP2 SWAP1 PUSH2 0x154D JUMP JUMPDEST PUSH2 0xC72 JUMP JUMPDEST PUSH1 0x40 MLOAD PUSH2 0x1E4 SWAP2 SWAP1 PUSH2 0x1532 JUMP JUMPDEST PUSH1 0x40 MLOAD DUP1 SWAP2 SUB SWAP1 RETURN JUMPDEST PUSH2 0x207 PUSH1 0x4 DUP1 CALLDATASIZE SUB DUP2 ADD SWAP1 PUSH2 0x202 SWAP2 SWAP1 PUSH2 0x157A JUMP JUMPDEST PUSH2 0xCBD JUMP JUMPDEST STOP JUMPDEST PUSH1 0x60 PUSH1 0x2 DUP1 SLOAD DUP1 PUSH1 0x20 MUL PUSH1 0x20 ADD PUSH1 0x40 MLOAD SWAP1 DUP2 ADD PUSH1 0x40 MSTORE DUP1 SWAP3 SWAP2 SWAP1 DUP2 DUP2 MSTORE PUSH1 0x20 ADD PUSH1 0x0 SWAP1 JUMPDEST DUP3 DUP3 LT ISZERO PUSH2 0x38A JUMPI DUP4 DUP3 SWAP1 PUSH1 0x0 MSTORE PUSH1 0x20 PUSH1 0x0 KECCAK256 SWAP1 PUSH1 0x7 MUL ADD PUSH1 0x40 MLOAD DUP1 PUSH2 0x100 ADD PUSH1 0x40 MSTORE SWAP1 DUP2 PUSH1 0x0 DUP3 ADD PUSH1 0x0 SWAP1 SLOAD SWAP1 PUSH2 0x100 EXP SWAP1 DIV PUSH20 0xFFFFFFFFFFFFFFFFFFFFFFFFFFFFFFFFFFFFFFFF AND PUSH20 0xFFFFFFFFFFFFFFFFFFFFFFFFFFFFFFFFFFFFFFFF AND PUSH20 0xFFFFFFFFFFFFFFFFFFFFFFFFFFFFFFFFFFFFFFFF AND DUP2 MSTORE PUSH1 0x20 ADD PUSH1 0x1 DUP3 ADD PUSH1 0x0 SWAP1 SLOAD SWAP1 PUSH2 0x100 EXP SWAP1 DIV PUSH20 0xFFFFFFFFFFFFFFFFFFFFFFFFFFFFFFFFFFFFFFFF AND PUSH20 0xFFFFFFFFFFFFFFFFFFFFFFFFFFFFFFFFFFFFFFFF AND PUSH20 0xFFFFFFFFFFFFFFFFFFFFFFFFFFFFFFFFFFFFFFFF AND DUP2 MSTORE PUSH1 0x20 ADD PUSH1 0x2 DUP3 ADD SLOAD DUP2 MSTORE PUSH1 0x20 ADD PUSH1 0x3 DUP3 ADD SLOAD DUP2 MSTORE PUSH1 0x20 ADD PUSH1 0x4 DUP3 ADD SLOAD DUP2 MSTORE PUSH1 0x20 ADD PUSH1 0x5 DUP3 ADD SLOAD DUP2 MSTORE PUSH1 0x20 ADD PUSH1 0x6 DUP3 ADD PUSH1 0x0 SWAP1 SLOAD SWAP1 PUSH2 0x100 EXP SWAP1 DIV PUSH1 0xFF AND PUSH1 0x2 DUP2 GT ISZERO PUSH2 0x34A JUMPI PUSH2 0x349 PUSH2 0x11AE JUMP JUMPDEST JUMPDEST PUSH1 0x2 DUP2 GT ISZERO PUSH2 0x35C JUMPI PUSH2 0x35B PUSH2 0x11AE JUMP JUMPDEST JUMPDEST DUP2 MSTORE PUSH1 0x20 ADD PUSH1 0x6 DUP3 ADD PUSH1 0x1 SWAP1 SLOAD SWAP1 PUSH2 0x100 EXP SWAP1 DIV PUSH1 0xFF AND ISZERO ISZERO ISZERO ISZERO DUP2 MSTORE POP POP DUP2 MSTORE PUSH1 0x20 ADD SWAP1 PUSH1 0x1 ADD SWAP1 PUSH2 0x22D JUMP JUMPDEST POP POP POP POP SWAP1 POP SWAP1 JUMP JUMPDEST PUSH1 0x0 PUSH1 0x20 MSTORE DUP2 PUSH1 0x0 MSTORE PUSH1 0x40 PUSH1 0x0 KECCAK256 DUP2 DUP2 SLOAD DUP2 LT PUSH2 0x3AF JUMPI PUSH1 0x0 DUP1 REVERT JUMPDEST SWAP1 PUSH1 0x0 MSTORE PUSH1 0x20 PUSH1 0x0 KECCAK256 SWAP1 PUSH1 0x7 MUL ADD PUSH1 0x0 SWAP2 POP SWAP2 POP POP DUP1 PUSH1 0x0 ADD PUSH1 0x0 SWAP1 SLOAD SWAP1 PUSH2 0x100 EXP SWAP1 DIV PUSH20 0xFFFFFFFFFFFFFFFFFFFFFFFFFFFFFFFFFFFFFFFF AND SWAP1 DUP1 PUSH1 0x1 ADD PUSH1 0x0 SWAP1 SLOAD SWAP1 PUSH2 0x100 EXP SWAP1 DIV PUSH20 0xFFFFFFFFFFFFFFFFFFFFFFFFFFFFFFFFFFFFFFFF AND SWAP1 DUP1 PUSH1 0x2 ADD SLOAD SWAP1 DUP1 PUSH1 0x3 ADD SLOAD SWAP1 DUP1 PUSH1 0x4 ADD SLOAD SWAP1 DUP1 PUSH1 0x5 ADD SLOAD SWAP1 DUP1 PUSH1 0x6 ADD PUSH1 0x0 SWAP1 SLOAD SWAP1 PUSH2 0x100 EXP SWAP1 DIV PUSH1 0xFF AND SWAP1 DUP1 PUSH1 0x6 ADD PUSH1 0x1 SWAP1 SLOAD SWAP1 PUSH2 0x100 EXP SWAP1 DIV PUSH1 0xFF AND SWAP1 POP DUP9 JUMP JUMPDEST PUSH1 0x0 DUP1 PUSH1 0x0 DUP6 PUSH20 0xFFFFFFFFFFFFFFFFFFFFFFFFFFFFFFFFFFFFFFFF AND PUSH20 0xFFFFFFFFFFFFFFFFFFFFFFFFFFFFFFFFFFFFFFFF AND DUP2 MSTORE PUSH1 0x20 ADD SWAP1 DUP2 MSTORE PUSH1 0x20 ADD PUSH1 0x0 KECCAK256 DUP3 DUP2 SLOAD DUP2 LT PUSH2 0x4A4 JUMPI PUSH2 0x4A3 PUSH2 0x15E1 JUMP JUMPDEST JUMPDEST SWAP1 PUSH1 0x0 MSTORE PUSH1 0x20 PUSH1 0x0 KECCAK256 SWAP1 PUSH1 0x7 MUL ADD SWAP1 POP PUSH1 0x0 PUSH1 0x2 DUP4 DUP2 SLOAD DUP2 LT PUSH2 0x4CA JUMPI PUSH2 0x4C9 PUSH2 0x15E1 JUMP JUMPDEST JUMPDEST SWAP1 PUSH1 0x0 MSTORE PUSH1 0x20 PUSH1 0x0 KECCAK256 SWAP1 PUSH1 0x7 MUL ADD SWAP1 POP DUP4 PUSH20 0xFFFFFFFFFFFFFFFFFFFFFFFFFFFFFFFFFFFFFFFF AND DUP3 PUSH1 0x1 ADD PUSH1 0x0 SWAP1 SLOAD SWAP1 PUSH2 0x100 EXP SWAP1 DIV PUSH20 0xFFFFFFFFFFFFFFFFFFFFFFFFFFFFFFFFFFFFFFFF AND PUSH20 0xFFFFFFFFFFFFFFFFFFFFFFFFFFFFFFFFFFFFFFFF AND EQ PUSH2 0x56C JUMPI PUSH1 0x40 MLOAD PUSH32 0x8C379A000000000000000000000000000000000000000000000000000000000 DUP2 MSTORE PUSH1 0x4 ADD PUSH2 0x563 SWAP1 PUSH2 0x166D JUMP JUMPDEST PUSH1 0x40 MLOAD DUP1 SWAP2 SUB SWAP1 REVERT JUMPDEST PUSH1 0x0 PUSH1 0x2 DUP2 GT ISZERO PUSH2 0x580 JUMPI PUSH2 0x57F PUSH2 0x11AE JUMP JUMPDEST JUMPDEST DUP3 PUSH1 0x6 ADD PUSH1 0x0 SWAP1 SLOAD SWAP1 PUSH2 0x100 EXP SWAP1 DIV PUSH1 0xFF AND PUSH1 0x2 DUP2 GT ISZERO PUSH2 0x5A4 JUMPI PUSH2 0x5A3 PUSH2 0x11AE JUMP JUMPDEST JUMPDEST EQ PUSH2 0x5E4 JUMPI PUSH1 0x40 MLOAD PUSH32 0x8C379A000000000000000000000000000000000000000000000000000000000 DUP2 MSTORE PUSH1 0x4 ADD PUSH2 0x5DB SWAP1 PUSH2 0x16D9 JUMP JUMPDEST PUSH1 0x40 MLOAD DUP1 SWAP2 SUB SWAP1 REVERT JUMPDEST PUSH1 0x1 DUP3 PUSH1 0x6 ADD PUSH1 0x0 PUSH2 0x100 EXP DUP2 SLOAD DUP2 PUSH1 0xFF MUL NOT AND SWAP1 DUP4 PUSH1 0x2 DUP2 GT ISZERO PUSH2 0x60C JUMPI PUSH2 0x60B PUSH2 0x11AE JUMP JUMPDEST JUMPDEST MUL OR SWAP1 SSTORE POP PUSH1 0x1 DUP2 PUSH1 0x6 ADD PUSH1 0x0 PUSH2 0x100 EXP DUP2 SLOAD DUP2 PUSH1 0xFF MUL NOT AND SWAP1 DUP4 PUSH1 0x2 DUP2 GT ISZERO PUSH2 0x639 JUMPI PUSH2 0x638 PUSH2 0x11AE JUMP JUMPDEST JUMPDEST MUL OR SWAP1 SSTORE POP DUP4 PUSH20 0xFFFFFFFFFFFFFFFFFFFFFFFFFFFFFFFFFFFFFFFF AND DUP6 PUSH20 0xFFFFFFFFFFFFFFFFFFFFFFFFFFFFFFFFFFFFFFFF AND PUSH32 0xAAFAB9F94340179FF9CEFD29621E1772A4B8EFAB8023163838F1B0A8F6CE5DF5 DUP5 PUSH1 0x2 ADD SLOAD PUSH1 0x40 MLOAD PUSH2 0x69F SWAP2 SWAP1 PUSH2 0x1532 JUMP JUMPDEST PUSH1 0x40 MLOAD DUP1 SWAP2 SUB SWAP1 LOG3 POP POP POP POP POP JUMP JUMPDEST PUSH1 0x0 DUP1 PUSH1 0x0 DUP1 PUSH1 0x0 DUP1 PUSH1 0x0 DUP1 PUSH1 0x0 DUP1 PUSH1 0x0 DUP13 PUSH20 0xFFFFFFFFFFFFFFFFFFFFFFFFFFFFFFFFFFFFFFFF AND PUSH20 0xFFFFFFFFFFFFFFFFFFFFFFFFFFFFFFFFFFFFFFFF AND DUP2 MSTORE PUSH1 0x20 ADD SWAP1 DUP2 MSTORE PUSH1 0x20 ADD PUSH1 0x0 KECCAK256 DUP11 DUP2 SLOAD DUP2 LT PUSH2 0x70C JUMPI PUSH2 0x70B PUSH2 0x15E1 JUMP JUMPDEST JUMPDEST SWAP1 PUSH1 0x0 MSTORE PUSH1 0x20 PUSH1 0x0 KECCAK256 SWAP1 PUSH1 0x7 MUL ADD PUSH1 0x40 MLOAD DUP1 PUSH2 0x100 ADD PUSH1 0x40 MSTORE SWAP1 DUP2 PUSH1 0x0 DUP3 ADD PUSH1 0x0 SWAP1 SLOAD SWAP1 PUSH2 0x100 EXP SWAP1 DIV PUSH20 0xFFFFFFFFFFFFFFFFFFFFFFFFFFFFFFFFFFFFFFFF AND PUSH20 0xFFFFFFFFFFFFFFFFFFFFFFFFFFFFFFFFFFFFFFFF AND PUSH20 0xFFFFFFFFFFFFFFFFFFFFFFFFFFFFFFFFFFFFFFFF AND DUP2 MSTORE PUSH1 0x20 ADD PUSH1 0x1 DUP3 ADD PUSH1 0x0 SWAP1 SLOAD SWAP1 PUSH2 0x100 EXP SWAP1 DIV PUSH20 0xFFFFFFFFFFFFFFFFFFFFFFFFFFFFFFFFFFFFFFFF AND PUSH20 0xFFFFFFFFFFFFFFFFFFFFFFFFFFFFFFFFFFFFFFFF AND PUSH20 0xFFFFFFFFFFFFFFFFFFFFFFFFFFFFFFFFFFFFFFFF AND DUP2 MSTORE PUSH1 0x20 ADD PUSH1 0x2 DUP3 ADD SLOAD DUP2 MSTORE PUSH1 0x20 ADD PUSH1 0x3 DUP3 ADD SLOAD DUP2 MSTORE PUSH1 0x20 ADD PUSH1 0x4 DUP3 ADD SLOAD DUP2 MSTORE PUSH1 0x20 ADD PUSH1 0x5 DUP3 ADD SLOAD DUP2 MSTORE PUSH1 0x20 ADD PUSH1 0x6 DUP3 ADD PUSH1 0x0 SWAP1 SLOAD SWAP1 PUSH2 0x100 EXP SWAP1 DIV PUSH1 0xFF AND PUSH1 0x2 DUP2 GT ISZERO PUSH2 0x81F JUMPI PUSH2 0x81E PUSH2 0x11AE JUMP JUMPDEST JUMPDEST PUSH1 0x2 DUP2 GT ISZERO PUSH2 0x831 JUMPI PUSH2 0x830 PUSH2 0x11AE JUMP JUMPDEST JUMPDEST DUP2 MSTORE PUSH1 0x20 ADD PUSH1 0x6 DUP3 ADD PUSH1 0x1 SWAP1 SLOAD SWAP1 PUSH2 0x100 EXP SWAP1 DIV PUSH1 0xFF AND ISZERO ISZERO ISZERO ISZERO DUP2 MSTORE POP POP SWAP1 POP DUP1 PUSH1 0x0 ADD MLOAD DUP2 PUSH1 0x20 ADD MLOAD DUP3 PUSH1 0xA0 ADD MLOAD DUP4 PUSH1 0x40 ADD MLOAD DUP5 PUSH1 0x60 ADD MLOAD DUP6 PUSH1 0x80 ADD MLOAD DUP7 PUSH1 0xC0 ADD MLOAD DUP8 PUSH1 0xE0 ADD MLOAD SWAP9 POP SWAP9 POP SWAP9 POP SWAP9 POP SWAP9 POP SWAP9 POP SWAP9 POP SWAP9 POP POP SWAP3 SWAP6 SWAP9 POP SWAP3 SWAP6 SWAP9 SWAP1 SWAP4 SWAP7 POP JUMP JUMPDEST PUSH1 0x0 DUP1 PUSH1 0x0 DUP6 PUSH20 0xFFFFFFFFFFFFFFFFFFFFFFFFFFFFFFFFFFFFFFFF AND PUSH20 0xFFFFFFFFFFFFFFFFFFFFFFFFFFFFFFFFFFFFFFFF AND DUP2 MSTORE PUSH1 0x20 ADD SWAP1 DUP2 MSTORE PUSH1 0x20 ADD PUSH1 0x0 KECCAK256 DUP3 DUP2 SLOAD DUP2 LT PUSH2 0x8EA JUMPI PUSH2 0x8E9 PUSH2 0x15E1 JUMP JUMPDEST JUMPDEST SWAP1 PUSH1 0x0 MSTORE PUSH1 0x20 PUSH1 0x0 KECCAK256 SWAP1 PUSH1 0x7 MUL ADD SWAP1 POP PUSH1 0x0 PUSH1 0x2 DUP4 DUP2 SLOAD DUP2 LT PUSH2 0x910 JUMPI PUSH2 0x90F PUSH2 0x15E1 JUMP JUMPDEST JUMPDEST SWAP1 PUSH1 0x0 MSTORE PUSH1 0x20 PUSH1 0x0 KECCAK256 SWAP1 PUSH1 0x7 MUL ADD SWAP1 POP DUP4 PUSH20 0xFFFFFFFFFFFFFFFFFFFFFFFFFFFFFFFFFFFFFFFF AND DUP3 PUSH1 0x1 ADD PUSH1 0x0 SWAP1 SLOAD SWAP1 PUSH2 0x100 EXP SWAP1 DIV PUSH20 0xFFFFFFFFFFFFFFFFFFFFFFFFFFFFFFFFFFFFFFFF AND PUSH20 0xFFFFFFFFFFFFFFFFFFFFFFFFFFFFFFFFFFFFFFFF AND EQ PUSH2 0x9B2 JUMPI PUSH1 0x40 MLOAD PUSH32 0x8C379A000000000000000000000000000000000000000000000000000000000 DUP2 MSTORE PUSH1 0x4 ADD PUSH2 0x9A9 SWAP1 PUSH2 0x166D JUMP JUMPDEST PUSH1 0x40 MLOAD DUP1 SWAP2 SUB SWAP1 REVERT JUMPDEST PUSH1 0x1 PUSH1 0x2 DUP2 GT ISZERO PUSH2 0x9C6 JUMPI PUSH2 0x9C5 PUSH2 0x11AE JUMP JUMPDEST JUMPDEST DUP3 PUSH1 0x6 ADD PUSH1 0x0 SWAP1 SLOAD SWAP1 PUSH2 0x100 EXP SWAP1 DIV PUSH1 0xFF AND PUSH1 0x2 DUP2 GT ISZERO PUSH2 0x9EA JUMPI PUSH2 0x9E9 PUSH2 0x11AE JUMP JUMPDEST JUMPDEST EQ PUSH2 0xA2A JUMPI PUSH1 0x40 MLOAD PUSH32 0x8C379A000000000000000000000000000000000000000000000000000000000 DUP2 MSTORE PUSH1 0x4 ADD PUSH2 0xA21 SWAP1 PUSH2 0x1745 JUMP JUMPDEST PUSH1 0x40 MLOAD DUP1 SWAP2 SUB SWAP1 REVERT JUMPDEST DUP2 PUSH1 0x6 ADD PUSH1 0x1 SWAP1 SLOAD SWAP1 PUSH2 0x100 EXP SWAP1 DIV PUSH1 0xFF AND ISZERO PUSH2 0xA7C JUMPI PUSH1 0x40 MLOAD PUSH32 0x8C379A000000000000000000000000000000000000000000000000000000000 DUP2 MSTORE PUSH1 0x4 ADD PUSH2 0xA73 SWAP1 PUSH2 0x17B1 JUMP JUMPDEST PUSH1 0x40 MLOAD DUP1 SWAP2 SUB SWAP1 REVERT JUMPDEST PUSH1 0x2 DUP3 PUSH1 0x6 ADD PUSH1 0x0 PUSH2 0x100 EXP DUP2 SLOAD DUP2 PUSH1 0xFF MUL NOT AND SWAP1 DUP4 PUSH1 0x2 DUP2 GT ISZERO PUSH2 0xAA4 JUMPI PUSH2 0xAA3 PUSH2 0x11AE JUMP JUMPDEST JUMPDEST MUL OR SWAP1 SSTORE POP PUSH1 0x2 DUP2 PUSH1 0x6 ADD PUSH1 0x0 PUSH2 0x100 EXP DUP2 SLOAD DUP2 PUSH1 0xFF MUL NOT AND SWAP1 DUP4 PUSH1 0x2 DUP2 GT ISZERO PUSH2 0xAD1 JUMPI PUSH2 0xAD0 PUSH2 0x11AE JUMP JUMPDEST JUMPDEST MUL OR SWAP1 SSTORE POP TIMESTAMP DUP2 PUSH1 0x3 ADD DUP2 SWAP1 SSTORE POP TIMESTAMP DUP3 PUSH1 0x3 ADD DUP2 SWAP1 SSTORE POP PUSH1 0x0 DUP3 PUSH1 0x5 ADD SLOAD SWAP1 POP DUP3 PUSH1 0x0 ADD PUSH1 0x0 SWAP1 SLOAD SWAP1 PUSH2 0x100 EXP SWAP1 DIV PUSH20 0xFFFFFFFFFFFFFFFFFFFFFFFFFFFFFFFFFFFFFFFF AND PUSH20 0xFFFFFFFFFFFFFFFFFFFFFFFFFFFFFFFFFFFFFFFF AND PUSH2 0x8FC DUP3 SWAP1 DUP2 ISZERO MUL SWAP1 PUSH1 0x40 MLOAD PUSH1 0x0 PUSH1 0x40 MLOAD DUP1 DUP4 SUB DUP2 DUP6 DUP9 DUP9 CALL SWAP4 POP POP POP POP ISZERO DUP1 ISZERO PUSH2 0xB5B JUMPI RETURNDATASIZE PUSH1 0x0 DUP1 RETURNDATACOPY RETURNDATASIZE PUSH1 0x0 REVERT JUMPDEST POP PUSH1 0x1 DUP4 PUSH1 0x6 ADD PUSH1 0x1 PUSH2 0x100 EXP DUP2 SLOAD DUP2 PUSH1 0xFF MUL NOT AND SWAP1 DUP4 ISZERO ISZERO MUL OR SWAP1 SSTORE POP PUSH1 0x1 DUP3 PUSH1 0x6 ADD PUSH1 0x1 PUSH2 0x100 EXP DUP2 SLOAD DUP2 PUSH1 0xFF MUL NOT AND SWAP1 DUP4 ISZERO ISZERO MUL OR SWAP1 SSTORE POP DUP5 PUSH20 0xFFFFFFFFFFFFFFFFFFFFFFFFFFFFFFFFFFFFFFFF AND DUP7 PUSH20 0xFFFFFFFFFFFFFFFFFFFFFFFFFFFFFFFFFFFFFFFF AND PUSH32 0x3746CCCEB54F44C9B0EE0120E596168D07EC9F6CA303CFDD9810D3B2E2686A2E DUP4 PUSH1 0x40 MLOAD PUSH2 0xBF3 SWAP2 SWAP1 PUSH2 0x1532 JUMP JUMPDEST PUSH1 0x40 MLOAD DUP1 SWAP2 SUB SWAP1 LOG3 DUP5 PUSH20 0xFFFFFFFFFFFFFFFFFFFFFFFFFFFFFFFFFFFFFFFF AND DUP7 PUSH20 0xFFFFFFFFFFFFFFFFFFFFFFFFFFFFFFFFFFFFFFFF AND PUSH32 0x3746CCCEB54F44C9B0EE0120E596168D07EC9F6CA303CFDD9810D3B2E2686A2E DUP6 PUSH1 0x3 ADD SLOAD PUSH1 0x40 MLOAD PUSH2 0xC5C SWAP2 SWAP1 PUSH2 0x1532 JUMP JUMPDEST PUSH1 0x40 MLOAD DUP1 SWAP2 SUB SWAP1 LOG3 POP POP POP POP POP POP JUMP JUMPDEST PUSH1 0x1 SLOAD DUP2 JUMP JUMPDEST PUSH1 0x0 DUP1 PUSH1 0x0 DUP4 PUSH20 0xFFFFFFFFFFFFFFFFFFFFFFFFFFFFFFFFFFFFFFFF AND PUSH20 0xFFFFFFFFFFFFFFFFFFFFFFFFFFFFFFFFFFFFFFFF AND DUP2 MSTORE PUSH1 0x20 ADD SWAP1 DUP2 MSTORE PUSH1 0x20 ADD PUSH1 0x0 KECCAK256 DUP1 SLOAD SWAP1 POP SWAP1 POP SWAP2 SWAP1 POP JUMP JUMPDEST DUP1 CALLVALUE EQ PUSH2 0xCFF JUMPI PUSH1 0x40 MLOAD PUSH32 0x8C379A000000000000000000000000000000000000000000000000000000000 DUP2 MSTORE PUSH1 0x4 ADD PUSH2 0xCF6 SWAP1 PUSH2 0x1843 JUMP JUMPDEST PUSH1 0x40 MLOAD DUP1 SWAP2 SUB SWAP1 REVERT JUMPDEST PUSH1 0x0 PUSH1 0x40 MLOAD DUP1 PUSH2 0x100 ADD PUSH1 0x40 MSTORE DUP1 CALLER PUSH20 0xFFFFFFFFFFFFFFFFFFFFFFFFFFFFFFFFFFFFFFFF AND DUP2 MSTORE PUSH1 0x20 ADD DUP7 PUSH20 0xFFFFFFFFFFFFFFFFFFFFFFFFFFFFFFFFFFFFFFFF AND DUP2 MSTORE PUSH1 0x20 ADD DUP6 DUP2 MSTORE PUSH1 0x20 ADD PUSH1 0x0 DUP2 MSTORE PUSH1 0x20 ADD DUP5 DUP2 MSTORE PUSH1 0x20 ADD DUP4 DUP2 MSTORE PUSH1 0x20 ADD PUSH1 0x0 PUSH1 0x2 DUP2 GT ISZERO PUSH2 0xD72 JUMPI PUSH2 0xD71 PUSH2 0x11AE JUMP JUMPDEST JUMPDEST DUP2 MSTORE PUSH1 0x20 ADD PUSH1 0x0 ISZERO ISZERO DUP2 MSTORE POP SWAP1 POP PUSH1 0x0 DUP1 CALLER PUSH20 0xFFFFFFFFFFFFFFFFFFFFFFFFFFFFFFFFFFFFFFFF AND PUSH20 0xFFFFFFFFFFFFFFFFFFFFFFFFFFFFFFFFFFFFFFFF AND DUP2 MSTORE PUSH1 0x20 ADD SWAP1 DUP2 MSTORE PUSH1 0x20 ADD PUSH1 0x0 KECCAK256 DUP2 SWAP1 DUP1 PUSH1 0x1 DUP2 SLOAD ADD DUP1 DUP3 SSTORE DUP1 SWAP2 POP POP PUSH1 0x1 SWAP1 SUB SWAP1 PUSH1 0x0 MSTORE PUSH1 0x20 PUSH1 0x0 KECCAK256 SWAP1 PUSH1 0x7 MUL ADD PUSH1 0x0 SWAP1 SWAP2 SWAP1 SWAP2 SWAP1 SWAP2 POP PUSH1 0x0 DUP3 ADD MLOAD DUP2 PUSH1 0x0 ADD PUSH1 0x0 PUSH2 0x100 EXP DUP2 SLOAD DUP2 PUSH20 0xFFFFFFFFFFFFFFFFFFFFFFFFFFFFFFFFFFFFFFFF MUL NOT AND SWAP1 DUP4 PUSH20 0xFFFFFFFFFFFFFFFFFFFFFFFFFFFFFFFFFFFFFFFF AND MUL OR SWAP1 SSTORE POP PUSH1 0x20 DUP3 ADD MLOAD DUP2 PUSH1 0x1 ADD PUSH1 0x0 PUSH2 0x100 EXP DUP2 SLOAD DUP2 PUSH20 0xFFFFFFFFFFFFFFFFFFFFFFFFFFFFFFFFFFFFFFFF MUL NOT AND SWAP1 DUP4 PUSH20 0xFFFFFFFFFFFFFFFFFFFFFFFFFFFFFFFFFFFFFFFF AND MUL OR SWAP1 SSTORE POP PUSH1 0x40 DUP3 ADD MLOAD DUP2 PUSH1 0x2 ADD SSTORE PUSH1 0x60 DUP3 ADD MLOAD DUP2 PUSH1 0x3 ADD SSTORE PUSH1 0x80 DUP3 ADD MLOAD DUP2 PUSH1 0x4 ADD SSTORE PUSH1 0xA0 DUP3 ADD MLOAD DUP2 PUSH1 0x5 ADD SSTORE PUSH1 0xC0 DUP3 ADD MLOAD DUP2 PUSH1 0x6 ADD PUSH1 0x0 PUSH2 0x100 EXP DUP2 SLOAD DUP2 PUSH1 0xFF MUL NOT AND SWAP1 DUP4 PUSH1 0x2 DUP2 GT ISZERO PUSH2 0xEC9 JUMPI PUSH2 0xEC8 PUSH2 0x11AE JUMP JUMPDEST JUMPDEST MUL OR SWAP1 SSTORE POP PUSH1 0xE0 DUP3 ADD MLOAD DUP2 PUSH1 0x6 ADD PUSH1 0x1 PUSH2 0x100 EXP DUP2 SLOAD DUP2 PUSH1 0xFF MUL NOT AND SWAP1 DUP4 ISZERO ISZERO MUL OR SWAP1 SSTORE POP POP POP PUSH1 0x1 PUSH1 0x0 DUP2 SLOAD DUP1 SWAP3 SWAP2 SWAP1 PUSH2 0xF03 SWAP1 PUSH2 0x1892 JUMP JUMPDEST SWAP2 SWAP1 POP SSTORE POP PUSH1 0x2 PUSH1 0x40 MLOAD DUP1 PUSH2 0x100 ADD PUSH1 0x40 MSTORE DUP1 CALLER PUSH20 0xFFFFFFFFFFFFFFFFFFFFFFFFFFFFFFFFFFFFFFFF AND DUP2 MSTORE PUSH1 0x20 ADD DUP8 PUSH20 0xFFFFFFFFFFFFFFFFFFFFFFFFFFFFFFFFFFFFFFFF AND DUP2 MSTORE PUSH1 0x20 ADD DUP7 DUP2 MSTORE PUSH1 0x20 ADD PUSH1 0x0 DUP2 MSTORE PUSH1 0x20 ADD DUP6 DUP2 MSTORE PUSH1 0x20 ADD DUP5 DUP2 MSTORE PUSH1 0x20 ADD PUSH1 0x0 PUSH1 0x2 DUP2 GT ISZERO PUSH2 0xF7B JUMPI PUSH2 0xF7A PUSH2 0x11AE JUMP JUMPDEST JUMPDEST DUP2 MSTORE PUSH1 0x20 ADD PUSH1 0x0 ISZERO ISZERO DUP2 MSTORE POP SWAP1 DUP1 PUSH1 0x1 DUP2 SLOAD ADD DUP1 DUP3 SSTORE DUP1 SWAP2 POP POP PUSH1 0x1 SWAP1 SUB SWAP1 PUSH1 0x0 MSTORE PUSH1 0x20 PUSH1 0x0 KECCAK256 SWAP1 PUSH1 0x7 MUL ADD PUSH1 0x0 SWAP1 SWAP2 SWAP1 SWAP2 SWAP1 SWAP2 POP PUSH1 0x0 DUP3 ADD MLOAD DUP2 PUSH1 0x0 ADD PUSH1 0x0 PUSH2 0x100 EXP DUP2 SLOAD DUP2 PUSH20 0xFFFFFFFFFFFFFFFFFFFFFFFFFFFFFFFFFFFFFFFF MUL NOT AND SWAP1 DUP4 PUSH20 0xFFFFFFFFFFFFFFFFFFFFFFFFFFFFFFFFFFFFFFFF AND MUL OR SWAP1 SSTORE POP PUSH1 0x20 DUP3 ADD MLOAD DUP2 PUSH1 0x1 ADD PUSH1 0x0 PUSH2 0x100 EXP DUP2 SLOAD DUP2 PUSH20 0xFFFFFFFFFFFFFFFFFFFFFFFFFFFFFFFFFFFFFFFF MUL NOT AND SWAP1 DUP4 PUSH20 0xFFFFFFFFFFFFFFFFFFFFFFFFFFFFFFFFFFFFFFFF AND MUL OR SWAP1 SSTORE POP PUSH1 0x40 DUP3 ADD MLOAD DUP2 PUSH1 0x2 ADD SSTORE PUSH1 0x60 DUP3 ADD MLOAD DUP2 PUSH1 0x3 ADD SSTORE PUSH1 0x80 DUP3 ADD MLOAD DUP2 PUSH1 0x4 ADD SSTORE PUSH1 0xA0 DUP3 ADD MLOAD DUP2 PUSH1 0x5 ADD SSTORE PUSH1 0xC0 DUP3 ADD MLOAD DUP2 PUSH1 0x6 ADD PUSH1 0x0 PUSH2 0x100 EXP DUP2 SLOAD DUP2 PUSH1 0xFF MUL NOT AND SWAP1 DUP4 PUSH1 0x2 DUP2 GT ISZERO PUSH2 0x1091 JUMPI PUSH2 0x1090 PUSH2 0x11AE JUMP JUMPDEST JUMPDEST MUL OR SWAP1 SSTORE POP PUSH1 0xE0 DUP3 ADD MLOAD DUP2 PUSH1 0x6 ADD PUSH1 0x1 PUSH2 0x100 EXP DUP2 SLOAD DUP2 PUSH1 0xFF MUL NOT AND SWAP1 DUP4 ISZERO ISZERO MUL OR SWAP1 SSTORE POP POP POP DUP5 PUSH20 0xFFFFFFFFFFFFFFFFFFFFFFFFFFFFFFFFFFFFFFFF AND CALLER PUSH20 0xFFFFFFFFFFFFFFFFFFFFFFFFFFFFFFFFFFFFFFFF AND PUSH32 0x5001B34ECF2DB5B7BBEDDCBBE761EC9ECADCC7638018B98CE3E24995B0E946B6 DUP7 DUP7 DUP7 PUSH1 0x40 MLOAD PUSH2 0x1119 SWAP4 SWAP3 SWAP2 SWAP1 PUSH2 0x18DA JUMP JUMPDEST PUSH1 0x40 MLOAD DUP1 SWAP2 SUB SWAP1 LOG3 POP POP POP POP POP JUMP JUMPDEST PUSH1 0x0 DUP2 MLOAD SWAP1 POP SWAP2 SWAP1 POP JUMP JUMPDEST PUSH1 0x0 DUP3 DUP3 MSTORE PUSH1 0x20 DUP3 ADD SWAP1 POP SWAP3 SWAP2 POP POP JUMP JUMPDEST PUSH1 0x0 DUP2 SWAP1 POP PUSH1 0x20 DUP3 ADD SWAP1 POP SWAP2 SWAP1 POP JUMP JUMPDEST PUSH1 0x0 PUSH20 0xFFFFFFFFFFFFFFFFFFFFFFFFFFFFFFFFFFFFFFFF DUP3 AND SWAP1 POP SWAP2 SWAP1 POP JUMP JUMPDEST PUSH1 0x0 PUSH2 0x117F DUP3 PUSH2 0x1154 JUMP JUMPDEST SWAP1 POP SWAP2 SWAP1 POP JUMP JUMPDEST PUSH2 0x118F DUP2 PUSH2 0x1174 JUMP JUMPDEST DUP3 MSTORE POP POP JUMP JUMPDEST PUSH1 0x0 DUP2 SWAP1 POP SWAP2 SWAP1 POP JUMP JUMPDEST PUSH2 0x11A8 DUP2 PUSH2 0x1195 JUMP JUMPDEST DUP3 MSTORE POP POP JUMP JUMPDEST PUSH32 0x4E487B7100000000000000000000000000000000000000000000000000000000 PUSH1 0x0 MSTORE PUSH1 0x21 PUSH1 0x4 MSTORE PUSH1 0x24 PUSH1 0x0 REVERT JUMPDEST PUSH1 0x3 DUP2 LT PUSH2 0x11EE JUMPI PUSH2 0x11ED PUSH2 0x11AE JUMP JUMPDEST JUMPDEST POP JUMP JUMPDEST PUSH1 0x0 DUP2 SWAP1 POP PUSH2 0x11FF DUP3 PUSH2 0x11DD JUMP JUMPDEST SWAP2 SWAP1 POP JUMP JUMPDEST PUSH1 0x0 PUSH2 0x120F DUP3 PUSH2 0x11F1 JUMP JUMPDEST SWAP1 POP SWAP2 SWAP1 POP JUMP JUMPDEST PUSH2 0x121F DUP2 PUSH2 0x1204 JUMP JUMPDEST DUP3 MSTORE POP POP JUMP JUMPDEST PUSH1 0x0 DUP2 ISZERO ISZERO SWAP1 POP SWAP2 SWAP1 POP JUMP JUMPDEST PUSH2 0x123A DUP2 PUSH2 0x1225 JUMP JUMPDEST DUP3 MSTORE POP POP JUMP JUMPDEST PUSH2 0x100 DUP3 ADD PUSH1 0x0 DUP3 ADD MLOAD PUSH2 0x1257 PUSH1 0x0 DUP6 ADD DUP3 PUSH2 0x1186 JUMP JUMPDEST POP PUSH1 0x20 DUP3 ADD MLOAD PUSH2 0x126A PUSH1 0x20 DUP6 ADD DUP3 PUSH2 0x1186 JUMP JUMPDEST POP PUSH1 0x40 DUP3 ADD MLOAD PUSH2 0x127D PUSH1 0x40 DUP6 ADD DUP3 PUSH2 0x119F JUMP JUMPDEST POP PUSH1 0x60 DUP3 ADD MLOAD PUSH2 0x1290 PUSH1 0x60 DUP6 ADD DUP3 PUSH2 0x119F JUMP JUMPDEST POP PUSH1 0x80 DUP3 ADD MLOAD PUSH2 0x12A3 PUSH1 0x80 DUP6 ADD DUP3 PUSH2 0x119F JUMP JUMPDEST POP PUSH1 0xA0 DUP3 ADD MLOAD PUSH2 0x12B6 PUSH1 0xA0 DUP6 ADD DUP3 PUSH2 0x119F JUMP JUMPDEST POP PUSH1 0xC0 DUP3 ADD MLOAD PUSH2 0x12C9 PUSH1 0xC0 DUP6 ADD DUP3 PUSH2 0x1216 JUMP JUMPDEST POP PUSH1 0xE0 DUP3 ADD MLOAD PUSH2 0x12DC PUSH1 0xE0 DUP6 ADD DUP3 PUSH2 0x1231 JUMP JUMPDEST POP POP POP POP JUMP JUMPDEST PUSH1 0x0 PUSH2 0x12EE DUP4 DUP4 PUSH2 0x1240 JUMP JUMPDEST PUSH2 0x100 DUP4 ADD SWAP1 POP SWAP3 SWAP2 POP POP JUMP JUMPDEST PUSH1 0x0 PUSH1 0x20 DUP3 ADD SWAP1 POP SWAP2 SWAP1 POP JUMP JUMPDEST PUSH1 0x0 PUSH2 0x1313 DUP3 PUSH2 0x1128 JUMP JUMPDEST PUSH2 0x131D DUP2 DUP6 PUSH2 0x1133 JUMP JUMPDEST SWAP4 POP PUSH2 0x1328 DUP4 PUSH2 0x1144 JUMP JUMPDEST DUP1 PUSH1 0x0 JUMPDEST DUP4 DUP2 LT ISZERO PUSH2 0x1359 JUMPI DUP2 MLOAD PUSH2 0x1340 DUP9 DUP3 PUSH2 0x12E2 JUMP JUMPDEST SWAP8 POP PUSH2 0x134B DUP4 PUSH2 0x12FB JUMP JUMPDEST SWAP3 POP POP PUSH1 0x1 DUP2 ADD SWAP1 POP PUSH2 0x132C JUMP JUMPDEST POP DUP6 SWAP4 POP POP POP POP SWAP3 SWAP2 POP POP JUMP JUMPDEST PUSH1 0x0 PUSH1 0x20 DUP3 ADD SWAP1 POP DUP2 DUP2 SUB PUSH1 0x0 DUP4 ADD MSTORE PUSH2 0x1380 DUP2 DUP5 PUSH2 0x1308 JUMP JUMPDEST SWAP1 POP SWAP3 SWAP2 POP POP JUMP JUMPDEST PUSH1 0x0 DUP1 REVERT JUMPDEST PUSH2 0x1396 DUP2 PUSH2 0x1174 JUMP JUMPDEST DUP2 EQ PUSH2 0x13A1 JUMPI PUSH1 0x0 DUP1 REVERT JUMPDEST POP JUMP JUMPDEST PUSH1 0x0 DUP2 CALLDATALOAD SWAP1 POP PUSH2 0x13B3 DUP2 PUSH2 0x138D JUMP JUMPDEST SWAP3 SWAP2 POP POP JUMP JUMPDEST PUSH2 0x13C2 DUP2 PUSH2 0x1195 JUMP JUMPDEST DUP2 EQ PUSH2 0x13CD JUMPI PUSH1 0x0 DUP1 REVERT JUMPDEST POP JUMP JUMPDEST PUSH1 0x0 DUP2 CALLDATALOAD SWAP1 POP PUSH2 0x13DF DUP2 PUSH2 0x13B9 JUMP JUMPDEST SWAP3 SWAP2 POP POP JUMP JUMPDEST PUSH1 0x0 DUP1 PUSH1 0x40 DUP4 DUP6 SUB SLT ISZERO PUSH2 0x13FC JUMPI PUSH2 0x13FB PUSH2 0x1388 JUMP JUMPDEST JUMPDEST PUSH1 0x0 PUSH2 0x140A DUP6 DUP3 DUP7 ADD PUSH2 0x13A4 JUMP JUMPDEST SWAP3 POP POP PUSH1 0x20 PUSH2 0x141B DUP6 DUP3 DUP7 ADD PUSH2 0x13D0 JUMP JUMPDEST SWAP2 POP POP SWAP3 POP SWAP3 SWAP1 POP JUMP JUMPDEST PUSH2 0x142E DUP2 PUSH2 0x1174 JUMP JUMPDEST DUP3 MSTORE POP POP JUMP JUMPDEST PUSH2 0x143D DUP2 PUSH2 0x1195 JUMP JUMPDEST DUP3 MSTORE POP POP JUMP JUMPDEST PUSH2 0x144C DUP2 PUSH2 0x1204 JUMP JUMPDEST DUP3 MSTORE POP POP JUMP JUMPDEST PUSH2 0x145B DUP2 PUSH2 0x1225 JUMP JUMPDEST DUP3 MSTORE POP POP JUMP JUMPDEST PUSH1 0x0 PUSH2 0x100 DUP3 ADD SWAP1 POP PUSH2 0x1477 PUSH1 0x0 DUP4 ADD DUP12 PUSH2 0x1425 JUMP JUMPDEST PUSH2 0x1484 PUSH1 0x20 DUP4 ADD DUP11 PUSH2 0x1425 JUMP JUMPDEST PUSH2 0x1491 PUSH1 0x40 DUP4 ADD DUP10 PUSH2 0x1434 JUMP JUMPDEST PUSH2 0x149E PUSH1 0x60 DUP4 ADD DUP9 PUSH2 0x1434 JUMP JUMPDEST PUSH2 0x14AB PUSH1 0x80 DUP4 ADD DUP8 PUSH2 0x1434 JUMP JUMPDEST PUSH2 0x14B8 PUSH1 0xA0 DUP4 ADD DUP7 PUSH2 0x1434 JUMP JUMPDEST PUSH2 0x14C5 PUSH1 0xC0 DUP4 ADD DUP6 PUSH2 0x1443 JUMP JUMPDEST PUSH2 0x14D2 PUSH1 0xE0 DUP4 ADD DUP5 PUSH2 0x1452 JUMP JUMPDEST SWAP10 SWAP9 POP POP POP POP POP POP POP POP POP JUMP JUMPDEST PUSH1 0x0 DUP1 PUSH1 0x0 PUSH1 0x60 DUP5 DUP7 SUB SLT ISZERO PUSH2 0x14F8 JUMPI PUSH2 0x14F7 PUSH2 0x1388 JUMP JUMPDEST JUMPDEST PUSH1 0x0 PUSH2 0x1506 DUP7 DUP3 DUP8 ADD PUSH2 0x13A4 JUMP JUMPDEST SWAP4 POP POP PUSH1 0x20 PUSH2 0x1517 DUP7 DUP3 DUP8 ADD PUSH2 0x13A4 JUMP JUMPDEST SWAP3 POP POP PUSH1 0x40 PUSH2 0x1528 DUP7 DUP3 DUP8 ADD PUSH2 0x13D0 JUMP JUMPDEST SWAP2 POP POP SWAP3 POP SWAP3 POP SWAP3 JUMP JUMPDEST PUSH1 0x0 PUSH1 0x20 DUP3 ADD SWAP1 POP PUSH2 0x1547 PUSH1 0x0 DUP4 ADD DUP5 PUSH2 0x1434 JUMP JUMPDEST SWAP3 SWAP2 POP POP JUMP JUMPDEST PUSH1 0x0 PUSH1 0x20 DUP3 DUP5 SUB SLT ISZERO PUSH2 0x1563 JUMPI PUSH2 0x1562 PUSH2 0x1388 JUMP JUMPDEST JUMPDEST PUSH1 0x0 PUSH2 0x1571 DUP5 DUP3 DUP6 ADD PUSH2 0x13A4 JUMP JUMPDEST SWAP2 POP POP SWAP3 SWAP2 POP POP JUMP JUMPDEST PUSH1 0x0 DUP1 PUSH1 0x0 DUP1 PUSH1 0x80 DUP6 DUP8 SUB SLT ISZERO PUSH2 0x1594 JUMPI PUSH2 0x1593 PUSH2 0x1388 JUMP JUMPDEST JUMPDEST PUSH1 0x0 PUSH2 0x15A2 DUP8 DUP3 DUP9 ADD PUSH2 0x13A4 JUMP JUMPDEST SWAP5 POP POP PUSH1 0x20 PUSH2 0x15B3 DUP8 DUP3 DUP9 ADD PUSH2 0x13D0 JUMP JUMPDEST SWAP4 POP POP PUSH1 0x40 PUSH2 0x15C4 DUP8 DUP3 DUP9 ADD PUSH2 0x13D0 JUMP JUMPDEST SWAP3 POP POP PUSH1 0x60 PUSH2 0x15D5 DUP8 DUP3 DUP9 ADD PUSH2 0x13D0 JUMP JUMPDEST SWAP2 POP POP SWAP3 SWAP6 SWAP2 SWAP5 POP SWAP3 POP JUMP JUMPDEST PUSH32 0x4E487B7100000000000000000000000000000000000000000000000000000000 PUSH1 0x0 MSTORE PUSH1 0x32 PUSH1 0x4 MSTORE PUSH1 0x24 PUSH1 0x0 REVERT JUMPDEST PUSH1 0x0 DUP3 DUP3 MSTORE PUSH1 0x20 DUP3 ADD SWAP1 POP SWAP3 SWAP2 POP POP JUMP JUMPDEST PUSH32 0x496E76616C696420726563656976657200000000000000000000000000000000 PUSH1 0x0 DUP3 ADD MSTORE POP JUMP JUMPDEST PUSH1 0x0 PUSH2 0x1657 PUSH1 0x10 DUP4 PUSH2 0x1610 JUMP JUMPDEST SWAP2 POP PUSH2 0x1662 DUP3 PUSH2 0x1621 JUMP JUMPDEST PUSH1 0x20 DUP3 ADD SWAP1 POP SWAP2 SWAP1 POP JUMP JUMPDEST PUSH1 0x0 PUSH1 0x20 DUP3 ADD SWAP1 POP DUP2 DUP2 SUB PUSH1 0x0 DUP4 ADD MSTORE PUSH2 0x1686 DUP2 PUSH2 0x164A JUMP JUMPDEST SWAP1 POP SWAP2 SWAP1 POP JUMP JUMPDEST PUSH32 0x536869706D656E7420616C726561647920696E207472616E7369740000000000 PUSH1 0x0 DUP3 ADD MSTORE POP JUMP JUMPDEST PUSH1 0x0 PUSH2 0x16C3 PUSH1 0x1B DUP4 PUSH2 0x1610 JUMP JUMPDEST SWAP2 POP PUSH2 0x16CE DUP3 PUSH2 0x168D JUMP JUMPDEST PUSH1 0x20 DUP3 ADD SWAP1 POP SWAP2 SWAP1 POP JUMP JUMPDEST PUSH1 0x0 PUSH1 0x20 DUP3 ADD SWAP1 POP DUP2 DUP2 SUB PUSH1 0x0 DUP4 ADD MSTORE PUSH2 0x16F2 DUP2 PUSH2 0x16B6 JUMP JUMPDEST SWAP1 POP SWAP2 SWAP1 POP JUMP JUMPDEST PUSH32 0x536869706D656E74204E6F7420696E207472616E736974000000000000000000 PUSH1 0x0 DUP3 ADD MSTORE POP JUMP JUMPDEST PUSH1 0x0 PUSH2 0x172F PUSH1 0x17 DUP4 PUSH2 0x1610 JUMP JUMPDEST SWAP2 POP PUSH2 0x173A DUP3 PUSH2 0x16F9 JUMP JUMPDEST PUSH1 0x20 DUP3 ADD SWAP1 POP SWAP2 SWAP1 POP JUMP JUMPDEST PUSH1 0x0 PUSH1 0x20 DUP3 ADD SWAP1 POP DUP2 DUP2 SUB PUSH1 0x0 DUP4 ADD MSTORE PUSH2 0x175E DUP2 PUSH2 0x1722 JUMP JUMPDEST SWAP1 POP SWAP2 SWAP1 POP JUMP JUMPDEST PUSH32 0x536869706D656E7420616C726561647920506169642000000000000000000000 PUSH1 0x0 DUP3 ADD MSTORE POP JUMP JUMPDEST PUSH1 0x0 PUSH2 0x179B PUSH1 0x16 DUP4 PUSH2 0x1610 JUMP JUMPDEST SWAP2 POP PUSH2 0x17A6 DUP3 PUSH2 0x1765 JUMP JUMPDEST PUSH1 0x20 DUP3 ADD SWAP1 POP SWAP2 SWAP1 POP JUMP JUMPDEST PUSH1 0x0 PUSH1 0x20 DUP3 ADD SWAP1 POP DUP2 DUP2 SUB PUSH1 0x0 DUP4 ADD MSTORE PUSH2 0x17CA DUP2 PUSH2 0x178E JUMP JUMPDEST SWAP1 POP SWAP2 SWAP1 POP JUMP JUMPDEST PUSH32 0x20205061796D656E7420616D6F756E74206D757374206D617463682074686520 PUSH1 0x0 DUP3 ADD MSTORE PUSH32 0x70726963652E0000000000000000000000000000000000000000000000000000 PUSH1 0x20 DUP3 ADD MSTORE POP JUMP JUMPDEST PUSH1 0x0 PUSH2 0x182D PUSH1 0x26 DUP4 PUSH2 0x1610 JUMP JUMPDEST SWAP2 POP PUSH2 0x1838 DUP3 PUSH2 0x17D1 JUMP JUMPDEST PUSH1 0x40 DUP3 ADD SWAP1 POP SWAP2 SWAP1 POP JUMP JUMPDEST PUSH1 0x0 PUSH1 0x20 DUP3 ADD SWAP1 POP DUP2 DUP2 SUB PUSH1 0x0 DUP4 ADD MSTORE PUSH2 0x185C DUP2 PUSH2 0x1820 JUMP JUMPDEST SWAP1 POP SWAP2 SWAP1 POP JUMP JUMPDEST PUSH32 0x4E487B7100000000000000000000000000000000000000000000000000000000 PUSH1 0x0 MSTORE PUSH1 0x11 PUSH1 0x4 MSTORE PUSH1 0x24 PUSH1 0x0 REVERT JUMPDEST PUSH1 0x0 PUSH2 0x189D DUP3 PUSH2 0x1195 JUMP JUMPDEST SWAP2 POP PUSH32 0xFFFFFFFFFFFFFFFFFFFFFFFFFFFFFFFFFFFFFFFFFFFFFFFFFFFFFFFFFFFFFFFF DUP3 SUB PUSH2 0x18CF JUMPI PUSH2 0x18CE PUSH2 0x1863 JUMP JUMPDEST JUMPDEST PUSH1 0x1 DUP3 ADD SWAP1 POP SWAP2 SWAP1 POP JUMP JUMPDEST PUSH1 0x0 PUSH1 0x60 DUP3 ADD SWAP1 POP PUSH2 0x18EF PUSH1 0x0 DUP4 ADD DUP7 PUSH2 0x1434 JUMP JUMPDEST PUSH2 0x18FC PUSH1 0x20 DUP4 ADD DUP6 PUSH2 0x1434 JUMP JUMPDEST PUSH2 0x1909 PUSH1 0x40 DUP4 ADD DUP5 PUSH2 0x1434 JUMP JUMPDEST SWAP5 SWAP4 POP POP POP POP JUMP INVALID LOG2 PUSH5 0x6970667358 0x22 SLT KECCAK256 SDIV 0xE1 SWAP7 EXTCODEHASH 0xB1 0xC7 STOP 0x4D REVERT 0x4C PUSH2 0x775D 0xBD 0x22 0xE4 0xB6 PUSH1 0xDB 0x27 CODECOPY NOT 0xDA 0x29 0xA7 PUSH23 0xCD5BF744D3E264736F6C63430008120033000000000000 "
				},
				"gasEstimates": {
					"creation": {
						"codeDepositCost": "1294200",
						"executionCost": "6363",
						"totalCost": "1300563"
					},
					"external": {
						"completShipment(address,address,uint256)": "infinite",
						"createShipment(address,uint256,uint256,uint256)": "infinite",
						"getAllTransactions()": "infinite",
						"getShipment(address,uint256)": "infinite",
						"getShipmentCount(address)": "2893",
						"shipmentCount()": "2451",
						"shipments(address,uint256)": "infinite",
						"startShipment(address,address,uint256)": "infinite"
					}
				},
				"methodIdentifiers": {
					"completShipment(address,address,uint256)": "97caddfd",
					"createShipment(address,uint256,uint256,uint256)": "cbc4b181",
					"getAllTransactions()": "27506f53",
					"getShipment(address,uint256)": "8365da54",
					"getShipmentCount(address)": "b7dfd93d",
					"shipmentCount()": "aace20b7",
					"shipments(address,uint256)": "5667e02f",
					"startShipment(address,address,uint256)": "7ff5265d"
				}
			},
			"storageLayout": {
				"storage": [
					{
						"astId": 29,
						"contract": "contracts/Apps/Tracking.sol:Tracking",
						"label": "shipments",
						"offset": 0,
						"slot": "0",
						"type": "t_mapping(t_address,t_array(t_struct(Shipment)23_storage)dyn_storage)"
					},
					{
						"astId": 31,
						"contract": "contracts/Apps/Tracking.sol:Tracking",
						"label": "shipmentCount",
						"offset": 0,
						"slot": "1",
						"type": "t_uint256"
					},
					{
						"astId": 53,
						"contract": "contracts/Apps/Tracking.sol:Tracking",
						"label": "typeShipments",
						"offset": 0,
						"slot": "2",
						"type": "t_array(t_struct(TypeShipment)49_storage)dyn_storage"
					}
				],
				"types": {
					"t_address": {
						"encoding": "inplace",
						"label": "address",
						"numberOfBytes": "20"
					},
					"t_array(t_struct(Shipment)23_storage)dyn_storage": {
						"base": "t_struct(Shipment)23_storage",
						"encoding": "dynamic_array",
						"label": "struct Tracking.Shipment[]",
						"numberOfBytes": "32"
					},
					"t_array(t_struct(TypeShipment)49_storage)dyn_storage": {
						"base": "t_struct(TypeShipment)49_storage",
						"encoding": "dynamic_array",
						"label": "struct Tracking.TypeShipment[]",
						"numberOfBytes": "32"
					},
					"t_bool": {
						"encoding": "inplace",
						"label": "bool",
						"numberOfBytes": "1"
					},
					"t_enum(ShipmentStatus)5": {
						"encoding": "inplace",
						"label": "enum Tracking.ShipmentStatus",
						"numberOfBytes": "1"
					},
					"t_mapping(t_address,t_array(t_struct(Shipment)23_storage)dyn_storage)": {
						"encoding": "mapping",
						"key": "t_address",
						"label": "mapping(address => struct Tracking.Shipment[])",
						"numberOfBytes": "32",
						"value": "t_array(t_struct(Shipment)23_storage)dyn_storage"
					},
					"t_struct(Shipment)23_storage": {
						"encoding": "inplace",
						"label": "struct Tracking.Shipment",
						"members": [
							{
								"astId": 7,
								"contract": "contracts/Apps/Tracking.sol:Tracking",
								"label": "sender",
								"offset": 0,
								"slot": "0",
								"type": "t_address"
							},
							{
								"astId": 9,
								"contract": "contracts/Apps/Tracking.sol:Tracking",
								"label": "receiver",
								"offset": 0,
								"slot": "1",
								"type": "t_address"
							},
							{
								"astId": 11,
								"contract": "contracts/Apps/Tracking.sol:Tracking",
								"label": "pickupTime",
								"offset": 0,
								"slot": "2",
								"type": "t_uint256"
							},
							{
								"astId": 13,
								"contract": "contracts/Apps/Tracking.sol:Tracking",
								"label": "deliveryTime",
								"offset": 0,
								"slot": "3",
								"type": "t_uint256"
							},
							{
								"astId": 15,
								"contract": "contracts/Apps/Tracking.sol:Tracking",
								"label": "distance",
								"offset": 0,
								"slot": "4",
								"type": "t_uint256"
							},
							{
								"astId": 17,
								"contract": "contracts/Apps/Tracking.sol:Tracking",
								"label": "price",
								"offset": 0,
								"slot": "5",
								"type": "t_uint256"
							},
							{
								"astId": 20,
								"contract": "contracts/Apps/Tracking.sol:Tracking",
								"label": "status",
								"offset": 0,
								"slot": "6",
								"type": "t_enum(ShipmentStatus)5"
							},
							{
								"astId": 22,
								"contract": "contracts/Apps/Tracking.sol:Tracking",
								"label": "isPaid",
								"offset": 1,
								"slot": "6",
								"type": "t_bool"
							}
						],
						"numberOfBytes": "224"
					},
					"t_struct(TypeShipment)49_storage": {
						"encoding": "inplace",
						"label": "struct Tracking.TypeShipment",
						"members": [
							{
								"astId": 33,
								"contract": "contracts/Apps/Tracking.sol:Tracking",
								"label": "sender",
								"offset": 0,
								"slot": "0",
								"type": "t_address"
							},
							{
								"astId": 35,
								"contract": "contracts/Apps/Tracking.sol:Tracking",
								"label": "receiver",
								"offset": 0,
								"slot": "1",
								"type": "t_address"
							},
							{
								"astId": 37,
								"contract": "contracts/Apps/Tracking.sol:Tracking",
								"label": "pickupTime",
								"offset": 0,
								"slot": "2",
								"type": "t_uint256"
							},
							{
								"astId": 39,
								"contract": "contracts/Apps/Tracking.sol:Tracking",
								"label": "deliveryTime",
								"offset": 0,
								"slot": "3",
								"type": "t_uint256"
							},
							{
								"astId": 41,
								"contract": "contracts/Apps/Tracking.sol:Tracking",
								"label": "distance",
								"offset": 0,
								"slot": "4",
								"type": "t_uint256"
							},
							{
								"astId": 43,
								"contract": "contracts/Apps/Tracking.sol:Tracking",
								"label": "price",
								"offset": 0,
								"slot": "5",
								"type": "t_uint256"
							},
							{
								"astId": 46,
								"contract": "contracts/Apps/Tracking.sol:Tracking",
								"label": "status",
								"offset": 0,
								"slot": "6",
								"type": "t_enum(ShipmentStatus)5"
							},
							{
								"astId": 48,
								"contract": "contracts/Apps/Tracking.sol:Tracking",
								"label": "isPaid",
								"offset": 1,
								"slot": "6",
								"type": "t_bool"
							}
						],
						"numberOfBytes": "224"
					},
					"t_uint256": {
						"encoding": "inplace",
						"label": "uint256",
						"numberOfBytes": "32"
					}
				}
			},
			"userdoc": {
				"kind": "user",
				"methods": {},
				"version": 1
			}
		}
	}
}