{
	"contracts/Apps/TodoList.sol": {
		"TodoList": {
			"abi": [
				{
					"inputs": [
						{
							"internalType": "string",
							"name": "mytodo",
							"type": "string"
						}
					],
					"name": "create",
					"outputs": [],
					"stateMutability": "nonpayable",
					"type": "function"
				},
				{
					"inputs": [
						{
							"internalType": "uint256",
							"name": "_index",
							"type": "uint256"
						}
					],
					"name": "get",
					"outputs": [
						{
							"internalType": "string",
							"name": "",
							"type": "string"
						},
						{
							"internalType": "bool",
							"name": "",
							"type": "bool"
						}
					],
					"stateMutability": "view",
					"type": "function"
				},
				{
					"inputs": [
						{
							"internalType": "uint256",
							"name": "",
							"type": "uint256"
						}
					],
					"name": "todos",
					"outputs": [
						{
							"internalType": "string",
							"name": "text",
							"type": "string"
						},
						{
							"internalType": "bool",
							"name": "completed",
							"type": "bool"
						}
					],
					"stateMutability": "view",
					"type": "function"
				},
				{
					"inputs": [
						{
							"internalType": "uint256",
							"name": "_index",
							"type": "uint256"
						}
					],
					"name": "toggleCompleted",
					"outputs": [],
					"stateMutability": "nonpayable",
					"type": "function"
				},
				{
					"inputs": [
						{
							"internalType": "uint256",
							"name": "_index",
							"type": "uint256"
						},
						{
							"internalType": "string",
							"name": "mytodo",
							"type": "string"
						}
					],
					"name": "updatetext",
					"outputs": [],
					"stateMutability": "nonpayable",
					"type": "function"
				}
			],
			"devdoc": {
				"kind": "dev",
				"methods": {},
				"version": 1
			},
			"evm": {
				"assembly": "    /* \"contracts/Apps/TodoList.sol\":57:978  contract TodoList{... */\n  mstore(0x40, 0x80)\n  callvalue\n  dup1\n  iszero\n  tag_1\n  jumpi\n  0x00\n  dup1\n  revert\ntag_1:\n  pop\n  dataSize(sub_0)\n  dup1\n  dataOffset(sub_0)\n  0x00\n  codecopy\n  0x00\n  return\nstop\n\nsub_0: assembly {\n        /* \"contracts/Apps/TodoList.sol\":57:978  contract TodoList{... */\n      mstore(0x40, 0x80)\n      callvalue\n      dup1\n      iszero\n      tag_1\n      jumpi\n      0x00\n      dup1\n      revert\n    tag_1:\n      pop\n      jumpi(tag_2, lt(calldatasize, 0x04))\n      shr(0xe0, calldataload(0x00))\n      dup1\n      0x455f5024\n      eq\n      tag_3\n      jumpi\n      dup1\n      0x649ba6db\n      eq\n      tag_4\n      jumpi\n      dup1\n      0x9507d39a\n      eq\n      tag_5\n      jumpi\n      dup1\n      0xb6a46b3b\n      eq\n      tag_6\n      jumpi\n      dup1\n      0xbc8bc2b4\n      eq\n      tag_7\n      jumpi\n    tag_2:\n      0x00\n      dup1\n      revert\n        /* \"contracts/Apps/TodoList.sol\":862:976  function toggleCompleted(uint _index) external {... */\n    tag_3:\n      tag_8\n      0x04\n      dup1\n      calldatasize\n      sub\n      dup2\n      add\n      swap1\n      tag_9\n      swap2\n      swap1\n      tag_10\n      jump\t// in\n    tag_9:\n      tag_11\n      jump\t// in\n    tag_8:\n      stop\n        /* \"contracts/Apps/TodoList.sol\":350:648  function updatetext(uint _index, string calldata mytodo) external{ //update text on  a todo ... */\n    tag_4:\n      tag_12\n      0x04\n      dup1\n      calldatasize\n      sub\n      dup2\n      add\n      swap1\n      tag_13\n      swap2\n      swap1\n      tag_14\n      jump\t// in\n    tag_13:\n      tag_15\n      jump\t// in\n    tag_12:\n      stop\n        /* \"contracts/Apps/TodoList.sol\":653:856  function get(uint _index) external view returns (string memory, bool){// get status and data stored in a todo ... */\n    tag_5:\n      tag_16\n      0x04\n      dup1\n      calldatasize\n      sub\n      dup2\n      add\n      swap1\n      tag_17\n      swap2\n      swap1\n      tag_10\n      jump\t// in\n    tag_17:\n      tag_18\n      jump\t// in\n    tag_16:\n      mload(0x40)\n      tag_19\n      swap3\n      swap2\n      swap1\n      tag_20\n      jump\t// in\n    tag_19:\n      mload(0x40)\n      dup1\n      swap2\n      sub\n      swap1\n      return\n        /* \"contracts/Apps/TodoList.sol\":175:344  function create(string calldata mytodo) external {//insert a new todo... */\n    tag_6:\n      tag_21\n      0x04\n      dup1\n      calldatasize\n      sub\n      dup2\n      add\n      swap1\n      tag_22\n      swap2\n      swap1\n      tag_23\n      jump\t// in\n    tag_22:\n      tag_24\n      jump\t// in\n    tag_21:\n      stop\n        /* \"contracts/Apps/TodoList.sol\":150:169  Todo[] public todos */\n    tag_7:\n      tag_25\n      0x04\n      dup1\n      calldatasize\n      sub\n      dup2\n      add\n      swap1\n      tag_26\n      swap2\n      swap1\n      tag_10\n      jump\t// in\n    tag_26:\n      tag_27\n      jump\t// in\n    tag_25:\n      mload(0x40)\n      tag_28\n      swap3\n      swap2\n      swap1\n      tag_20\n      jump\t// in\n    tag_28:\n      mload(0x40)\n      dup1\n      swap2\n      sub\n      swap1\n      return\n        /* \"contracts/Apps/TodoList.sol\":862:976  function toggleCompleted(uint _index) external {... */\n    tag_11:\n        /* \"contracts/Apps/TodoList.sol\":946:951  todos */\n      0x00\n        /* \"contracts/Apps/TodoList.sol\":952:958  _index */\n      dup2\n        /* \"contracts/Apps/TodoList.sol\":946:959  todos[_index] */\n      dup2\n      sload\n      dup2\n      lt\n      tag_30\n      jumpi\n      tag_31\n      tag_32\n      jump\t// in\n    tag_31:\n    tag_30:\n      swap1\n      0x00\n      mstore\n      keccak256(0x00, 0x20)\n      swap1\n      0x02\n      mul\n      add\n        /* \"contracts/Apps/TodoList.sol\":946:969  todos[_index].completed */\n      0x01\n      add\n      0x00\n      swap1\n      sload\n      swap1\n      0x0100\n      exp\n      swap1\n      div\n      0xff\n      and\n        /* \"contracts/Apps/TodoList.sol\":945:969  !todos[_index].completed */\n      iszero\n        /* \"contracts/Apps/TodoList.sol\":919:924  todos */\n      0x00\n        /* \"contracts/Apps/TodoList.sol\":925:931  _index */\n      dup3\n        /* \"contracts/Apps/TodoList.sol\":919:932  todos[_index] */\n      dup2\n      sload\n      dup2\n      lt\n      tag_34\n      jumpi\n      tag_35\n      tag_32\n      jump\t// in\n    tag_35:\n    tag_34:\n      swap1\n      0x00\n      mstore\n      keccak256(0x00, 0x20)\n      swap1\n      0x02\n      mul\n      add\n        /* \"contracts/Apps/TodoList.sol\":919:942  todos[_index].completed */\n      0x01\n      add\n      0x00\n        /* \"contracts/Apps/TodoList.sol\":919:969  todos[_index].completed = !todos[_index].completed */\n      0x0100\n      exp\n      dup2\n      sload\n      dup2\n      0xff\n      mul\n      not\n      and\n      swap1\n      dup4\n      iszero\n      iszero\n      mul\n      or\n      swap1\n      sstore\n      pop\n        /* \"contracts/Apps/TodoList.sol\":862:976  function toggleCompleted(uint _index) external {... */\n      pop\n      jump\t// out\n        /* \"contracts/Apps/TodoList.sol\":350:648  function updatetext(uint _index, string calldata mytodo) external{ //update text on  a todo ... */\n    tag_15:\n        /* \"contracts/Apps/TodoList.sol\":472:478  mytodo */\n      dup2\n      dup2\n        /* \"contracts/Apps/TodoList.sol\":451:456  todos */\n      0x00\n        /* \"contracts/Apps/TodoList.sol\":457:463  _index */\n      dup6\n        /* \"contracts/Apps/TodoList.sol\":451:464  todos[_index] */\n      dup2\n      sload\n      dup2\n      lt\n      tag_38\n      jumpi\n      tag_39\n      tag_32\n      jump\t// in\n    tag_39:\n    tag_38:\n      swap1\n      0x00\n      mstore\n      keccak256(0x00, 0x20)\n      swap1\n      0x02\n      mul\n      add\n        /* \"contracts/Apps/TodoList.sol\":451:469  todos[_index].text */\n      0x00\n      add\n        /* \"contracts/Apps/TodoList.sol\":451:478  todos[_index].text = mytodo */\n      swap2\n      dup3\n      tag_41\n      swap3\n      swap2\n      swap1\n      tag_42\n      jump\t// in\n    tag_41:\n      pop\n        /* \"contracts/Apps/TodoList.sol\":350:648  function updatetext(uint _index, string calldata mytodo) external{ //update text on  a todo ... */\n      pop\n      pop\n      pop\n      jump\t// out\n        /* \"contracts/Apps/TodoList.sol\":653:856  function get(uint _index) external view returns (string memory, bool){// get status and data stored in a todo ... */\n    tag_18:\n        /* \"contracts/Apps/TodoList.sol\":702:715  string memory */\n      0x60\n        /* \"contracts/Apps/TodoList.sol\":717:721  bool */\n      0x00\n        /* \"contracts/Apps/TodoList.sol\":772:789  Todo storage todo */\n      dup1\n        /* \"contracts/Apps/TodoList.sol\":792:797  todos */\n      0x00\n        /* \"contracts/Apps/TodoList.sol\":798:804  _index */\n      dup5\n        /* \"contracts/Apps/TodoList.sol\":792:805  todos[_index] */\n      dup2\n      sload\n      dup2\n      lt\n      tag_44\n      jumpi\n      tag_45\n      tag_32\n      jump\t// in\n    tag_45:\n    tag_44:\n      swap1\n      0x00\n      mstore\n      keccak256(0x00, 0x20)\n      swap1\n      0x02\n      mul\n      add\n        /* \"contracts/Apps/TodoList.sol\":772:805  Todo storage todo = todos[_index] */\n      swap1\n      pop\n        /* \"contracts/Apps/TodoList.sol\":823:827  todo */\n      dup1\n        /* \"contracts/Apps/TodoList.sol\":823:832  todo.text */\n      0x00\n      add\n        /* \"contracts/Apps/TodoList.sol\":834:838  todo */\n      dup2\n        /* \"contracts/Apps/TodoList.sol\":834:848  todo.completed */\n      0x01\n      add\n      0x00\n      swap1\n      sload\n      swap1\n      0x0100\n      exp\n      swap1\n      div\n      0xff\n      and\n        /* \"contracts/Apps/TodoList.sol\":815:849  return (todo.text, todo.completed) */\n      dup2\n      dup1\n      sload\n      tag_47\n      swap1\n      tag_48\n      jump\t// in\n    tag_47:\n      dup1\n      0x1f\n      add\n      0x20\n      dup1\n      swap2\n      div\n      mul\n      0x20\n      add\n      mload(0x40)\n      swap1\n      dup2\n      add\n      0x40\n      mstore\n      dup1\n      swap3\n      swap2\n      swap1\n      dup2\n      dup2\n      mstore\n      0x20\n      add\n      dup3\n      dup1\n      sload\n      tag_49\n      swap1\n      tag_48\n      jump\t// in\n    tag_49:\n      dup1\n      iszero\n      tag_50\n      jumpi\n      dup1\n      0x1f\n      lt\n      tag_51\n      jumpi\n      0x0100\n      dup1\n      dup4\n      sload\n      div\n      mul\n      dup4\n      mstore\n      swap2\n      0x20\n      add\n      swap2\n      jump(tag_50)\n    tag_51:\n      dup3\n      add\n      swap2\n      swap1\n      0x00\n      mstore\n      keccak256(0x00, 0x20)\n      swap1\n    tag_52:\n      dup2\n      sload\n      dup2\n      mstore\n      swap1\n      0x01\n      add\n      swap1\n      0x20\n      add\n      dup1\n      dup4\n      gt\n      tag_52\n      jumpi\n      dup3\n      swap1\n      sub\n      0x1f\n      and\n      dup3\n      add\n      swap2\n    tag_50:\n      pop\n      pop\n      pop\n      pop\n      pop\n      swap2\n      pop\n      swap3\n      pop\n      swap3\n      pop\n      pop\n        /* \"contracts/Apps/TodoList.sol\":653:856  function get(uint _index) external view returns (string memory, bool){// get status and data stored in a todo ... */\n      swap2\n      pop\n      swap2\n      jump\t// out\n        /* \"contracts/Apps/TodoList.sol\":175:344  function create(string calldata mytodo) external {//insert a new todo... */\n    tag_24:\n        /* \"contracts/Apps/TodoList.sol\":253:258  todos */\n      0x00\n        /* \"contracts/Apps/TodoList.sol\":264:336  Todo({... */\n      mload(0x40)\n      dup1\n      0x40\n      add\n      0x40\n      mstore\n      dup1\n        /* \"contracts/Apps/TodoList.sol\":289:295  mytodo */\n      dup5\n      dup5\n        /* \"contracts/Apps/TodoList.sol\":264:336  Todo({... */\n      dup1\n      dup1\n      0x1f\n      add\n      0x20\n      dup1\n      swap2\n      div\n      mul\n      0x20\n      add\n      mload(0x40)\n      swap1\n      dup2\n      add\n      0x40\n      mstore\n      dup1\n      swap4\n      swap3\n      swap2\n      swap1\n      dup2\n      dup2\n      mstore\n      0x20\n      add\n      dup4\n      dup4\n      dup1\n      dup3\n      dup5\n      calldatacopy\n      0x00\n      dup2\n      dup5\n      add\n      mstore\n      not(0x1f)\n      0x1f\n      dup3\n      add\n      and\n      swap1\n      pop\n      dup1\n      dup4\n      add\n      swap3\n      pop\n      pop\n      pop\n      pop\n      pop\n      pop\n      pop\n      dup2\n      mstore\n      0x20\n      add\n        /* \"contracts/Apps/TodoList.sol\":320:325  false */\n      0x00\n        /* \"contracts/Apps/TodoList.sol\":264:336  Todo({... */\n      iszero\n      iszero\n      dup2\n      mstore\n      pop\n        /* \"contracts/Apps/TodoList.sol\":253:337  todos.push(Todo({... */\n      swap1\n      dup1\n      0x01\n      dup2\n      sload\n      add\n      dup1\n      dup3\n      sstore\n      dup1\n      swap2\n      pop\n      pop\n      0x01\n      swap1\n      sub\n      swap1\n      0x00\n      mstore\n      keccak256(0x00, 0x20)\n      swap1\n      0x02\n      mul\n      add\n      0x00\n      swap1\n      swap2\n      swap1\n      swap2\n      swap1\n      swap2\n      pop\n      0x00\n      dup3\n      add\n      mload\n      dup2\n      0x00\n      add\n      swap1\n      dup2\n      tag_55\n      swap2\n      swap1\n      tag_56\n      jump\t// in\n    tag_55:\n      pop\n      0x20\n      dup3\n      add\n      mload\n      dup2\n      0x01\n      add\n      exp(0x0100, 0x00)\n      dup2\n      sload\n      dup2\n      0xff\n      mul\n      not\n      and\n      swap1\n      dup4\n      iszero\n      iszero\n      mul\n      or\n      swap1\n      sstore\n      pop\n      pop\n      pop\n        /* \"contracts/Apps/TodoList.sol\":175:344  function create(string calldata mytodo) external {//insert a new todo... */\n      pop\n      pop\n      jump\t// out\n        /* \"contracts/Apps/TodoList.sol\":150:169  Todo[] public todos */\n    tag_27:\n      0x00\n      dup2\n      dup2\n      sload\n      dup2\n      lt\n      tag_57\n      jumpi\n      0x00\n      dup1\n      revert\n    tag_57:\n      swap1\n      0x00\n      mstore\n      keccak256(0x00, 0x20)\n      swap1\n      0x02\n      mul\n      add\n      0x00\n      swap2\n      pop\n      swap1\n      pop\n      dup1\n      0x00\n      add\n      dup1\n      sload\n      tag_59\n      swap1\n      tag_48\n      jump\t// in\n    tag_59:\n      dup1\n      0x1f\n      add\n      0x20\n      dup1\n      swap2\n      div\n      mul\n      0x20\n      add\n      mload(0x40)\n      swap1\n      dup2\n      add\n      0x40\n      mstore\n      dup1\n      swap3\n      swap2\n      swap1\n      dup2\n      dup2\n      mstore\n      0x20\n      add\n      dup3\n      dup1\n      sload\n      tag_60\n      swap1\n      tag_48\n      jump\t// in\n    tag_60:\n      dup1\n      iszero\n      tag_61\n      jumpi\n      dup1\n      0x1f\n      lt\n      tag_62\n      jumpi\n      0x0100\n      dup1\n      dup4\n      sload\n      div\n      mul\n      dup4\n      mstore\n      swap2\n      0x20\n      add\n      swap2\n      jump(tag_61)\n    tag_62:\n      dup3\n      add\n      swap2\n      swap1\n      0x00\n      mstore\n      keccak256(0x00, 0x20)\n      swap1\n    tag_63:\n      dup2\n      sload\n      dup2\n      mstore\n      swap1\n      0x01\n      add\n      swap1\n      0x20\n      add\n      dup1\n      dup4\n      gt\n      tag_63\n      jumpi\n      dup3\n      swap1\n      sub\n      0x1f\n      and\n      dup3\n      add\n      swap2\n    tag_61:\n      pop\n      pop\n      pop\n      pop\n      pop\n      swap1\n      dup1\n      0x01\n      add\n      0x00\n      swap1\n      sload\n      swap1\n      0x0100\n      exp\n      swap1\n      div\n      0xff\n      and\n      swap1\n      pop\n      dup3\n      jump\t// out\n        /* \"#utility.yul\":88:205   */\n    tag_65:\n        /* \"#utility.yul\":197:198   */\n      0x00\n        /* \"#utility.yul\":194:195   */\n      dup1\n        /* \"#utility.yul\":187:199   */\n      revert\n        /* \"#utility.yul\":211:328   */\n    tag_66:\n        /* \"#utility.yul\":320:321   */\n      0x00\n        /* \"#utility.yul\":317:318   */\n      dup1\n        /* \"#utility.yul\":310:322   */\n      revert\n        /* \"#utility.yul\":334:411   */\n    tag_67:\n        /* \"#utility.yul\":371:378   */\n      0x00\n        /* \"#utility.yul\":400:405   */\n      dup2\n        /* \"#utility.yul\":389:405   */\n      swap1\n      pop\n        /* \"#utility.yul\":334:411   */\n      swap2\n      swap1\n      pop\n      jump\t// out\n        /* \"#utility.yul\":417:539   */\n    tag_68:\n        /* \"#utility.yul\":490:514   */\n      tag_105\n        /* \"#utility.yul\":508:513   */\n      dup2\n        /* \"#utility.yul\":490:514   */\n      tag_67\n      jump\t// in\n    tag_105:\n        /* \"#utility.yul\":483:488   */\n      dup2\n        /* \"#utility.yul\":480:515   */\n      eq\n        /* \"#utility.yul\":470:533   */\n      tag_106\n      jumpi\n        /* \"#utility.yul\":529:530   */\n      0x00\n        /* \"#utility.yul\":526:527   */\n      dup1\n        /* \"#utility.yul\":519:531   */\n      revert\n        /* \"#utility.yul\":470:533   */\n    tag_106:\n        /* \"#utility.yul\":417:539   */\n      pop\n      jump\t// out\n        /* \"#utility.yul\":545:684   */\n    tag_69:\n        /* \"#utility.yul\":591:596   */\n      0x00\n        /* \"#utility.yul\":629:635   */\n      dup2\n        /* \"#utility.yul\":616:636   */\n      calldataload\n        /* \"#utility.yul\":607:636   */\n      swap1\n      pop\n        /* \"#utility.yul\":645:678   */\n      tag_108\n        /* \"#utility.yul\":672:677   */\n      dup2\n        /* \"#utility.yul\":645:678   */\n      tag_68\n      jump\t// in\n    tag_108:\n        /* \"#utility.yul\":545:684   */\n      swap3\n      swap2\n      pop\n      pop\n      jump\t// out\n        /* \"#utility.yul\":690:1019   */\n    tag_10:\n        /* \"#utility.yul\":749:755   */\n      0x00\n        /* \"#utility.yul\":798:800   */\n      0x20\n        /* \"#utility.yul\":786:795   */\n      dup3\n        /* \"#utility.yul\":777:784   */\n      dup5\n        /* \"#utility.yul\":773:796   */\n      sub\n        /* \"#utility.yul\":769:801   */\n      slt\n        /* \"#utility.yul\":766:885   */\n      iszero\n      tag_110\n      jumpi\n        /* \"#utility.yul\":804:883   */\n      tag_111\n      tag_65\n      jump\t// in\n    tag_111:\n        /* \"#utility.yul\":766:885   */\n    tag_110:\n        /* \"#utility.yul\":924:925   */\n      0x00\n        /* \"#utility.yul\":949:1002   */\n      tag_112\n        /* \"#utility.yul\":994:1001   */\n      dup5\n        /* \"#utility.yul\":985:991   */\n      dup3\n        /* \"#utility.yul\":974:983   */\n      dup6\n        /* \"#utility.yul\":970:992   */\n      add\n        /* \"#utility.yul\":949:1002   */\n      tag_69\n      jump\t// in\n    tag_112:\n        /* \"#utility.yul\":939:1002   */\n      swap2\n      pop\n        /* \"#utility.yul\":895:1012   */\n      pop\n        /* \"#utility.yul\":690:1019   */\n      swap3\n      swap2\n      pop\n      pop\n      jump\t// out\n        /* \"#utility.yul\":1025:1142   */\n    tag_70:\n        /* \"#utility.yul\":1134:1135   */\n      0x00\n        /* \"#utility.yul\":1131:1132   */\n      dup1\n        /* \"#utility.yul\":1124:1136   */\n      revert\n        /* \"#utility.yul\":1148:1265   */\n    tag_71:\n        /* \"#utility.yul\":1257:1258   */\n      0x00\n        /* \"#utility.yul\":1254:1255   */\n      dup1\n        /* \"#utility.yul\":1247:1259   */\n      revert\n        /* \"#utility.yul\":1271:1388   */\n    tag_72:\n        /* \"#utility.yul\":1380:1381   */\n      0x00\n        /* \"#utility.yul\":1377:1378   */\n      dup1\n        /* \"#utility.yul\":1370:1382   */\n      revert\n        /* \"#utility.yul\":1408:1961   */\n    tag_73:\n        /* \"#utility.yul\":1466:1474   */\n      0x00\n        /* \"#utility.yul\":1476:1482   */\n      dup1\n        /* \"#utility.yul\":1526:1529   */\n      dup4\n        /* \"#utility.yul\":1519:1523   */\n      0x1f\n        /* \"#utility.yul\":1511:1517   */\n      dup5\n        /* \"#utility.yul\":1507:1524   */\n      add\n        /* \"#utility.yul\":1503:1530   */\n      slt\n        /* \"#utility.yul\":1493:1615   */\n      tag_117\n      jumpi\n        /* \"#utility.yul\":1534:1613   */\n      tag_118\n      tag_70\n      jump\t// in\n    tag_118:\n        /* \"#utility.yul\":1493:1615   */\n    tag_117:\n        /* \"#utility.yul\":1647:1653   */\n      dup3\n        /* \"#utility.yul\":1634:1654   */\n      calldataload\n        /* \"#utility.yul\":1624:1654   */\n      swap1\n      pop\n        /* \"#utility.yul\":1677:1695   */\n      0xffffffffffffffff\n        /* \"#utility.yul\":1669:1675   */\n      dup2\n        /* \"#utility.yul\":1666:1696   */\n      gt\n        /* \"#utility.yul\":1663:1780   */\n      iszero\n      tag_119\n      jumpi\n        /* \"#utility.yul\":1699:1778   */\n      tag_120\n      tag_71\n      jump\t// in\n    tag_120:\n        /* \"#utility.yul\":1663:1780   */\n    tag_119:\n        /* \"#utility.yul\":1813:1817   */\n      0x20\n        /* \"#utility.yul\":1805:1811   */\n      dup4\n        /* \"#utility.yul\":1801:1818   */\n      add\n        /* \"#utility.yul\":1789:1818   */\n      swap2\n      pop\n        /* \"#utility.yul\":1867:1870   */\n      dup4\n        /* \"#utility.yul\":1859:1863   */\n      0x01\n        /* \"#utility.yul\":1851:1857   */\n      dup3\n        /* \"#utility.yul\":1847:1864   */\n      mul\n        /* \"#utility.yul\":1837:1845   */\n      dup4\n        /* \"#utility.yul\":1833:1865   */\n      add\n        /* \"#utility.yul\":1830:1871   */\n      gt\n        /* \"#utility.yul\":1827:1955   */\n      iszero\n      tag_121\n      jumpi\n        /* \"#utility.yul\":1874:1953   */\n      tag_122\n      tag_72\n      jump\t// in\n    tag_122:\n        /* \"#utility.yul\":1827:1955   */\n    tag_121:\n        /* \"#utility.yul\":1408:1961   */\n      swap3\n      pop\n      swap3\n      swap1\n      pop\n      jump\t// out\n        /* \"#utility.yul\":1967:2641   */\n    tag_14:\n        /* \"#utility.yul\":2047:2053   */\n      0x00\n        /* \"#utility.yul\":2055:2061   */\n      dup1\n        /* \"#utility.yul\":2063:2069   */\n      0x00\n        /* \"#utility.yul\":2112:2114   */\n      0x40\n        /* \"#utility.yul\":2100:2109   */\n      dup5\n        /* \"#utility.yul\":2091:2098   */\n      dup7\n        /* \"#utility.yul\":2087:2110   */\n      sub\n        /* \"#utility.yul\":2083:2115   */\n      slt\n        /* \"#utility.yul\":2080:2199   */\n      iszero\n      tag_124\n      jumpi\n        /* \"#utility.yul\":2118:2197   */\n      tag_125\n      tag_65\n      jump\t// in\n    tag_125:\n        /* \"#utility.yul\":2080:2199   */\n    tag_124:\n        /* \"#utility.yul\":2238:2239   */\n      0x00\n        /* \"#utility.yul\":2263:2316   */\n      tag_126\n        /* \"#utility.yul\":2308:2315   */\n      dup7\n        /* \"#utility.yul\":2299:2305   */\n      dup3\n        /* \"#utility.yul\":2288:2297   */\n      dup8\n        /* \"#utility.yul\":2284:2306   */\n      add\n        /* \"#utility.yul\":2263:2316   */\n      tag_69\n      jump\t// in\n    tag_126:\n        /* \"#utility.yul\":2253:2316   */\n      swap4\n      pop\n        /* \"#utility.yul\":2209:2326   */\n      pop\n        /* \"#utility.yul\":2393:2395   */\n      0x20\n        /* \"#utility.yul\":2382:2391   */\n      dup5\n        /* \"#utility.yul\":2378:2396   */\n      add\n        /* \"#utility.yul\":2365:2397   */\n      calldataload\n        /* \"#utility.yul\":2424:2442   */\n      0xffffffffffffffff\n        /* \"#utility.yul\":2416:2422   */\n      dup2\n        /* \"#utility.yul\":2413:2443   */\n      gt\n        /* \"#utility.yul\":2410:2527   */\n      iszero\n      tag_127\n      jumpi\n        /* \"#utility.yul\":2446:2525   */\n      tag_128\n      tag_66\n      jump\t// in\n    tag_128:\n        /* \"#utility.yul\":2410:2527   */\n    tag_127:\n        /* \"#utility.yul\":2559:2624   */\n      tag_129\n        /* \"#utility.yul\":2616:2623   */\n      dup7\n        /* \"#utility.yul\":2607:2613   */\n      dup3\n        /* \"#utility.yul\":2596:2605   */\n      dup8\n        /* \"#utility.yul\":2592:2614   */\n      add\n        /* \"#utility.yul\":2559:2624   */\n      tag_73\n      jump\t// in\n    tag_129:\n        /* \"#utility.yul\":2541:2624   */\n      swap3\n      pop\n      swap3\n      pop\n        /* \"#utility.yul\":2336:2634   */\n      pop\n        /* \"#utility.yul\":1967:2641   */\n      swap3\n      pop\n      swap3\n      pop\n      swap3\n      jump\t// out\n        /* \"#utility.yul\":2647:2746   */\n    tag_74:\n        /* \"#utility.yul\":2699:2705   */\n      0x00\n        /* \"#utility.yul\":2733:2738   */\n      dup2\n        /* \"#utility.yul\":2727:2739   */\n      mload\n        /* \"#utility.yul\":2717:2739   */\n      swap1\n      pop\n        /* \"#utility.yul\":2647:2746   */\n      swap2\n      swap1\n      pop\n      jump\t// out\n        /* \"#utility.yul\":2752:2921   */\n    tag_75:\n        /* \"#utility.yul\":2836:2847   */\n      0x00\n        /* \"#utility.yul\":2870:2876   */\n      dup3\n        /* \"#utility.yul\":2865:2868   */\n      dup3\n        /* \"#utility.yul\":2858:2877   */\n      mstore\n        /* \"#utility.yul\":2910:2914   */\n      0x20\n        /* \"#utility.yul\":2905:2908   */\n      dup3\n        /* \"#utility.yul\":2901:2915   */\n      add\n        /* \"#utility.yul\":2886:2915   */\n      swap1\n      pop\n        /* \"#utility.yul\":2752:2921   */\n      swap3\n      swap2\n      pop\n      pop\n      jump\t// out\n        /* \"#utility.yul\":2927:3173   */\n    tag_76:\n        /* \"#utility.yul\":3008:3009   */\n      0x00\n        /* \"#utility.yul\":3018:3131   */\n    tag_133:\n        /* \"#utility.yul\":3032:3038   */\n      dup4\n        /* \"#utility.yul\":3029:3030   */\n      dup2\n        /* \"#utility.yul\":3026:3039   */\n      lt\n        /* \"#utility.yul\":3018:3131   */\n      iszero\n      tag_135\n      jumpi\n        /* \"#utility.yul\":3117:3118   */\n      dup1\n        /* \"#utility.yul\":3112:3115   */\n      dup3\n        /* \"#utility.yul\":3108:3119   */\n      add\n        /* \"#utility.yul\":3102:3120   */\n      mload\n        /* \"#utility.yul\":3098:3099   */\n      dup2\n        /* \"#utility.yul\":3093:3096   */\n      dup5\n        /* \"#utility.yul\":3089:3100   */\n      add\n        /* \"#utility.yul\":3082:3121   */\n      mstore\n        /* \"#utility.yul\":3054:3056   */\n      0x20\n        /* \"#utility.yul\":3051:3052   */\n      dup2\n        /* \"#utility.yul\":3047:3057   */\n      add\n        /* \"#utility.yul\":3042:3057   */\n      swap1\n      pop\n        /* \"#utility.yul\":3018:3131   */\n      jump(tag_133)\n    tag_135:\n        /* \"#utility.yul\":3165:3166   */\n      0x00\n        /* \"#utility.yul\":3156:3162   */\n      dup5\n        /* \"#utility.yul\":3151:3154   */\n      dup5\n        /* \"#utility.yul\":3147:3163   */\n      add\n        /* \"#utility.yul\":3140:3167   */\n      mstore\n        /* \"#utility.yul\":2989:3173   */\n      pop\n        /* \"#utility.yul\":2927:3173   */\n      pop\n      pop\n      pop\n      jump\t// out\n        /* \"#utility.yul\":3179:3281   */\n    tag_77:\n        /* \"#utility.yul\":3220:3226   */\n      0x00\n        /* \"#utility.yul\":3271:3273   */\n      0x1f\n        /* \"#utility.yul\":3267:3274   */\n      not\n        /* \"#utility.yul\":3262:3264   */\n      0x1f\n        /* \"#utility.yul\":3255:3260   */\n      dup4\n        /* \"#utility.yul\":3251:3265   */\n      add\n        /* \"#utility.yul\":3247:3275   */\n      and\n        /* \"#utility.yul\":3237:3275   */\n      swap1\n      pop\n        /* \"#utility.yul\":3179:3281   */\n      swap2\n      swap1\n      pop\n      jump\t// out\n        /* \"#utility.yul\":3287:3664   */\n    tag_78:\n        /* \"#utility.yul\":3375:3378   */\n      0x00\n        /* \"#utility.yul\":3403:3442   */\n      tag_138\n        /* \"#utility.yul\":3436:3441   */\n      dup3\n        /* \"#utility.yul\":3403:3442   */\n      tag_74\n      jump\t// in\n    tag_138:\n        /* \"#utility.yul\":3458:3529   */\n      tag_139\n        /* \"#utility.yul\":3522:3528   */\n      dup2\n        /* \"#utility.yul\":3517:3520   */\n      dup6\n        /* \"#utility.yul\":3458:3529   */\n      tag_75\n      jump\t// in\n    tag_139:\n        /* \"#utility.yul\":3451:3529   */\n      swap4\n      pop\n        /* \"#utility.yul\":3538:3603   */\n      tag_140\n        /* \"#utility.yul\":3596:3602   */\n      dup2\n        /* \"#utility.yul\":3591:3594   */\n      dup6\n        /* \"#utility.yul\":3584:3588   */\n      0x20\n        /* \"#utility.yul\":3577:3582   */\n      dup7\n        /* \"#utility.yul\":3573:3589   */\n      add\n        /* \"#utility.yul\":3538:3603   */\n      tag_76\n      jump\t// in\n    tag_140:\n        /* \"#utility.yul\":3628:3657   */\n      tag_141\n        /* \"#utility.yul\":3650:3656   */\n      dup2\n        /* \"#utility.yul\":3628:3657   */\n      tag_77\n      jump\t// in\n    tag_141:\n        /* \"#utility.yul\":3623:3626   */\n      dup5\n        /* \"#utility.yul\":3619:3658   */\n      add\n        /* \"#utility.yul\":3612:3658   */\n      swap2\n      pop\n        /* \"#utility.yul\":3379:3664   */\n      pop\n        /* \"#utility.yul\":3287:3664   */\n      swap3\n      swap2\n      pop\n      pop\n      jump\t// out\n        /* \"#utility.yul\":3670:3760   */\n    tag_79:\n        /* \"#utility.yul\":3704:3711   */\n      0x00\n        /* \"#utility.yul\":3747:3752   */\n      dup2\n        /* \"#utility.yul\":3740:3753   */\n      iszero\n        /* \"#utility.yul\":3733:3754   */\n      iszero\n        /* \"#utility.yul\":3722:3754   */\n      swap1\n      pop\n        /* \"#utility.yul\":3670:3760   */\n      swap2\n      swap1\n      pop\n      jump\t// out\n        /* \"#utility.yul\":3766:3875   */\n    tag_80:\n        /* \"#utility.yul\":3847:3868   */\n      tag_144\n        /* \"#utility.yul\":3862:3867   */\n      dup2\n        /* \"#utility.yul\":3847:3868   */\n      tag_79\n      jump\t// in\n    tag_144:\n        /* \"#utility.yul\":3842:3845   */\n      dup3\n        /* \"#utility.yul\":3835:3869   */\n      mstore\n        /* \"#utility.yul\":3766:3875   */\n      pop\n      pop\n      jump\t// out\n        /* \"#utility.yul\":3881:4292   */\n    tag_20:\n        /* \"#utility.yul\":4016:4020   */\n      0x00\n        /* \"#utility.yul\":4054:4056   */\n      0x40\n        /* \"#utility.yul\":4043:4052   */\n      dup3\n        /* \"#utility.yul\":4039:4057   */\n      add\n        /* \"#utility.yul\":4031:4057   */\n      swap1\n      pop\n        /* \"#utility.yul\":4103:4112   */\n      dup2\n        /* \"#utility.yul\":4097:4101   */\n      dup2\n        /* \"#utility.yul\":4093:4113   */\n      sub\n        /* \"#utility.yul\":4089:4090   */\n      0x00\n        /* \"#utility.yul\":4078:4087   */\n      dup4\n        /* \"#utility.yul\":4074:4091   */\n      add\n        /* \"#utility.yul\":4067:4114   */\n      mstore\n        /* \"#utility.yul\":4131:4209   */\n      tag_146\n        /* \"#utility.yul\":4204:4208   */\n      dup2\n        /* \"#utility.yul\":4195:4201   */\n      dup6\n        /* \"#utility.yul\":4131:4209   */\n      tag_78\n      jump\t// in\n    tag_146:\n        /* \"#utility.yul\":4123:4209   */\n      swap1\n      pop\n        /* \"#utility.yul\":4219:4285   */\n      tag_147\n        /* \"#utility.yul\":4281:4283   */\n      0x20\n        /* \"#utility.yul\":4270:4279   */\n      dup4\n        /* \"#utility.yul\":4266:4284   */\n      add\n        /* \"#utility.yul\":4257:4263   */\n      dup5\n        /* \"#utility.yul\":4219:4285   */\n      tag_80\n      jump\t// in\n    tag_147:\n        /* \"#utility.yul\":3881:4292   */\n      swap4\n      swap3\n      pop\n      pop\n      pop\n      jump\t// out\n        /* \"#utility.yul\":4298:4827   */\n    tag_23:\n        /* \"#utility.yul\":4369:4375   */\n      0x00\n        /* \"#utility.yul\":4377:4383   */\n      dup1\n        /* \"#utility.yul\":4426:4428   */\n      0x20\n        /* \"#utility.yul\":4414:4423   */\n      dup4\n        /* \"#utility.yul\":4405:4412   */\n      dup6\n        /* \"#utility.yul\":4401:4424   */\n      sub\n        /* \"#utility.yul\":4397:4429   */\n      slt\n        /* \"#utility.yul\":4394:4513   */\n      iszero\n      tag_149\n      jumpi\n        /* \"#utility.yul\":4432:4511   */\n      tag_150\n      tag_65\n      jump\t// in\n    tag_150:\n        /* \"#utility.yul\":4394:4513   */\n    tag_149:\n        /* \"#utility.yul\":4580:4581   */\n      0x00\n        /* \"#utility.yul\":4569:4578   */\n      dup4\n        /* \"#utility.yul\":4565:4582   */\n      add\n        /* \"#utility.yul\":4552:4583   */\n      calldataload\n        /* \"#utility.yul\":4610:4628   */\n      0xffffffffffffffff\n        /* \"#utility.yul\":4602:4608   */\n      dup2\n        /* \"#utility.yul\":4599:4629   */\n      gt\n        /* \"#utility.yul\":4596:4713   */\n      iszero\n      tag_151\n      jumpi\n        /* \"#utility.yul\":4632:4711   */\n      tag_152\n      tag_66\n      jump\t// in\n    tag_152:\n        /* \"#utility.yul\":4596:4713   */\n    tag_151:\n        /* \"#utility.yul\":4745:4810   */\n      tag_153\n        /* \"#utility.yul\":4802:4809   */\n      dup6\n        /* \"#utility.yul\":4793:4799   */\n      dup3\n        /* \"#utility.yul\":4782:4791   */\n      dup7\n        /* \"#utility.yul\":4778:4800   */\n      add\n        /* \"#utility.yul\":4745:4810   */\n      tag_73\n      jump\t// in\n    tag_153:\n        /* \"#utility.yul\":4727:4810   */\n      swap3\n      pop\n      swap3\n      pop\n        /* \"#utility.yul\":4523:4820   */\n      pop\n        /* \"#utility.yul\":4298:4827   */\n      swap3\n      pop\n      swap3\n      swap1\n      pop\n      jump\t// out\n        /* \"#utility.yul\":4833:5013   */\n    tag_32:\n        /* \"#utility.yul\":4881:4958   */\n      0x4e487b7100000000000000000000000000000000000000000000000000000000\n        /* \"#utility.yul\":4878:4879   */\n      0x00\n        /* \"#utility.yul\":4871:4959   */\n      mstore\n        /* \"#utility.yul\":4978:4982   */\n      0x32\n        /* \"#utility.yul\":4975:4976   */\n      0x04\n        /* \"#utility.yul\":4968:4983   */\n      mstore\n        /* \"#utility.yul\":5002:5006   */\n      0x24\n        /* \"#utility.yul\":4999:5000   */\n      0x00\n        /* \"#utility.yul\":4992:5007   */\n      revert\n        /* \"#utility.yul\":5019:5116   */\n    tag_81:\n        /* \"#utility.yul\":5078:5084   */\n      0x00\n        /* \"#utility.yul\":5106:5109   */\n      dup3\n        /* \"#utility.yul\":5096:5109   */\n      swap1\n      pop\n        /* \"#utility.yul\":5019:5116   */\n      swap3\n      swap2\n      pop\n      pop\n      jump\t// out\n        /* \"#utility.yul\":5122:5302   */\n    tag_82:\n        /* \"#utility.yul\":5170:5247   */\n      0x4e487b7100000000000000000000000000000000000000000000000000000000\n        /* \"#utility.yul\":5167:5168   */\n      0x00\n        /* \"#utility.yul\":5160:5248   */\n      mstore\n        /* \"#utility.yul\":5267:5271   */\n      0x41\n        /* \"#utility.yul\":5264:5265   */\n      0x04\n        /* \"#utility.yul\":5257:5272   */\n      mstore\n        /* \"#utility.yul\":5291:5295   */\n      0x24\n        /* \"#utility.yul\":5288:5289   */\n      0x00\n        /* \"#utility.yul\":5281:5296   */\n      revert\n        /* \"#utility.yul\":5308:5488   */\n    tag_83:\n        /* \"#utility.yul\":5356:5433   */\n      0x4e487b7100000000000000000000000000000000000000000000000000000000\n        /* \"#utility.yul\":5353:5354   */\n      0x00\n        /* \"#utility.yul\":5346:5434   */\n      mstore\n        /* \"#utility.yul\":5453:5457   */\n      0x22\n        /* \"#utility.yul\":5450:5451   */\n      0x04\n        /* \"#utility.yul\":5443:5458   */\n      mstore\n        /* \"#utility.yul\":5477:5481   */\n      0x24\n        /* \"#utility.yul\":5474:5475   */\n      0x00\n        /* \"#utility.yul\":5467:5482   */\n      revert\n        /* \"#utility.yul\":5494:5814   */\n    tag_48:\n        /* \"#utility.yul\":5538:5544   */\n      0x00\n        /* \"#utility.yul\":5575:5576   */\n      0x02\n        /* \"#utility.yul\":5569:5573   */\n      dup3\n        /* \"#utility.yul\":5565:5577   */\n      div\n        /* \"#utility.yul\":5555:5577   */\n      swap1\n      pop\n        /* \"#utility.yul\":5622:5623   */\n      0x01\n        /* \"#utility.yul\":5616:5620   */\n      dup3\n        /* \"#utility.yul\":5612:5624   */\n      and\n        /* \"#utility.yul\":5643:5661   */\n      dup1\n        /* \"#utility.yul\":5633:5714   */\n      tag_159\n      jumpi\n        /* \"#utility.yul\":5699:5703   */\n      0x7f\n        /* \"#utility.yul\":5691:5697   */\n      dup3\n        /* \"#utility.yul\":5687:5704   */\n      and\n        /* \"#utility.yul\":5677:5704   */\n      swap2\n      pop\n        /* \"#utility.yul\":5633:5714   */\n    tag_159:\n        /* \"#utility.yul\":5761:5763   */\n      0x20\n        /* \"#utility.yul\":5753:5759   */\n      dup3\n        /* \"#utility.yul\":5750:5764   */\n      lt\n        /* \"#utility.yul\":5730:5748   */\n      dup2\n        /* \"#utility.yul\":5727:5765   */\n      sub\n        /* \"#utility.yul\":5724:5808   */\n      tag_160\n      jumpi\n        /* \"#utility.yul\":5780:5798   */\n      tag_161\n      tag_83\n      jump\t// in\n    tag_161:\n        /* \"#utility.yul\":5724:5808   */\n    tag_160:\n        /* \"#utility.yul\":5545:5814   */\n      pop\n        /* \"#utility.yul\":5494:5814   */\n      swap2\n      swap1\n      pop\n      jump\t// out\n        /* \"#utility.yul\":5820:5961   */\n    tag_84:\n        /* \"#utility.yul\":5869:5873   */\n      0x00\n        /* \"#utility.yul\":5892:5895   */\n      dup2\n        /* \"#utility.yul\":5884:5895   */\n      swap1\n      pop\n        /* \"#utility.yul\":5915:5918   */\n      dup2\n        /* \"#utility.yul\":5912:5913   */\n      0x00\n        /* \"#utility.yul\":5905:5919   */\n      mstore\n        /* \"#utility.yul\":5949:5953   */\n      0x20\n        /* \"#utility.yul\":5946:5947   */\n      0x00\n        /* \"#utility.yul\":5936:5954   */\n      keccak256\n        /* \"#utility.yul\":5928:5954   */\n      swap1\n      pop\n        /* \"#utility.yul\":5820:5961   */\n      swap2\n      swap1\n      pop\n      jump\t// out\n        /* \"#utility.yul\":5967:6060   */\n    tag_85:\n        /* \"#utility.yul\":6004:6010   */\n      0x00\n        /* \"#utility.yul\":6051:6053   */\n      0x20\n        /* \"#utility.yul\":6046:6048   */\n      0x1f\n        /* \"#utility.yul\":6039:6044   */\n      dup4\n        /* \"#utility.yul\":6035:6049   */\n      add\n        /* \"#utility.yul\":6031:6054   */\n      div\n        /* \"#utility.yul\":6021:6054   */\n      swap1\n      pop\n        /* \"#utility.yul\":5967:6060   */\n      swap2\n      swap1\n      pop\n      jump\t// out\n        /* \"#utility.yul\":6066:6173   */\n    tag_86:\n        /* \"#utility.yul\":6110:6118   */\n      0x00\n        /* \"#utility.yul\":6160:6165   */\n      dup3\n        /* \"#utility.yul\":6154:6158   */\n      dup3\n        /* \"#utility.yul\":6150:6166   */\n      shl\n        /* \"#utility.yul\":6129:6166   */\n      swap1\n      pop\n        /* \"#utility.yul\":6066:6173   */\n      swap3\n      swap2\n      pop\n      pop\n      jump\t// out\n        /* \"#utility.yul\":6179:6572   */\n    tag_87:\n        /* \"#utility.yul\":6248:6254   */\n      0x00\n        /* \"#utility.yul\":6298:6299   */\n      0x08\n        /* \"#utility.yul\":6286:6296   */\n      dup4\n        /* \"#utility.yul\":6282:6300   */\n      mul\n        /* \"#utility.yul\":6321:6418   */\n      tag_166\n        /* \"#utility.yul\":6351:6417   */\n      0xffffffffffffffffffffffffffffffffffffffffffffffffffffffffffffffff\n        /* \"#utility.yul\":6340:6349   */\n      dup3\n        /* \"#utility.yul\":6321:6418   */\n      tag_86\n      jump\t// in\n    tag_166:\n        /* \"#utility.yul\":6439:6478   */\n      tag_167\n        /* \"#utility.yul\":6469:6477   */\n      dup7\n        /* \"#utility.yul\":6458:6467   */\n      dup4\n        /* \"#utility.yul\":6439:6478   */\n      tag_86\n      jump\t// in\n    tag_167:\n        /* \"#utility.yul\":6427:6478   */\n      swap6\n      pop\n        /* \"#utility.yul\":6511:6515   */\n      dup1\n        /* \"#utility.yul\":6507:6516   */\n      not\n        /* \"#utility.yul\":6500:6505   */\n      dup5\n        /* \"#utility.yul\":6496:6517   */\n      and\n        /* \"#utility.yul\":6487:6517   */\n      swap4\n      pop\n        /* \"#utility.yul\":6560:6564   */\n      dup1\n        /* \"#utility.yul\":6550:6558   */\n      dup7\n        /* \"#utility.yul\":6546:6565   */\n      and\n        /* \"#utility.yul\":6539:6544   */\n      dup5\n        /* \"#utility.yul\":6536:6566   */\n      or\n        /* \"#utility.yul\":6526:6566   */\n      swap3\n      pop\n        /* \"#utility.yul\":6255:6572   */\n      pop\n      pop\n        /* \"#utility.yul\":6179:6572   */\n      swap4\n      swap3\n      pop\n      pop\n      pop\n      jump\t// out\n        /* \"#utility.yul\":6578:6638   */\n    tag_88:\n        /* \"#utility.yul\":6606:6609   */\n      0x00\n        /* \"#utility.yul\":6627:6632   */\n      dup2\n        /* \"#utility.yul\":6620:6632   */\n      swap1\n      pop\n        /* \"#utility.yul\":6578:6638   */\n      swap2\n      swap1\n      pop\n      jump\t// out\n        /* \"#utility.yul\":6644:6786   */\n    tag_89:\n        /* \"#utility.yul\":6694:6703   */\n      0x00\n        /* \"#utility.yul\":6727:6780   */\n      tag_170\n        /* \"#utility.yul\":6745:6779   */\n      tag_171\n        /* \"#utility.yul\":6754:6778   */\n      tag_172\n        /* \"#utility.yul\":6772:6777   */\n      dup5\n        /* \"#utility.yul\":6754:6778   */\n      tag_67\n      jump\t// in\n    tag_172:\n        /* \"#utility.yul\":6745:6779   */\n      tag_88\n      jump\t// in\n    tag_171:\n        /* \"#utility.yul\":6727:6780   */\n      tag_67\n      jump\t// in\n    tag_170:\n        /* \"#utility.yul\":6714:6780   */\n      swap1\n      pop\n        /* \"#utility.yul\":6644:6786   */\n      swap2\n      swap1\n      pop\n      jump\t// out\n        /* \"#utility.yul\":6792:6867   */\n    tag_90:\n        /* \"#utility.yul\":6835:6838   */\n      0x00\n        /* \"#utility.yul\":6856:6861   */\n      dup2\n        /* \"#utility.yul\":6849:6861   */\n      swap1\n      pop\n        /* \"#utility.yul\":6792:6867   */\n      swap2\n      swap1\n      pop\n      jump\t// out\n        /* \"#utility.yul\":6873:7142   */\n    tag_91:\n        /* \"#utility.yul\":6983:7022   */\n      tag_175\n        /* \"#utility.yul\":7014:7021   */\n      dup4\n        /* \"#utility.yul\":6983:7022   */\n      tag_89\n      jump\t// in\n    tag_175:\n        /* \"#utility.yul\":7044:7135   */\n      tag_176\n        /* \"#utility.yul\":7093:7134   */\n      tag_177\n        /* \"#utility.yul\":7117:7133   */\n      dup3\n        /* \"#utility.yul\":7093:7134   */\n      tag_90\n      jump\t// in\n    tag_177:\n        /* \"#utility.yul\":7085:7091   */\n      dup5\n        /* \"#utility.yul\":7078:7082   */\n      dup5\n        /* \"#utility.yul\":7072:7083   */\n      sload\n        /* \"#utility.yul\":7044:7135   */\n      tag_87\n      jump\t// in\n    tag_176:\n        /* \"#utility.yul\":7038:7042   */\n      dup3\n        /* \"#utility.yul\":7031:7136   */\n      sstore\n        /* \"#utility.yul\":6949:7142   */\n      pop\n        /* \"#utility.yul\":6873:7142   */\n      pop\n      pop\n      pop\n      jump\t// out\n        /* \"#utility.yul\":7148:7221   */\n    tag_92:\n        /* \"#utility.yul\":7193:7196   */\n      0x00\n        /* \"#utility.yul\":7148:7221   */\n      swap1\n      jump\t// out\n        /* \"#utility.yul\":7227:7416   */\n    tag_93:\n        /* \"#utility.yul\":7304:7336   */\n      tag_180\n      tag_92\n      jump\t// in\n    tag_180:\n        /* \"#utility.yul\":7345:7410   */\n      tag_181\n        /* \"#utility.yul\":7403:7409   */\n      dup2\n        /* \"#utility.yul\":7395:7401   */\n      dup5\n        /* \"#utility.yul\":7389:7393   */\n      dup5\n        /* \"#utility.yul\":7345:7410   */\n      tag_91\n      jump\t// in\n    tag_181:\n        /* \"#utility.yul\":7280:7416   */\n      pop\n        /* \"#utility.yul\":7227:7416   */\n      pop\n      pop\n      jump\t// out\n        /* \"#utility.yul\":7422:7608   */\n    tag_94:\n        /* \"#utility.yul\":7482:7602   */\n    tag_183:\n        /* \"#utility.yul\":7499:7502   */\n      dup2\n        /* \"#utility.yul\":7492:7497   */\n      dup2\n        /* \"#utility.yul\":7489:7503   */\n      lt\n        /* \"#utility.yul\":7482:7602   */\n      iszero\n      tag_185\n      jumpi\n        /* \"#utility.yul\":7553:7592   */\n      tag_186\n        /* \"#utility.yul\":7590:7591   */\n      0x00\n        /* \"#utility.yul\":7583:7588   */\n      dup3\n        /* \"#utility.yul\":7553:7592   */\n      tag_93\n      jump\t// in\n    tag_186:\n        /* \"#utility.yul\":7526:7527   */\n      0x01\n        /* \"#utility.yul\":7519:7524   */\n      dup2\n        /* \"#utility.yul\":7515:7528   */\n      add\n        /* \"#utility.yul\":7506:7528   */\n      swap1\n      pop\n        /* \"#utility.yul\":7482:7602   */\n      jump(tag_183)\n    tag_185:\n        /* \"#utility.yul\":7422:7608   */\n      pop\n      pop\n      jump\t// out\n        /* \"#utility.yul\":7614:8157   */\n    tag_95:\n        /* \"#utility.yul\":7715:7717   */\n      0x1f\n        /* \"#utility.yul\":7710:7713   */\n      dup3\n        /* \"#utility.yul\":7707:7718   */\n      gt\n        /* \"#utility.yul\":7704:8150   */\n      iszero\n      tag_188\n      jumpi\n        /* \"#utility.yul\":7749:7787   */\n      tag_189\n        /* \"#utility.yul\":7781:7786   */\n      dup2\n        /* \"#utility.yul\":7749:7787   */\n      tag_84\n      jump\t// in\n    tag_189:\n        /* \"#utility.yul\":7833:7862   */\n      tag_190\n        /* \"#utility.yul\":7851:7861   */\n      dup5\n        /* \"#utility.yul\":7833:7862   */\n      tag_85\n      jump\t// in\n    tag_190:\n        /* \"#utility.yul\":7823:7831   */\n      dup2\n        /* \"#utility.yul\":7819:7863   */\n      add\n        /* \"#utility.yul\":8016:8018   */\n      0x20\n        /* \"#utility.yul\":8004:8014   */\n      dup6\n        /* \"#utility.yul\":8001:8019   */\n      lt\n        /* \"#utility.yul\":7998:8047   */\n      iszero\n      tag_191\n      jumpi\n        /* \"#utility.yul\":8037:8045   */\n      dup2\n        /* \"#utility.yul\":8022:8045   */\n      swap1\n      pop\n        /* \"#utility.yul\":7998:8047   */\n    tag_191:\n        /* \"#utility.yul\":8060:8140   */\n      tag_192\n        /* \"#utility.yul\":8116:8138   */\n      tag_193\n        /* \"#utility.yul\":8134:8137   */\n      dup6\n        /* \"#utility.yul\":8116:8138   */\n      tag_85\n      jump\t// in\n    tag_193:\n        /* \"#utility.yul\":8106:8114   */\n      dup4\n        /* \"#utility.yul\":8102:8139   */\n      add\n        /* \"#utility.yul\":8089:8100   */\n      dup3\n        /* \"#utility.yul\":8060:8140   */\n      tag_94\n      jump\t// in\n    tag_192:\n        /* \"#utility.yul\":7719:8150   */\n      pop\n      pop\n        /* \"#utility.yul\":7704:8150   */\n    tag_188:\n        /* \"#utility.yul\":7614:8157   */\n      pop\n      pop\n      pop\n      jump\t// out\n        /* \"#utility.yul\":8163:8280   */\n    tag_96:\n        /* \"#utility.yul\":8217:8225   */\n      0x00\n        /* \"#utility.yul\":8267:8272   */\n      dup3\n        /* \"#utility.yul\":8261:8265   */\n      dup3\n        /* \"#utility.yul\":8257:8273   */\n      shr\n        /* \"#utility.yul\":8236:8273   */\n      swap1\n      pop\n        /* \"#utility.yul\":8163:8280   */\n      swap3\n      swap2\n      pop\n      pop\n      jump\t// out\n        /* \"#utility.yul\":8286:8455   */\n    tag_97:\n        /* \"#utility.yul\":8330:8336   */\n      0x00\n        /* \"#utility.yul\":8363:8414   */\n      tag_196\n        /* \"#utility.yul\":8411:8412   */\n      0x00\n        /* \"#utility.yul\":8407:8413   */\n      not\n        /* \"#utility.yul\":8399:8404   */\n      dup5\n        /* \"#utility.yul\":8396:8397   */\n      0x08\n        /* \"#utility.yul\":8392:8405   */\n      mul\n        /* \"#utility.yul\":8363:8414   */\n      tag_96\n      jump\t// in\n    tag_196:\n        /* \"#utility.yul\":8359:8415   */\n      not\n        /* \"#utility.yul\":8444:8448   */\n      dup1\n        /* \"#utility.yul\":8438:8442   */\n      dup4\n        /* \"#utility.yul\":8434:8449   */\n      and\n        /* \"#utility.yul\":8424:8449   */\n      swap2\n      pop\n        /* \"#utility.yul\":8337:8455   */\n      pop\n        /* \"#utility.yul\":8286:8455   */\n      swap3\n      swap2\n      pop\n      pop\n      jump\t// out\n        /* \"#utility.yul\":8460:8755   */\n    tag_98:\n        /* \"#utility.yul\":8536:8540   */\n      0x00\n        /* \"#utility.yul\":8682:8711   */\n      tag_198\n        /* \"#utility.yul\":8707:8710   */\n      dup4\n        /* \"#utility.yul\":8701:8705   */\n      dup4\n        /* \"#utility.yul\":8682:8711   */\n      tag_97\n      jump\t// in\n    tag_198:\n        /* \"#utility.yul\":8674:8711   */\n      swap2\n      pop\n        /* \"#utility.yul\":8744:8747   */\n      dup3\n        /* \"#utility.yul\":8741:8742   */\n      0x02\n        /* \"#utility.yul\":8737:8748   */\n      mul\n        /* \"#utility.yul\":8731:8735   */\n      dup3\n        /* \"#utility.yul\":8728:8749   */\n      or\n        /* \"#utility.yul\":8720:8749   */\n      swap1\n      pop\n        /* \"#utility.yul\":8460:8755   */\n      swap3\n      swap2\n      pop\n      pop\n      jump\t// out\n        /* \"#utility.yul\":8760:10163   */\n    tag_42:\n        /* \"#utility.yul\":8884:8928   */\n      tag_200\n        /* \"#utility.yul\":8924:8927   */\n      dup4\n        /* \"#utility.yul\":8919:8922   */\n      dup4\n        /* \"#utility.yul\":8884:8928   */\n      tag_81\n      jump\t// in\n    tag_200:\n        /* \"#utility.yul\":8993:9011   */\n      0xffffffffffffffff\n        /* \"#utility.yul\":8985:8991   */\n      dup2\n        /* \"#utility.yul\":8982:9012   */\n      gt\n        /* \"#utility.yul\":8979:9035   */\n      iszero\n      tag_201\n      jumpi\n        /* \"#utility.yul\":9015:9033   */\n      tag_202\n      tag_82\n      jump\t// in\n    tag_202:\n        /* \"#utility.yul\":8979:9035   */\n    tag_201:\n        /* \"#utility.yul\":9059:9097   */\n      tag_203\n        /* \"#utility.yul\":9091:9095   */\n      dup3\n        /* \"#utility.yul\":9085:9096   */\n      sload\n        /* \"#utility.yul\":9059:9097   */\n      tag_48\n      jump\t// in\n    tag_203:\n        /* \"#utility.yul\":9144:9211   */\n      tag_204\n        /* \"#utility.yul\":9204:9210   */\n      dup3\n        /* \"#utility.yul\":9196:9202   */\n      dup3\n        /* \"#utility.yul\":9190:9194   */\n      dup6\n        /* \"#utility.yul\":9144:9211   */\n      tag_95\n      jump\t// in\n    tag_204:\n        /* \"#utility.yul\":9238:9239   */\n      0x00\n        /* \"#utility.yul\":9267:9269   */\n      0x1f\n        /* \"#utility.yul\":9259:9265   */\n      dup4\n        /* \"#utility.yul\":9256:9270   */\n      gt\n        /* \"#utility.yul\":9284:9285   */\n      0x01\n        /* \"#utility.yul\":9279:9911   */\n      dup2\n      eq\n      tag_206\n      jumpi\n        /* \"#utility.yul\":9955:9956   */\n      0x00\n        /* \"#utility.yul\":9972:9978   */\n      dup5\n        /* \"#utility.yul\":9969:10053   */\n      iszero\n      tag_207\n      jumpi\n        /* \"#utility.yul\":10028:10037   */\n      dup3\n        /* \"#utility.yul\":10023:10026   */\n      dup8\n        /* \"#utility.yul\":10019:10038   */\n      add\n        /* \"#utility.yul\":10006:10039   */\n      calldataload\n        /* \"#utility.yul\":9997:10039   */\n      swap1\n      pop\n        /* \"#utility.yul\":9969:10053   */\n    tag_207:\n        /* \"#utility.yul\":10079:10146   */\n      tag_208\n        /* \"#utility.yul\":10139:10145   */\n      dup6\n        /* \"#utility.yul\":10132:10137   */\n      dup3\n        /* \"#utility.yul\":10079:10146   */\n      tag_98\n      jump\t// in\n    tag_208:\n        /* \"#utility.yul\":10073:10077   */\n      dup7\n        /* \"#utility.yul\":10066:10147   */\n      sstore\n        /* \"#utility.yul\":9928:10157   */\n      pop\n        /* \"#utility.yul\":9249:10157   */\n      jump(tag_205)\n        /* \"#utility.yul\":9279:9911   */\n    tag_206:\n        /* \"#utility.yul\":9331:9335   */\n      0x1f\n        /* \"#utility.yul\":9327:9336   */\n      not\n        /* \"#utility.yul\":9319:9325   */\n      dup5\n        /* \"#utility.yul\":9315:9337   */\n      and\n        /* \"#utility.yul\":9365:9402   */\n      tag_209\n        /* \"#utility.yul\":9397:9401   */\n      dup7\n        /* \"#utility.yul\":9365:9402   */\n      tag_84\n      jump\t// in\n    tag_209:\n        /* \"#utility.yul\":9424:9425   */\n      0x00\n        /* \"#utility.yul\":9438:9653   */\n    tag_210:\n        /* \"#utility.yul\":9452:9459   */\n      dup3\n        /* \"#utility.yul\":9449:9450   */\n      dup2\n        /* \"#utility.yul\":9446:9460   */\n      lt\n        /* \"#utility.yul\":9438:9653   */\n      iszero\n      tag_212\n      jumpi\n        /* \"#utility.yul\":9538:9547   */\n      dup5\n        /* \"#utility.yul\":9533:9536   */\n      dup10\n        /* \"#utility.yul\":9529:9548   */\n      add\n        /* \"#utility.yul\":9516:9549   */\n      calldataload\n        /* \"#utility.yul\":9508:9514   */\n      dup3\n        /* \"#utility.yul\":9501:9550   */\n      sstore\n        /* \"#utility.yul\":9589:9590   */\n      0x01\n        /* \"#utility.yul\":9581:9587   */\n      dup3\n        /* \"#utility.yul\":9577:9591   */\n      add\n        /* \"#utility.yul\":9567:9591   */\n      swap2\n      pop\n        /* \"#utility.yul\":9636:9638   */\n      0x20\n        /* \"#utility.yul\":9625:9634   */\n      dup6\n        /* \"#utility.yul\":9621:9639   */\n      add\n        /* \"#utility.yul\":9608:9639   */\n      swap5\n      pop\n        /* \"#utility.yul\":9475:9479   */\n      0x20\n        /* \"#utility.yul\":9472:9473   */\n      dup2\n        /* \"#utility.yul\":9468:9480   */\n      add\n        /* \"#utility.yul\":9463:9480   */\n      swap1\n      pop\n        /* \"#utility.yul\":9438:9653   */\n      jump(tag_210)\n    tag_212:\n        /* \"#utility.yul\":9681:9687   */\n      dup7\n        /* \"#utility.yul\":9672:9679   */\n      dup4\n        /* \"#utility.yul\":9669:9688   */\n      lt\n        /* \"#utility.yul\":9666:9852   */\n      iszero\n      tag_213\n      jumpi\n        /* \"#utility.yul\":9746:9755   */\n      dup5\n        /* \"#utility.yul\":9741:9744   */\n      dup10\n        /* \"#utility.yul\":9737:9756   */\n      add\n        /* \"#utility.yul\":9724:9757   */\n      calldataload\n        /* \"#utility.yul\":9789:9837   */\n      tag_214\n        /* \"#utility.yul\":9831:9835   */\n      0x1f\n        /* \"#utility.yul\":9823:9829   */\n      dup10\n        /* \"#utility.yul\":9819:9836   */\n      and\n        /* \"#utility.yul\":9808:9817   */\n      dup3\n        /* \"#utility.yul\":9789:9837   */\n      tag_97\n      jump\t// in\n    tag_214:\n        /* \"#utility.yul\":9781:9787   */\n      dup4\n        /* \"#utility.yul\":9774:9838   */\n      sstore\n        /* \"#utility.yul\":9689:9852   */\n      pop\n        /* \"#utility.yul\":9666:9852   */\n    tag_213:\n        /* \"#utility.yul\":9898:9899   */\n      0x01\n        /* \"#utility.yul\":9894:9895   */\n      0x02\n        /* \"#utility.yul\":9886:9892   */\n      dup9\n        /* \"#utility.yul\":9882:9896   */\n      mul\n        /* \"#utility.yul\":9878:9900   */\n      add\n        /* \"#utility.yul\":9872:9876   */\n      dup9\n        /* \"#utility.yul\":9865:9901   */\n      sstore\n        /* \"#utility.yul\":9286:9911   */\n      pop\n      pop\n      pop\n        /* \"#utility.yul\":9249:10157   */\n    tag_205:\n      pop\n        /* \"#utility.yul\":8859:10163   */\n      pop\n      pop\n      pop\n        /* \"#utility.yul\":8760:10163   */\n      pop\n      pop\n      pop\n      jump\t// out\n        /* \"#utility.yul\":10169:11564   */\n    tag_56:\n        /* \"#utility.yul\":10286:10323   */\n      tag_216\n        /* \"#utility.yul\":10319:10322   */\n      dup3\n        /* \"#utility.yul\":10286:10323   */\n      tag_74\n      jump\t// in\n    tag_216:\n        /* \"#utility.yul\":10388:10406   */\n      0xffffffffffffffff\n        /* \"#utility.yul\":10380:10386   */\n      dup2\n        /* \"#utility.yul\":10377:10407   */\n      gt\n        /* \"#utility.yul\":10374:10430   */\n      iszero\n      tag_217\n      jumpi\n        /* \"#utility.yul\":10410:10428   */\n      tag_218\n      tag_82\n      jump\t// in\n    tag_218:\n        /* \"#utility.yul\":10374:10430   */\n    tag_217:\n        /* \"#utility.yul\":10454:10492   */\n      tag_219\n        /* \"#utility.yul\":10486:10490   */\n      dup3\n        /* \"#utility.yul\":10480:10491   */\n      sload\n        /* \"#utility.yul\":10454:10492   */\n      tag_48\n      jump\t// in\n    tag_219:\n        /* \"#utility.yul\":10539:10606   */\n      tag_220\n        /* \"#utility.yul\":10599:10605   */\n      dup3\n        /* \"#utility.yul\":10591:10597   */\n      dup3\n        /* \"#utility.yul\":10585:10589   */\n      dup6\n        /* \"#utility.yul\":10539:10606   */\n      tag_95\n      jump\t// in\n    tag_220:\n        /* \"#utility.yul\":10633:10634   */\n      0x00\n        /* \"#utility.yul\":10657:10661   */\n      0x20\n        /* \"#utility.yul\":10644:10661   */\n      swap1\n      pop\n        /* \"#utility.yul\":10689:10691   */\n      0x1f\n        /* \"#utility.yul\":10681:10687   */\n      dup4\n        /* \"#utility.yul\":10678:10692   */\n      gt\n        /* \"#utility.yul\":10706:10707   */\n      0x01\n        /* \"#utility.yul\":10701:11319   */\n      dup2\n      eq\n      tag_222\n      jumpi\n        /* \"#utility.yul\":11363:11364   */\n      0x00\n        /* \"#utility.yul\":11380:11386   */\n      dup5\n        /* \"#utility.yul\":11377:11454   */\n      iszero\n      tag_223\n      jumpi\n        /* \"#utility.yul\":11429:11438   */\n      dup3\n        /* \"#utility.yul\":11424:11427   */\n      dup8\n        /* \"#utility.yul\":11420:11439   */\n      add\n        /* \"#utility.yul\":11414:11440   */\n      mload\n        /* \"#utility.yul\":11405:11440   */\n      swap1\n      pop\n        /* \"#utility.yul\":11377:11454   */\n    tag_223:\n        /* \"#utility.yul\":11480:11547   */\n      tag_224\n        /* \"#utility.yul\":11540:11546   */\n      dup6\n        /* \"#utility.yul\":11533:11538   */\n      dup3\n        /* \"#utility.yul\":11480:11547   */\n      tag_98\n      jump\t// in\n    tag_224:\n        /* \"#utility.yul\":11474:11478   */\n      dup7\n        /* \"#utility.yul\":11467:11548   */\n      sstore\n        /* \"#utility.yul\":11336:11558   */\n      pop\n        /* \"#utility.yul\":10671:11558   */\n      jump(tag_221)\n        /* \"#utility.yul\":10701:11319   */\n    tag_222:\n        /* \"#utility.yul\":10753:10757   */\n      0x1f\n        /* \"#utility.yul\":10749:10758   */\n      not\n        /* \"#utility.yul\":10741:10747   */\n      dup5\n        /* \"#utility.yul\":10737:10759   */\n      and\n        /* \"#utility.yul\":10787:10824   */\n      tag_225\n        /* \"#utility.yul\":10819:10823   */\n      dup7\n        /* \"#utility.yul\":10787:10824   */\n      tag_84\n      jump\t// in\n    tag_225:\n        /* \"#utility.yul\":10846:10847   */\n      0x00\n        /* \"#utility.yul\":10860:11068   */\n    tag_226:\n        /* \"#utility.yul\":10874:10881   */\n      dup3\n        /* \"#utility.yul\":10871:10872   */\n      dup2\n        /* \"#utility.yul\":10868:10882   */\n      lt\n        /* \"#utility.yul\":10860:11068   */\n      iszero\n      tag_228\n      jumpi\n        /* \"#utility.yul\":10953:10962   */\n      dup5\n        /* \"#utility.yul\":10948:10951   */\n      dup10\n        /* \"#utility.yul\":10944:10963   */\n      add\n        /* \"#utility.yul\":10938:10964   */\n      mload\n        /* \"#utility.yul\":10930:10936   */\n      dup3\n        /* \"#utility.yul\":10923:10965   */\n      sstore\n        /* \"#utility.yul\":11004:11005   */\n      0x01\n        /* \"#utility.yul\":10996:11002   */\n      dup3\n        /* \"#utility.yul\":10992:11006   */\n      add\n        /* \"#utility.yul\":10982:11006   */\n      swap2\n      pop\n        /* \"#utility.yul\":11051:11053   */\n      0x20\n        /* \"#utility.yul\":11040:11049   */\n      dup6\n        /* \"#utility.yul\":11036:11054   */\n      add\n        /* \"#utility.yul\":11023:11054   */\n      swap5\n      pop\n        /* \"#utility.yul\":10897:10901   */\n      0x20\n        /* \"#utility.yul\":10894:10895   */\n      dup2\n        /* \"#utility.yul\":10890:10902   */\n      add\n        /* \"#utility.yul\":10885:10902   */\n      swap1\n      pop\n        /* \"#utility.yul\":10860:11068   */\n      jump(tag_226)\n    tag_228:\n        /* \"#utility.yul\":11096:11102   */\n      dup7\n        /* \"#utility.yul\":11087:11094   */\n      dup4\n        /* \"#utility.yul\":11084:11103   */\n      lt\n        /* \"#utility.yul\":11081:11260   */\n      iszero\n      tag_229\n      jumpi\n        /* \"#utility.yul\":11154:11163   */\n      dup5\n        /* \"#utility.yul\":11149:11152   */\n      dup10\n        /* \"#utility.yul\":11145:11164   */\n      add\n        /* \"#utility.yul\":11139:11165   */\n      mload\n        /* \"#utility.yul\":11197:11245   */\n      tag_230\n        /* \"#utility.yul\":11239:11243   */\n      0x1f\n        /* \"#utility.yul\":11231:11237   */\n      dup10\n        /* \"#utility.yul\":11227:11244   */\n      and\n        /* \"#utility.yul\":11216:11225   */\n      dup3\n        /* \"#utility.yul\":11197:11245   */\n      tag_97\n      jump\t// in\n    tag_230:\n        /* \"#utility.yul\":11189:11195   */\n      dup4\n        /* \"#utility.yul\":11182:11246   */\n      sstore\n        /* \"#utility.yul\":11104:11260   */\n      pop\n        /* \"#utility.yul\":11081:11260   */\n    tag_229:\n        /* \"#utility.yul\":11306:11307   */\n      0x01\n        /* \"#utility.yul\":11302:11303   */\n      0x02\n        /* \"#utility.yul\":11294:11300   */\n      dup9\n        /* \"#utility.yul\":11290:11304   */\n      mul\n        /* \"#utility.yul\":11286:11308   */\n      add\n        /* \"#utility.yul\":11280:11284   */\n      dup9\n        /* \"#utility.yul\":11273:11309   */\n      sstore\n        /* \"#utility.yul\":10708:11319   */\n      pop\n      pop\n      pop\n        /* \"#utility.yul\":10671:11558   */\n    tag_221:\n      pop\n        /* \"#utility.yul\":10261:11564   */\n      pop\n      pop\n      pop\n        /* \"#utility.yul\":10169:11564   */\n      pop\n      pop\n      jump\t// out\n\n    auxdata: 0xa2646970667358221220c5308843460136ac23b244579bb4f7b888407dc8366404e239eff637dcf13a8a64736f6c63430008120033\n}\n",
				"bytecode": {
					"linkReferences": {},
					"object": "608060405234801561001057600080fd5b50610ac7806100206000396000f3fe608060405234801561001057600080fd5b50600436106100575760003560e01c8063455f50241461005c578063649ba6db146100785780639507d39a14610094578063b6a46b3b146100c5578063bc8bc2b4146100e1575b600080fd5b61007660048036038101906100719190610460565b610112565b005b610092600480360381019061008d91906104f2565b610185565b005b6100ae60048036038101906100a99190610460565b6101bf565b6040516100bc9291906105fd565b60405180910390f35b6100df60048036038101906100da919061062d565b610294565b005b6100fb60048036038101906100f69190610460565b610357565b6040516101099291906105fd565b60405180910390f35b600081815481106101265761012561067a565b5b906000526020600020906002020160010160009054906101000a900460ff16156000828154811061015a5761015961067a565b5b906000526020600020906002020160010160006101000a81548160ff02191690831515021790555050565b81816000858154811061019b5761019a61067a565b5b906000526020600020906002020160000191826101b99291906108ef565b50505050565b6060600080600084815481106101d8576101d761067a565b5b90600052602060002090600202019050806000018160010160009054906101000a900460ff1681805461020a90610712565b80601f016020809104026020016040519081016040528092919081815260200182805461023690610712565b80156102835780601f1061025857610100808354040283529160200191610283565b820191906000526020600020905b81548152906001019060200180831161026657829003601f168201915b505050505091509250925050915091565b6000604051806040016040528084848080601f016020809104026020016040519081016040528093929190818152602001838380828437600081840152601f19601f820116905080830192505050505050508152602001600015158152509080600181540180825580915050600190039060005260206000209060020201600090919091909150600082015181600001908161033091906109bf565b5060208201518160010160006101000a81548160ff02191690831515021790555050505050565b6000818154811061036757600080fd5b906000526020600020906002020160009150905080600001805461038a90610712565b80601f01602080910402602001604051908101604052809291908181526020018280546103b690610712565b80156104035780601f106103d857610100808354040283529160200191610403565b820191906000526020600020905b8154815290600101906020018083116103e657829003601f168201915b5050505050908060010160009054906101000a900460ff16905082565b600080fd5b600080fd5b6000819050919050565b61043d8161042a565b811461044857600080fd5b50565b60008135905061045a81610434565b92915050565b60006020828403121561047657610475610420565b5b60006104848482850161044b565b91505092915050565b600080fd5b600080fd5b600080fd5b60008083601f8401126104b2576104b161048d565b5b8235905067ffffffffffffffff8111156104cf576104ce610492565b5b6020830191508360018202830111156104eb576104ea610497565b5b9250929050565b60008060006040848603121561050b5761050a610420565b5b60006105198682870161044b565b935050602084013567ffffffffffffffff81111561053a57610539610425565b5b6105468682870161049c565b92509250509250925092565b600081519050919050565b600082825260208201905092915050565b60005b8381101561058c578082015181840152602081019050610571565b60008484015250505050565b6000601f19601f8301169050919050565b60006105b482610552565b6105be818561055d565b93506105ce81856020860161056e565b6105d781610598565b840191505092915050565b60008115159050919050565b6105f7816105e2565b82525050565b6000604082019050818103600083015261061781856105a9565b905061062660208301846105ee565b9392505050565b6000806020838503121561064457610643610420565b5b600083013567ffffffffffffffff81111561066257610661610425565b5b61066e8582860161049c565b92509250509250929050565b7f4e487b7100000000000000000000000000000000000000000000000000000000600052603260045260246000fd5b600082905092915050565b7f4e487b7100000000000000000000000000000000000000000000000000000000600052604160045260246000fd5b7f4e487b7100000000000000000000000000000000000000000000000000000000600052602260045260246000fd5b6000600282049050600182168061072a57607f821691505b60208210810361073d5761073c6106e3565b5b50919050565b60008190508160005260206000209050919050565b60006020601f8301049050919050565b600082821b905092915050565b6000600883026107a57fffffffffffffffffffffffffffffffffffffffffffffffffffffffffffffffff82610768565b6107af8683610768565b95508019841693508086168417925050509392505050565b6000819050919050565b60006107ec6107e76107e28461042a565b6107c7565b61042a565b9050919050565b6000819050919050565b610806836107d1565b61081a610812826107f3565b848454610775565b825550505050565b600090565b61082f610822565b61083a8184846107fd565b505050565b5b8181101561085e57610853600082610827565b600181019050610840565b5050565b601f8211156108a35761087481610743565b61087d84610758565b8101602085101561088c578190505b6108a061089885610758565b83018261083f565b50505b505050565b600082821c905092915050565b60006108c6600019846008026108a8565b1980831691505092915050565b60006108df83836108b5565b9150826002028217905092915050565b6108f983836106a9565b67ffffffffffffffff811115610912576109116106b4565b5b61091c8254610712565b610927828285610862565b6000601f8311600181146109565760008415610944578287013590505b61094e85826108d3565b8655506109b6565b601f19841661096486610743565b60005b8281101561098c57848901358255600182019150602085019450602081019050610967565b868310156109a957848901356109a5601f8916826108b5565b8355505b6001600288020188555050505b50505050505050565b6109c882610552565b67ffffffffffffffff8111156109e1576109e06106b4565b5b6109eb8254610712565b6109f6828285610862565b600060209050601f831160018114610a295760008415610a17578287015190505b610a2185826108d3565b865550610a89565b601f198416610a3786610743565b60005b82811015610a5f57848901518255600182019150602085019450602081019050610a3a565b86831015610a7c5784890151610a78601f8916826108b5565b8355505b6001600288020188555050505b50505050505056fea2646970667358221220c5308843460136ac23b244579bb4f7b888407dc8366404e239eff637dcf13a8a64736f6c63430008120033",
					"opcodes": "PUSH1 0x80 PUSH1 0x40 MSTORE CALLVALUE DUP1 ISZERO PUSH2 0x10 JUMPI PUSH1 0x0 DUP1 REVERT JUMPDEST POP PUSH2 0xAC7 DUP1 PUSH2 0x20 PUSH1 0x0 CODECOPY PUSH1 0x0 RETURN INVALID PUSH1 0x80 PUSH1 0x40 MSTORE CALLVALUE DUP1 ISZERO PUSH2 0x10 JUMPI PUSH1 0x0 DUP1 REVERT JUMPDEST POP PUSH1 0x4 CALLDATASIZE LT PUSH2 0x57 JUMPI PUSH1 0x0 CALLDATALOAD PUSH1 0xE0 SHR DUP1 PUSH4 0x455F5024 EQ PUSH2 0x5C JUMPI DUP1 PUSH4 0x649BA6DB EQ PUSH2 0x78 JUMPI DUP1 PUSH4 0x9507D39A EQ PUSH2 0x94 JUMPI DUP1 PUSH4 0xB6A46B3B EQ PUSH2 0xC5 JUMPI DUP1 PUSH4 0xBC8BC2B4 EQ PUSH2 0xE1 JUMPI JUMPDEST PUSH1 0x0 DUP1 REVERT JUMPDEST PUSH2 0x76 PUSH1 0x4 DUP1 CALLDATASIZE SUB DUP2 ADD SWAP1 PUSH2 0x71 SWAP2 SWAP1 PUSH2 0x460 JUMP JUMPDEST PUSH2 0x112 JUMP JUMPDEST STOP JUMPDEST PUSH2 0x92 PUSH1 0x4 DUP1 CALLDATASIZE SUB DUP2 ADD SWAP1 PUSH2 0x8D SWAP2 SWAP1 PUSH2 0x4F2 JUMP JUMPDEST PUSH2 0x185 JUMP JUMPDEST STOP JUMPDEST PUSH2 0xAE PUSH1 0x4 DUP1 CALLDATASIZE SUB DUP2 ADD SWAP1 PUSH2 0xA9 SWAP2 SWAP1 PUSH2 0x460 JUMP JUMPDEST PUSH2 0x1BF JUMP JUMPDEST PUSH1 0x40 MLOAD PUSH2 0xBC SWAP3 SWAP2 SWAP1 PUSH2 0x5FD JUMP JUMPDEST PUSH1 0x40 MLOAD DUP1 SWAP2 SUB SWAP1 RETURN JUMPDEST PUSH2 0xDF PUSH1 0x4 DUP1 CALLDATASIZE SUB DUP2 ADD SWAP1 PUSH2 0xDA SWAP2 SWAP1 PUSH2 0x62D JUMP JUMPDEST PUSH2 0x294 JUMP JUMPDEST STOP JUMPDEST PUSH2 0xFB PUSH1 0x4 DUP1 CALLDATASIZE SUB DUP2 ADD SWAP1 PUSH2 0xF6 SWAP2 SWAP1 PUSH2 0x460 JUMP JUMPDEST PUSH2 0x357 JUMP JUMPDEST PUSH1 0x40 MLOAD PUSH2 0x109 SWAP3 SWAP2 SWAP1 PUSH2 0x5FD JUMP JUMPDEST PUSH1 0x40 MLOAD DUP1 SWAP2 SUB SWAP1 RETURN JUMPDEST PUSH1 0x0 DUP2 DUP2 SLOAD DUP2 LT PUSH2 0x126 JUMPI PUSH2 0x125 PUSH2 0x67A JUMP JUMPDEST JUMPDEST SWAP1 PUSH1 0x0 MSTORE PUSH1 0x20 PUSH1 0x0 KECCAK256 SWAP1 PUSH1 0x2 MUL ADD PUSH1 0x1 ADD PUSH1 0x0 SWAP1 SLOAD SWAP1 PUSH2 0x100 EXP SWAP1 DIV PUSH1 0xFF AND ISZERO PUSH1 0x0 DUP3 DUP2 SLOAD DUP2 LT PUSH2 0x15A JUMPI PUSH2 0x159 PUSH2 0x67A JUMP JUMPDEST JUMPDEST SWAP1 PUSH1 0x0 MSTORE PUSH1 0x20 PUSH1 0x0 KECCAK256 SWAP1 PUSH1 0x2 MUL ADD PUSH1 0x1 ADD PUSH1 0x0 PUSH2 0x100 EXP DUP2 SLOAD DUP2 PUSH1 0xFF MUL NOT AND SWAP1 DUP4 ISZERO ISZERO MUL OR SWAP1 SSTORE POP POP JUMP JUMPDEST DUP2 DUP2 PUSH1 0x0 DUP6 DUP2 SLOAD DUP2 LT PUSH2 0x19B JUMPI PUSH2 0x19A PUSH2 0x67A JUMP JUMPDEST JUMPDEST SWAP1 PUSH1 0x0 MSTORE PUSH1 0x20 PUSH1 0x0 KECCAK256 SWAP1 PUSH1 0x2 MUL ADD PUSH1 0x0 ADD SWAP2 DUP3 PUSH2 0x1B9 SWAP3 SWAP2 SWAP1 PUSH2 0x8EF JUMP JUMPDEST POP POP POP POP JUMP JUMPDEST PUSH1 0x60 PUSH1 0x0 DUP1 PUSH1 0x0 DUP5 DUP2 SLOAD DUP2 LT PUSH2 0x1D8 JUMPI PUSH2 0x1D7 PUSH2 0x67A JUMP JUMPDEST JUMPDEST SWAP1 PUSH1 0x0 MSTORE PUSH1 0x20 PUSH1 0x0 KECCAK256 SWAP1 PUSH1 0x2 MUL ADD SWAP1 POP DUP1 PUSH1 0x0 ADD DUP2 PUSH1 0x1 ADD PUSH1 0x0 SWAP1 SLOAD SWAP1 PUSH2 0x100 EXP SWAP1 DIV PUSH1 0xFF AND DUP2 DUP1 SLOAD PUSH2 0x20A SWAP1 PUSH2 0x712 JUMP JUMPDEST DUP1 PUSH1 0x1F ADD PUSH1 0x20 DUP1 SWAP2 DIV MUL PUSH1 0x20 ADD PUSH1 0x40 MLOAD SWAP1 DUP2 ADD PUSH1 0x40 MSTORE DUP1 SWAP3 SWAP2 SWAP1 DUP2 DUP2 MSTORE PUSH1 0x20 ADD DUP3 DUP1 SLOAD PUSH2 0x236 SWAP1 PUSH2 0x712 JUMP JUMPDEST DUP1 ISZERO PUSH2 0x283 JUMPI DUP1 PUSH1 0x1F LT PUSH2 0x258 JUMPI PUSH2 0x100 DUP1 DUP4 SLOAD DIV MUL DUP4 MSTORE SWAP2 PUSH1 0x20 ADD SWAP2 PUSH2 0x283 JUMP JUMPDEST DUP3 ADD SWAP2 SWAP1 PUSH1 0x0 MSTORE PUSH1 0x20 PUSH1 0x0 KECCAK256 SWAP1 JUMPDEST DUP2 SLOAD DUP2 MSTORE SWAP1 PUSH1 0x1 ADD SWAP1 PUSH1 0x20 ADD DUP1 DUP4 GT PUSH2 0x266 JUMPI DUP3 SWAP1 SUB PUSH1 0x1F AND DUP3 ADD SWAP2 JUMPDEST POP POP POP POP POP SWAP2 POP SWAP3 POP SWAP3 POP POP SWAP2 POP SWAP2 JUMP JUMPDEST PUSH1 0x0 PUSH1 0x40 MLOAD DUP1 PUSH1 0x40 ADD PUSH1 0x40 MSTORE DUP1 DUP5 DUP5 DUP1 DUP1 PUSH1 0x1F ADD PUSH1 0x20 DUP1 SWAP2 DIV MUL PUSH1 0x20 ADD PUSH1 0x40 MLOAD SWAP1 DUP2 ADD PUSH1 0x40 MSTORE DUP1 SWAP4 SWAP3 SWAP2 SWAP1 DUP2 DUP2 MSTORE PUSH1 0x20 ADD DUP4 DUP4 DUP1 DUP3 DUP5 CALLDATACOPY PUSH1 0x0 DUP2 DUP5 ADD MSTORE PUSH1 0x1F NOT PUSH1 0x1F DUP3 ADD AND SWAP1 POP DUP1 DUP4 ADD SWAP3 POP POP POP POP POP POP POP DUP2 MSTORE PUSH1 0x20 ADD PUSH1 0x0 ISZERO ISZERO DUP2 MSTORE POP SWAP1 DUP1 PUSH1 0x1 DUP2 SLOAD ADD DUP1 DUP3 SSTORE DUP1 SWAP2 POP POP PUSH1 0x1 SWAP1 SUB SWAP1 PUSH1 0x0 MSTORE PUSH1 0x20 PUSH1 0x0 KECCAK256 SWAP1 PUSH1 0x2 MUL ADD PUSH1 0x0 SWAP1 SWAP2 SWAP1 SWAP2 SWAP1 SWAP2 POP PUSH1 0x0 DUP3 ADD MLOAD DUP2 PUSH1 0x0 ADD SWAP1 DUP2 PUSH2 0x330 SWAP2 SWAP1 PUSH2 0x9BF JUMP JUMPDEST POP PUSH1 0x20 DUP3 ADD MLOAD DUP2 PUSH1 0x1 ADD PUSH1 0x0 PUSH2 0x100 EXP DUP2 SLOAD DUP2 PUSH1 0xFF MUL NOT AND SWAP1 DUP4 ISZERO ISZERO MUL OR SWAP1 SSTORE POP POP POP POP POP JUMP JUMPDEST PUSH1 0x0 DUP2 DUP2 SLOAD DUP2 LT PUSH2 0x367 JUMPI PUSH1 0x0 DUP1 REVERT JUMPDEST SWAP1 PUSH1 0x0 MSTORE PUSH1 0x20 PUSH1 0x0 KECCAK256 SWAP1 PUSH1 0x2 MUL ADD PUSH1 0x0 SWAP2 POP SWAP1 POP DUP1 PUSH1 0x0 ADD DUP1 SLOAD PUSH2 0x38A SWAP1 PUSH2 0x712 JUMP JUMPDEST DUP1 PUSH1 0x1F ADD PUSH1 0x20 DUP1 SWAP2 DIV MUL PUSH1 0x20 ADD PUSH1 0x40 MLOAD SWAP1 DUP2 ADD PUSH1 0x40 MSTORE DUP1 SWAP3 SWAP2 SWAP1 DUP2 DUP2 MSTORE PUSH1 0x20 ADD DUP3 DUP1 SLOAD PUSH2 0x3B6 SWAP1 PUSH2 0x712 JUMP JUMPDEST DUP1 ISZERO PUSH2 0x403 JUMPI DUP1 PUSH1 0x1F LT PUSH2 0x3D8 JUMPI PUSH2 0x100 DUP1 DUP4 SLOAD DIV MUL DUP4 MSTORE SWAP2 PUSH1 0x20 ADD SWAP2 PUSH2 0x403 JUMP JUMPDEST DUP3 ADD SWAP2 SWAP1 PUSH1 0x0 MSTORE PUSH1 0x20 PUSH1 0x0 KECCAK256 SWAP1 JUMPDEST DUP2 SLOAD DUP2 MSTORE SWAP1 PUSH1 0x1 ADD SWAP1 PUSH1 0x20 ADD DUP1 DUP4 GT PUSH2 0x3E6 JUMPI DUP3 SWAP1 SUB PUSH1 0x1F AND DUP3 ADD SWAP2 JUMPDEST POP POP POP POP POP SWAP1 DUP1 PUSH1 0x1 ADD PUSH1 0x0 SWAP1 SLOAD SWAP1 PUSH2 0x100 EXP SWAP1 DIV PUSH1 0xFF AND SWAP1 POP DUP3 JUMP JUMPDEST PUSH1 0x0 DUP1 REVERT JUMPDEST PUSH1 0x0 DUP1 REVERT JUMPDEST PUSH1 0x0 DUP2 SWAP1 POP SWAP2 SWAP1 POP JUMP JUMPDEST PUSH2 0x43D DUP2 PUSH2 0x42A JUMP JUMPDEST DUP2 EQ PUSH2 0x448 JUMPI PUSH1 0x0 DUP1 REVERT JUMPDEST POP JUMP JUMPDEST PUSH1 0x0 DUP2 CALLDATALOAD SWAP1 POP PUSH2 0x45A DUP2 PUSH2 0x434 JUMP JUMPDEST SWAP3 SWAP2 POP POP JUMP JUMPDEST PUSH1 0x0 PUSH1 0x20 DUP3 DUP5 SUB SLT ISZERO PUSH2 0x476 JUMPI PUSH2 0x475 PUSH2 0x420 JUMP JUMPDEST JUMPDEST PUSH1 0x0 PUSH2 0x484 DUP5 DUP3 DUP6 ADD PUSH2 0x44B JUMP JUMPDEST SWAP2 POP POP SWAP3 SWAP2 POP POP JUMP JUMPDEST PUSH1 0x0 DUP1 REVERT JUMPDEST PUSH1 0x0 DUP1 REVERT JUMPDEST PUSH1 0x0 DUP1 REVERT JUMPDEST PUSH1 0x0 DUP1 DUP4 PUSH1 0x1F DUP5 ADD SLT PUSH2 0x4B2 JUMPI PUSH2 0x4B1 PUSH2 0x48D JUMP JUMPDEST JUMPDEST DUP3 CALLDATALOAD SWAP1 POP PUSH8 0xFFFFFFFFFFFFFFFF DUP2 GT ISZERO PUSH2 0x4CF JUMPI PUSH2 0x4CE PUSH2 0x492 JUMP JUMPDEST JUMPDEST PUSH1 0x20 DUP4 ADD SWAP2 POP DUP4 PUSH1 0x1 DUP3 MUL DUP4 ADD GT ISZERO PUSH2 0x4EB JUMPI PUSH2 0x4EA PUSH2 0x497 JUMP JUMPDEST JUMPDEST SWAP3 POP SWAP3 SWAP1 POP JUMP JUMPDEST PUSH1 0x0 DUP1 PUSH1 0x0 PUSH1 0x40 DUP5 DUP7 SUB SLT ISZERO PUSH2 0x50B JUMPI PUSH2 0x50A PUSH2 0x420 JUMP JUMPDEST JUMPDEST PUSH1 0x0 PUSH2 0x519 DUP7 DUP3 DUP8 ADD PUSH2 0x44B JUMP JUMPDEST SWAP4 POP POP PUSH1 0x20 DUP5 ADD CALLDATALOAD PUSH8 0xFFFFFFFFFFFFFFFF DUP2 GT ISZERO PUSH2 0x53A JUMPI PUSH2 0x539 PUSH2 0x425 JUMP JUMPDEST JUMPDEST PUSH2 0x546 DUP7 DUP3 DUP8 ADD PUSH2 0x49C JUMP JUMPDEST SWAP3 POP SWAP3 POP POP SWAP3 POP SWAP3 POP SWAP3 JUMP JUMPDEST PUSH1 0x0 DUP2 MLOAD SWAP1 POP SWAP2 SWAP1 POP JUMP JUMPDEST PUSH1 0x0 DUP3 DUP3 MSTORE PUSH1 0x20 DUP3 ADD SWAP1 POP SWAP3 SWAP2 POP POP JUMP JUMPDEST PUSH1 0x0 JUMPDEST DUP4 DUP2 LT ISZERO PUSH2 0x58C JUMPI DUP1 DUP3 ADD MLOAD DUP2 DUP5 ADD MSTORE PUSH1 0x20 DUP2 ADD SWAP1 POP PUSH2 0x571 JUMP JUMPDEST PUSH1 0x0 DUP5 DUP5 ADD MSTORE POP POP POP POP JUMP JUMPDEST PUSH1 0x0 PUSH1 0x1F NOT PUSH1 0x1F DUP4 ADD AND SWAP1 POP SWAP2 SWAP1 POP JUMP JUMPDEST PUSH1 0x0 PUSH2 0x5B4 DUP3 PUSH2 0x552 JUMP JUMPDEST PUSH2 0x5BE DUP2 DUP6 PUSH2 0x55D JUMP JUMPDEST SWAP4 POP PUSH2 0x5CE DUP2 DUP6 PUSH1 0x20 DUP7 ADD PUSH2 0x56E JUMP JUMPDEST PUSH2 0x5D7 DUP2 PUSH2 0x598 JUMP JUMPDEST DUP5 ADD SWAP2 POP POP SWAP3 SWAP2 POP POP JUMP JUMPDEST PUSH1 0x0 DUP2 ISZERO ISZERO SWAP1 POP SWAP2 SWAP1 POP JUMP JUMPDEST PUSH2 0x5F7 DUP2 PUSH2 0x5E2 JUMP JUMPDEST DUP3 MSTORE POP POP JUMP JUMPDEST PUSH1 0x0 PUSH1 0x40 DUP3 ADD SWAP1 POP DUP2 DUP2 SUB PUSH1 0x0 DUP4 ADD MSTORE PUSH2 0x617 DUP2 DUP6 PUSH2 0x5A9 JUMP JUMPDEST SWAP1 POP PUSH2 0x626 PUSH1 0x20 DUP4 ADD DUP5 PUSH2 0x5EE JUMP JUMPDEST SWAP4 SWAP3 POP POP POP JUMP JUMPDEST PUSH1 0x0 DUP1 PUSH1 0x20 DUP4 DUP6 SUB SLT ISZERO PUSH2 0x644 JUMPI PUSH2 0x643 PUSH2 0x420 JUMP JUMPDEST JUMPDEST PUSH1 0x0 DUP4 ADD CALLDATALOAD PUSH8 0xFFFFFFFFFFFFFFFF DUP2 GT ISZERO PUSH2 0x662 JUMPI PUSH2 0x661 PUSH2 0x425 JUMP JUMPDEST JUMPDEST PUSH2 0x66E DUP6 DUP3 DUP7 ADD PUSH2 0x49C JUMP JUMPDEST SWAP3 POP SWAP3 POP POP SWAP3 POP SWAP3 SWAP1 POP JUMP JUMPDEST PUSH32 0x4E487B7100000000000000000000000000000000000000000000000000000000 PUSH1 0x0 MSTORE PUSH1 0x32 PUSH1 0x4 MSTORE PUSH1 0x24 PUSH1 0x0 REVERT JUMPDEST PUSH1 0x0 DUP3 SWAP1 POP SWAP3 SWAP2 POP POP JUMP JUMPDEST PUSH32 0x4E487B7100000000000000000000000000000000000000000000000000000000 PUSH1 0x0 MSTORE PUSH1 0x41 PUSH1 0x4 MSTORE PUSH1 0x24 PUSH1 0x0 REVERT JUMPDEST PUSH32 0x4E487B7100000000000000000000000000000000000000000000000000000000 PUSH1 0x0 MSTORE PUSH1 0x22 PUSH1 0x4 MSTORE PUSH1 0x24 PUSH1 0x0 REVERT JUMPDEST PUSH1 0x0 PUSH1 0x2 DUP3 DIV SWAP1 POP PUSH1 0x1 DUP3 AND DUP1 PUSH2 0x72A JUMPI PUSH1 0x7F DUP3 AND SWAP2 POP JUMPDEST PUSH1 0x20 DUP3 LT DUP2 SUB PUSH2 0x73D JUMPI PUSH2 0x73C PUSH2 0x6E3 JUMP JUMPDEST JUMPDEST POP SWAP2 SWAP1 POP JUMP JUMPDEST PUSH1 0x0 DUP2 SWAP1 POP DUP2 PUSH1 0x0 MSTORE PUSH1 0x20 PUSH1 0x0 KECCAK256 SWAP1 POP SWAP2 SWAP1 POP JUMP JUMPDEST PUSH1 0x0 PUSH1 0x20 PUSH1 0x1F DUP4 ADD DIV SWAP1 POP SWAP2 SWAP1 POP JUMP JUMPDEST PUSH1 0x0 DUP3 DUP3 SHL SWAP1 POP SWAP3 SWAP2 POP POP JUMP JUMPDEST PUSH1 0x0 PUSH1 0x8 DUP4 MUL PUSH2 0x7A5 PUSH32 0xFFFFFFFFFFFFFFFFFFFFFFFFFFFFFFFFFFFFFFFFFFFFFFFFFFFFFFFFFFFFFFFF DUP3 PUSH2 0x768 JUMP JUMPDEST PUSH2 0x7AF DUP7 DUP4 PUSH2 0x768 JUMP JUMPDEST SWAP6 POP DUP1 NOT DUP5 AND SWAP4 POP DUP1 DUP7 AND DUP5 OR SWAP3 POP POP POP SWAP4 SWAP3 POP POP POP JUMP JUMPDEST PUSH1 0x0 DUP2 SWAP1 POP SWAP2 SWAP1 POP JUMP JUMPDEST PUSH1 0x0 PUSH2 0x7EC PUSH2 0x7E7 PUSH2 0x7E2 DUP5 PUSH2 0x42A JUMP JUMPDEST PUSH2 0x7C7 JUMP JUMPDEST PUSH2 0x42A JUMP JUMPDEST SWAP1 POP SWAP2 SWAP1 POP JUMP JUMPDEST PUSH1 0x0 DUP2 SWAP1 POP SWAP2 SWAP1 POP JUMP JUMPDEST PUSH2 0x806 DUP4 PUSH2 0x7D1 JUMP JUMPDEST PUSH2 0x81A PUSH2 0x812 DUP3 PUSH2 0x7F3 JUMP JUMPDEST DUP5 DUP5 SLOAD PUSH2 0x775 JUMP JUMPDEST DUP3 SSTORE POP POP POP POP JUMP JUMPDEST PUSH1 0x0 SWAP1 JUMP JUMPDEST PUSH2 0x82F PUSH2 0x822 JUMP JUMPDEST PUSH2 0x83A DUP2 DUP5 DUP5 PUSH2 0x7FD JUMP JUMPDEST POP POP POP JUMP JUMPDEST JUMPDEST DUP2 DUP2 LT ISZERO PUSH2 0x85E JUMPI PUSH2 0x853 PUSH1 0x0 DUP3 PUSH2 0x827 JUMP JUMPDEST PUSH1 0x1 DUP2 ADD SWAP1 POP PUSH2 0x840 JUMP JUMPDEST POP POP JUMP JUMPDEST PUSH1 0x1F DUP3 GT ISZERO PUSH2 0x8A3 JUMPI PUSH2 0x874 DUP2 PUSH2 0x743 JUMP JUMPDEST PUSH2 0x87D DUP5 PUSH2 0x758 JUMP JUMPDEST DUP2 ADD PUSH1 0x20 DUP6 LT ISZERO PUSH2 0x88C JUMPI DUP2 SWAP1 POP JUMPDEST PUSH2 0x8A0 PUSH2 0x898 DUP6 PUSH2 0x758 JUMP JUMPDEST DUP4 ADD DUP3 PUSH2 0x83F JUMP JUMPDEST POP POP JUMPDEST POP POP POP JUMP JUMPDEST PUSH1 0x0 DUP3 DUP3 SHR SWAP1 POP SWAP3 SWAP2 POP POP JUMP JUMPDEST PUSH1 0x0 PUSH2 0x8C6 PUSH1 0x0 NOT DUP5 PUSH1 0x8 MUL PUSH2 0x8A8 JUMP JUMPDEST NOT DUP1 DUP4 AND SWAP2 POP POP SWAP3 SWAP2 POP POP JUMP JUMPDEST PUSH1 0x0 PUSH2 0x8DF DUP4 DUP4 PUSH2 0x8B5 JUMP JUMPDEST SWAP2 POP DUP3 PUSH1 0x2 MUL DUP3 OR SWAP1 POP SWAP3 SWAP2 POP POP JUMP JUMPDEST PUSH2 0x8F9 DUP4 DUP4 PUSH2 0x6A9 JUMP JUMPDEST PUSH8 0xFFFFFFFFFFFFFFFF DUP2 GT ISZERO PUSH2 0x912 JUMPI PUSH2 0x911 PUSH2 0x6B4 JUMP JUMPDEST JUMPDEST PUSH2 0x91C DUP3 SLOAD PUSH2 0x712 JUMP JUMPDEST PUSH2 0x927 DUP3 DUP3 DUP6 PUSH2 0x862 JUMP JUMPDEST PUSH1 0x0 PUSH1 0x1F DUP4 GT PUSH1 0x1 DUP2 EQ PUSH2 0x956 JUMPI PUSH1 0x0 DUP5 ISZERO PUSH2 0x944 JUMPI DUP3 DUP8 ADD CALLDATALOAD SWAP1 POP JUMPDEST PUSH2 0x94E DUP6 DUP3 PUSH2 0x8D3 JUMP JUMPDEST DUP7 SSTORE POP PUSH2 0x9B6 JUMP JUMPDEST PUSH1 0x1F NOT DUP5 AND PUSH2 0x964 DUP7 PUSH2 0x743 JUMP JUMPDEST PUSH1 0x0 JUMPDEST DUP3 DUP2 LT ISZERO PUSH2 0x98C JUMPI DUP5 DUP10 ADD CALLDATALOAD DUP3 SSTORE PUSH1 0x1 DUP3 ADD SWAP2 POP PUSH1 0x20 DUP6 ADD SWAP5 POP PUSH1 0x20 DUP2 ADD SWAP1 POP PUSH2 0x967 JUMP JUMPDEST DUP7 DUP4 LT ISZERO PUSH2 0x9A9 JUMPI DUP5 DUP10 ADD CALLDATALOAD PUSH2 0x9A5 PUSH1 0x1F DUP10 AND DUP3 PUSH2 0x8B5 JUMP JUMPDEST DUP4 SSTORE POP JUMPDEST PUSH1 0x1 PUSH1 0x2 DUP9 MUL ADD DUP9 SSTORE POP POP POP JUMPDEST POP POP POP POP POP POP POP JUMP JUMPDEST PUSH2 0x9C8 DUP3 PUSH2 0x552 JUMP JUMPDEST PUSH8 0xFFFFFFFFFFFFFFFF DUP2 GT ISZERO PUSH2 0x9E1 JUMPI PUSH2 0x9E0 PUSH2 0x6B4 JUMP JUMPDEST JUMPDEST PUSH2 0x9EB DUP3 SLOAD PUSH2 0x712 JUMP JUMPDEST PUSH2 0x9F6 DUP3 DUP3 DUP6 PUSH2 0x862 JUMP JUMPDEST PUSH1 0x0 PUSH1 0x20 SWAP1 POP PUSH1 0x1F DUP4 GT PUSH1 0x1 DUP2 EQ PUSH2 0xA29 JUMPI PUSH1 0x0 DUP5 ISZERO PUSH2 0xA17 JUMPI DUP3 DUP8 ADD MLOAD SWAP1 POP JUMPDEST PUSH2 0xA21 DUP6 DUP3 PUSH2 0x8D3 JUMP JUMPDEST DUP7 SSTORE POP PUSH2 0xA89 JUMP JUMPDEST PUSH1 0x1F NOT DUP5 AND PUSH2 0xA37 DUP7 PUSH2 0x743 JUMP JUMPDEST PUSH1 0x0 JUMPDEST DUP3 DUP2 LT ISZERO PUSH2 0xA5F JUMPI DUP5 DUP10 ADD MLOAD DUP3 SSTORE PUSH1 0x1 DUP3 ADD SWAP2 POP PUSH1 0x20 DUP6 ADD SWAP5 POP PUSH1 0x20 DUP2 ADD SWAP1 POP PUSH2 0xA3A JUMP JUMPDEST DUP7 DUP4 LT ISZERO PUSH2 0xA7C JUMPI DUP5 DUP10 ADD MLOAD PUSH2 0xA78 PUSH1 0x1F DUP10 AND DUP3 PUSH2 0x8B5 JUMP JUMPDEST DUP4 SSTORE POP JUMPDEST PUSH1 0x1 PUSH1 0x2 DUP9 MUL ADD DUP9 SSTORE POP POP POP JUMPDEST POP POP POP POP POP POP JUMP INVALID LOG2 PUSH5 0x6970667358 0x22 SLT KECCAK256 0xC5 ADDRESS DUP9 NUMBER CHAINID ADD CALLDATASIZE 0xAC 0x23 0xB2 PREVRANDAO JUMPI SWAP12 0xB4 0xF7 0xB8 DUP9 BLOCKHASH PUSH30 0xC8366404E239EFF637DCF13A8A64736F6C63430008120033000000000000 "
				},
				"gasEstimates": {
					"creation": {
						"codeDepositCost": "551800",
						"executionCost": "587",
						"totalCost": "552387"
					},
					"external": {
						"create(string)": "infinite",
						"get(uint256)": "infinite",
						"todos(uint256)": "infinite",
						"toggleCompleted(uint256)": "31184",
						"updatetext(uint256,string)": "infinite"
					}
				},
				"methodIdentifiers": {
					"create(string)": "b6a46b3b",
					"get(uint256)": "9507d39a",
					"todos(uint256)": "bc8bc2b4",
					"toggleCompleted(uint256)": "455f5024",
					"updatetext(uint256,string)": "649ba6db"
				}
			},
			"storageLayout": {
				"storage": [
					{
						"astId": 10,
						"contract": "contracts/Apps/TodoList.sol:TodoList",
						"label": "todos",
						"offset": 0,
						"slot": "0",
						"type": "t_array(t_struct(Todo)6_storage)dyn_storage"
					}
				],
				"types": {
					"t_array(t_struct(Todo)6_storage)dyn_storage": {
						"base": "t_struct(Todo)6_storage",
						"encoding": "dynamic_array",
						"label": "struct TodoList.Todo[]",
						"numberOfBytes": "32"
					},
					"t_bool": {
						"encoding": "inplace",
						"label": "bool",
						"numberOfBytes": "1"
					},
					"t_string_storage": {
						"encoding": "bytes",
						"label": "string",
						"numberOfBytes": "32"
					},
					"t_struct(Todo)6_storage": {
						"encoding": "inplace",
						"label": "struct TodoList.Todo",
						"members": [
							{
								"astId": 3,
								"contract": "contracts/Apps/TodoList.sol:TodoList",
								"label": "text",
								"offset": 0,
								"slot": "0",
								"type": "t_string_storage"
							},
							{
								"astId": 5,
								"contract": "contracts/Apps/TodoList.sol:TodoList",
								"label": "completed",
								"offset": 0,
								"slot": "1",
								"type": "t_bool"
							}
						],
						"numberOfBytes": "64"
					}
				}
			},
			"userdoc": {
				"kind": "user",
				"methods": {},
				"version": 1
			}
		}
	}
}