{
	"contracts/Apps/Piggybank.sol": {
		"PiggyBank": {
			"abi": [
				{
					"anonymous": false,
					"inputs": [
						{
							"indexed": false,
							"internalType": "uint256",
							"name": "amount",
							"type": "uint256"
						}
					],
					"name": "Deposit",
					"type": "event"
				},
				{
					"anonymous": false,
					"inputs": [
						{
							"indexed": false,
							"internalType": "uint256",
							"name": "amount",
							"type": "uint256"
						}
					],
					"name": "Withdraw",
					"type": "event"
				},
				{
					"inputs": [],
					"name": "owner",
					"outputs": [
						{
							"internalType": "address",
							"name": "",
							"type": "address"
						}
					],
					"stateMutability": "view",
					"type": "function"
				},
				{
					"inputs": [],
					"name": "withdraw",
					"outputs": [],
					"stateMutability": "nonpayable",
					"type": "function"
				},
				{
					"stateMutability": "payable",
					"type": "receive"
				}
			],
			"devdoc": {
				"kind": "dev",
				"methods": {},
				"version": 1
			},
			"evm": {
				"assembly": "    /* \"contracts/Apps/Piggybank.sol\":57:442  contract PiggyBank {... */\n  mstore(0x40, 0x80)\n    /* \"contracts/Apps/Piggybank.sol\":105:115  msg.sender */\n  caller\n    /* \"contracts/Apps/Piggybank.sol\":82:115  address public owner = msg.sender */\n  0x00\n  dup1\n  0x0100\n  exp\n  dup2\n  sload\n  dup2\n  0xffffffffffffffffffffffffffffffffffffffff\n  mul\n  not\n  and\n  swap1\n  dup4\n  0xffffffffffffffffffffffffffffffffffffffff\n  and\n  mul\n  or\n  swap1\n  sstore\n  pop\n    /* \"contracts/Apps/Piggybank.sol\":57:442  contract PiggyBank {... */\n  callvalue\n  dup1\n  iszero\n  tag_1\n  jumpi\n  0x00\n  dup1\n  revert\ntag_1:\n  pop\n  dataSize(sub_0)\n  dup1\n  dataOffset(sub_0)\n  0x00\n  codecopy\n  0x00\n  return\nstop\n\nsub_0: assembly {\n        /* \"contracts/Apps/Piggybank.sol\":57:442  contract PiggyBank {... */\n      mstore(0x40, 0x80)\n      jumpi(tag_1, lt(calldatasize, 0x04))\n      shr(0xe0, calldataload(0x00))\n      dup1\n      0x3ccfd60b\n      eq\n      tag_3\n      jumpi\n      dup1\n      0x8da5cb5b\n      eq\n      tag_4\n      jumpi\n      jump(tag_2)\n    tag_1:\n      jumpi(tag_2, calldatasize)\n        /* \"contracts/Apps/Piggybank.sol\":231:249  Deposit(msg.value) */\n      0x4d6ce1e535dbade1c23defba91e23b8f791ce5edc0cc320257a2b364e4e38426\n        /* \"contracts/Apps/Piggybank.sol\":239:248  msg.value */\n      callvalue\n        /* \"contracts/Apps/Piggybank.sol\":231:249  Deposit(msg.value) */\n      mload(0x40)\n      tag_7\n      swap2\n      swap1\n      tag_8\n      jump\t// in\n    tag_7:\n      mload(0x40)\n      dup1\n      swap2\n      sub\n      swap1\n      log1\n        /* \"contracts/Apps/Piggybank.sol\":57:442  contract PiggyBank {... */\n      stop\n    tag_2:\n      0x00\n      dup1\n      revert\n        /* \"contracts/Apps/Piggybank.sol\":263:440  function withdraw() external {... */\n    tag_3:\n      callvalue\n      dup1\n      iszero\n      tag_9\n      jumpi\n      0x00\n      dup1\n      revert\n    tag_9:\n      pop\n      tag_10\n      tag_11\n      jump\t// in\n    tag_10:\n      stop\n        /* \"contracts/Apps/Piggybank.sol\":82:115  address public owner = msg.sender */\n    tag_4:\n      callvalue\n      dup1\n      iszero\n      tag_12\n      jumpi\n      0x00\n      dup1\n      revert\n    tag_12:\n      pop\n      tag_13\n      tag_14\n      jump\t// in\n    tag_13:\n      mload(0x40)\n      tag_15\n      swap2\n      swap1\n      tag_16\n      jump\t// in\n    tag_15:\n      mload(0x40)\n      dup1\n      swap2\n      sub\n      swap1\n      return\n        /* \"contracts/Apps/Piggybank.sol\":263:440  function withdraw() external {... */\n    tag_11:\n        /* \"contracts/Apps/Piggybank.sol\":324:329  owner */\n      0x00\n      dup1\n      sload\n      swap1\n      0x0100\n      exp\n      swap1\n      div\n      0xffffffffffffffffffffffffffffffffffffffff\n      and\n        /* \"contracts/Apps/Piggybank.sol\":310:329  msg.sender == owner */\n      0xffffffffffffffffffffffffffffffffffffffff\n      and\n        /* \"contracts/Apps/Piggybank.sol\":310:320  msg.sender */\n      caller\n        /* \"contracts/Apps/Piggybank.sol\":310:329  msg.sender == owner */\n      0xffffffffffffffffffffffffffffffffffffffff\n      and\n      eq\n        /* \"contracts/Apps/Piggybank.sol\":302:343  require(msg.sender == owner, \"nor owner\") */\n      tag_18\n      jumpi\n      mload(0x40)\n      0x08c379a000000000000000000000000000000000000000000000000000000000\n      dup2\n      mstore\n      0x04\n      add\n      tag_19\n      swap1\n      tag_20\n      jump\t// in\n    tag_19:\n      mload(0x40)\n      dup1\n      swap2\n      sub\n      swap1\n      revert\n    tag_18:\n        /* \"contracts/Apps/Piggybank.sol\":358:389  Withdraw(address(this).balance) */\n      0x5b6b431d4476a211bb7d41c20d1aab9ae2321deee0d20be3d9fc9b1093fa6e3d\n        /* \"contracts/Apps/Piggybank.sol\":367:388  address(this).balance */\n      selfbalance\n        /* \"contracts/Apps/Piggybank.sol\":358:389  Withdraw(address(this).balance) */\n      mload(0x40)\n      tag_21\n      swap2\n      swap1\n      tag_8\n      jump\t// in\n    tag_21:\n      mload(0x40)\n      dup1\n      swap2\n      sub\n      swap1\n      log1\n        /* \"contracts/Apps/Piggybank.sol\":421:431  msg.sender */\n      caller\n        /* \"contracts/Apps/Piggybank.sol\":399:433  selfdestruct(payable (msg.sender)) */\n      0xffffffffffffffffffffffffffffffffffffffff\n      and\n      selfdestruct\n        /* \"contracts/Apps/Piggybank.sol\":82:115  address public owner = msg.sender */\n    tag_14:\n      0x00\n      dup1\n      sload\n      swap1\n      0x0100\n      exp\n      swap1\n      div\n      0xffffffffffffffffffffffffffffffffffffffff\n      and\n      dup2\n      jump\t// out\n        /* \"#utility.yul\":7:125   */\n    tag_23:\n        /* \"#utility.yul\":94:118   */\n      tag_25\n        /* \"#utility.yul\":112:117   */\n      dup2\n        /* \"#utility.yul\":94:118   */\n      tag_26\n      jump\t// in\n    tag_25:\n        /* \"#utility.yul\":89:92   */\n      dup3\n        /* \"#utility.yul\":82:119   */\n      mstore\n        /* \"#utility.yul\":7:125   */\n      pop\n      pop\n      jump\t// out\n        /* \"#utility.yul\":131:496   */\n    tag_27:\n        /* \"#utility.yul\":273:276   */\n      0x00\n        /* \"#utility.yul\":294:360   */\n      tag_29\n        /* \"#utility.yul\":358:359   */\n      0x09\n        /* \"#utility.yul\":353:356   */\n      dup4\n        /* \"#utility.yul\":294:360   */\n      tag_30\n      jump\t// in\n    tag_29:\n        /* \"#utility.yul\":287:360   */\n      swap2\n      pop\n        /* \"#utility.yul\":369:462   */\n      tag_31\n        /* \"#utility.yul\":458:461   */\n      dup3\n        /* \"#utility.yul\":369:462   */\n      tag_32\n      jump\t// in\n    tag_31:\n        /* \"#utility.yul\":487:489   */\n      0x20\n        /* \"#utility.yul\":482:485   */\n      dup3\n        /* \"#utility.yul\":478:490   */\n      add\n        /* \"#utility.yul\":471:490   */\n      swap1\n      pop\n        /* \"#utility.yul\":131:496   */\n      swap2\n      swap1\n      pop\n      jump\t// out\n        /* \"#utility.yul\":502:620   */\n    tag_33:\n        /* \"#utility.yul\":589:613   */\n      tag_35\n        /* \"#utility.yul\":607:612   */\n      dup2\n        /* \"#utility.yul\":589:613   */\n      tag_36\n      jump\t// in\n    tag_35:\n        /* \"#utility.yul\":584:587   */\n      dup3\n        /* \"#utility.yul\":577:614   */\n      mstore\n        /* \"#utility.yul\":502:620   */\n      pop\n      pop\n      jump\t// out\n        /* \"#utility.yul\":626:848   */\n    tag_16:\n        /* \"#utility.yul\":719:723   */\n      0x00\n        /* \"#utility.yul\":757:759   */\n      0x20\n        /* \"#utility.yul\":746:755   */\n      dup3\n        /* \"#utility.yul\":742:760   */\n      add\n        /* \"#utility.yul\":734:760   */\n      swap1\n      pop\n        /* \"#utility.yul\":770:841   */\n      tag_38\n        /* \"#utility.yul\":838:839   */\n      0x00\n        /* \"#utility.yul\":827:836   */\n      dup4\n        /* \"#utility.yul\":823:840   */\n      add\n        /* \"#utility.yul\":814:820   */\n      dup5\n        /* \"#utility.yul\":770:841   */\n      tag_23\n      jump\t// in\n    tag_38:\n        /* \"#utility.yul\":626:848   */\n      swap3\n      swap2\n      pop\n      pop\n      jump\t// out\n        /* \"#utility.yul\":854:1273   */\n    tag_20:\n        /* \"#utility.yul\":1020:1024   */\n      0x00\n        /* \"#utility.yul\":1058:1060   */\n      0x20\n        /* \"#utility.yul\":1047:1056   */\n      dup3\n        /* \"#utility.yul\":1043:1061   */\n      add\n        /* \"#utility.yul\":1035:1061   */\n      swap1\n      pop\n        /* \"#utility.yul\":1107:1116   */\n      dup2\n        /* \"#utility.yul\":1101:1105   */\n      dup2\n        /* \"#utility.yul\":1097:1117   */\n      sub\n        /* \"#utility.yul\":1093:1094   */\n      0x00\n        /* \"#utility.yul\":1082:1091   */\n      dup4\n        /* \"#utility.yul\":1078:1095   */\n      add\n        /* \"#utility.yul\":1071:1118   */\n      mstore\n        /* \"#utility.yul\":1135:1266   */\n      tag_40\n        /* \"#utility.yul\":1261:1265   */\n      dup2\n        /* \"#utility.yul\":1135:1266   */\n      tag_27\n      jump\t// in\n    tag_40:\n        /* \"#utility.yul\":1127:1266   */\n      swap1\n      pop\n        /* \"#utility.yul\":854:1273   */\n      swap2\n      swap1\n      pop\n      jump\t// out\n        /* \"#utility.yul\":1279:1501   */\n    tag_8:\n        /* \"#utility.yul\":1372:1376   */\n      0x00\n        /* \"#utility.yul\":1410:1412   */\n      0x20\n        /* \"#utility.yul\":1399:1408   */\n      dup3\n        /* \"#utility.yul\":1395:1413   */\n      add\n        /* \"#utility.yul\":1387:1413   */\n      swap1\n      pop\n        /* \"#utility.yul\":1423:1494   */\n      tag_42\n        /* \"#utility.yul\":1491:1492   */\n      0x00\n        /* \"#utility.yul\":1480:1489   */\n      dup4\n        /* \"#utility.yul\":1476:1493   */\n      add\n        /* \"#utility.yul\":1467:1473   */\n      dup5\n        /* \"#utility.yul\":1423:1494   */\n      tag_33\n      jump\t// in\n    tag_42:\n        /* \"#utility.yul\":1279:1501   */\n      swap3\n      swap2\n      pop\n      pop\n      jump\t// out\n        /* \"#utility.yul\":1507:1676   */\n    tag_30:\n        /* \"#utility.yul\":1591:1602   */\n      0x00\n        /* \"#utility.yul\":1625:1631   */\n      dup3\n        /* \"#utility.yul\":1620:1623   */\n      dup3\n        /* \"#utility.yul\":1613:1632   */\n      mstore\n        /* \"#utility.yul\":1665:1669   */\n      0x20\n        /* \"#utility.yul\":1660:1663   */\n      dup3\n        /* \"#utility.yul\":1656:1670   */\n      add\n        /* \"#utility.yul\":1641:1670   */\n      swap1\n      pop\n        /* \"#utility.yul\":1507:1676   */\n      swap3\n      swap2\n      pop\n      pop\n      jump\t// out\n        /* \"#utility.yul\":1682:1778   */\n    tag_26:\n        /* \"#utility.yul\":1719:1726   */\n      0x00\n        /* \"#utility.yul\":1748:1772   */\n      tag_45\n        /* \"#utility.yul\":1766:1771   */\n      dup3\n        /* \"#utility.yul\":1748:1772   */\n      tag_46\n      jump\t// in\n    tag_45:\n        /* \"#utility.yul\":1737:1772   */\n      swap1\n      pop\n        /* \"#utility.yul\":1682:1778   */\n      swap2\n      swap1\n      pop\n      jump\t// out\n        /* \"#utility.yul\":1784:1910   */\n    tag_46:\n        /* \"#utility.yul\":1821:1828   */\n      0x00\n        /* \"#utility.yul\":1861:1903   */\n      0xffffffffffffffffffffffffffffffffffffffff\n        /* \"#utility.yul\":1854:1859   */\n      dup3\n        /* \"#utility.yul\":1850:1904   */\n      and\n        /* \"#utility.yul\":1839:1904   */\n      swap1\n      pop\n        /* \"#utility.yul\":1784:1910   */\n      swap2\n      swap1\n      pop\n      jump\t// out\n        /* \"#utility.yul\":1916:1993   */\n    tag_36:\n        /* \"#utility.yul\":1953:1960   */\n      0x00\n        /* \"#utility.yul\":1982:1987   */\n      dup2\n        /* \"#utility.yul\":1971:1987   */\n      swap1\n      pop\n        /* \"#utility.yul\":1916:1993   */\n      swap2\n      swap1\n      pop\n      jump\t// out\n        /* \"#utility.yul\":1999:2158   */\n    tag_32:\n        /* \"#utility.yul\":2139:2150   */\n      0x6e6f72206f776e65720000000000000000000000000000000000000000000000\n        /* \"#utility.yul\":2135:2136   */\n      0x00\n        /* \"#utility.yul\":2127:2133   */\n      dup3\n        /* \"#utility.yul\":2123:2137   */\n      add\n        /* \"#utility.yul\":2116:2151   */\n      mstore\n        /* \"#utility.yul\":1999:2158   */\n      pop\n      jump\t// out\n\n    auxdata: 0xa26469706673582212202135b6f0d30da3a33b1c5b16e74185777cd564f2a8001d178cdf7dcc7715874b64736f6c63430008070033\n}\n",
				"bytecode": {
					"linkReferences": {},
					"object": "6080604052336000806101000a81548173ffffffffffffffffffffffffffffffffffffffff021916908373ffffffffffffffffffffffffffffffffffffffff16021790555034801561005057600080fd5b506102f7806100606000396000f3fe60806040526004361061002d5760003560e01c80633ccfd60b146100705780638da5cb5b146100875761006b565b3661006b577f4d6ce1e535dbade1c23defba91e23b8f791ce5edc0cc320257a2b364e4e38426346040516100619190610230565b60405180910390a1005b600080fd5b34801561007c57600080fd5b506100856100b2565b005b34801561009357600080fd5b5061009c610190565b6040516100a991906101f5565b60405180910390f35b60008054906101000a900473ffffffffffffffffffffffffffffffffffffffff1673ffffffffffffffffffffffffffffffffffffffff163373ffffffffffffffffffffffffffffffffffffffff1614610140576040517f08c379a000000000000000000000000000000000000000000000000000000000815260040161013790610210565b60405180910390fd5b7f5b6b431d4476a211bb7d41c20d1aab9ae2321deee0d20be3d9fc9b1093fa6e3d4760405161016f9190610230565b60405180910390a13373ffffffffffffffffffffffffffffffffffffffff16ff5b60008054906101000a900473ffffffffffffffffffffffffffffffffffffffff1681565b6101bd8161025c565b82525050565b60006101d060098361024b565b91506101db82610298565b602082019050919050565b6101ef8161028e565b82525050565b600060208201905061020a60008301846101b4565b92915050565b60006020820190508181036000830152610229816101c3565b9050919050565b600060208201905061024560008301846101e6565b92915050565b600082825260208201905092915050565b60006102678261026e565b9050919050565b600073ffffffffffffffffffffffffffffffffffffffff82169050919050565b6000819050919050565b7f6e6f72206f776e6572000000000000000000000000000000000000000000000060008201525056fea26469706673582212202135b6f0d30da3a33b1c5b16e74185777cd564f2a8001d178cdf7dcc7715874b64736f6c63430008070033",
					"opcodes": "PUSH1 0x80 PUSH1 0x40 MSTORE CALLER PUSH1 0x0 DUP1 PUSH2 0x100 EXP DUP2 SLOAD DUP2 PUSH20 0xFFFFFFFFFFFFFFFFFFFFFFFFFFFFFFFFFFFFFFFF MUL NOT AND SWAP1 DUP4 PUSH20 0xFFFFFFFFFFFFFFFFFFFFFFFFFFFFFFFFFFFFFFFF AND MUL OR SWAP1 SSTORE POP CALLVALUE DUP1 ISZERO PUSH2 0x50 JUMPI PUSH1 0x0 DUP1 REVERT JUMPDEST POP PUSH2 0x2F7 DUP1 PUSH2 0x60 PUSH1 0x0 CODECOPY PUSH1 0x0 RETURN INVALID PUSH1 0x80 PUSH1 0x40 MSTORE PUSH1 0x4 CALLDATASIZE LT PUSH2 0x2D JUMPI PUSH1 0x0 CALLDATALOAD PUSH1 0xE0 SHR DUP1 PUSH4 0x3CCFD60B EQ PUSH2 0x70 JUMPI DUP1 PUSH4 0x8DA5CB5B EQ PUSH2 0x87 JUMPI PUSH2 0x6B JUMP JUMPDEST CALLDATASIZE PUSH2 0x6B JUMPI PUSH32 0x4D6CE1E535DBADE1C23DEFBA91E23B8F791CE5EDC0CC320257A2B364E4E38426 CALLVALUE PUSH1 0x40 MLOAD PUSH2 0x61 SWAP2 SWAP1 PUSH2 0x230 JUMP JUMPDEST PUSH1 0x40 MLOAD DUP1 SWAP2 SUB SWAP1 LOG1 STOP JUMPDEST PUSH1 0x0 DUP1 REVERT JUMPDEST CALLVALUE DUP1 ISZERO PUSH2 0x7C JUMPI PUSH1 0x0 DUP1 REVERT JUMPDEST POP PUSH2 0x85 PUSH2 0xB2 JUMP JUMPDEST STOP JUMPDEST CALLVALUE DUP1 ISZERO PUSH2 0x93 JUMPI PUSH1 0x0 DUP1 REVERT JUMPDEST POP PUSH2 0x9C PUSH2 0x190 JUMP JUMPDEST PUSH1 0x40 MLOAD PUSH2 0xA9 SWAP2 SWAP1 PUSH2 0x1F5 JUMP JUMPDEST PUSH1 0x40 MLOAD DUP1 SWAP2 SUB SWAP1 RETURN JUMPDEST PUSH1 0x0 DUP1 SLOAD SWAP1 PUSH2 0x100 EXP SWAP1 DIV PUSH20 0xFFFFFFFFFFFFFFFFFFFFFFFFFFFFFFFFFFFFFFFF AND PUSH20 0xFFFFFFFFFFFFFFFFFFFFFFFFFFFFFFFFFFFFFFFF AND CALLER PUSH20 0xFFFFFFFFFFFFFFFFFFFFFFFFFFFFFFFFFFFFFFFF AND EQ PUSH2 0x140 JUMPI PUSH1 0x40 MLOAD PUSH32 0x8C379A000000000000000000000000000000000000000000000000000000000 DUP2 MSTORE PUSH1 0x4 ADD PUSH2 0x137 SWAP1 PUSH2 0x210 JUMP JUMPDEST PUSH1 0x40 MLOAD DUP1 SWAP2 SUB SWAP1 REVERT JUMPDEST PUSH32 0x5B6B431D4476A211BB7D41C20D1AAB9AE2321DEEE0D20BE3D9FC9B1093FA6E3D SELFBALANCE PUSH1 0x40 MLOAD PUSH2 0x16F SWAP2 SWAP1 PUSH2 0x230 JUMP JUMPDEST PUSH1 0x40 MLOAD DUP1 SWAP2 SUB SWAP1 LOG1 CALLER PUSH20 0xFFFFFFFFFFFFFFFFFFFFFFFFFFFFFFFFFFFFFFFF AND SELFDESTRUCT JUMPDEST PUSH1 0x0 DUP1 SLOAD SWAP1 PUSH2 0x100 EXP SWAP1 DIV PUSH20 0xFFFFFFFFFFFFFFFFFFFFFFFFFFFFFFFFFFFFFFFF AND DUP2 JUMP JUMPDEST PUSH2 0x1BD DUP2 PUSH2 0x25C JUMP JUMPDEST DUP3 MSTORE POP POP JUMP JUMPDEST PUSH1 0x0 PUSH2 0x1D0 PUSH1 0x9 DUP4 PUSH2 0x24B JUMP JUMPDEST SWAP2 POP PUSH2 0x1DB DUP3 PUSH2 0x298 JUMP JUMPDEST PUSH1 0x20 DUP3 ADD SWAP1 POP SWAP2 SWAP1 POP JUMP JUMPDEST PUSH2 0x1EF DUP2 PUSH2 0x28E JUMP JUMPDEST DUP3 MSTORE POP POP JUMP JUMPDEST PUSH1 0x0 PUSH1 0x20 DUP3 ADD SWAP1 POP PUSH2 0x20A PUSH1 0x0 DUP4 ADD DUP5 PUSH2 0x1B4 JUMP JUMPDEST SWAP3 SWAP2 POP POP JUMP JUMPDEST PUSH1 0x0 PUSH1 0x20 DUP3 ADD SWAP1 POP DUP2 DUP2 SUB PUSH1 0x0 DUP4 ADD MSTORE PUSH2 0x229 DUP2 PUSH2 0x1C3 JUMP JUMPDEST SWAP1 POP SWAP2 SWAP1 POP JUMP JUMPDEST PUSH1 0x0 PUSH1 0x20 DUP3 ADD SWAP1 POP PUSH2 0x245 PUSH1 0x0 DUP4 ADD DUP5 PUSH2 0x1E6 JUMP JUMPDEST SWAP3 SWAP2 POP POP JUMP JUMPDEST PUSH1 0x0 DUP3 DUP3 MSTORE PUSH1 0x20 DUP3 ADD SWAP1 POP SWAP3 SWAP2 POP POP JUMP JUMPDEST PUSH1 0x0 PUSH2 0x267 DUP3 PUSH2 0x26E JUMP JUMPDEST SWAP1 POP SWAP2 SWAP1 POP JUMP JUMPDEST PUSH1 0x0 PUSH20 0xFFFFFFFFFFFFFFFFFFFFFFFFFFFFFFFFFFFFFFFF DUP3 AND SWAP1 POP SWAP2 SWAP1 POP JUMP JUMPDEST PUSH1 0x0 DUP2 SWAP1 POP SWAP2 SWAP1 POP JUMP JUMPDEST PUSH32 0x6E6F72206F776E65720000000000000000000000000000000000000000000000 PUSH1 0x0 DUP3 ADD MSTORE POP JUMP INVALID LOG2 PUSH5 0x6970667358 0x22 SLT KECCAK256 0x21 CALLDATALOAD 0xB6 CREATE 0xD3 0xD LOG3 LOG3 EXTCODESIZE SHR JUMPDEST AND 0xE7 COINBASE DUP6 PUSH24 0x7CD564F2A8001D178CDF7DCC7715874B64736F6C63430008 SMOD STOP CALLER "
				},
				"gasEstimates": {
					"creation": {
						"codeDepositCost": "151800",
						"executionCost": "24462",
						"totalCost": "176262"
					},
					"external": {
						"owner()": "2511",
						"withdraw()": "31081"
					}
				},
				"methodIdentifiers": {
					"owner()": "8da5cb5b",
					"withdraw()": "3ccfd60b"
				}
			},
			"storageLayout": {
				"storage": [
					{
						"astId": 5,
						"contract": "contracts/Apps/Piggybank.sol:PiggyBank",
						"label": "owner",
						"offset": 0,
						"slot": "0",
						"type": "t_address"
					}
				],
				"types": {
					"t_address": {
						"encoding": "inplace",
						"label": "address",
						"numberOfBytes": "20"
					}
				}
			},
			"userdoc": {
				"kind": "user",
				"methods": {},
				"version": 1
			}
		}
	}
}