{
	"contracts/Call.sol": {
		"Caller": {
			"abi": [
				{
					"anonymous": false,
					"inputs": [
						{
							"indexed": false,
							"internalType": "bool",
							"name": "success",
							"type": "bool"
						},
						{
							"indexed": false,
							"internalType": "bytes",
							"name": "data",
							"type": "bytes"
						}
					],
					"name": "Response",
					"type": "event"
				},
				{
					"inputs": [
						{
							"internalType": "address payable",
							"name": "_addr",
							"type": "address"
						}
					],
					"name": "testCallDoesNotExist",
					"outputs": [],
					"stateMutability": "payable",
					"type": "function"
				},
				{
					"inputs": [
						{
							"internalType": "address payable",
							"name": "_addr",
							"type": "address"
						}
					],
					"name": "testCallFoo",
					"outputs": [],
					"stateMutability": "payable",
					"type": "function"
				}
			],
			"devdoc": {
				"kind": "dev",
				"methods": {},
				"version": 1
			},
			"evm": {
				"assembly": "    /* \"contracts/Call.sol\":445:1372  contract Caller {... */\n  mstore(0x40, 0x80)\n  callvalue\n  dup1\n  iszero\n  tag_1\n  jumpi\n  0x00\n  dup1\n  revert\ntag_1:\n  pop\n  dataSize(sub_0)\n  dup1\n  dataOffset(sub_0)\n  0x00\n  codecopy\n  0x00\n  return\nstop\n\nsub_0: assembly {\n        /* \"contracts/Call.sol\":445:1372  contract Caller {... */\n      mstore(0x40, 0x80)\n      jumpi(tag_1, lt(calldatasize, 0x04))\n      shr(0xe0, calldataload(0x00))\n      dup1\n      0x87ba6179\n      eq\n      tag_2\n      jumpi\n      dup1\n      0xff00726c\n      eq\n      tag_3\n      jumpi\n    tag_1:\n      0x00\n      dup1\n      revert\n        /* \"contracts/Call.sol\":694:1033  function testCallFoo(address payable _addr) public payable {... */\n    tag_2:\n      tag_4\n      0x04\n      dup1\n      calldatasize\n      sub\n      dup2\n      add\n      swap1\n      tag_5\n      swap2\n      swap1\n      tag_6\n      jump\t// in\n    tag_5:\n      tag_7\n      jump\t// in\n    tag_4:\n      stop\n        /* \"contracts/Call.sol\":1117:1370  function testCallDoesNotExist(address payable _addr) public payable {... */\n    tag_3:\n      tag_8\n      0x04\n      dup1\n      calldatasize\n      sub\n      dup2\n      add\n      swap1\n      tag_9\n      swap2\n      swap1\n      tag_6\n      jump\t// in\n    tag_9:\n      tag_10\n      jump\t// in\n    tag_8:\n      stop\n        /* \"contracts/Call.sol\":694:1033  function testCallFoo(address payable _addr) public payable {... */\n    tag_7:\n        /* \"contracts/Call.sol\":826:838  bool success */\n      0x00\n        /* \"contracts/Call.sol\":840:857  bytes memory data */\n      dup1\n        /* \"contracts/Call.sol\":861:866  _addr */\n      dup3\n        /* \"contracts/Call.sol\":861:871  _addr.call */\n      0xffffffffffffffffffffffffffffffffffffffff\n      and\n        /* \"contracts/Call.sol\":879:888  msg.value */\n      callvalue\n        /* \"contracts/Call.sol\":895:899  5000 */\n      0x1388\n        /* \"contracts/Call.sol\":861:987  _addr.call{value: msg.value, gas: 5000}(... */\n      swap1\n        /* \"contracts/Call.sol\":973:976  123 */\n      0x7b\n        /* \"contracts/Call.sol\":914:977  abi.encodeWithSignature(\"foo(string,uint256)\", \"call foo\", 123) */\n      add(0x24, mload(0x40))\n      tag_12\n      swap2\n      swap1\n      tag_13\n      jump\t// in\n    tag_12:\n      mload(0x40)\n      0x20\n      dup2\n      dup4\n      sub\n      sub\n      dup2\n      mstore\n      swap1\n      0x40\n      mstore\n      and(not(0xffffffffffffffffffffffffffffffffffffffffffffffffffffffff), 0x24ccab8f00000000000000000000000000000000000000000000000000000000)\n      0x20\n      dup3\n      add\n      dup1\n      mload\n      0xffffffffffffffffffffffffffffffffffffffffffffffffffffffff\n      dup4\n      dup2\n      dup4\n      and\n      or\n      dup4\n      mstore\n      pop\n      pop\n      pop\n      pop\n        /* \"contracts/Call.sol\":861:987  _addr.call{value: msg.value, gas: 5000}(... */\n      mload(0x40)\n      tag_14\n      swap2\n      swap1\n      tag_15\n      jump\t// in\n    tag_14:\n      0x00\n      mload(0x40)\n      dup1\n      dup4\n      sub\n      dup2\n      dup6\n      dup9\n      dup9\n      call\n      swap4\n      pop\n      pop\n      pop\n      pop\n      returndatasize\n      dup1\n      0x00\n      dup2\n      eq\n      tag_18\n      jumpi\n      mload(0x40)\n      swap2\n      pop\n      and(add(returndatasize, 0x3f), not(0x1f))\n      dup3\n      add\n      0x40\n      mstore\n      returndatasize\n      dup3\n      mstore\n      returndatasize\n      0x00\n      0x20\n      dup5\n      add\n      returndatacopy\n      jump(tag_17)\n    tag_18:\n      0x60\n      swap2\n      pop\n    tag_17:\n      pop\n        /* \"contracts/Call.sol\":825:987  (bool success, bytes memory data) = _addr.call{value: msg.value, gas: 5000}(... */\n      swap2\n      pop\n      swap2\n      pop\n        /* \"contracts/Call.sol\":1003:1026  Response(success, data) */\n      0x13848c3e38f8886f3f5d2ad9dff80d8092c2bbb8efd5b887a99c2c6cfc09ac2a\n        /* \"contracts/Call.sol\":1012:1019  success */\n      dup3\n        /* \"contracts/Call.sol\":1021:1025  data */\n      dup3\n        /* \"contracts/Call.sol\":1003:1026  Response(success, data) */\n      mload(0x40)\n      tag_19\n      swap3\n      swap2\n      swap1\n      tag_20\n      jump\t// in\n    tag_19:\n      mload(0x40)\n      dup1\n      swap2\n      sub\n      swap1\n      log1\n        /* \"contracts/Call.sol\":753:1033  {... */\n      pop\n      pop\n        /* \"contracts/Call.sol\":694:1033  function testCallFoo(address payable _addr) public payable {... */\n      pop\n      jump\t// out\n        /* \"contracts/Call.sol\":1117:1370  function testCallDoesNotExist(address payable _addr) public payable {... */\n    tag_10:\n        /* \"contracts/Call.sol\":1196:1208  bool success */\n      0x00\n        /* \"contracts/Call.sol\":1210:1227  bytes memory data */\n      dup1\n        /* \"contracts/Call.sol\":1231:1236  _addr */\n      dup3\n        /* \"contracts/Call.sol\":1231:1241  _addr.call */\n      0xffffffffffffffffffffffffffffffffffffffff\n      and\n        /* \"contracts/Call.sol\":1249:1258  msg.value */\n      callvalue\n        /* \"contracts/Call.sol\":1273:1314  abi.encodeWithSignature(\"doesNotExist()\") */\n      add(0x24, mload(0x40))\n      mload(0x40)\n      0x20\n      dup2\n      dup4\n      sub\n      sub\n      dup2\n      mstore\n      swap1\n      0x40\n      mstore\n      and(not(0xffffffffffffffffffffffffffffffffffffffffffffffffffffffff), 0x1dcc85ae00000000000000000000000000000000000000000000000000000000)\n      0x20\n      dup3\n      add\n      dup1\n      mload\n      0xffffffffffffffffffffffffffffffffffffffffffffffffffffffff\n      dup4\n      dup2\n      dup4\n      and\n      or\n      dup4\n      mstore\n      pop\n      pop\n      pop\n      pop\n        /* \"contracts/Call.sol\":1231:1324  _addr.call{value: msg.value}(... */\n      mload(0x40)\n      tag_22\n      swap2\n      swap1\n      tag_15\n      jump\t// in\n    tag_22:\n      0x00\n      mload(0x40)\n      dup1\n      dup4\n      sub\n      dup2\n      dup6\n      dup8\n      gas\n      call\n      swap3\n      pop\n      pop\n      pop\n      returndatasize\n      dup1\n      0x00\n      dup2\n      eq\n      tag_25\n      jumpi\n      mload(0x40)\n      swap2\n      pop\n      and(add(returndatasize, 0x3f), not(0x1f))\n      dup3\n      add\n      0x40\n      mstore\n      returndatasize\n      dup3\n      mstore\n      returndatasize\n      0x00\n      0x20\n      dup5\n      add\n      returndatacopy\n      jump(tag_24)\n    tag_25:\n      0x60\n      swap2\n      pop\n    tag_24:\n      pop\n        /* \"contracts/Call.sol\":1195:1324  (bool success, bytes memory data) = _addr.call{value: msg.value}(... */\n      swap2\n      pop\n      swap2\n      pop\n        /* \"contracts/Call.sol\":1340:1363  Response(success, data) */\n      0x13848c3e38f8886f3f5d2ad9dff80d8092c2bbb8efd5b887a99c2c6cfc09ac2a\n        /* \"contracts/Call.sol\":1349:1356  success */\n      dup3\n        /* \"contracts/Call.sol\":1358:1362  data */\n      dup3\n        /* \"contracts/Call.sol\":1340:1363  Response(success, data) */\n      mload(0x40)\n      tag_26\n      swap3\n      swap2\n      swap1\n      tag_20\n      jump\t// in\n    tag_26:\n      mload(0x40)\n      dup1\n      swap2\n      sub\n      swap1\n      log1\n        /* \"contracts/Call.sol\":1185:1370  {... */\n      pop\n      pop\n        /* \"contracts/Call.sol\":1117:1370  function testCallDoesNotExist(address payable _addr) public payable {... */\n      pop\n      jump\t// out\n        /* \"#utility.yul\":7:162   */\n    tag_28:\n        /* \"#utility.yul\":61:66   */\n      0x00\n        /* \"#utility.yul\":99:105   */\n      dup2\n        /* \"#utility.yul\":86:106   */\n      calldataload\n        /* \"#utility.yul\":77:106   */\n      swap1\n      pop\n        /* \"#utility.yul\":115:156   */\n      tag_30\n        /* \"#utility.yul\":150:155   */\n      dup2\n        /* \"#utility.yul\":115:156   */\n      tag_31\n      jump\t// in\n    tag_30:\n        /* \"#utility.yul\":7:162   */\n      swap3\n      swap2\n      pop\n      pop\n      jump\t// out\n        /* \"#utility.yul\":168:513   */\n    tag_6:\n        /* \"#utility.yul\":235:241   */\n      0x00\n        /* \"#utility.yul\":284:286   */\n      0x20\n        /* \"#utility.yul\":272:281   */\n      dup3\n        /* \"#utility.yul\":263:270   */\n      dup5\n        /* \"#utility.yul\":259:282   */\n      sub\n        /* \"#utility.yul\":255:287   */\n      slt\n        /* \"#utility.yul\":252:371   */\n      iszero\n      tag_33\n      jumpi\n        /* \"#utility.yul\":290:369   */\n      tag_34\n      tag_35\n      jump\t// in\n    tag_34:\n        /* \"#utility.yul\":252:371   */\n    tag_33:\n        /* \"#utility.yul\":410:411   */\n      0x00\n        /* \"#utility.yul\":435:496   */\n      tag_36\n        /* \"#utility.yul\":488:495   */\n      dup5\n        /* \"#utility.yul\":479:485   */\n      dup3\n        /* \"#utility.yul\":468:477   */\n      dup6\n        /* \"#utility.yul\":464:486   */\n      add\n        /* \"#utility.yul\":435:496   */\n      tag_28\n      jump\t// in\n    tag_36:\n        /* \"#utility.yul\":425:496   */\n      swap2\n      pop\n        /* \"#utility.yul\":381:506   */\n      pop\n        /* \"#utility.yul\":168:513   */\n      swap3\n      swap2\n      pop\n      pop\n      jump\t// out\n        /* \"#utility.yul\":519:628   */\n    tag_37:\n        /* \"#utility.yul\":600:621   */\n      tag_39\n        /* \"#utility.yul\":615:620   */\n      dup2\n        /* \"#utility.yul\":600:621   */\n      tag_40\n      jump\t// in\n    tag_39:\n        /* \"#utility.yul\":595:598   */\n      dup3\n        /* \"#utility.yul\":588:622   */\n      mstore\n        /* \"#utility.yul\":519:628   */\n      pop\n      pop\n      jump\t// out\n        /* \"#utility.yul\":634:994   */\n    tag_41:\n        /* \"#utility.yul\":720:723   */\n      0x00\n        /* \"#utility.yul\":748:786   */\n      tag_43\n        /* \"#utility.yul\":780:785   */\n      dup3\n        /* \"#utility.yul\":748:786   */\n      tag_44\n      jump\t// in\n    tag_43:\n        /* \"#utility.yul\":802:872   */\n      tag_45\n        /* \"#utility.yul\":865:871   */\n      dup2\n        /* \"#utility.yul\":860:863   */\n      dup6\n        /* \"#utility.yul\":802:872   */\n      tag_46\n      jump\t// in\n    tag_45:\n        /* \"#utility.yul\":795:872   */\n      swap4\n      pop\n        /* \"#utility.yul\":881:933   */\n      tag_47\n        /* \"#utility.yul\":926:932   */\n      dup2\n        /* \"#utility.yul\":921:924   */\n      dup6\n        /* \"#utility.yul\":914:918   */\n      0x20\n        /* \"#utility.yul\":907:912   */\n      dup7\n        /* \"#utility.yul\":903:919   */\n      add\n        /* \"#utility.yul\":881:933   */\n      tag_48\n      jump\t// in\n    tag_47:\n        /* \"#utility.yul\":958:987   */\n      tag_49\n        /* \"#utility.yul\":980:986   */\n      dup2\n        /* \"#utility.yul\":958:987   */\n      tag_50\n      jump\t// in\n    tag_49:\n        /* \"#utility.yul\":953:956   */\n      dup5\n        /* \"#utility.yul\":949:988   */\n      add\n        /* \"#utility.yul\":942:988   */\n      swap2\n      pop\n        /* \"#utility.yul\":724:994   */\n      pop\n        /* \"#utility.yul\":634:994   */\n      swap3\n      swap2\n      pop\n      pop\n      jump\t// out\n        /* \"#utility.yul\":1000:1373   */\n    tag_51:\n        /* \"#utility.yul\":1104:1107   */\n      0x00\n        /* \"#utility.yul\":1132:1170   */\n      tag_53\n        /* \"#utility.yul\":1164:1169   */\n      dup3\n        /* \"#utility.yul\":1132:1170   */\n      tag_44\n      jump\t// in\n    tag_53:\n        /* \"#utility.yul\":1186:1274   */\n      tag_54\n        /* \"#utility.yul\":1267:1273   */\n      dup2\n        /* \"#utility.yul\":1262:1265   */\n      dup6\n        /* \"#utility.yul\":1186:1274   */\n      tag_55\n      jump\t// in\n    tag_54:\n        /* \"#utility.yul\":1179:1274   */\n      swap4\n      pop\n        /* \"#utility.yul\":1283:1335   */\n      tag_56\n        /* \"#utility.yul\":1328:1334   */\n      dup2\n        /* \"#utility.yul\":1323:1326   */\n      dup6\n        /* \"#utility.yul\":1316:1320   */\n      0x20\n        /* \"#utility.yul\":1309:1314   */\n      dup7\n        /* \"#utility.yul\":1305:1321   */\n      add\n        /* \"#utility.yul\":1283:1335   */\n      tag_48\n      jump\t// in\n    tag_56:\n        /* \"#utility.yul\":1360:1366   */\n      dup1\n        /* \"#utility.yul\":1355:1358   */\n      dup5\n        /* \"#utility.yul\":1351:1367   */\n      add\n        /* \"#utility.yul\":1344:1367   */\n      swap2\n      pop\n        /* \"#utility.yul\":1108:1373   */\n      pop\n        /* \"#utility.yul\":1000:1373   */\n      swap3\n      swap2\n      pop\n      pop\n      jump\t// out\n        /* \"#utility.yul\":1379:1526   */\n    tag_57:\n        /* \"#utility.yul\":1474:1519   */\n      tag_59\n        /* \"#utility.yul\":1513:1518   */\n      dup2\n        /* \"#utility.yul\":1474:1519   */\n      tag_60\n      jump\t// in\n    tag_59:\n        /* \"#utility.yul\":1469:1472   */\n      dup3\n        /* \"#utility.yul\":1462:1520   */\n      mstore\n        /* \"#utility.yul\":1379:1526   */\n      pop\n      pop\n      jump\t// out\n        /* \"#utility.yul\":1532:1897   */\n    tag_61:\n        /* \"#utility.yul\":1674:1677   */\n      0x00\n        /* \"#utility.yul\":1695:1761   */\n      tag_63\n        /* \"#utility.yul\":1759:1760   */\n      0x08\n        /* \"#utility.yul\":1754:1757   */\n      dup4\n        /* \"#utility.yul\":1695:1761   */\n      tag_64\n      jump\t// in\n    tag_63:\n        /* \"#utility.yul\":1688:1761   */\n      swap2\n      pop\n        /* \"#utility.yul\":1770:1863   */\n      tag_65\n        /* \"#utility.yul\":1859:1862   */\n      dup3\n        /* \"#utility.yul\":1770:1863   */\n      tag_66\n      jump\t// in\n    tag_65:\n        /* \"#utility.yul\":1888:1890   */\n      0x20\n        /* \"#utility.yul\":1883:1886   */\n      dup3\n        /* \"#utility.yul\":1879:1891   */\n      add\n        /* \"#utility.yul\":1872:1891   */\n      swap1\n      pop\n        /* \"#utility.yul\":1532:1897   */\n      swap2\n      swap1\n      pop\n      jump\t// out\n        /* \"#utility.yul\":1903:2174   */\n    tag_15:\n        /* \"#utility.yul\":2033:2036   */\n      0x00\n        /* \"#utility.yul\":2055:2148   */\n      tag_68\n        /* \"#utility.yul\":2144:2147   */\n      dup3\n        /* \"#utility.yul\":2135:2141   */\n      dup5\n        /* \"#utility.yul\":2055:2148   */\n      tag_51\n      jump\t// in\n    tag_68:\n        /* \"#utility.yul\":2048:2148   */\n      swap2\n      pop\n        /* \"#utility.yul\":2165:2168   */\n      dup2\n        /* \"#utility.yul\":2158:2168   */\n      swap1\n      pop\n        /* \"#utility.yul\":1903:2174   */\n      swap3\n      swap2\n      pop\n      pop\n      jump\t// out\n        /* \"#utility.yul\":2180:2587   */\n    tag_20:\n        /* \"#utility.yul\":2313:2317   */\n      0x00\n        /* \"#utility.yul\":2351:2353   */\n      0x40\n        /* \"#utility.yul\":2340:2349   */\n      dup3\n        /* \"#utility.yul\":2336:2354   */\n      add\n        /* \"#utility.yul\":2328:2354   */\n      swap1\n      pop\n        /* \"#utility.yul\":2364:2429   */\n      tag_70\n        /* \"#utility.yul\":2426:2427   */\n      0x00\n        /* \"#utility.yul\":2415:2424   */\n      dup4\n        /* \"#utility.yul\":2411:2428   */\n      add\n        /* \"#utility.yul\":2402:2408   */\n      dup6\n        /* \"#utility.yul\":2364:2429   */\n      tag_37\n      jump\t// in\n    tag_70:\n        /* \"#utility.yul\":2476:2485   */\n      dup2\n        /* \"#utility.yul\":2470:2474   */\n      dup2\n        /* \"#utility.yul\":2466:2486   */\n      sub\n        /* \"#utility.yul\":2461:2463   */\n      0x20\n        /* \"#utility.yul\":2450:2459   */\n      dup4\n        /* \"#utility.yul\":2446:2464   */\n      add\n        /* \"#utility.yul\":2439:2487   */\n      mstore\n        /* \"#utility.yul\":2504:2580   */\n      tag_71\n        /* \"#utility.yul\":2575:2579   */\n      dup2\n        /* \"#utility.yul\":2566:2572   */\n      dup5\n        /* \"#utility.yul\":2504:2580   */\n      tag_41\n      jump\t// in\n    tag_71:\n        /* \"#utility.yul\":2496:2580   */\n      swap1\n      pop\n        /* \"#utility.yul\":2180:2587   */\n      swap4\n      swap3\n      pop\n      pop\n      pop\n      jump\t// out\n        /* \"#utility.yul\":2593:3138   */\n    tag_13:\n        /* \"#utility.yul\":2795:2799   */\n      0x00\n        /* \"#utility.yul\":2833:2835   */\n      0x40\n        /* \"#utility.yul\":2822:2831   */\n      dup3\n        /* \"#utility.yul\":2818:2836   */\n      add\n        /* \"#utility.yul\":2810:2836   */\n      swap1\n      pop\n        /* \"#utility.yul\":2882:2891   */\n      dup2\n        /* \"#utility.yul\":2876:2880   */\n      dup2\n        /* \"#utility.yul\":2872:2892   */\n      sub\n        /* \"#utility.yul\":2868:2869   */\n      0x00\n        /* \"#utility.yul\":2857:2866   */\n      dup4\n        /* \"#utility.yul\":2853:2870   */\n      add\n        /* \"#utility.yul\":2846:2893   */\n      mstore\n        /* \"#utility.yul\":2910:3041   */\n      tag_73\n        /* \"#utility.yul\":3036:3040   */\n      dup2\n        /* \"#utility.yul\":2910:3041   */\n      tag_61\n      jump\t// in\n    tag_73:\n        /* \"#utility.yul\":2902:3041   */\n      swap1\n      pop\n        /* \"#utility.yul\":3051:3131   */\n      tag_74\n        /* \"#utility.yul\":3127:3129   */\n      0x20\n        /* \"#utility.yul\":3116:3125   */\n      dup4\n        /* \"#utility.yul\":3112:3130   */\n      add\n        /* \"#utility.yul\":3103:3109   */\n      dup5\n        /* \"#utility.yul\":3051:3131   */\n      tag_57\n      jump\t// in\n    tag_74:\n        /* \"#utility.yul\":2593:3138   */\n      swap3\n      swap2\n      pop\n      pop\n      jump\t// out\n        /* \"#utility.yul\":3225:3323   */\n    tag_44:\n        /* \"#utility.yul\":3276:3282   */\n      0x00\n        /* \"#utility.yul\":3310:3315   */\n      dup2\n        /* \"#utility.yul\":3304:3316   */\n      mload\n        /* \"#utility.yul\":3294:3316   */\n      swap1\n      pop\n        /* \"#utility.yul\":3225:3323   */\n      swap2\n      swap1\n      pop\n      jump\t// out\n        /* \"#utility.yul\":3329:3497   */\n    tag_46:\n        /* \"#utility.yul\":3412:3423   */\n      0x00\n        /* \"#utility.yul\":3446:3452   */\n      dup3\n        /* \"#utility.yul\":3441:3444   */\n      dup3\n        /* \"#utility.yul\":3434:3453   */\n      mstore\n        /* \"#utility.yul\":3486:3490   */\n      0x20\n        /* \"#utility.yul\":3481:3484   */\n      dup3\n        /* \"#utility.yul\":3477:3491   */\n      add\n        /* \"#utility.yul\":3462:3491   */\n      swap1\n      pop\n        /* \"#utility.yul\":3329:3497   */\n      swap3\n      swap2\n      pop\n      pop\n      jump\t// out\n        /* \"#utility.yul\":3503:3650   */\n    tag_55:\n        /* \"#utility.yul\":3604:3615   */\n      0x00\n        /* \"#utility.yul\":3641:3644   */\n      dup2\n        /* \"#utility.yul\":3626:3644   */\n      swap1\n      pop\n        /* \"#utility.yul\":3503:3650   */\n      swap3\n      swap2\n      pop\n      pop\n      jump\t// out\n        /* \"#utility.yul\":3656:3825   */\n    tag_64:\n        /* \"#utility.yul\":3740:3751   */\n      0x00\n        /* \"#utility.yul\":3774:3780   */\n      dup3\n        /* \"#utility.yul\":3769:3772   */\n      dup3\n        /* \"#utility.yul\":3762:3781   */\n      mstore\n        /* \"#utility.yul\":3814:3818   */\n      0x20\n        /* \"#utility.yul\":3809:3812   */\n      dup3\n        /* \"#utility.yul\":3805:3819   */\n      add\n        /* \"#utility.yul\":3790:3819   */\n      swap1\n      pop\n        /* \"#utility.yul\":3656:3825   */\n      swap3\n      swap2\n      pop\n      pop\n      jump\t// out\n        /* \"#utility.yul\":3831:3935   */\n    tag_81:\n        /* \"#utility.yul\":3876:3883   */\n      0x00\n        /* \"#utility.yul\":3905:3929   */\n      tag_83\n        /* \"#utility.yul\":3923:3928   */\n      dup3\n        /* \"#utility.yul\":3905:3929   */\n      tag_84\n      jump\t// in\n    tag_83:\n        /* \"#utility.yul\":3894:3929   */\n      swap1\n      pop\n        /* \"#utility.yul\":3831:3935   */\n      swap2\n      swap1\n      pop\n      jump\t// out\n        /* \"#utility.yul\":3941:4031   */\n    tag_40:\n        /* \"#utility.yul\":3975:3982   */\n      0x00\n        /* \"#utility.yul\":4018:4023   */\n      dup2\n        /* \"#utility.yul\":4011:4024   */\n      iszero\n        /* \"#utility.yul\":4004:4025   */\n      iszero\n        /* \"#utility.yul\":3993:4025   */\n      swap1\n      pop\n        /* \"#utility.yul\":3941:4031   */\n      swap2\n      swap1\n      pop\n      jump\t// out\n        /* \"#utility.yul\":4037:4163   */\n    tag_84:\n        /* \"#utility.yul\":4074:4081   */\n      0x00\n        /* \"#utility.yul\":4114:4156   */\n      0xffffffffffffffffffffffffffffffffffffffff\n        /* \"#utility.yul\":4107:4112   */\n      dup3\n        /* \"#utility.yul\":4103:4157   */\n      and\n        /* \"#utility.yul\":4092:4157   */\n      swap1\n      pop\n        /* \"#utility.yul\":4037:4163   */\n      swap2\n      swap1\n      pop\n      jump\t// out\n        /* \"#utility.yul\":4169:4255   */\n    tag_87:\n        /* \"#utility.yul\":4204:4211   */\n      0x00\n        /* \"#utility.yul\":4244:4248   */\n      0xff\n        /* \"#utility.yul\":4237:4242   */\n      dup3\n        /* \"#utility.yul\":4233:4249   */\n      and\n        /* \"#utility.yul\":4222:4249   */\n      swap1\n      pop\n        /* \"#utility.yul\":4169:4255   */\n      swap2\n      swap1\n      pop\n      jump\t// out\n        /* \"#utility.yul\":4261:4380   */\n    tag_60:\n        /* \"#utility.yul\":4319:4328   */\n      0x00\n        /* \"#utility.yul\":4352:4374   */\n      tag_90\n        /* \"#utility.yul\":4368:4373   */\n      dup3\n        /* \"#utility.yul\":4352:4374   */\n      tag_87\n      jump\t// in\n    tag_90:\n        /* \"#utility.yul\":4339:4374   */\n      swap1\n      pop\n        /* \"#utility.yul\":4261:4380   */\n      swap2\n      swap1\n      pop\n      jump\t// out\n        /* \"#utility.yul\":4386:4693   */\n    tag_48:\n        /* \"#utility.yul\":4454:4455   */\n      0x00\n        /* \"#utility.yul\":4464:4577   */\n    tag_92:\n        /* \"#utility.yul\":4478:4484   */\n      dup4\n        /* \"#utility.yul\":4475:4476   */\n      dup2\n        /* \"#utility.yul\":4472:4485   */\n      lt\n        /* \"#utility.yul\":4464:4577   */\n      iszero\n      tag_94\n      jumpi\n        /* \"#utility.yul\":4563:4564   */\n      dup1\n        /* \"#utility.yul\":4558:4561   */\n      dup3\n        /* \"#utility.yul\":4554:4565   */\n      add\n        /* \"#utility.yul\":4548:4566   */\n      mload\n        /* \"#utility.yul\":4544:4545   */\n      dup2\n        /* \"#utility.yul\":4539:4542   */\n      dup5\n        /* \"#utility.yul\":4535:4546   */\n      add\n        /* \"#utility.yul\":4528:4567   */\n      mstore\n        /* \"#utility.yul\":4500:4502   */\n      0x20\n        /* \"#utility.yul\":4497:4498   */\n      dup2\n        /* \"#utility.yul\":4493:4503   */\n      add\n        /* \"#utility.yul\":4488:4503   */\n      swap1\n      pop\n        /* \"#utility.yul\":4464:4577   */\n      jump(tag_92)\n    tag_94:\n        /* \"#utility.yul\":4595:4601   */\n      dup4\n        /* \"#utility.yul\":4592:4593   */\n      dup2\n        /* \"#utility.yul\":4589:4602   */\n      gt\n        /* \"#utility.yul\":4586:4687   */\n      iszero\n      tag_95\n      jumpi\n        /* \"#utility.yul\":4675:4676   */\n      0x00\n        /* \"#utility.yul\":4666:4672   */\n      dup5\n        /* \"#utility.yul\":4661:4664   */\n      dup5\n        /* \"#utility.yul\":4657:4673   */\n      add\n        /* \"#utility.yul\":4650:4677   */\n      mstore\n        /* \"#utility.yul\":4586:4687   */\n    tag_95:\n        /* \"#utility.yul\":4435:4693   */\n      pop\n        /* \"#utility.yul\":4386:4693   */\n      pop\n      pop\n      pop\n      jump\t// out\n        /* \"#utility.yul\":4822:4939   */\n    tag_35:\n        /* \"#utility.yul\":4931:4932   */\n      0x00\n        /* \"#utility.yul\":4928:4929   */\n      dup1\n        /* \"#utility.yul\":4921:4933   */\n      revert\n        /* \"#utility.yul\":4945:5047   */\n    tag_50:\n        /* \"#utility.yul\":4986:4992   */\n      0x00\n        /* \"#utility.yul\":5037:5039   */\n      0x1f\n        /* \"#utility.yul\":5033:5040   */\n      not\n        /* \"#utility.yul\":5028:5030   */\n      0x1f\n        /* \"#utility.yul\":5021:5026   */\n      dup4\n        /* \"#utility.yul\":5017:5031   */\n      add\n        /* \"#utility.yul\":5013:5041   */\n      and\n        /* \"#utility.yul\":5003:5041   */\n      swap1\n      pop\n        /* \"#utility.yul\":4945:5047   */\n      swap2\n      swap1\n      pop\n      jump\t// out\n        /* \"#utility.yul\":5053:5211   */\n    tag_66:\n        /* \"#utility.yul\":5193:5203   */\n      0x63616c6c20666f6f000000000000000000000000000000000000000000000000\n        /* \"#utility.yul\":5189:5190   */\n      0x00\n        /* \"#utility.yul\":5181:5187   */\n      dup3\n        /* \"#utility.yul\":5177:5191   */\n      add\n        /* \"#utility.yul\":5170:5204   */\n      mstore\n        /* \"#utility.yul\":5053:5211   */\n      pop\n      jump\t// out\n        /* \"#utility.yul\":5217:5355   */\n    tag_31:\n        /* \"#utility.yul\":5298:5330   */\n      tag_102\n        /* \"#utility.yul\":5324:5329   */\n      dup2\n        /* \"#utility.yul\":5298:5330   */\n      tag_81\n      jump\t// in\n    tag_102:\n        /* \"#utility.yul\":5291:5296   */\n      dup2\n        /* \"#utility.yul\":5288:5331   */\n      eq\n        /* \"#utility.yul\":5278:5349   */\n      tag_103\n      jumpi\n        /* \"#utility.yul\":5345:5346   */\n      0x00\n        /* \"#utility.yul\":5342:5343   */\n      dup1\n        /* \"#utility.yul\":5335:5347   */\n      revert\n        /* \"#utility.yul\":5278:5349   */\n    tag_103:\n        /* \"#utility.yul\":5217:5355   */\n      pop\n      jump\t// out\n\n    auxdata: 0xa26469706673582212208efdb4b7300ac243cb93591b842d26c64d6624c34e16991624c3209945c905b164736f6c63430008070033\n}\n",
				"bytecode": {
					"linkReferences": {},
					"object": "608060405234801561001057600080fd5b5061058d806100206000396000f3fe6080604052600436106100295760003560e01c806387ba61791461002e578063ff00726c1461004a575b600080fd5b610048600480360381019061004391906102ec565b610066565b005b610064600480360381019061005f91906102ec565b6101a7565b005b6000808273ffffffffffffffffffffffffffffffffffffffff163461138890607b604051602401610097919061040b565b6040516020818303038152906040527f24ccab8f000000000000000000000000000000000000000000000000000000007bffffffffffffffffffffffffffffffffffffffffffffffffffffffff19166020820180517bffffffffffffffffffffffffffffffffffffffffffffffffffffffff838183161783525050505060405161012191906103c4565b600060405180830381858888f193505050503d806000811461015f576040519150601f19603f3d011682016040523d82523d6000602084013e610164565b606091505b50915091507f13848c3e38f8886f3f5d2ad9dff80d8092c2bbb8efd5b887a99c2c6cfc09ac2a828260405161019a9291906103db565b60405180910390a1505050565b6000808273ffffffffffffffffffffffffffffffffffffffff16346040516024016040516020818303038152906040527f1dcc85ae000000000000000000000000000000000000000000000000000000007bffffffffffffffffffffffffffffffffffffffffffffffffffffffff19166020820180517bffffffffffffffffffffffffffffffffffffffffffffffffffffffff838183161783525050505060405161025291906103c4565b60006040518083038185875af1925050503d806000811461028f576040519150601f19603f3d011682016040523d82523d6000602084013e610294565b606091505b50915091507f13848c3e38f8886f3f5d2ad9dff80d8092c2bbb8efd5b887a99c2c6cfc09ac2a82826040516102ca9291906103db565b60405180910390a1505050565b6000813590506102e681610540565b92915050565b60006020828403121561030257610301610501565b5b6000610310848285016102d7565b91505092915050565b61032281610483565b82525050565b600061033382610439565b61033d8185610444565b935061034d8185602086016104ce565b61035681610506565b840191505092915050565b600061036c82610439565b6103768185610455565b93506103868185602086016104ce565b80840191505092915050565b61039b816104bc565b82525050565b60006103ae600883610460565b91506103b982610517565b602082019050919050565b60006103d08284610361565b915081905092915050565b60006040820190506103f06000830185610319565b81810360208301526104028184610328565b90509392505050565b60006040820190508181036000830152610424816103a1565b90506104336020830184610392565b92915050565b600081519050919050565b600082825260208201905092915050565b600081905092915050565b600082825260208201905092915050565b600061047c8261048f565b9050919050565b60008115159050919050565b600073ffffffffffffffffffffffffffffffffffffffff82169050919050565b600060ff82169050919050565b60006104c7826104af565b9050919050565b60005b838110156104ec5780820151818401526020810190506104d1565b838111156104fb576000848401525b50505050565b600080fd5b6000601f19601f8301169050919050565b7f63616c6c20666f6f000000000000000000000000000000000000000000000000600082015250565b61054981610471565b811461055457600080fd5b5056fea26469706673582212208efdb4b7300ac243cb93591b842d26c64d6624c34e16991624c3209945c905b164736f6c63430008070033",
					"opcodes": "PUSH1 0x80 PUSH1 0x40 MSTORE CALLVALUE DUP1 ISZERO PUSH2 0x10 JUMPI PUSH1 0x0 DUP1 REVERT JUMPDEST POP PUSH2 0x58D DUP1 PUSH2 0x20 PUSH1 0x0 CODECOPY PUSH1 0x0 RETURN INVALID PUSH1 0x80 PUSH1 0x40 MSTORE PUSH1 0x4 CALLDATASIZE LT PUSH2 0x29 JUMPI PUSH1 0x0 CALLDATALOAD PUSH1 0xE0 SHR DUP1 PUSH4 0x87BA6179 EQ PUSH2 0x2E JUMPI DUP1 PUSH4 0xFF00726C EQ PUSH2 0x4A JUMPI JUMPDEST PUSH1 0x0 DUP1 REVERT JUMPDEST PUSH2 0x48 PUSH1 0x4 DUP1 CALLDATASIZE SUB DUP2 ADD SWAP1 PUSH2 0x43 SWAP2 SWAP1 PUSH2 0x2EC JUMP JUMPDEST PUSH2 0x66 JUMP JUMPDEST STOP JUMPDEST PUSH2 0x64 PUSH1 0x4 DUP1 CALLDATASIZE SUB DUP2 ADD SWAP1 PUSH2 0x5F SWAP2 SWAP1 PUSH2 0x2EC JUMP JUMPDEST PUSH2 0x1A7 JUMP JUMPDEST STOP JUMPDEST PUSH1 0x0 DUP1 DUP3 PUSH20 0xFFFFFFFFFFFFFFFFFFFFFFFFFFFFFFFFFFFFFFFF AND CALLVALUE PUSH2 0x1388 SWAP1 PUSH1 0x7B PUSH1 0x40 MLOAD PUSH1 0x24 ADD PUSH2 0x97 SWAP2 SWAP1 PUSH2 0x40B JUMP JUMPDEST PUSH1 0x40 MLOAD PUSH1 0x20 DUP2 DUP4 SUB SUB DUP2 MSTORE SWAP1 PUSH1 0x40 MSTORE PUSH32 0x24CCAB8F00000000000000000000000000000000000000000000000000000000 PUSH28 0xFFFFFFFFFFFFFFFFFFFFFFFFFFFFFFFFFFFFFFFFFFFFFFFFFFFFFFFF NOT AND PUSH1 0x20 DUP3 ADD DUP1 MLOAD PUSH28 0xFFFFFFFFFFFFFFFFFFFFFFFFFFFFFFFFFFFFFFFFFFFFFFFFFFFFFFFF DUP4 DUP2 DUP4 AND OR DUP4 MSTORE POP POP POP POP PUSH1 0x40 MLOAD PUSH2 0x121 SWAP2 SWAP1 PUSH2 0x3C4 JUMP JUMPDEST PUSH1 0x0 PUSH1 0x40 MLOAD DUP1 DUP4 SUB DUP2 DUP6 DUP9 DUP9 CALL SWAP4 POP POP POP POP RETURNDATASIZE DUP1 PUSH1 0x0 DUP2 EQ PUSH2 0x15F JUMPI PUSH1 0x40 MLOAD SWAP2 POP PUSH1 0x1F NOT PUSH1 0x3F RETURNDATASIZE ADD AND DUP3 ADD PUSH1 0x40 MSTORE RETURNDATASIZE DUP3 MSTORE RETURNDATASIZE PUSH1 0x0 PUSH1 0x20 DUP5 ADD RETURNDATACOPY PUSH2 0x164 JUMP JUMPDEST PUSH1 0x60 SWAP2 POP JUMPDEST POP SWAP2 POP SWAP2 POP PUSH32 0x13848C3E38F8886F3F5D2AD9DFF80D8092C2BBB8EFD5B887A99C2C6CFC09AC2A DUP3 DUP3 PUSH1 0x40 MLOAD PUSH2 0x19A SWAP3 SWAP2 SWAP1 PUSH2 0x3DB JUMP JUMPDEST PUSH1 0x40 MLOAD DUP1 SWAP2 SUB SWAP1 LOG1 POP POP POP JUMP JUMPDEST PUSH1 0x0 DUP1 DUP3 PUSH20 0xFFFFFFFFFFFFFFFFFFFFFFFFFFFFFFFFFFFFFFFF AND CALLVALUE PUSH1 0x40 MLOAD PUSH1 0x24 ADD PUSH1 0x40 MLOAD PUSH1 0x20 DUP2 DUP4 SUB SUB DUP2 MSTORE SWAP1 PUSH1 0x40 MSTORE PUSH32 0x1DCC85AE00000000000000000000000000000000000000000000000000000000 PUSH28 0xFFFFFFFFFFFFFFFFFFFFFFFFFFFFFFFFFFFFFFFFFFFFFFFFFFFFFFFF NOT AND PUSH1 0x20 DUP3 ADD DUP1 MLOAD PUSH28 0xFFFFFFFFFFFFFFFFFFFFFFFFFFFFFFFFFFFFFFFFFFFFFFFFFFFFFFFF DUP4 DUP2 DUP4 AND OR DUP4 MSTORE POP POP POP POP PUSH1 0x40 MLOAD PUSH2 0x252 SWAP2 SWAP1 PUSH2 0x3C4 JUMP JUMPDEST PUSH1 0x0 PUSH1 0x40 MLOAD DUP1 DUP4 SUB DUP2 DUP6 DUP8 GAS CALL SWAP3 POP POP POP RETURNDATASIZE DUP1 PUSH1 0x0 DUP2 EQ PUSH2 0x28F JUMPI PUSH1 0x40 MLOAD SWAP2 POP PUSH1 0x1F NOT PUSH1 0x3F RETURNDATASIZE ADD AND DUP3 ADD PUSH1 0x40 MSTORE RETURNDATASIZE DUP3 MSTORE RETURNDATASIZE PUSH1 0x0 PUSH1 0x20 DUP5 ADD RETURNDATACOPY PUSH2 0x294 JUMP JUMPDEST PUSH1 0x60 SWAP2 POP JUMPDEST POP SWAP2 POP SWAP2 POP PUSH32 0x13848C3E38F8886F3F5D2AD9DFF80D8092C2BBB8EFD5B887A99C2C6CFC09AC2A DUP3 DUP3 PUSH1 0x40 MLOAD PUSH2 0x2CA SWAP3 SWAP2 SWAP1 PUSH2 0x3DB JUMP JUMPDEST PUSH1 0x40 MLOAD DUP1 SWAP2 SUB SWAP1 LOG1 POP POP POP JUMP JUMPDEST PUSH1 0x0 DUP2 CALLDATALOAD SWAP1 POP PUSH2 0x2E6 DUP2 PUSH2 0x540 JUMP JUMPDEST SWAP3 SWAP2 POP POP JUMP JUMPDEST PUSH1 0x0 PUSH1 0x20 DUP3 DUP5 SUB SLT ISZERO PUSH2 0x302 JUMPI PUSH2 0x301 PUSH2 0x501 JUMP JUMPDEST JUMPDEST PUSH1 0x0 PUSH2 0x310 DUP5 DUP3 DUP6 ADD PUSH2 0x2D7 JUMP JUMPDEST SWAP2 POP POP SWAP3 SWAP2 POP POP JUMP JUMPDEST PUSH2 0x322 DUP2 PUSH2 0x483 JUMP JUMPDEST DUP3 MSTORE POP POP JUMP JUMPDEST PUSH1 0x0 PUSH2 0x333 DUP3 PUSH2 0x439 JUMP JUMPDEST PUSH2 0x33D DUP2 DUP6 PUSH2 0x444 JUMP JUMPDEST SWAP4 POP PUSH2 0x34D DUP2 DUP6 PUSH1 0x20 DUP7 ADD PUSH2 0x4CE JUMP JUMPDEST PUSH2 0x356 DUP2 PUSH2 0x506 JUMP JUMPDEST DUP5 ADD SWAP2 POP POP SWAP3 SWAP2 POP POP JUMP JUMPDEST PUSH1 0x0 PUSH2 0x36C DUP3 PUSH2 0x439 JUMP JUMPDEST PUSH2 0x376 DUP2 DUP6 PUSH2 0x455 JUMP JUMPDEST SWAP4 POP PUSH2 0x386 DUP2 DUP6 PUSH1 0x20 DUP7 ADD PUSH2 0x4CE JUMP JUMPDEST DUP1 DUP5 ADD SWAP2 POP POP SWAP3 SWAP2 POP POP JUMP JUMPDEST PUSH2 0x39B DUP2 PUSH2 0x4BC JUMP JUMPDEST DUP3 MSTORE POP POP JUMP JUMPDEST PUSH1 0x0 PUSH2 0x3AE PUSH1 0x8 DUP4 PUSH2 0x460 JUMP JUMPDEST SWAP2 POP PUSH2 0x3B9 DUP3 PUSH2 0x517 JUMP JUMPDEST PUSH1 0x20 DUP3 ADD SWAP1 POP SWAP2 SWAP1 POP JUMP JUMPDEST PUSH1 0x0 PUSH2 0x3D0 DUP3 DUP5 PUSH2 0x361 JUMP JUMPDEST SWAP2 POP DUP2 SWAP1 POP SWAP3 SWAP2 POP POP JUMP JUMPDEST PUSH1 0x0 PUSH1 0x40 DUP3 ADD SWAP1 POP PUSH2 0x3F0 PUSH1 0x0 DUP4 ADD DUP6 PUSH2 0x319 JUMP JUMPDEST DUP2 DUP2 SUB PUSH1 0x20 DUP4 ADD MSTORE PUSH2 0x402 DUP2 DUP5 PUSH2 0x328 JUMP JUMPDEST SWAP1 POP SWAP4 SWAP3 POP POP POP JUMP JUMPDEST PUSH1 0x0 PUSH1 0x40 DUP3 ADD SWAP1 POP DUP2 DUP2 SUB PUSH1 0x0 DUP4 ADD MSTORE PUSH2 0x424 DUP2 PUSH2 0x3A1 JUMP JUMPDEST SWAP1 POP PUSH2 0x433 PUSH1 0x20 DUP4 ADD DUP5 PUSH2 0x392 JUMP JUMPDEST SWAP3 SWAP2 POP POP JUMP JUMPDEST PUSH1 0x0 DUP2 MLOAD SWAP1 POP SWAP2 SWAP1 POP JUMP JUMPDEST PUSH1 0x0 DUP3 DUP3 MSTORE PUSH1 0x20 DUP3 ADD SWAP1 POP SWAP3 SWAP2 POP POP JUMP JUMPDEST PUSH1 0x0 DUP2 SWAP1 POP SWAP3 SWAP2 POP POP JUMP JUMPDEST PUSH1 0x0 DUP3 DUP3 MSTORE PUSH1 0x20 DUP3 ADD SWAP1 POP SWAP3 SWAP2 POP POP JUMP JUMPDEST PUSH1 0x0 PUSH2 0x47C DUP3 PUSH2 0x48F JUMP JUMPDEST SWAP1 POP SWAP2 SWAP1 POP JUMP JUMPDEST PUSH1 0x0 DUP2 ISZERO ISZERO SWAP1 POP SWAP2 SWAP1 POP JUMP JUMPDEST PUSH1 0x0 PUSH20 0xFFFFFFFFFFFFFFFFFFFFFFFFFFFFFFFFFFFFFFFF DUP3 AND SWAP1 POP SWAP2 SWAP1 POP JUMP JUMPDEST PUSH1 0x0 PUSH1 0xFF DUP3 AND SWAP1 POP SWAP2 SWAP1 POP JUMP JUMPDEST PUSH1 0x0 PUSH2 0x4C7 DUP3 PUSH2 0x4AF JUMP JUMPDEST SWAP1 POP SWAP2 SWAP1 POP JUMP JUMPDEST PUSH1 0x0 JUMPDEST DUP4 DUP2 LT ISZERO PUSH2 0x4EC JUMPI DUP1 DUP3 ADD MLOAD DUP2 DUP5 ADD MSTORE PUSH1 0x20 DUP2 ADD SWAP1 POP PUSH2 0x4D1 JUMP JUMPDEST DUP4 DUP2 GT ISZERO PUSH2 0x4FB JUMPI PUSH1 0x0 DUP5 DUP5 ADD MSTORE JUMPDEST POP POP POP POP JUMP JUMPDEST PUSH1 0x0 DUP1 REVERT JUMPDEST PUSH1 0x0 PUSH1 0x1F NOT PUSH1 0x1F DUP4 ADD AND SWAP1 POP SWAP2 SWAP1 POP JUMP JUMPDEST PUSH32 0x63616C6C20666F6F000000000000000000000000000000000000000000000000 PUSH1 0x0 DUP3 ADD MSTORE POP JUMP JUMPDEST PUSH2 0x549 DUP2 PUSH2 0x471 JUMP JUMPDEST DUP2 EQ PUSH2 0x554 JUMPI PUSH1 0x0 DUP1 REVERT JUMPDEST POP JUMP INVALID LOG2 PUSH5 0x6970667358 0x22 SLT KECCAK256 DUP15 REVERT 0xB4 0xB7 ADDRESS EXP 0xC2 NUMBER 0xCB SWAP4 MSIZE SHL DUP5 0x2D 0x26 0xC6 0x4D PUSH7 0x24C34E16991624 0xC3 KECCAK256 SWAP10 GASLIMIT 0xC9 SDIV 0xB1 PUSH5 0x736F6C6343 STOP ADDMOD SMOD STOP CALLER "
				},
				"gasEstimates": {
					"creation": {
						"codeDepositCost": "284200",
						"executionCost": "324",
						"totalCost": "284524"
					},
					"external": {
						"testCallDoesNotExist(address)": "infinite",
						"testCallFoo(address)": "infinite"
					}
				},
				"methodIdentifiers": {
					"testCallDoesNotExist(address)": "ff00726c",
					"testCallFoo(address)": "87ba6179"
				}
			},
			"storageLayout": {
				"storage": [],
				"types": null
			},
			"userdoc": {
				"kind": "user",
				"methods": {},
				"version": 1
			}
		}
	}
}