{
	"contracts/FundMe.sol": {
		"FundMe": {
			"abi": [
				{
					"inputs": [],
					"name": "fund",
					"outputs": [],
					"stateMutability": "payable",
					"type": "function"
				}
			],
			"devdoc": {
				"kind": "dev",
				"methods": {},
				"version": 1
			},
			"evm": {
				"assembly": "    /* \"contracts/FundMe.sol\":94:415  contract FundMe{... */\n  mstore(0x40, 0x80)\n  callvalue\n  dup1\n  iszero\n  tag_1\n  jumpi\n  0x00\n  dup1\n  revert\ntag_1:\n  pop\n  dataSize(sub_0)\n  dup1\n  dataOffset(sub_0)\n  0x00\n  codecopy\n  0x00\n  return\nstop\n\nsub_0: assembly {\n        /* \"contracts/FundMe.sol\":94:415  contract FundMe{... */\n      mstore(0x40, 0x80)\n      jumpi(tag_1, lt(calldatasize, 0x04))\n      shr(0xe0, calldataload(0x00))\n      dup1\n      0xb60d4288\n      eq\n      tag_2\n      jumpi\n    tag_1:\n      0x00\n      dup1\n      revert\n        /* \"contracts/FundMe.sol\":120:409  function fund() public payable {... */\n    tag_2:\n      tag_3\n      tag_4\n      jump\t// in\n    tag_3:\n      stop\n    tag_4:\n        /* \"contracts/FundMe.sol\":306:310  1e18 */\n      0x0de0b6b3a7640000\n        /* \"contracts/FundMe.sol\":294:303  msg.value */\n      callvalue\n        /* \"contracts/FundMe.sol\":294:310  msg.value > 1e18 */\n      gt\n        /* \"contracts/FundMe.sol\":286:335  require(msg.value > 1e18, \"Didn't Send Enough!!\") */\n      tag_6\n      jumpi\n      mload(0x40)\n      0x08c379a000000000000000000000000000000000000000000000000000000000\n      dup2\n      mstore\n      0x04\n      add\n      tag_7\n      swap1\n      tag_8\n      jump\t// in\n    tag_7:\n      mload(0x40)\n      dup1\n      swap2\n      sub\n      swap1\n      revert\n    tag_6:\n        /* \"contracts/FundMe.sol\":120:409  function fund() public payable {... */\n      jump\t// out\n        /* \"#utility.yul\":7:373   */\n    tag_10:\n        /* \"#utility.yul\":149:152   */\n      0x00\n        /* \"#utility.yul\":170:237   */\n      tag_12\n        /* \"#utility.yul\":234:236   */\n      0x14\n        /* \"#utility.yul\":229:232   */\n      dup4\n        /* \"#utility.yul\":170:237   */\n      tag_13\n      jump\t// in\n    tag_12:\n        /* \"#utility.yul\":163:237   */\n      swap2\n      pop\n        /* \"#utility.yul\":246:339   */\n      tag_14\n        /* \"#utility.yul\":335:338   */\n      dup3\n        /* \"#utility.yul\":246:339   */\n      tag_15\n      jump\t// in\n    tag_14:\n        /* \"#utility.yul\":364:366   */\n      0x20\n        /* \"#utility.yul\":359:362   */\n      dup3\n        /* \"#utility.yul\":355:367   */\n      add\n        /* \"#utility.yul\":348:367   */\n      swap1\n      pop\n        /* \"#utility.yul\":7:373   */\n      swap2\n      swap1\n      pop\n      jump\t// out\n        /* \"#utility.yul\":379:798   */\n    tag_8:\n        /* \"#utility.yul\":545:549   */\n      0x00\n        /* \"#utility.yul\":583:585   */\n      0x20\n        /* \"#utility.yul\":572:581   */\n      dup3\n        /* \"#utility.yul\":568:586   */\n      add\n        /* \"#utility.yul\":560:586   */\n      swap1\n      pop\n        /* \"#utility.yul\":632:641   */\n      dup2\n        /* \"#utility.yul\":626:630   */\n      dup2\n        /* \"#utility.yul\":622:642   */\n      sub\n        /* \"#utility.yul\":618:619   */\n      0x00\n        /* \"#utility.yul\":607:616   */\n      dup4\n        /* \"#utility.yul\":603:620   */\n      add\n        /* \"#utility.yul\":596:643   */\n      mstore\n        /* \"#utility.yul\":660:791   */\n      tag_17\n        /* \"#utility.yul\":786:790   */\n      dup2\n        /* \"#utility.yul\":660:791   */\n      tag_10\n      jump\t// in\n    tag_17:\n        /* \"#utility.yul\":652:791   */\n      swap1\n      pop\n        /* \"#utility.yul\":379:798   */\n      swap2\n      swap1\n      pop\n      jump\t// out\n        /* \"#utility.yul\":804:973   */\n    tag_13:\n        /* \"#utility.yul\":888:899   */\n      0x00\n        /* \"#utility.yul\":922:928   */\n      dup3\n        /* \"#utility.yul\":917:920   */\n      dup3\n        /* \"#utility.yul\":910:929   */\n      mstore\n        /* \"#utility.yul\":962:966   */\n      0x20\n        /* \"#utility.yul\":957:960   */\n      dup3\n        /* \"#utility.yul\":953:967   */\n      add\n        /* \"#utility.yul\":938:967   */\n      swap1\n      pop\n        /* \"#utility.yul\":804:973   */\n      swap3\n      swap2\n      pop\n      pop\n      jump\t// out\n        /* \"#utility.yul\":979:1149   */\n    tag_15:\n        /* \"#utility.yul\":1119:1141   */\n      0x4469646e27742053656e6420456e6f7567682121000000000000000000000000\n        /* \"#utility.yul\":1115:1116   */\n      0x00\n        /* \"#utility.yul\":1107:1113   */\n      dup3\n        /* \"#utility.yul\":1103:1117   */\n      add\n        /* \"#utility.yul\":1096:1142   */\n      mstore\n        /* \"#utility.yul\":979:1149   */\n      pop\n      jump\t// out\n\n    auxdata: 0xa26469706673582212207bf4272153c241f2f84977f4727626c7ac02742d1d13d13ab881624828c39a0a64736f6c63430008070033\n}\n",
				"bytecode": {
					"linkReferences": {},
					"object": "608060405234801561001057600080fd5b5061011f806100206000396000f3fe608060405260043610601c5760003560e01c8063b60d4288146021575b600080fd5b60276029565b005b670de0b6b3a764000034116070576040517f08c379a00000000000000000000000000000000000000000000000000000000081526004016067906091565b60405180910390fd5b565b6000607d60148360af565b915060868260c0565b602082019050919050565b6000602082019050818103600083015260a8816072565b9050919050565b600082825260208201905092915050565b7f4469646e27742053656e6420456e6f756768212100000000000000000000000060008201525056fea26469706673582212207bf4272153c241f2f84977f4727626c7ac02742d1d13d13ab881624828c39a0a64736f6c63430008070033",
					"opcodes": "PUSH1 0x80 PUSH1 0x40 MSTORE CALLVALUE DUP1 ISZERO PUSH2 0x10 JUMPI PUSH1 0x0 DUP1 REVERT JUMPDEST POP PUSH2 0x11F DUP1 PUSH2 0x20 PUSH1 0x0 CODECOPY PUSH1 0x0 RETURN INVALID PUSH1 0x80 PUSH1 0x40 MSTORE PUSH1 0x4 CALLDATASIZE LT PUSH1 0x1C JUMPI PUSH1 0x0 CALLDATALOAD PUSH1 0xE0 SHR DUP1 PUSH4 0xB60D4288 EQ PUSH1 0x21 JUMPI JUMPDEST PUSH1 0x0 DUP1 REVERT JUMPDEST PUSH1 0x27 PUSH1 0x29 JUMP JUMPDEST STOP JUMPDEST PUSH8 0xDE0B6B3A7640000 CALLVALUE GT PUSH1 0x70 JUMPI PUSH1 0x40 MLOAD PUSH32 0x8C379A000000000000000000000000000000000000000000000000000000000 DUP2 MSTORE PUSH1 0x4 ADD PUSH1 0x67 SWAP1 PUSH1 0x91 JUMP JUMPDEST PUSH1 0x40 MLOAD DUP1 SWAP2 SUB SWAP1 REVERT JUMPDEST JUMP JUMPDEST PUSH1 0x0 PUSH1 0x7D PUSH1 0x14 DUP4 PUSH1 0xAF JUMP JUMPDEST SWAP2 POP PUSH1 0x86 DUP3 PUSH1 0xC0 JUMP JUMPDEST PUSH1 0x20 DUP3 ADD SWAP1 POP SWAP2 SWAP1 POP JUMP JUMPDEST PUSH1 0x0 PUSH1 0x20 DUP3 ADD SWAP1 POP DUP2 DUP2 SUB PUSH1 0x0 DUP4 ADD MSTORE PUSH1 0xA8 DUP2 PUSH1 0x72 JUMP JUMPDEST SWAP1 POP SWAP2 SWAP1 POP JUMP JUMPDEST PUSH1 0x0 DUP3 DUP3 MSTORE PUSH1 0x20 DUP3 ADD SWAP1 POP SWAP3 SWAP2 POP POP JUMP JUMPDEST PUSH32 0x4469646E27742053656E6420456E6F7567682121000000000000000000000000 PUSH1 0x0 DUP3 ADD MSTORE POP JUMP INVALID LOG2 PUSH5 0x6970667358 0x22 SLT KECCAK256 PUSH28 0xF4272153C241F2F84977F4727626C7AC02742D1D13D13AB881624828 0xC3 SWAP11 EXP PUSH5 0x736F6C6343 STOP ADDMOD SMOD STOP CALLER "
				},
				"gasEstimates": {
					"creation": {
						"codeDepositCost": "57400",
						"executionCost": "105",
						"totalCost": "57505"
					},
					"external": {
						"fund()": "409"
					}
				},
				"methodIdentifiers": {
					"fund()": "b60d4288"
				}
			},
			"storageLayout": {
				"storage": [],
				"types": null
			},
			"userdoc": {
				"kind": "user",
				"methods": {},
				"version": 1
			}
		}
	}
}