{
	"contracts/IfElse.sol": {
		"IFElse": {
			"abi": [
				{
					"inputs": [
						{
							"internalType": "uint256",
							"name": "_x",
							"type": "uint256"
						}
					],
					"name": "example",
					"outputs": [
						{
							"internalType": "uint256",
							"name": "",
							"type": "uint256"
						}
					],
					"stateMutability": "pure",
					"type": "function"
				},
				{
					"inputs": [
						{
							"internalType": "uint256",
							"name": "Y",
							"type": "uint256"
						}
					],
					"name": "ternary",
					"outputs": [
						{
							"internalType": "uint256",
							"name": "",
							"type": "uint256"
						}
					],
					"stateMutability": "pure",
					"type": "function"
				},
				{
					"inputs": [
						{
							"internalType": "uint256",
							"name": "z",
							"type": "uint256"
						}
					],
					"name": "ternarycalculator2",
					"outputs": [
						{
							"internalType": "uint256",
							"name": "",
							"type": "uint256"
						}
					],
					"stateMutability": "pure",
					"type": "function"
				}
			],
			"devdoc": {
				"kind": "dev",
				"methods": {},
				"version": 1
			},
			"evm": {
				"assembly": "    /* \"contracts/IfElse.sol\":58:711  contract IFElse{... */\n  mstore(0x40, 0x80)\n  callvalue\n  dup1\n  iszero\n  tag_1\n  jumpi\n  0x00\n  dup1\n  revert\ntag_1:\n  pop\n  dataSize(sub_0)\n  dup1\n  dataOffset(sub_0)\n  0x00\n  codecopy\n  0x00\n  return\nstop\n\nsub_0: assembly {\n        /* \"contracts/IfElse.sol\":58:711  contract IFElse{... */\n      mstore(0x40, 0x80)\n      callvalue\n      dup1\n      iszero\n      tag_1\n      jumpi\n      0x00\n      dup1\n      revert\n    tag_1:\n      pop\n      jumpi(tag_2, lt(calldatasize, 0x04))\n      shr(0xe0, calldataload(0x00))\n      dup1\n      0x430e4cae\n      eq\n      tag_3\n      jumpi\n      dup1\n      0x477e4a02\n      eq\n      tag_4\n      jumpi\n      dup1\n      0x55278c5b\n      eq\n      tag_5\n      jumpi\n    tag_2:\n      0x00\n      dup1\n      revert\n        /* \"contracts/IfElse.sol\":596:707  function ternarycalculator2 (uint z ) external  pure returns (uint){... */\n    tag_3:\n      tag_6\n      0x04\n      dup1\n      calldatasize\n      sub\n      dup2\n      add\n      swap1\n      tag_7\n      swap2\n      swap1\n      tag_8\n      jump\t// in\n    tag_7:\n      tag_9\n      jump\t// in\n    tag_6:\n      mload(0x40)\n      tag_10\n      swap2\n      swap1\n      tag_11\n      jump\t// in\n    tag_10:\n      mload(0x40)\n      dup1\n      swap2\n      sub\n      swap1\n      return\n        /* \"contracts/IfElse.sol\":79:305  function example (uint _x) external pure returns (uint) {... */\n    tag_4:\n      tag_12\n      0x04\n      dup1\n      calldatasize\n      sub\n      dup2\n      add\n      swap1\n      tag_13\n      swap2\n      swap1\n      tag_8\n      jump\t// in\n    tag_13:\n      tag_14\n      jump\t// in\n    tag_12:\n      mload(0x40)\n      tag_15\n      swap2\n      swap1\n      tag_11\n      jump\t// in\n    tag_15:\n      mload(0x40)\n      dup1\n      swap2\n      sub\n      swap1\n      return\n        /* \"contracts/IfElse.sol\":310:547  function ternary (uint Y ) external  pure  returns (uint) {... */\n    tag_5:\n      tag_16\n      0x04\n      dup1\n      calldatasize\n      sub\n      dup2\n      add\n      swap1\n      tag_17\n      swap2\n      swap1\n      tag_8\n      jump\t// in\n    tag_17:\n      tag_18\n      jump\t// in\n    tag_16:\n      mload(0x40)\n      tag_19\n      swap2\n      swap1\n      tag_11\n      jump\t// in\n    tag_19:\n      mload(0x40)\n      dup1\n      swap2\n      sub\n      swap1\n      return\n        /* \"contracts/IfElse.sol\":596:707  function ternarycalculator2 (uint z ) external  pure returns (uint){... */\n    tag_9:\n        /* \"contracts/IfElse.sol\":658:662  uint */\n      0x00\n        /* \"contracts/IfElse.sol\":681:683  10 */\n      0x0a\n        /* \"contracts/IfElse.sol\":677:678  z */\n      dup3\n        /* \"contracts/IfElse.sol\":677:683  z < 10 */\n      lt\n        /* \"contracts/IfElse.sol\":677:703  z < 10 ? 1 : 2000000000000 */\n      tag_21\n      jumpi\n        /* \"contracts/IfElse.sol\":690:703  2000000000000 */\n      0x01d1a94a2000\n        /* \"contracts/IfElse.sol\":677:703  z < 10 ? 1 : 2000000000000 */\n      jump(tag_22)\n    tag_21:\n        /* \"contracts/IfElse.sol\":686:687  1 */\n      0x01\n        /* \"contracts/IfElse.sol\":677:703  z < 10 ? 1 : 2000000000000 */\n    tag_22:\n        /* \"contracts/IfElse.sol\":670:703  return z < 10 ? 1 : 2000000000000 */\n      0xffffffffffff\n      and\n      swap1\n      pop\n        /* \"contracts/IfElse.sol\":596:707  function ternarycalculator2 (uint z ) external  pure returns (uint){... */\n      swap2\n      swap1\n      pop\n      jump\t// out\n        /* \"contracts/IfElse.sol\":79:305  function example (uint _x) external pure returns (uint) {... */\n    tag_14:\n        /* \"contracts/IfElse.sol\":129:133  uint */\n      0x00\n        /* \"contracts/IfElse.sol\":155:157  10 */\n      0x0a\n        /* \"contracts/IfElse.sol\":150:152  _x */\n      dup3\n        /* \"contracts/IfElse.sol\":150:157  _x < 10 */\n      lt\n        /* \"contracts/IfElse.sol\":146:299  if (_x < 10){... */\n      iszero\n      tag_24\n      jumpi\n        /* \"contracts/IfElse.sol\":180:181  1 */\n      0x01\n        /* \"contracts/IfElse.sol\":172:181  return  1 */\n      swap1\n      pop\n      jump(tag_23)\n        /* \"contracts/IfElse.sol\":146:299  if (_x < 10){... */\n    tag_24:\n        /* \"contracts/IfElse.sol\":210:212  20 */\n      0x14\n        /* \"contracts/IfElse.sol\":205:207  _x */\n      dup3\n        /* \"contracts/IfElse.sol\":205:212  _x < 20 */\n      lt\n        /* \"contracts/IfElse.sol\":200:299  if  (_x < 20){... */\n      iszero\n      tag_26\n      jumpi\n        /* \"contracts/IfElse.sol\":234:235  2 */\n      0x02\n        /* \"contracts/IfElse.sol\":227:235  return 2 */\n      swap1\n      pop\n      jump(tag_23)\n        /* \"contracts/IfElse.sol\":200:299  if  (_x < 20){... */\n    tag_26:\n        /* \"contracts/IfElse.sol\":272:288  3000000000000000 */\n      0x0aa87bee538000\n        /* \"contracts/IfElse.sol\":265:288  return 3000000000000000 */\n      swap1\n      pop\n        /* \"contracts/IfElse.sol\":79:305  function example (uint _x) external pure returns (uint) {... */\n    tag_23:\n      swap2\n      swap1\n      pop\n      jump\t// out\n        /* \"contracts/IfElse.sol\":310:547  function ternary (uint Y ) external  pure  returns (uint) {... */\n    tag_18:\n        /* \"contracts/IfElse.sol\":362:366  uint */\n      0x00\n        /* \"contracts/IfElse.sol\":386:388  10 */\n      0x0a\n        /* \"contracts/IfElse.sol\":382:383  Y */\n      dup3\n        /* \"contracts/IfElse.sol\":382:388  Y < 10 */\n      lt\n        /* \"contracts/IfElse.sol\":378:538  if (Y < 10 ){... */\n      iszero\n      tag_29\n      jumpi\n        /* \"contracts/IfElse.sol\":411:426  100000000000000 */\n      0x5af3107a4000\n        /* \"contracts/IfElse.sol\":404:426  return 100000000000000 */\n      swap1\n      pop\n      jump(tag_28)\n        /* \"contracts/IfElse.sol\":378:538  if (Y < 10 ){... */\n    tag_29:\n        /* \"contracts/IfElse.sol\":499:531  20000000000000000000000000000000 */\n      0xfc6f7c40458122964d00000000\n        /* \"contracts/IfElse.sol\":492:531  return 20000000000000000000000000000000 */\n      swap1\n      pop\n        /* \"contracts/IfElse.sol\":310:547  function ternary (uint Y ) external  pure  returns (uint) {... */\n    tag_28:\n      swap2\n      swap1\n      pop\n      jump\t// out\n        /* \"#utility.yul\":88:205   */\n    tag_32:\n        /* \"#utility.yul\":197:198   */\n      0x00\n        /* \"#utility.yul\":194:195   */\n      dup1\n        /* \"#utility.yul\":187:199   */\n      revert\n        /* \"#utility.yul\":334:411   */\n    tag_34:\n        /* \"#utility.yul\":371:378   */\n      0x00\n        /* \"#utility.yul\":400:405   */\n      dup2\n        /* \"#utility.yul\":389:405   */\n      swap1\n      pop\n        /* \"#utility.yul\":334:411   */\n      swap2\n      swap1\n      pop\n      jump\t// out\n        /* \"#utility.yul\":417:539   */\n    tag_35:\n        /* \"#utility.yul\":490:514   */\n      tag_44\n        /* \"#utility.yul\":508:513   */\n      dup2\n        /* \"#utility.yul\":490:514   */\n      tag_34\n      jump\t// in\n    tag_44:\n        /* \"#utility.yul\":483:488   */\n      dup2\n        /* \"#utility.yul\":480:515   */\n      eq\n        /* \"#utility.yul\":470:533   */\n      tag_45\n      jumpi\n        /* \"#utility.yul\":529:530   */\n      0x00\n        /* \"#utility.yul\":526:527   */\n      dup1\n        /* \"#utility.yul\":519:531   */\n      revert\n        /* \"#utility.yul\":470:533   */\n    tag_45:\n        /* \"#utility.yul\":417:539   */\n      pop\n      jump\t// out\n        /* \"#utility.yul\":545:684   */\n    tag_36:\n        /* \"#utility.yul\":591:596   */\n      0x00\n        /* \"#utility.yul\":629:635   */\n      dup2\n        /* \"#utility.yul\":616:636   */\n      calldataload\n        /* \"#utility.yul\":607:636   */\n      swap1\n      pop\n        /* \"#utility.yul\":645:678   */\n      tag_47\n        /* \"#utility.yul\":672:677   */\n      dup2\n        /* \"#utility.yul\":645:678   */\n      tag_35\n      jump\t// in\n    tag_47:\n        /* \"#utility.yul\":545:684   */\n      swap3\n      swap2\n      pop\n      pop\n      jump\t// out\n        /* \"#utility.yul\":690:1019   */\n    tag_8:\n        /* \"#utility.yul\":749:755   */\n      0x00\n        /* \"#utility.yul\":798:800   */\n      0x20\n        /* \"#utility.yul\":786:795   */\n      dup3\n        /* \"#utility.yul\":777:784   */\n      dup5\n        /* \"#utility.yul\":773:796   */\n      sub\n        /* \"#utility.yul\":769:801   */\n      slt\n        /* \"#utility.yul\":766:885   */\n      iszero\n      tag_49\n      jumpi\n        /* \"#utility.yul\":804:883   */\n      tag_50\n      tag_32\n      jump\t// in\n    tag_50:\n        /* \"#utility.yul\":766:885   */\n    tag_49:\n        /* \"#utility.yul\":924:925   */\n      0x00\n        /* \"#utility.yul\":949:1002   */\n      tag_51\n        /* \"#utility.yul\":994:1001   */\n      dup5\n        /* \"#utility.yul\":985:991   */\n      dup3\n        /* \"#utility.yul\":974:983   */\n      dup6\n        /* \"#utility.yul\":970:992   */\n      add\n        /* \"#utility.yul\":949:1002   */\n      tag_36\n      jump\t// in\n    tag_51:\n        /* \"#utility.yul\":939:1002   */\n      swap2\n      pop\n        /* \"#utility.yul\":895:1012   */\n      pop\n        /* \"#utility.yul\":690:1019   */\n      swap3\n      swap2\n      pop\n      pop\n      jump\t// out\n        /* \"#utility.yul\":1025:1143   */\n    tag_37:\n        /* \"#utility.yul\":1112:1136   */\n      tag_53\n        /* \"#utility.yul\":1130:1135   */\n      dup2\n        /* \"#utility.yul\":1112:1136   */\n      tag_34\n      jump\t// in\n    tag_53:\n        /* \"#utility.yul\":1107:1110   */\n      dup3\n        /* \"#utility.yul\":1100:1137   */\n      mstore\n        /* \"#utility.yul\":1025:1143   */\n      pop\n      pop\n      jump\t// out\n        /* \"#utility.yul\":1149:1371   */\n    tag_11:\n        /* \"#utility.yul\":1242:1246   */\n      0x00\n        /* \"#utility.yul\":1280:1282   */\n      0x20\n        /* \"#utility.yul\":1269:1278   */\n      dup3\n        /* \"#utility.yul\":1265:1283   */\n      add\n        /* \"#utility.yul\":1257:1283   */\n      swap1\n      pop\n        /* \"#utility.yul\":1293:1364   */\n      tag_55\n        /* \"#utility.yul\":1361:1362   */\n      0x00\n        /* \"#utility.yul\":1350:1359   */\n      dup4\n        /* \"#utility.yul\":1346:1363   */\n      add\n        /* \"#utility.yul\":1337:1343   */\n      dup5\n        /* \"#utility.yul\":1293:1364   */\n      tag_37\n      jump\t// in\n    tag_55:\n        /* \"#utility.yul\":1149:1371   */\n      swap3\n      swap2\n      pop\n      pop\n      jump\t// out\n\n    auxdata: 0xa2646970667358221220e567789b3062f3e41f97709fe5e5dc0fc3bdc7536569f17935e32d0edef8bc0664736f6c63430008080033\n}\n",
				"bytecode": {
					"linkReferences": {},
					"object": "608060405234801561001057600080fd5b5061022b806100206000396000f3fe608060405234801561001057600080fd5b50600436106100415760003560e01c8063430e4cae14610046578063477e4a021461007657806355278c5b146100a6575b600080fd5b610060600480360381019061005b919061019e565b6100d6565b60405161006d91906101da565b60405180910390f35b610090600480360381019061008b919061019e565b6100fe565b60405161009d91906101da565b60405180910390f35b6100c060048036038101906100bb919061019e565b610134565b6040516100cd91906101da565b60405180910390f35b6000600a82106100ec576501d1a94a20006100ef565b60015b65ffffffffffff169050919050565b6000600a821015610112576001905061012f565b6014821015610124576002905061012f565b660aa87bee53800090505b919050565b6000600a82101561014d57655af3107a4000905061015e565b6cfc6f7c40458122964d0000000090505b919050565b600080fd5b6000819050919050565b61017b81610168565b811461018657600080fd5b50565b60008135905061019881610172565b92915050565b6000602082840312156101b4576101b3610163565b5b60006101c284828501610189565b91505092915050565b6101d481610168565b82525050565b60006020820190506101ef60008301846101cb565b9291505056fea2646970667358221220e567789b3062f3e41f97709fe5e5dc0fc3bdc7536569f17935e32d0edef8bc0664736f6c63430008080033",
					"opcodes": "PUSH1 0x80 PUSH1 0x40 MSTORE CALLVALUE DUP1 ISZERO PUSH2 0x10 JUMPI PUSH1 0x0 DUP1 REVERT JUMPDEST POP PUSH2 0x22B DUP1 PUSH2 0x20 PUSH1 0x0 CODECOPY PUSH1 0x0 RETURN INVALID PUSH1 0x80 PUSH1 0x40 MSTORE CALLVALUE DUP1 ISZERO PUSH2 0x10 JUMPI PUSH1 0x0 DUP1 REVERT JUMPDEST POP PUSH1 0x4 CALLDATASIZE LT PUSH2 0x41 JUMPI PUSH1 0x0 CALLDATALOAD PUSH1 0xE0 SHR DUP1 PUSH4 0x430E4CAE EQ PUSH2 0x46 JUMPI DUP1 PUSH4 0x477E4A02 EQ PUSH2 0x76 JUMPI DUP1 PUSH4 0x55278C5B EQ PUSH2 0xA6 JUMPI JUMPDEST PUSH1 0x0 DUP1 REVERT JUMPDEST PUSH2 0x60 PUSH1 0x4 DUP1 CALLDATASIZE SUB DUP2 ADD SWAP1 PUSH2 0x5B SWAP2 SWAP1 PUSH2 0x19E JUMP JUMPDEST PUSH2 0xD6 JUMP JUMPDEST PUSH1 0x40 MLOAD PUSH2 0x6D SWAP2 SWAP1 PUSH2 0x1DA JUMP JUMPDEST PUSH1 0x40 MLOAD DUP1 SWAP2 SUB SWAP1 RETURN JUMPDEST PUSH2 0x90 PUSH1 0x4 DUP1 CALLDATASIZE SUB DUP2 ADD SWAP1 PUSH2 0x8B SWAP2 SWAP1 PUSH2 0x19E JUMP JUMPDEST PUSH2 0xFE JUMP JUMPDEST PUSH1 0x40 MLOAD PUSH2 0x9D SWAP2 SWAP1 PUSH2 0x1DA JUMP JUMPDEST PUSH1 0x40 MLOAD DUP1 SWAP2 SUB SWAP1 RETURN JUMPDEST PUSH2 0xC0 PUSH1 0x4 DUP1 CALLDATASIZE SUB DUP2 ADD SWAP1 PUSH2 0xBB SWAP2 SWAP1 PUSH2 0x19E JUMP JUMPDEST PUSH2 0x134 JUMP JUMPDEST PUSH1 0x40 MLOAD PUSH2 0xCD SWAP2 SWAP1 PUSH2 0x1DA JUMP JUMPDEST PUSH1 0x40 MLOAD DUP1 SWAP2 SUB SWAP1 RETURN JUMPDEST PUSH1 0x0 PUSH1 0xA DUP3 LT PUSH2 0xEC JUMPI PUSH6 0x1D1A94A2000 PUSH2 0xEF JUMP JUMPDEST PUSH1 0x1 JUMPDEST PUSH6 0xFFFFFFFFFFFF AND SWAP1 POP SWAP2 SWAP1 POP JUMP JUMPDEST PUSH1 0x0 PUSH1 0xA DUP3 LT ISZERO PUSH2 0x112 JUMPI PUSH1 0x1 SWAP1 POP PUSH2 0x12F JUMP JUMPDEST PUSH1 0x14 DUP3 LT ISZERO PUSH2 0x124 JUMPI PUSH1 0x2 SWAP1 POP PUSH2 0x12F JUMP JUMPDEST PUSH7 0xAA87BEE538000 SWAP1 POP JUMPDEST SWAP2 SWAP1 POP JUMP JUMPDEST PUSH1 0x0 PUSH1 0xA DUP3 LT ISZERO PUSH2 0x14D JUMPI PUSH6 0x5AF3107A4000 SWAP1 POP PUSH2 0x15E JUMP JUMPDEST PUSH13 0xFC6F7C40458122964D00000000 SWAP1 POP JUMPDEST SWAP2 SWAP1 POP JUMP JUMPDEST PUSH1 0x0 DUP1 REVERT JUMPDEST PUSH1 0x0 DUP2 SWAP1 POP SWAP2 SWAP1 POP JUMP JUMPDEST PUSH2 0x17B DUP2 PUSH2 0x168 JUMP JUMPDEST DUP2 EQ PUSH2 0x186 JUMPI PUSH1 0x0 DUP1 REVERT JUMPDEST POP JUMP JUMPDEST PUSH1 0x0 DUP2 CALLDATALOAD SWAP1 POP PUSH2 0x198 DUP2 PUSH2 0x172 JUMP JUMPDEST SWAP3 SWAP2 POP POP JUMP JUMPDEST PUSH1 0x0 PUSH1 0x20 DUP3 DUP5 SUB SLT ISZERO PUSH2 0x1B4 JUMPI PUSH2 0x1B3 PUSH2 0x163 JUMP JUMPDEST JUMPDEST PUSH1 0x0 PUSH2 0x1C2 DUP5 DUP3 DUP6 ADD PUSH2 0x189 JUMP JUMPDEST SWAP2 POP POP SWAP3 SWAP2 POP POP JUMP JUMPDEST PUSH2 0x1D4 DUP2 PUSH2 0x168 JUMP JUMPDEST DUP3 MSTORE POP POP JUMP JUMPDEST PUSH1 0x0 PUSH1 0x20 DUP3 ADD SWAP1 POP PUSH2 0x1EF PUSH1 0x0 DUP4 ADD DUP5 PUSH2 0x1CB JUMP JUMPDEST SWAP3 SWAP2 POP POP JUMP INVALID LOG2 PUSH5 0x6970667358 0x22 SLT KECCAK256 0xE5 PUSH8 0x789B3062F3E41F97 PUSH17 0x9FE5E5DC0FC3BDC7536569F17935E32D0E 0xDE 0xF8 0xBC MOD PUSH5 0x736F6C6343 STOP ADDMOD ADDMOD STOP CALLER "
				},
				"gasEstimates": {
					"creation": {
						"codeDepositCost": "111000",
						"executionCost": "159",
						"totalCost": "111159"
					},
					"external": {
						"example(uint256)": "infinite",
						"ternary(uint256)": "infinite",
						"ternarycalculator2(uint256)": "infinite"
					}
				},
				"methodIdentifiers": {
					"example(uint256)": "477e4a02",
					"ternary(uint256)": "55278c5b",
					"ternarycalculator2(uint256)": "430e4cae"
				}
			},
			"storageLayout": {
				"storage": [],
				"types": null
			},
			"userdoc": {
				"kind": "user",
				"methods": {},
				"version": 1
			}
		}
	}
}