{
	"contracts/Retrieve-gas.sol": {
		"SimpleStorage": {
			"abi": [
				{
					"inputs": [
						{
							"internalType": "string",
							"name": "_name",
							"type": "string"
						},
						{
							"internalType": "uint256",
							"name": "_favouriteNumber",
							"type": "uint256"
						},
						{
							"internalType": "uint256",
							"name": "_age",
							"type": "uint256"
						}
					],
					"name": "addperson",
					"outputs": [],
					"stateMutability": "nonpayable",
					"type": "function"
				},
				{
					"inputs": [],
					"name": "favouriteNumber",
					"outputs": [
						{
							"internalType": "uint256",
							"name": "",
							"type": "uint256"
						}
					],
					"stateMutability": "view",
					"type": "function"
				},
				{
					"inputs": [
						{
							"internalType": "uint256",
							"name": "",
							"type": "uint256"
						}
					],
					"name": "people",
					"outputs": [
						{
							"internalType": "uint256",
							"name": "favouriteNumber",
							"type": "uint256"
						},
						{
							"internalType": "string",
							"name": "name",
							"type": "string"
						},
						{
							"internalType": "uint256",
							"name": "age",
							"type": "uint256"
						}
					],
					"stateMutability": "view",
					"type": "function"
				},
				{
					"inputs": [],
					"name": "retrieve",
					"outputs": [
						{
							"internalType": "uint256",
							"name": "",
							"type": "uint256"
						}
					],
					"stateMutability": "view",
					"type": "function"
				},
				{
					"inputs": [
						{
							"internalType": "uint256",
							"name": "_favouriteNumber",
							"type": "uint256"
						}
					],
					"name": "store",
					"outputs": [],
					"stateMutability": "nonpayable",
					"type": "function"
				}
			],
			"devdoc": {
				"kind": "dev",
				"methods": {},
				"version": 1
			},
			"evm": {
				"assembly": "    /* \"contracts/Retrieve-gas.sol\":57:1183  contract SimpleStorage {... */\n  mstore(0x40, 0x80)\n  callvalue\n  dup1\n  iszero\n  tag_1\n  jumpi\n  0x00\n  dup1\n  revert\ntag_1:\n  pop\n  dataSize(sub_0)\n  dup1\n  dataOffset(sub_0)\n  0x00\n  codecopy\n  0x00\n  return\nstop\n\nsub_0: assembly {\n        /* \"contracts/Retrieve-gas.sol\":57:1183  contract SimpleStorage {... */\n      mstore(0x40, 0x80)\n      callvalue\n      dup1\n      iszero\n      tag_1\n      jumpi\n      0x00\n      dup1\n      revert\n    tag_1:\n      pop\n      jumpi(tag_2, lt(calldatasize, 0x04))\n      shr(0xe0, calldataload(0x00))\n      dup1\n      0x2e64cec1\n      eq\n      tag_3\n      jumpi\n      dup1\n      0x43ede4ae\n      eq\n      tag_4\n      jumpi\n      dup1\n      0x6057361d\n      eq\n      tag_5\n      jumpi\n      dup1\n      0x8a5a6561\n      eq\n      tag_6\n      jumpi\n      dup1\n      0x9e7a13ad\n      eq\n      tag_7\n      jumpi\n    tag_2:\n      0x00\n      dup1\n      revert\n        /* \"contracts/Retrieve-gas.sol\":1092:1177  function retrieve() public view returns (uint256) {... */\n    tag_3:\n      tag_8\n      tag_9\n      jump\t// in\n    tag_8:\n      mload(0x40)\n      tag_10\n      swap2\n      swap1\n      tag_11\n      jump\t// in\n    tag_10:\n      mload(0x40)\n      dup1\n      swap2\n      sub\n      swap1\n      return\n        /* \"contracts/Retrieve-gas.sol\":86:117  uint256 public  favouriteNumber */\n    tag_4:\n      tag_12\n      tag_13\n      jump\t// in\n    tag_12:\n      mload(0x40)\n      tag_14\n      swap2\n      swap1\n      tag_11\n      jump\t// in\n    tag_14:\n      mload(0x40)\n      dup1\n      swap2\n      sub\n      swap1\n      return\n        /* \"contracts/Retrieve-gas.sol\":838:956  function store(uint256 _favouriteNumber) public{... */\n    tag_5:\n      tag_15\n      0x04\n      dup1\n      calldatasize\n      sub\n      dup2\n      add\n      swap1\n      tag_16\n      swap2\n      swap1\n      tag_17\n      jump\t// in\n    tag_16:\n      tag_18\n      jump\t// in\n    tag_15:\n      stop\n        /* \"contracts/Retrieve-gas.sol\":605:834  function addperson (string memory _name, uint256 _favouriteNumber, uint256 _age) public {... */\n    tag_6:\n      tag_19\n      0x04\n      dup1\n      calldatasize\n      sub\n      dup2\n      add\n      swap1\n      tag_20\n      swap2\n      swap1\n      tag_21\n      jump\t// in\n    tag_20:\n      tag_22\n      jump\t// in\n    tag_19:\n      stop\n        /* \"contracts/Retrieve-gas.sol\":573:596  People[] public  people */\n    tag_7:\n      tag_23\n      0x04\n      dup1\n      calldatasize\n      sub\n      dup2\n      add\n      swap1\n      tag_24\n      swap2\n      swap1\n      tag_17\n      jump\t// in\n    tag_24:\n      tag_25\n      jump\t// in\n    tag_23:\n      mload(0x40)\n      tag_26\n      swap4\n      swap3\n      swap2\n      swap1\n      tag_27\n      jump\t// in\n    tag_26:\n      mload(0x40)\n      dup1\n      swap2\n      sub\n      swap1\n      return\n        /* \"contracts/Retrieve-gas.sol\":1092:1177  function retrieve() public view returns (uint256) {... */\n    tag_9:\n        /* \"contracts/Retrieve-gas.sol\":1133:1140  uint256 */\n      0x00\n        /* \"contracts/Retrieve-gas.sol\":1157:1172  favouriteNumber */\n      dup1\n      sload\n        /* \"contracts/Retrieve-gas.sol\":1150:1172  return favouriteNumber */\n      swap1\n      pop\n        /* \"contracts/Retrieve-gas.sol\":1092:1177  function retrieve() public view returns (uint256) {... */\n      swap1\n      jump\t// out\n        /* \"contracts/Retrieve-gas.sol\":86:117  uint256 public  favouriteNumber */\n    tag_13:\n      sload(0x00)\n      dup2\n      jump\t// out\n        /* \"contracts/Retrieve-gas.sol\":838:956  function store(uint256 _favouriteNumber) public{... */\n    tag_18:\n        /* \"contracts/Retrieve-gas.sol\":912:928  _favouriteNumber */\n      dup1\n        /* \"contracts/Retrieve-gas.sol\":894:909  favouriteNumber */\n      0x00\n        /* \"contracts/Retrieve-gas.sol\":894:928  favouriteNumber = _favouriteNumber */\n      dup2\n      swap1\n      sstore\n      pop\n        /* \"contracts/Retrieve-gas.sol\":937:947  retrieve() */\n      tag_30\n        /* \"contracts/Retrieve-gas.sol\":937:945  retrieve */\n      tag_9\n        /* \"contracts/Retrieve-gas.sol\":937:947  retrieve() */\n      jump\t// in\n    tag_30:\n      pop\n        /* \"contracts/Retrieve-gas.sol\":838:956  function store(uint256 _favouriteNumber) public{... */\n      pop\n      jump\t// out\n        /* \"contracts/Retrieve-gas.sol\":605:834  function addperson (string memory _name, uint256 _favouriteNumber, uint256 _age) public {... */\n    tag_22:\n        /* \"contracts/Retrieve-gas.sol\":703:726  People memory newperson */\n      0x00\n        /* \"contracts/Retrieve-gas.sol\":729:795  People({favouriteNumber:_favouriteNumber, name: _name, age: _age}) */\n      mload(0x40)\n      dup1\n      0x60\n      add\n      0x40\n      mstore\n      dup1\n        /* \"contracts/Retrieve-gas.sol\":753:769  _favouriteNumber */\n      dup5\n        /* \"contracts/Retrieve-gas.sol\":729:795  People({favouriteNumber:_favouriteNumber, name: _name, age: _age}) */\n      dup2\n      mstore\n      0x20\n      add\n        /* \"contracts/Retrieve-gas.sol\":777:782  _name */\n      dup6\n        /* \"contracts/Retrieve-gas.sol\":729:795  People({favouriteNumber:_favouriteNumber, name: _name, age: _age}) */\n      dup2\n      mstore\n      0x20\n      add\n        /* \"contracts/Retrieve-gas.sol\":789:793  _age */\n      dup4\n        /* \"contracts/Retrieve-gas.sol\":729:795  People({favouriteNumber:_favouriteNumber, name: _name, age: _age}) */\n      dup2\n      mstore\n      pop\n        /* \"contracts/Retrieve-gas.sol\":703:795  People memory newperson = People({favouriteNumber:_favouriteNumber, name: _name, age: _age}) */\n      swap1\n      pop\n        /* \"contracts/Retrieve-gas.sol\":805:811  people */\n      0x01\n        /* \"contracts/Retrieve-gas.sol\":817:826  newperson */\n      dup2\n        /* \"contracts/Retrieve-gas.sol\":805:827  people.push(newperson) */\n      swap1\n      dup1\n      0x01\n      dup2\n      sload\n      add\n      dup1\n      dup3\n      sstore\n      dup1\n      swap2\n      pop\n      pop\n      0x01\n      swap1\n      sub\n      swap1\n      0x00\n      mstore\n      keccak256(0x00, 0x20)\n      swap1\n      0x03\n      mul\n      add\n      0x00\n      swap1\n      swap2\n      swap1\n      swap2\n      swap1\n      swap2\n      pop\n      0x00\n      dup3\n      add\n      mload\n      dup2\n      0x00\n      add\n      sstore\n      0x20\n      dup3\n      add\n      mload\n      dup2\n      0x01\n      add\n      swap1\n      dup2\n      tag_33\n      swap2\n      swap1\n      tag_34\n      jump\t// in\n    tag_33:\n      pop\n      0x40\n      dup3\n      add\n      mload\n      dup2\n      0x02\n      add\n      sstore\n      pop\n      pop\n        /* \"contracts/Retrieve-gas.sol\":693:834  {... */\n      pop\n        /* \"contracts/Retrieve-gas.sol\":605:834  function addperson (string memory _name, uint256 _favouriteNumber, uint256 _age) public {... */\n      pop\n      pop\n      pop\n      jump\t// out\n        /* \"contracts/Retrieve-gas.sol\":573:596  People[] public  people */\n    tag_25:\n      0x01\n      dup2\n      dup2\n      sload\n      dup2\n      lt\n      tag_35\n      jumpi\n      0x00\n      dup1\n      revert\n    tag_35:\n      swap1\n      0x00\n      mstore\n      keccak256(0x00, 0x20)\n      swap1\n      0x03\n      mul\n      add\n      0x00\n      swap2\n      pop\n      swap1\n      pop\n      dup1\n      0x00\n      add\n      sload\n      swap1\n      dup1\n      0x01\n      add\n      dup1\n      sload\n      tag_37\n      swap1\n      tag_38\n      jump\t// in\n    tag_37:\n      dup1\n      0x1f\n      add\n      0x20\n      dup1\n      swap2\n      div\n      mul\n      0x20\n      add\n      mload(0x40)\n      swap1\n      dup2\n      add\n      0x40\n      mstore\n      dup1\n      swap3\n      swap2\n      swap1\n      dup2\n      dup2\n      mstore\n      0x20\n      add\n      dup3\n      dup1\n      sload\n      tag_39\n      swap1\n      tag_38\n      jump\t// in\n    tag_39:\n      dup1\n      iszero\n      tag_40\n      jumpi\n      dup1\n      0x1f\n      lt\n      tag_41\n      jumpi\n      0x0100\n      dup1\n      dup4\n      sload\n      div\n      mul\n      dup4\n      mstore\n      swap2\n      0x20\n      add\n      swap2\n      jump(tag_40)\n    tag_41:\n      dup3\n      add\n      swap2\n      swap1\n      0x00\n      mstore\n      keccak256(0x00, 0x20)\n      swap1\n    tag_42:\n      dup2\n      sload\n      dup2\n      mstore\n      swap1\n      0x01\n      add\n      swap1\n      0x20\n      add\n      dup1\n      dup4\n      gt\n      tag_42\n      jumpi\n      dup3\n      swap1\n      sub\n      0x1f\n      and\n      dup3\n      add\n      swap2\n    tag_40:\n      pop\n      pop\n      pop\n      pop\n      pop\n      swap1\n      dup1\n      0x02\n      add\n      sload\n      swap1\n      pop\n      dup4\n      jump\t// out\n        /* \"#utility.yul\":7:84   */\n    tag_43:\n        /* \"#utility.yul\":44:51   */\n      0x00\n        /* \"#utility.yul\":73:78   */\n      dup2\n        /* \"#utility.yul\":62:78   */\n      swap1\n      pop\n        /* \"#utility.yul\":7:84   */\n      swap2\n      swap1\n      pop\n      jump\t// out\n        /* \"#utility.yul\":90:208   */\n    tag_44:\n        /* \"#utility.yul\":177:201   */\n      tag_83\n        /* \"#utility.yul\":195:200   */\n      dup2\n        /* \"#utility.yul\":177:201   */\n      tag_43\n      jump\t// in\n    tag_83:\n        /* \"#utility.yul\":172:175   */\n      dup3\n        /* \"#utility.yul\":165:202   */\n      mstore\n        /* \"#utility.yul\":90:208   */\n      pop\n      pop\n      jump\t// out\n        /* \"#utility.yul\":214:436   */\n    tag_11:\n        /* \"#utility.yul\":307:311   */\n      0x00\n        /* \"#utility.yul\":345:347   */\n      0x20\n        /* \"#utility.yul\":334:343   */\n      dup3\n        /* \"#utility.yul\":330:348   */\n      add\n        /* \"#utility.yul\":322:348   */\n      swap1\n      pop\n        /* \"#utility.yul\":358:429   */\n      tag_85\n        /* \"#utility.yul\":426:427   */\n      0x00\n        /* \"#utility.yul\":415:424   */\n      dup4\n        /* \"#utility.yul\":411:428   */\n      add\n        /* \"#utility.yul\":402:408   */\n      dup5\n        /* \"#utility.yul\":358:429   */\n      tag_44\n      jump\t// in\n    tag_85:\n        /* \"#utility.yul\":214:436   */\n      swap3\n      swap2\n      pop\n      pop\n      jump\t// out\n        /* \"#utility.yul\":442:517   */\n    tag_45:\n        /* \"#utility.yul\":475:481   */\n      0x00\n        /* \"#utility.yul\":508:510   */\n      0x40\n        /* \"#utility.yul\":502:511   */\n      mload\n        /* \"#utility.yul\":492:511   */\n      swap1\n      pop\n        /* \"#utility.yul\":442:517   */\n      swap1\n      jump\t// out\n        /* \"#utility.yul\":523:640   */\n    tag_46:\n        /* \"#utility.yul\":632:633   */\n      0x00\n        /* \"#utility.yul\":629:630   */\n      dup1\n        /* \"#utility.yul\":622:634   */\n      revert\n        /* \"#utility.yul\":646:763   */\n    tag_47:\n        /* \"#utility.yul\":755:756   */\n      0x00\n        /* \"#utility.yul\":752:753   */\n      dup1\n        /* \"#utility.yul\":745:757   */\n      revert\n        /* \"#utility.yul\":769:891   */\n    tag_48:\n        /* \"#utility.yul\":842:866   */\n      tag_90\n        /* \"#utility.yul\":860:865   */\n      dup2\n        /* \"#utility.yul\":842:866   */\n      tag_43\n      jump\t// in\n    tag_90:\n        /* \"#utility.yul\":835:840   */\n      dup2\n        /* \"#utility.yul\":832:867   */\n      eq\n        /* \"#utility.yul\":822:885   */\n      tag_91\n      jumpi\n        /* \"#utility.yul\":881:882   */\n      0x00\n        /* \"#utility.yul\":878:879   */\n      dup1\n        /* \"#utility.yul\":871:883   */\n      revert\n        /* \"#utility.yul\":822:885   */\n    tag_91:\n        /* \"#utility.yul\":769:891   */\n      pop\n      jump\t// out\n        /* \"#utility.yul\":897:1036   */\n    tag_49:\n        /* \"#utility.yul\":943:948   */\n      0x00\n        /* \"#utility.yul\":981:987   */\n      dup2\n        /* \"#utility.yul\":968:988   */\n      calldataload\n        /* \"#utility.yul\":959:988   */\n      swap1\n      pop\n        /* \"#utility.yul\":997:1030   */\n      tag_93\n        /* \"#utility.yul\":1024:1029   */\n      dup2\n        /* \"#utility.yul\":997:1030   */\n      tag_48\n      jump\t// in\n    tag_93:\n        /* \"#utility.yul\":897:1036   */\n      swap3\n      swap2\n      pop\n      pop\n      jump\t// out\n        /* \"#utility.yul\":1042:1371   */\n    tag_17:\n        /* \"#utility.yul\":1101:1107   */\n      0x00\n        /* \"#utility.yul\":1150:1152   */\n      0x20\n        /* \"#utility.yul\":1138:1147   */\n      dup3\n        /* \"#utility.yul\":1129:1136   */\n      dup5\n        /* \"#utility.yul\":1125:1148   */\n      sub\n        /* \"#utility.yul\":1121:1153   */\n      slt\n        /* \"#utility.yul\":1118:1237   */\n      iszero\n      tag_95\n      jumpi\n        /* \"#utility.yul\":1156:1235   */\n      tag_96\n      tag_46\n      jump\t// in\n    tag_96:\n        /* \"#utility.yul\":1118:1237   */\n    tag_95:\n        /* \"#utility.yul\":1276:1277   */\n      0x00\n        /* \"#utility.yul\":1301:1354   */\n      tag_97\n        /* \"#utility.yul\":1346:1353   */\n      dup5\n        /* \"#utility.yul\":1337:1343   */\n      dup3\n        /* \"#utility.yul\":1326:1335   */\n      dup6\n        /* \"#utility.yul\":1322:1344   */\n      add\n        /* \"#utility.yul\":1301:1354   */\n      tag_49\n      jump\t// in\n    tag_97:\n        /* \"#utility.yul\":1291:1354   */\n      swap2\n      pop\n        /* \"#utility.yul\":1247:1364   */\n      pop\n        /* \"#utility.yul\":1042:1371   */\n      swap3\n      swap2\n      pop\n      pop\n      jump\t// out\n        /* \"#utility.yul\":1377:1494   */\n    tag_50:\n        /* \"#utility.yul\":1486:1487   */\n      0x00\n        /* \"#utility.yul\":1483:1484   */\n      dup1\n        /* \"#utility.yul\":1476:1488   */\n      revert\n        /* \"#utility.yul\":1500:1617   */\n    tag_51:\n        /* \"#utility.yul\":1609:1610   */\n      0x00\n        /* \"#utility.yul\":1606:1607   */\n      dup1\n        /* \"#utility.yul\":1599:1611   */\n      revert\n        /* \"#utility.yul\":1623:1725   */\n    tag_52:\n        /* \"#utility.yul\":1664:1670   */\n      0x00\n        /* \"#utility.yul\":1715:1717   */\n      0x1f\n        /* \"#utility.yul\":1711:1718   */\n      not\n        /* \"#utility.yul\":1706:1708   */\n      0x1f\n        /* \"#utility.yul\":1699:1704   */\n      dup4\n        /* \"#utility.yul\":1695:1709   */\n      add\n        /* \"#utility.yul\":1691:1719   */\n      and\n        /* \"#utility.yul\":1681:1719   */\n      swap1\n      pop\n        /* \"#utility.yul\":1623:1725   */\n      swap2\n      swap1\n      pop\n      jump\t// out\n        /* \"#utility.yul\":1731:1911   */\n    tag_53:\n        /* \"#utility.yul\":1779:1856   */\n      0x4e487b7100000000000000000000000000000000000000000000000000000000\n        /* \"#utility.yul\":1776:1777   */\n      0x00\n        /* \"#utility.yul\":1769:1857   */\n      mstore\n        /* \"#utility.yul\":1876:1880   */\n      0x41\n        /* \"#utility.yul\":1873:1874   */\n      0x04\n        /* \"#utility.yul\":1866:1881   */\n      mstore\n        /* \"#utility.yul\":1900:1904   */\n      0x24\n        /* \"#utility.yul\":1897:1898   */\n      0x00\n        /* \"#utility.yul\":1890:1905   */\n      revert\n        /* \"#utility.yul\":1917:2198   */\n    tag_54:\n        /* \"#utility.yul\":2000:2027   */\n      tag_103\n        /* \"#utility.yul\":2022:2026   */\n      dup3\n        /* \"#utility.yul\":2000:2027   */\n      tag_52\n      jump\t// in\n    tag_103:\n        /* \"#utility.yul\":1992:1998   */\n      dup2\n        /* \"#utility.yul\":1988:2028   */\n      add\n        /* \"#utility.yul\":2130:2136   */\n      dup2\n        /* \"#utility.yul\":2118:2128   */\n      dup2\n        /* \"#utility.yul\":2115:2137   */\n      lt\n        /* \"#utility.yul\":2094:2112   */\n      0xffffffffffffffff\n        /* \"#utility.yul\":2082:2092   */\n      dup3\n        /* \"#utility.yul\":2079:2113   */\n      gt\n        /* \"#utility.yul\":2076:2138   */\n      or\n        /* \"#utility.yul\":2073:2161   */\n      iszero\n      tag_104\n      jumpi\n        /* \"#utility.yul\":2141:2159   */\n      tag_105\n      tag_53\n      jump\t// in\n    tag_105:\n        /* \"#utility.yul\":2073:2161   */\n    tag_104:\n        /* \"#utility.yul\":2181:2191   */\n      dup1\n        /* \"#utility.yul\":2177:2179   */\n      0x40\n        /* \"#utility.yul\":2170:2192   */\n      mstore\n        /* \"#utility.yul\":1960:2198   */\n      pop\n        /* \"#utility.yul\":1917:2198   */\n      pop\n      pop\n      jump\t// out\n        /* \"#utility.yul\":2204:2333   */\n    tag_55:\n        /* \"#utility.yul\":2238:2244   */\n      0x00\n        /* \"#utility.yul\":2265:2285   */\n      tag_107\n      tag_45\n      jump\t// in\n    tag_107:\n        /* \"#utility.yul\":2255:2285   */\n      swap1\n      pop\n        /* \"#utility.yul\":2294:2327   */\n      tag_108\n        /* \"#utility.yul\":2322:2326   */\n      dup3\n        /* \"#utility.yul\":2314:2320   */\n      dup3\n        /* \"#utility.yul\":2294:2327   */\n      tag_54\n      jump\t// in\n    tag_108:\n        /* \"#utility.yul\":2204:2333   */\n      swap2\n      swap1\n      pop\n      jump\t// out\n        /* \"#utility.yul\":2339:2647   */\n    tag_56:\n        /* \"#utility.yul\":2401:2405   */\n      0x00\n        /* \"#utility.yul\":2491:2509   */\n      0xffffffffffffffff\n        /* \"#utility.yul\":2483:2489   */\n      dup3\n        /* \"#utility.yul\":2480:2510   */\n      gt\n        /* \"#utility.yul\":2477:2533   */\n      iszero\n      tag_110\n      jumpi\n        /* \"#utility.yul\":2513:2531   */\n      tag_111\n      tag_53\n      jump\t// in\n    tag_111:\n        /* \"#utility.yul\":2477:2533   */\n    tag_110:\n        /* \"#utility.yul\":2551:2580   */\n      tag_112\n        /* \"#utility.yul\":2573:2579   */\n      dup3\n        /* \"#utility.yul\":2551:2580   */\n      tag_52\n      jump\t// in\n    tag_112:\n        /* \"#utility.yul\":2543:2580   */\n      swap1\n      pop\n        /* \"#utility.yul\":2635:2639   */\n      0x20\n        /* \"#utility.yul\":2629:2633   */\n      dup2\n        /* \"#utility.yul\":2625:2640   */\n      add\n        /* \"#utility.yul\":2617:2640   */\n      swap1\n      pop\n        /* \"#utility.yul\":2339:2647   */\n      swap2\n      swap1\n      pop\n      jump\t// out\n        /* \"#utility.yul\":2653:2799   */\n    tag_57:\n        /* \"#utility.yul\":2750:2756   */\n      dup3\n        /* \"#utility.yul\":2745:2748   */\n      dup2\n        /* \"#utility.yul\":2740:2743   */\n      dup4\n        /* \"#utility.yul\":2727:2757   */\n      calldatacopy\n        /* \"#utility.yul\":2791:2792   */\n      0x00\n        /* \"#utility.yul\":2782:2788   */\n      dup4\n        /* \"#utility.yul\":2777:2780   */\n      dup4\n        /* \"#utility.yul\":2773:2789   */\n      add\n        /* \"#utility.yul\":2766:2793   */\n      mstore\n        /* \"#utility.yul\":2653:2799   */\n      pop\n      pop\n      pop\n      jump\t// out\n        /* \"#utility.yul\":2805:3230   */\n    tag_58:\n        /* \"#utility.yul\":2883:2888   */\n      0x00\n        /* \"#utility.yul\":2908:2974   */\n      tag_115\n        /* \"#utility.yul\":2924:2973   */\n      tag_116\n        /* \"#utility.yul\":2966:2972   */\n      dup5\n        /* \"#utility.yul\":2924:2973   */\n      tag_56\n      jump\t// in\n    tag_116:\n        /* \"#utility.yul\":2908:2974   */\n      tag_55\n      jump\t// in\n    tag_115:\n        /* \"#utility.yul\":2899:2974   */\n      swap1\n      pop\n        /* \"#utility.yul\":2997:3003   */\n      dup3\n        /* \"#utility.yul\":2990:2995   */\n      dup2\n        /* \"#utility.yul\":2983:3004   */\n      mstore\n        /* \"#utility.yul\":3035:3039   */\n      0x20\n        /* \"#utility.yul\":3028:3033   */\n      dup2\n        /* \"#utility.yul\":3024:3040   */\n      add\n        /* \"#utility.yul\":3073:3076   */\n      dup5\n        /* \"#utility.yul\":3064:3070   */\n      dup5\n        /* \"#utility.yul\":3059:3062   */\n      dup5\n        /* \"#utility.yul\":3055:3071   */\n      add\n        /* \"#utility.yul\":3052:3077   */\n      gt\n        /* \"#utility.yul\":3049:3161   */\n      iszero\n      tag_117\n      jumpi\n        /* \"#utility.yul\":3080:3159   */\n      tag_118\n      tag_51\n      jump\t// in\n    tag_118:\n        /* \"#utility.yul\":3049:3161   */\n    tag_117:\n        /* \"#utility.yul\":3170:3224   */\n      tag_119\n        /* \"#utility.yul\":3217:3223   */\n      dup5\n        /* \"#utility.yul\":3212:3215   */\n      dup3\n        /* \"#utility.yul\":3207:3210   */\n      dup6\n        /* \"#utility.yul\":3170:3224   */\n      tag_57\n      jump\t// in\n    tag_119:\n        /* \"#utility.yul\":2889:3230   */\n      pop\n        /* \"#utility.yul\":2805:3230   */\n      swap4\n      swap3\n      pop\n      pop\n      pop\n      jump\t// out\n        /* \"#utility.yul\":3250:3590   */\n    tag_59:\n        /* \"#utility.yul\":3306:3311   */\n      0x00\n        /* \"#utility.yul\":3355:3358   */\n      dup3\n        /* \"#utility.yul\":3348:3352   */\n      0x1f\n        /* \"#utility.yul\":3340:3346   */\n      dup4\n        /* \"#utility.yul\":3336:3353   */\n      add\n        /* \"#utility.yul\":3332:3359   */\n      slt\n        /* \"#utility.yul\":3322:3444   */\n      tag_121\n      jumpi\n        /* \"#utility.yul\":3363:3442   */\n      tag_122\n      tag_50\n      jump\t// in\n    tag_122:\n        /* \"#utility.yul\":3322:3444   */\n    tag_121:\n        /* \"#utility.yul\":3480:3486   */\n      dup2\n        /* \"#utility.yul\":3467:3487   */\n      calldataload\n        /* \"#utility.yul\":3505:3584   */\n      tag_123\n        /* \"#utility.yul\":3580:3583   */\n      dup5\n        /* \"#utility.yul\":3572:3578   */\n      dup3\n        /* \"#utility.yul\":3565:3569   */\n      0x20\n        /* \"#utility.yul\":3557:3563   */\n      dup7\n        /* \"#utility.yul\":3553:3570   */\n      add\n        /* \"#utility.yul\":3505:3584   */\n      tag_58\n      jump\t// in\n    tag_123:\n        /* \"#utility.yul\":3496:3584   */\n      swap2\n      pop\n        /* \"#utility.yul\":3312:3590   */\n      pop\n        /* \"#utility.yul\":3250:3590   */\n      swap3\n      swap2\n      pop\n      pop\n      jump\t// out\n        /* \"#utility.yul\":3596:4395   */\n    tag_21:\n        /* \"#utility.yul\":3683:3689   */\n      0x00\n        /* \"#utility.yul\":3691:3697   */\n      dup1\n        /* \"#utility.yul\":3699:3705   */\n      0x00\n        /* \"#utility.yul\":3748:3750   */\n      0x60\n        /* \"#utility.yul\":3736:3745   */\n      dup5\n        /* \"#utility.yul\":3727:3734   */\n      dup7\n        /* \"#utility.yul\":3723:3746   */\n      sub\n        /* \"#utility.yul\":3719:3751   */\n      slt\n        /* \"#utility.yul\":3716:3835   */\n      iszero\n      tag_125\n      jumpi\n        /* \"#utility.yul\":3754:3833   */\n      tag_126\n      tag_46\n      jump\t// in\n    tag_126:\n        /* \"#utility.yul\":3716:3835   */\n    tag_125:\n        /* \"#utility.yul\":3902:3903   */\n      0x00\n        /* \"#utility.yul\":3891:3900   */\n      dup5\n        /* \"#utility.yul\":3887:3904   */\n      add\n        /* \"#utility.yul\":3874:3905   */\n      calldataload\n        /* \"#utility.yul\":3932:3950   */\n      0xffffffffffffffff\n        /* \"#utility.yul\":3924:3930   */\n      dup2\n        /* \"#utility.yul\":3921:3951   */\n      gt\n        /* \"#utility.yul\":3918:4035   */\n      iszero\n      tag_127\n      jumpi\n        /* \"#utility.yul\":3954:4033   */\n      tag_128\n      tag_47\n      jump\t// in\n    tag_128:\n        /* \"#utility.yul\":3918:4035   */\n    tag_127:\n        /* \"#utility.yul\":4059:4122   */\n      tag_129\n        /* \"#utility.yul\":4114:4121   */\n      dup7\n        /* \"#utility.yul\":4105:4111   */\n      dup3\n        /* \"#utility.yul\":4094:4103   */\n      dup8\n        /* \"#utility.yul\":4090:4112   */\n      add\n        /* \"#utility.yul\":4059:4122   */\n      tag_59\n      jump\t// in\n    tag_129:\n        /* \"#utility.yul\":4049:4122   */\n      swap4\n      pop\n        /* \"#utility.yul\":3845:4132   */\n      pop\n        /* \"#utility.yul\":4171:4173   */\n      0x20\n        /* \"#utility.yul\":4197:4250   */\n      tag_130\n        /* \"#utility.yul\":4242:4249   */\n      dup7\n        /* \"#utility.yul\":4233:4239   */\n      dup3\n        /* \"#utility.yul\":4222:4231   */\n      dup8\n        /* \"#utility.yul\":4218:4240   */\n      add\n        /* \"#utility.yul\":4197:4250   */\n      tag_49\n      jump\t// in\n    tag_130:\n        /* \"#utility.yul\":4187:4250   */\n      swap3\n      pop\n        /* \"#utility.yul\":4142:4260   */\n      pop\n        /* \"#utility.yul\":4299:4301   */\n      0x40\n        /* \"#utility.yul\":4325:4378   */\n      tag_131\n        /* \"#utility.yul\":4370:4377   */\n      dup7\n        /* \"#utility.yul\":4361:4367   */\n      dup3\n        /* \"#utility.yul\":4350:4359   */\n      dup8\n        /* \"#utility.yul\":4346:4368   */\n      add\n        /* \"#utility.yul\":4325:4378   */\n      tag_49\n      jump\t// in\n    tag_131:\n        /* \"#utility.yul\":4315:4378   */\n      swap2\n      pop\n        /* \"#utility.yul\":4270:4388   */\n      pop\n        /* \"#utility.yul\":3596:4395   */\n      swap3\n      pop\n      swap3\n      pop\n      swap3\n      jump\t// out\n        /* \"#utility.yul\":4401:4500   */\n    tag_60:\n        /* \"#utility.yul\":4453:4459   */\n      0x00\n        /* \"#utility.yul\":4487:4492   */\n      dup2\n        /* \"#utility.yul\":4481:4493   */\n      mload\n        /* \"#utility.yul\":4471:4493   */\n      swap1\n      pop\n        /* \"#utility.yul\":4401:4500   */\n      swap2\n      swap1\n      pop\n      jump\t// out\n        /* \"#utility.yul\":4506:4675   */\n    tag_61:\n        /* \"#utility.yul\":4590:4601   */\n      0x00\n        /* \"#utility.yul\":4624:4630   */\n      dup3\n        /* \"#utility.yul\":4619:4622   */\n      dup3\n        /* \"#utility.yul\":4612:4631   */\n      mstore\n        /* \"#utility.yul\":4664:4668   */\n      0x20\n        /* \"#utility.yul\":4659:4662   */\n      dup3\n        /* \"#utility.yul\":4655:4669   */\n      add\n        /* \"#utility.yul\":4640:4669   */\n      swap1\n      pop\n        /* \"#utility.yul\":4506:4675   */\n      swap3\n      swap2\n      pop\n      pop\n      jump\t// out\n        /* \"#utility.yul\":4681:4927   */\n    tag_62:\n        /* \"#utility.yul\":4762:4763   */\n      0x00\n        /* \"#utility.yul\":4772:4885   */\n    tag_135:\n        /* \"#utility.yul\":4786:4792   */\n      dup4\n        /* \"#utility.yul\":4783:4784   */\n      dup2\n        /* \"#utility.yul\":4780:4793   */\n      lt\n        /* \"#utility.yul\":4772:4885   */\n      iszero\n      tag_137\n      jumpi\n        /* \"#utility.yul\":4871:4872   */\n      dup1\n        /* \"#utility.yul\":4866:4869   */\n      dup3\n        /* \"#utility.yul\":4862:4873   */\n      add\n        /* \"#utility.yul\":4856:4874   */\n      mload\n        /* \"#utility.yul\":4852:4853   */\n      dup2\n        /* \"#utility.yul\":4847:4850   */\n      dup5\n        /* \"#utility.yul\":4843:4854   */\n      add\n        /* \"#utility.yul\":4836:4875   */\n      mstore\n        /* \"#utility.yul\":4808:4810   */\n      0x20\n        /* \"#utility.yul\":4805:4806   */\n      dup2\n        /* \"#utility.yul\":4801:4811   */\n      add\n        /* \"#utility.yul\":4796:4811   */\n      swap1\n      pop\n        /* \"#utility.yul\":4772:4885   */\n      jump(tag_135)\n    tag_137:\n        /* \"#utility.yul\":4919:4920   */\n      0x00\n        /* \"#utility.yul\":4910:4916   */\n      dup5\n        /* \"#utility.yul\":4905:4908   */\n      dup5\n        /* \"#utility.yul\":4901:4917   */\n      add\n        /* \"#utility.yul\":4894:4921   */\n      mstore\n        /* \"#utility.yul\":4743:4927   */\n      pop\n        /* \"#utility.yul\":4681:4927   */\n      pop\n      pop\n      pop\n      jump\t// out\n        /* \"#utility.yul\":4933:5310   */\n    tag_63:\n        /* \"#utility.yul\":5021:5024   */\n      0x00\n        /* \"#utility.yul\":5049:5088   */\n      tag_139\n        /* \"#utility.yul\":5082:5087   */\n      dup3\n        /* \"#utility.yul\":5049:5088   */\n      tag_60\n      jump\t// in\n    tag_139:\n        /* \"#utility.yul\":5104:5175   */\n      tag_140\n        /* \"#utility.yul\":5168:5174   */\n      dup2\n        /* \"#utility.yul\":5163:5166   */\n      dup6\n        /* \"#utility.yul\":5104:5175   */\n      tag_61\n      jump\t// in\n    tag_140:\n        /* \"#utility.yul\":5097:5175   */\n      swap4\n      pop\n        /* \"#utility.yul\":5184:5249   */\n      tag_141\n        /* \"#utility.yul\":5242:5248   */\n      dup2\n        /* \"#utility.yul\":5237:5240   */\n      dup6\n        /* \"#utility.yul\":5230:5234   */\n      0x20\n        /* \"#utility.yul\":5223:5228   */\n      dup7\n        /* \"#utility.yul\":5219:5235   */\n      add\n        /* \"#utility.yul\":5184:5249   */\n      tag_62\n      jump\t// in\n    tag_141:\n        /* \"#utility.yul\":5274:5303   */\n      tag_142\n        /* \"#utility.yul\":5296:5302   */\n      dup2\n        /* \"#utility.yul\":5274:5303   */\n      tag_52\n      jump\t// in\n    tag_142:\n        /* \"#utility.yul\":5269:5272   */\n      dup5\n        /* \"#utility.yul\":5265:5304   */\n      add\n        /* \"#utility.yul\":5258:5304   */\n      swap2\n      pop\n        /* \"#utility.yul\":5025:5310   */\n      pop\n        /* \"#utility.yul\":4933:5310   */\n      swap3\n      swap2\n      pop\n      pop\n      jump\t// out\n        /* \"#utility.yul\":5316:5849   */\n    tag_27:\n        /* \"#utility.yul\":5485:5489   */\n      0x00\n        /* \"#utility.yul\":5523:5525   */\n      0x60\n        /* \"#utility.yul\":5512:5521   */\n      dup3\n        /* \"#utility.yul\":5508:5526   */\n      add\n        /* \"#utility.yul\":5500:5526   */\n      swap1\n      pop\n        /* \"#utility.yul\":5536:5607   */\n      tag_144\n        /* \"#utility.yul\":5604:5605   */\n      0x00\n        /* \"#utility.yul\":5593:5602   */\n      dup4\n        /* \"#utility.yul\":5589:5606   */\n      add\n        /* \"#utility.yul\":5580:5586   */\n      dup7\n        /* \"#utility.yul\":5536:5607   */\n      tag_44\n      jump\t// in\n    tag_144:\n        /* \"#utility.yul\":5654:5663   */\n      dup2\n        /* \"#utility.yul\":5648:5652   */\n      dup2\n        /* \"#utility.yul\":5644:5664   */\n      sub\n        /* \"#utility.yul\":5639:5641   */\n      0x20\n        /* \"#utility.yul\":5628:5637   */\n      dup4\n        /* \"#utility.yul\":5624:5642   */\n      add\n        /* \"#utility.yul\":5617:5665   */\n      mstore\n        /* \"#utility.yul\":5682:5760   */\n      tag_145\n        /* \"#utility.yul\":5755:5759   */\n      dup2\n        /* \"#utility.yul\":5746:5752   */\n      dup6\n        /* \"#utility.yul\":5682:5760   */\n      tag_63\n      jump\t// in\n    tag_145:\n        /* \"#utility.yul\":5674:5760   */\n      swap1\n      pop\n        /* \"#utility.yul\":5770:5842   */\n      tag_146\n        /* \"#utility.yul\":5838:5840   */\n      0x40\n        /* \"#utility.yul\":5827:5836   */\n      dup4\n        /* \"#utility.yul\":5823:5841   */\n      add\n        /* \"#utility.yul\":5814:5820   */\n      dup5\n        /* \"#utility.yul\":5770:5842   */\n      tag_44\n      jump\t// in\n    tag_146:\n        /* \"#utility.yul\":5316:5849   */\n      swap5\n      swap4\n      pop\n      pop\n      pop\n      pop\n      jump\t// out\n        /* \"#utility.yul\":5855:6035   */\n    tag_64:\n        /* \"#utility.yul\":5903:5980   */\n      0x4e487b7100000000000000000000000000000000000000000000000000000000\n        /* \"#utility.yul\":5900:5901   */\n      0x00\n        /* \"#utility.yul\":5893:5981   */\n      mstore\n        /* \"#utility.yul\":6000:6004   */\n      0x22\n        /* \"#utility.yul\":5997:5998   */\n      0x04\n        /* \"#utility.yul\":5990:6005   */\n      mstore\n        /* \"#utility.yul\":6024:6028   */\n      0x24\n        /* \"#utility.yul\":6021:6022   */\n      0x00\n        /* \"#utility.yul\":6014:6029   */\n      revert\n        /* \"#utility.yul\":6041:6361   */\n    tag_38:\n        /* \"#utility.yul\":6085:6091   */\n      0x00\n        /* \"#utility.yul\":6122:6123   */\n      0x02\n        /* \"#utility.yul\":6116:6120   */\n      dup3\n        /* \"#utility.yul\":6112:6124   */\n      div\n        /* \"#utility.yul\":6102:6124   */\n      swap1\n      pop\n        /* \"#utility.yul\":6169:6170   */\n      0x01\n        /* \"#utility.yul\":6163:6167   */\n      dup3\n        /* \"#utility.yul\":6159:6171   */\n      and\n        /* \"#utility.yul\":6190:6208   */\n      dup1\n        /* \"#utility.yul\":6180:6261   */\n      tag_149\n      jumpi\n        /* \"#utility.yul\":6246:6250   */\n      0x7f\n        /* \"#utility.yul\":6238:6244   */\n      dup3\n        /* \"#utility.yul\":6234:6251   */\n      and\n        /* \"#utility.yul\":6224:6251   */\n      swap2\n      pop\n        /* \"#utility.yul\":6180:6261   */\n    tag_149:\n        /* \"#utility.yul\":6308:6310   */\n      0x20\n        /* \"#utility.yul\":6300:6306   */\n      dup3\n        /* \"#utility.yul\":6297:6311   */\n      lt\n        /* \"#utility.yul\":6277:6295   */\n      dup2\n        /* \"#utility.yul\":6274:6312   */\n      sub\n        /* \"#utility.yul\":6271:6355   */\n      tag_150\n      jumpi\n        /* \"#utility.yul\":6327:6345   */\n      tag_151\n      tag_64\n      jump\t// in\n    tag_151:\n        /* \"#utility.yul\":6271:6355   */\n    tag_150:\n        /* \"#utility.yul\":6092:6361   */\n      pop\n        /* \"#utility.yul\":6041:6361   */\n      swap2\n      swap1\n      pop\n      jump\t// out\n        /* \"#utility.yul\":6367:6508   */\n    tag_65:\n        /* \"#utility.yul\":6416:6420   */\n      0x00\n        /* \"#utility.yul\":6439:6442   */\n      dup2\n        /* \"#utility.yul\":6431:6442   */\n      swap1\n      pop\n        /* \"#utility.yul\":6462:6465   */\n      dup2\n        /* \"#utility.yul\":6459:6460   */\n      0x00\n        /* \"#utility.yul\":6452:6466   */\n      mstore\n        /* \"#utility.yul\":6496:6500   */\n      0x20\n        /* \"#utility.yul\":6493:6494   */\n      0x00\n        /* \"#utility.yul\":6483:6501   */\n      keccak256\n        /* \"#utility.yul\":6475:6501   */\n      swap1\n      pop\n        /* \"#utility.yul\":6367:6508   */\n      swap2\n      swap1\n      pop\n      jump\t// out\n        /* \"#utility.yul\":6514:6607   */\n    tag_66:\n        /* \"#utility.yul\":6551:6557   */\n      0x00\n        /* \"#utility.yul\":6598:6600   */\n      0x20\n        /* \"#utility.yul\":6593:6595   */\n      0x1f\n        /* \"#utility.yul\":6586:6591   */\n      dup4\n        /* \"#utility.yul\":6582:6596   */\n      add\n        /* \"#utility.yul\":6578:6601   */\n      div\n        /* \"#utility.yul\":6568:6601   */\n      swap1\n      pop\n        /* \"#utility.yul\":6514:6607   */\n      swap2\n      swap1\n      pop\n      jump\t// out\n        /* \"#utility.yul\":6613:6720   */\n    tag_67:\n        /* \"#utility.yul\":6657:6665   */\n      0x00\n        /* \"#utility.yul\":6707:6712   */\n      dup3\n        /* \"#utility.yul\":6701:6705   */\n      dup3\n        /* \"#utility.yul\":6697:6713   */\n      shl\n        /* \"#utility.yul\":6676:6713   */\n      swap1\n      pop\n        /* \"#utility.yul\":6613:6720   */\n      swap3\n      swap2\n      pop\n      pop\n      jump\t// out\n        /* \"#utility.yul\":6726:7119   */\n    tag_68:\n        /* \"#utility.yul\":6795:6801   */\n      0x00\n        /* \"#utility.yul\":6845:6846   */\n      0x08\n        /* \"#utility.yul\":6833:6843   */\n      dup4\n        /* \"#utility.yul\":6829:6847   */\n      mul\n        /* \"#utility.yul\":6868:6965   */\n      tag_156\n        /* \"#utility.yul\":6898:6964   */\n      0xffffffffffffffffffffffffffffffffffffffffffffffffffffffffffffffff\n        /* \"#utility.yul\":6887:6896   */\n      dup3\n        /* \"#utility.yul\":6868:6965   */\n      tag_67\n      jump\t// in\n    tag_156:\n        /* \"#utility.yul\":6986:7025   */\n      tag_157\n        /* \"#utility.yul\":7016:7024   */\n      dup7\n        /* \"#utility.yul\":7005:7014   */\n      dup4\n        /* \"#utility.yul\":6986:7025   */\n      tag_67\n      jump\t// in\n    tag_157:\n        /* \"#utility.yul\":6974:7025   */\n      swap6\n      pop\n        /* \"#utility.yul\":7058:7062   */\n      dup1\n        /* \"#utility.yul\":7054:7063   */\n      not\n        /* \"#utility.yul\":7047:7052   */\n      dup5\n        /* \"#utility.yul\":7043:7064   */\n      and\n        /* \"#utility.yul\":7034:7064   */\n      swap4\n      pop\n        /* \"#utility.yul\":7107:7111   */\n      dup1\n        /* \"#utility.yul\":7097:7105   */\n      dup7\n        /* \"#utility.yul\":7093:7112   */\n      and\n        /* \"#utility.yul\":7086:7091   */\n      dup5\n        /* \"#utility.yul\":7083:7113   */\n      or\n        /* \"#utility.yul\":7073:7113   */\n      swap3\n      pop\n        /* \"#utility.yul\":6802:7119   */\n      pop\n      pop\n        /* \"#utility.yul\":6726:7119   */\n      swap4\n      swap3\n      pop\n      pop\n      pop\n      jump\t// out\n        /* \"#utility.yul\":7125:7185   */\n    tag_69:\n        /* \"#utility.yul\":7153:7156   */\n      0x00\n        /* \"#utility.yul\":7174:7179   */\n      dup2\n        /* \"#utility.yul\":7167:7179   */\n      swap1\n      pop\n        /* \"#utility.yul\":7125:7185   */\n      swap2\n      swap1\n      pop\n      jump\t// out\n        /* \"#utility.yul\":7191:7333   */\n    tag_70:\n        /* \"#utility.yul\":7241:7250   */\n      0x00\n        /* \"#utility.yul\":7274:7327   */\n      tag_160\n        /* \"#utility.yul\":7292:7326   */\n      tag_161\n        /* \"#utility.yul\":7301:7325   */\n      tag_162\n        /* \"#utility.yul\":7319:7324   */\n      dup5\n        /* \"#utility.yul\":7301:7325   */\n      tag_43\n      jump\t// in\n    tag_162:\n        /* \"#utility.yul\":7292:7326   */\n      tag_69\n      jump\t// in\n    tag_161:\n        /* \"#utility.yul\":7274:7327   */\n      tag_43\n      jump\t// in\n    tag_160:\n        /* \"#utility.yul\":7261:7327   */\n      swap1\n      pop\n        /* \"#utility.yul\":7191:7333   */\n      swap2\n      swap1\n      pop\n      jump\t// out\n        /* \"#utility.yul\":7339:7414   */\n    tag_71:\n        /* \"#utility.yul\":7382:7385   */\n      0x00\n        /* \"#utility.yul\":7403:7408   */\n      dup2\n        /* \"#utility.yul\":7396:7408   */\n      swap1\n      pop\n        /* \"#utility.yul\":7339:7414   */\n      swap2\n      swap1\n      pop\n      jump\t// out\n        /* \"#utility.yul\":7420:7689   */\n    tag_72:\n        /* \"#utility.yul\":7530:7569   */\n      tag_165\n        /* \"#utility.yul\":7561:7568   */\n      dup4\n        /* \"#utility.yul\":7530:7569   */\n      tag_70\n      jump\t// in\n    tag_165:\n        /* \"#utility.yul\":7591:7682   */\n      tag_166\n        /* \"#utility.yul\":7640:7681   */\n      tag_167\n        /* \"#utility.yul\":7664:7680   */\n      dup3\n        /* \"#utility.yul\":7640:7681   */\n      tag_71\n      jump\t// in\n    tag_167:\n        /* \"#utility.yul\":7632:7638   */\n      dup5\n        /* \"#utility.yul\":7625:7629   */\n      dup5\n        /* \"#utility.yul\":7619:7630   */\n      sload\n        /* \"#utility.yul\":7591:7682   */\n      tag_68\n      jump\t// in\n    tag_166:\n        /* \"#utility.yul\":7585:7589   */\n      dup3\n        /* \"#utility.yul\":7578:7683   */\n      sstore\n        /* \"#utility.yul\":7496:7689   */\n      pop\n        /* \"#utility.yul\":7420:7689   */\n      pop\n      pop\n      pop\n      jump\t// out\n        /* \"#utility.yul\":7695:7768   */\n    tag_73:\n        /* \"#utility.yul\":7740:7743   */\n      0x00\n        /* \"#utility.yul\":7695:7768   */\n      swap1\n      jump\t// out\n        /* \"#utility.yul\":7774:7963   */\n    tag_74:\n        /* \"#utility.yul\":7851:7883   */\n      tag_170\n      tag_73\n      jump\t// in\n    tag_170:\n        /* \"#utility.yul\":7892:7957   */\n      tag_171\n        /* \"#utility.yul\":7950:7956   */\n      dup2\n        /* \"#utility.yul\":7942:7948   */\n      dup5\n        /* \"#utility.yul\":7936:7940   */\n      dup5\n        /* \"#utility.yul\":7892:7957   */\n      tag_72\n      jump\t// in\n    tag_171:\n        /* \"#utility.yul\":7827:7963   */\n      pop\n        /* \"#utility.yul\":7774:7963   */\n      pop\n      pop\n      jump\t// out\n        /* \"#utility.yul\":7969:8155   */\n    tag_75:\n        /* \"#utility.yul\":8029:8149   */\n    tag_173:\n        /* \"#utility.yul\":8046:8049   */\n      dup2\n        /* \"#utility.yul\":8039:8044   */\n      dup2\n        /* \"#utility.yul\":8036:8050   */\n      lt\n        /* \"#utility.yul\":8029:8149   */\n      iszero\n      tag_175\n      jumpi\n        /* \"#utility.yul\":8100:8139   */\n      tag_176\n        /* \"#utility.yul\":8137:8138   */\n      0x00\n        /* \"#utility.yul\":8130:8135   */\n      dup3\n        /* \"#utility.yul\":8100:8139   */\n      tag_74\n      jump\t// in\n    tag_176:\n        /* \"#utility.yul\":8073:8074   */\n      0x01\n        /* \"#utility.yul\":8066:8071   */\n      dup2\n        /* \"#utility.yul\":8062:8075   */\n      add\n        /* \"#utility.yul\":8053:8075   */\n      swap1\n      pop\n        /* \"#utility.yul\":8029:8149   */\n      jump(tag_173)\n    tag_175:\n        /* \"#utility.yul\":7969:8155   */\n      pop\n      pop\n      jump\t// out\n        /* \"#utility.yul\":8161:8704   */\n    tag_76:\n        /* \"#utility.yul\":8262:8264   */\n      0x1f\n        /* \"#utility.yul\":8257:8260   */\n      dup3\n        /* \"#utility.yul\":8254:8265   */\n      gt\n        /* \"#utility.yul\":8251:8697   */\n      iszero\n      tag_178\n      jumpi\n        /* \"#utility.yul\":8296:8334   */\n      tag_179\n        /* \"#utility.yul\":8328:8333   */\n      dup2\n        /* \"#utility.yul\":8296:8334   */\n      tag_65\n      jump\t// in\n    tag_179:\n        /* \"#utility.yul\":8380:8409   */\n      tag_180\n        /* \"#utility.yul\":8398:8408   */\n      dup5\n        /* \"#utility.yul\":8380:8409   */\n      tag_66\n      jump\t// in\n    tag_180:\n        /* \"#utility.yul\":8370:8378   */\n      dup2\n        /* \"#utility.yul\":8366:8410   */\n      add\n        /* \"#utility.yul\":8563:8565   */\n      0x20\n        /* \"#utility.yul\":8551:8561   */\n      dup6\n        /* \"#utility.yul\":8548:8566   */\n      lt\n        /* \"#utility.yul\":8545:8594   */\n      iszero\n      tag_181\n      jumpi\n        /* \"#utility.yul\":8584:8592   */\n      dup2\n        /* \"#utility.yul\":8569:8592   */\n      swap1\n      pop\n        /* \"#utility.yul\":8545:8594   */\n    tag_181:\n        /* \"#utility.yul\":8607:8687   */\n      tag_182\n        /* \"#utility.yul\":8663:8685   */\n      tag_183\n        /* \"#utility.yul\":8681:8684   */\n      dup6\n        /* \"#utility.yul\":8663:8685   */\n      tag_66\n      jump\t// in\n    tag_183:\n        /* \"#utility.yul\":8653:8661   */\n      dup4\n        /* \"#utility.yul\":8649:8686   */\n      add\n        /* \"#utility.yul\":8636:8647   */\n      dup3\n        /* \"#utility.yul\":8607:8687   */\n      tag_75\n      jump\t// in\n    tag_182:\n        /* \"#utility.yul\":8266:8697   */\n      pop\n      pop\n        /* \"#utility.yul\":8251:8697   */\n    tag_178:\n        /* \"#utility.yul\":8161:8704   */\n      pop\n      pop\n      pop\n      jump\t// out\n        /* \"#utility.yul\":8710:8827   */\n    tag_77:\n        /* \"#utility.yul\":8764:8772   */\n      0x00\n        /* \"#utility.yul\":8814:8819   */\n      dup3\n        /* \"#utility.yul\":8808:8812   */\n      dup3\n        /* \"#utility.yul\":8804:8820   */\n      shr\n        /* \"#utility.yul\":8783:8820   */\n      swap1\n      pop\n        /* \"#utility.yul\":8710:8827   */\n      swap3\n      swap2\n      pop\n      pop\n      jump\t// out\n        /* \"#utility.yul\":8833:9002   */\n    tag_78:\n        /* \"#utility.yul\":8877:8883   */\n      0x00\n        /* \"#utility.yul\":8910:8961   */\n      tag_186\n        /* \"#utility.yul\":8958:8959   */\n      0x00\n        /* \"#utility.yul\":8954:8960   */\n      not\n        /* \"#utility.yul\":8946:8951   */\n      dup5\n        /* \"#utility.yul\":8943:8944   */\n      0x08\n        /* \"#utility.yul\":8939:8952   */\n      mul\n        /* \"#utility.yul\":8910:8961   */\n      tag_77\n      jump\t// in\n    tag_186:\n        /* \"#utility.yul\":8906:8962   */\n      not\n        /* \"#utility.yul\":8991:8995   */\n      dup1\n        /* \"#utility.yul\":8985:8989   */\n      dup4\n        /* \"#utility.yul\":8981:8996   */\n      and\n        /* \"#utility.yul\":8971:8996   */\n      swap2\n      pop\n        /* \"#utility.yul\":8884:9002   */\n      pop\n        /* \"#utility.yul\":8833:9002   */\n      swap3\n      swap2\n      pop\n      pop\n      jump\t// out\n        /* \"#utility.yul\":9007:9302   */\n    tag_79:\n        /* \"#utility.yul\":9083:9087   */\n      0x00\n        /* \"#utility.yul\":9229:9258   */\n      tag_188\n        /* \"#utility.yul\":9254:9257   */\n      dup4\n        /* \"#utility.yul\":9248:9252   */\n      dup4\n        /* \"#utility.yul\":9229:9258   */\n      tag_78\n      jump\t// in\n    tag_188:\n        /* \"#utility.yul\":9221:9258   */\n      swap2\n      pop\n        /* \"#utility.yul\":9291:9294   */\n      dup3\n        /* \"#utility.yul\":9288:9289   */\n      0x02\n        /* \"#utility.yul\":9284:9295   */\n      mul\n        /* \"#utility.yul\":9278:9282   */\n      dup3\n        /* \"#utility.yul\":9275:9296   */\n      or\n        /* \"#utility.yul\":9267:9296   */\n      swap1\n      pop\n        /* \"#utility.yul\":9007:9302   */\n      swap3\n      swap2\n      pop\n      pop\n      jump\t// out\n        /* \"#utility.yul\":9307:10702   */\n    tag_34:\n        /* \"#utility.yul\":9424:9461   */\n      tag_190\n        /* \"#utility.yul\":9457:9460   */\n      dup3\n        /* \"#utility.yul\":9424:9461   */\n      tag_60\n      jump\t// in\n    tag_190:\n        /* \"#utility.yul\":9526:9544   */\n      0xffffffffffffffff\n        /* \"#utility.yul\":9518:9524   */\n      dup2\n        /* \"#utility.yul\":9515:9545   */\n      gt\n        /* \"#utility.yul\":9512:9568   */\n      iszero\n      tag_191\n      jumpi\n        /* \"#utility.yul\":9548:9566   */\n      tag_192\n      tag_53\n      jump\t// in\n    tag_192:\n        /* \"#utility.yul\":9512:9568   */\n    tag_191:\n        /* \"#utility.yul\":9592:9630   */\n      tag_193\n        /* \"#utility.yul\":9624:9628   */\n      dup3\n        /* \"#utility.yul\":9618:9629   */\n      sload\n        /* \"#utility.yul\":9592:9630   */\n      tag_38\n      jump\t// in\n    tag_193:\n        /* \"#utility.yul\":9677:9744   */\n      tag_194\n        /* \"#utility.yul\":9737:9743   */\n      dup3\n        /* \"#utility.yul\":9729:9735   */\n      dup3\n        /* \"#utility.yul\":9723:9727   */\n      dup6\n        /* \"#utility.yul\":9677:9744   */\n      tag_76\n      jump\t// in\n    tag_194:\n        /* \"#utility.yul\":9771:9772   */\n      0x00\n        /* \"#utility.yul\":9795:9799   */\n      0x20\n        /* \"#utility.yul\":9782:9799   */\n      swap1\n      pop\n        /* \"#utility.yul\":9827:9829   */\n      0x1f\n        /* \"#utility.yul\":9819:9825   */\n      dup4\n        /* \"#utility.yul\":9816:9830   */\n      gt\n        /* \"#utility.yul\":9844:9845   */\n      0x01\n        /* \"#utility.yul\":9839:10457   */\n      dup2\n      eq\n      tag_196\n      jumpi\n        /* \"#utility.yul\":10501:10502   */\n      0x00\n        /* \"#utility.yul\":10518:10524   */\n      dup5\n        /* \"#utility.yul\":10515:10592   */\n      iszero\n      tag_197\n      jumpi\n        /* \"#utility.yul\":10567:10576   */\n      dup3\n        /* \"#utility.yul\":10562:10565   */\n      dup8\n        /* \"#utility.yul\":10558:10577   */\n      add\n        /* \"#utility.yul\":10552:10578   */\n      mload\n        /* \"#utility.yul\":10543:10578   */\n      swap1\n      pop\n        /* \"#utility.yul\":10515:10592   */\n    tag_197:\n        /* \"#utility.yul\":10618:10685   */\n      tag_198\n        /* \"#utility.yul\":10678:10684   */\n      dup6\n        /* \"#utility.yul\":10671:10676   */\n      dup3\n        /* \"#utility.yul\":10618:10685   */\n      tag_79\n      jump\t// in\n    tag_198:\n        /* \"#utility.yul\":10612:10616   */\n      dup7\n        /* \"#utility.yul\":10605:10686   */\n      sstore\n        /* \"#utility.yul\":10474:10696   */\n      pop\n        /* \"#utility.yul\":9809:10696   */\n      jump(tag_195)\n        /* \"#utility.yul\":9839:10457   */\n    tag_196:\n        /* \"#utility.yul\":9891:9895   */\n      0x1f\n        /* \"#utility.yul\":9887:9896   */\n      not\n        /* \"#utility.yul\":9879:9885   */\n      dup5\n        /* \"#utility.yul\":9875:9897   */\n      and\n        /* \"#utility.yul\":9925:9962   */\n      tag_199\n        /* \"#utility.yul\":9957:9961   */\n      dup7\n        /* \"#utility.yul\":9925:9962   */\n      tag_65\n      jump\t// in\n    tag_199:\n        /* \"#utility.yul\":9984:9985   */\n      0x00\n        /* \"#utility.yul\":9998:10206   */\n    tag_200:\n        /* \"#utility.yul\":10012:10019   */\n      dup3\n        /* \"#utility.yul\":10009:10010   */\n      dup2\n        /* \"#utility.yul\":10006:10020   */\n      lt\n        /* \"#utility.yul\":9998:10206   */\n      iszero\n      tag_202\n      jumpi\n        /* \"#utility.yul\":10091:10100   */\n      dup5\n        /* \"#utility.yul\":10086:10089   */\n      dup10\n        /* \"#utility.yul\":10082:10101   */\n      add\n        /* \"#utility.yul\":10076:10102   */\n      mload\n        /* \"#utility.yul\":10068:10074   */\n      dup3\n        /* \"#utility.yul\":10061:10103   */\n      sstore\n        /* \"#utility.yul\":10142:10143   */\n      0x01\n        /* \"#utility.yul\":10134:10140   */\n      dup3\n        /* \"#utility.yul\":10130:10144   */\n      add\n        /* \"#utility.yul\":10120:10144   */\n      swap2\n      pop\n        /* \"#utility.yul\":10189:10191   */\n      0x20\n        /* \"#utility.yul\":10178:10187   */\n      dup6\n        /* \"#utility.yul\":10174:10192   */\n      add\n        /* \"#utility.yul\":10161:10192   */\n      swap5\n      pop\n        /* \"#utility.yul\":10035:10039   */\n      0x20\n        /* \"#utility.yul\":10032:10033   */\n      dup2\n        /* \"#utility.yul\":10028:10040   */\n      add\n        /* \"#utility.yul\":10023:10040   */\n      swap1\n      pop\n        /* \"#utility.yul\":9998:10206   */\n      jump(tag_200)\n    tag_202:\n        /* \"#utility.yul\":10234:10240   */\n      dup7\n        /* \"#utility.yul\":10225:10232   */\n      dup4\n        /* \"#utility.yul\":10222:10241   */\n      lt\n        /* \"#utility.yul\":10219:10398   */\n      iszero\n      tag_203\n      jumpi\n        /* \"#utility.yul\":10292:10301   */\n      dup5\n        /* \"#utility.yul\":10287:10290   */\n      dup10\n        /* \"#utility.yul\":10283:10302   */\n      add\n        /* \"#utility.yul\":10277:10303   */\n      mload\n        /* \"#utility.yul\":10335:10383   */\n      tag_204\n        /* \"#utility.yul\":10377:10381   */\n      0x1f\n        /* \"#utility.yul\":10369:10375   */\n      dup10\n        /* \"#utility.yul\":10365:10382   */\n      and\n        /* \"#utility.yul\":10354:10363   */\n      dup3\n        /* \"#utility.yul\":10335:10383   */\n      tag_78\n      jump\t// in\n    tag_204:\n        /* \"#utility.yul\":10327:10333   */\n      dup4\n        /* \"#utility.yul\":10320:10384   */\n      sstore\n        /* \"#utility.yul\":10242:10398   */\n      pop\n        /* \"#utility.yul\":10219:10398   */\n    tag_203:\n        /* \"#utility.yul\":10444:10445   */\n      0x01\n        /* \"#utility.yul\":10440:10441   */\n      0x02\n        /* \"#utility.yul\":10432:10438   */\n      dup9\n        /* \"#utility.yul\":10428:10442   */\n      mul\n        /* \"#utility.yul\":10424:10446   */\n      add\n        /* \"#utility.yul\":10418:10422   */\n      dup9\n        /* \"#utility.yul\":10411:10447   */\n      sstore\n        /* \"#utility.yul\":9846:10457   */\n      pop\n      pop\n      pop\n        /* \"#utility.yul\":9809:10696   */\n    tag_195:\n      pop\n        /* \"#utility.yul\":9399:10702   */\n      pop\n      pop\n      pop\n        /* \"#utility.yul\":9307:10702   */\n      pop\n      pop\n      jump\t// out\n\n    auxdata: 0xa2646970667358221220798efe5a4eb916617b827d1e603a1f30544d4853a83f3968a958eff9fea5aac964736f6c63430008130033\n}\n",
				"bytecode": {
					"linkReferences": {},
					"object": "608060405234801561001057600080fd5b5061088a806100206000396000f3fe608060405234801561001057600080fd5b50600436106100575760003560e01c80632e64cec11461005c57806343ede4ae1461007a5780636057361d146100985780638a5a6561146100b45780639e7a13ad146100d0575b600080fd5b610064610102565b604051610071919061027c565b60405180910390f35b61008261010b565b60405161008f919061027c565b60405180910390f35b6100b260048036038101906100ad91906102d7565b610111565b005b6100ce60048036038101906100c9919061044a565b610124565b005b6100ea60048036038101906100e591906102d7565b6101a1565b6040516100f993929190610538565b60405180910390f35b60008054905090565b60005481565b80600081905550610120610102565b5050565b60006040518060600160405280848152602001858152602001838152509050600181908060018154018082558091505060019003906000526020600020906003020160009091909190915060008201518160000155602082015181600101908161018e9190610782565b5060408201518160020155505050505050565b600181815481106101b157600080fd5b90600052602060002090600302016000915090508060000154908060010180546101da906105a5565b80601f0160208091040260200160405190810160405280929190818152602001828054610206906105a5565b80156102535780601f1061022857610100808354040283529160200191610253565b820191906000526020600020905b81548152906001019060200180831161023657829003601f168201915b5050505050908060020154905083565b6000819050919050565b61027681610263565b82525050565b6000602082019050610291600083018461026d565b92915050565b6000604051905090565b600080fd5b600080fd5b6102b481610263565b81146102bf57600080fd5b50565b6000813590506102d1816102ab565b92915050565b6000602082840312156102ed576102ec6102a1565b5b60006102fb848285016102c2565b91505092915050565b600080fd5b600080fd5b6000601f19601f8301169050919050565b7f4e487b7100000000000000000000000000000000000000000000000000000000600052604160045260246000fd5b6103578261030e565b810181811067ffffffffffffffff821117156103765761037561031f565b5b80604052505050565b6000610389610297565b9050610395828261034e565b919050565b600067ffffffffffffffff8211156103b5576103b461031f565b5b6103be8261030e565b9050602081019050919050565b82818337600083830152505050565b60006103ed6103e88461039a565b61037f565b90508281526020810184848401111561040957610408610309565b5b6104148482856103cb565b509392505050565b600082601f83011261043157610430610304565b5b81356104418482602086016103da565b91505092915050565b600080600060608486031215610463576104626102a1565b5b600084013567ffffffffffffffff811115610481576104806102a6565b5b61048d8682870161041c565b935050602061049e868287016102c2565b92505060406104af868287016102c2565b9150509250925092565b600081519050919050565b600082825260208201905092915050565b60005b838110156104f35780820151818401526020810190506104d8565b60008484015250505050565b600061050a826104b9565b61051481856104c4565b93506105248185602086016104d5565b61052d8161030e565b840191505092915050565b600060608201905061054d600083018661026d565b818103602083015261055f81856104ff565b905061056e604083018461026d565b949350505050565b7f4e487b7100000000000000000000000000000000000000000000000000000000600052602260045260246000fd5b600060028204905060018216806105bd57607f821691505b6020821081036105d0576105cf610576565b5b50919050565b60008190508160005260206000209050919050565b60006020601f8301049050919050565b600082821b905092915050565b6000600883026106387fffffffffffffffffffffffffffffffffffffffffffffffffffffffffffffffff826105fb565b61064286836105fb565b95508019841693508086168417925050509392505050565b6000819050919050565b600061067f61067a61067584610263565b61065a565b610263565b9050919050565b6000819050919050565b61069983610664565b6106ad6106a582610686565b848454610608565b825550505050565b600090565b6106c26106b5565b6106cd818484610690565b505050565b5b818110156106f1576106e66000826106ba565b6001810190506106d3565b5050565b601f82111561073657610707816105d6565b610710846105eb565b8101602085101561071f578190505b61073361072b856105eb565b8301826106d2565b50505b505050565b600082821c905092915050565b60006107596000198460080261073b565b1980831691505092915050565b60006107728383610748565b9150826002028217905092915050565b61078b826104b9565b67ffffffffffffffff8111156107a4576107a361031f565b5b6107ae82546105a5565b6107b98282856106f5565b600060209050601f8311600181146107ec57600084156107da578287015190505b6107e48582610766565b86555061084c565b601f1984166107fa866105d6565b60005b82811015610822578489015182556001820191506020850194506020810190506107fd565b8683101561083f578489015161083b601f891682610748565b8355505b6001600288020188555050505b50505050505056fea2646970667358221220798efe5a4eb916617b827d1e603a1f30544d4853a83f3968a958eff9fea5aac964736f6c63430008130033",
					"opcodes": "PUSH1 0x80 PUSH1 0x40 MSTORE CALLVALUE DUP1 ISZERO PUSH2 0x10 JUMPI PUSH1 0x0 DUP1 REVERT JUMPDEST POP PUSH2 0x88A DUP1 PUSH2 0x20 PUSH1 0x0 CODECOPY PUSH1 0x0 RETURN INVALID PUSH1 0x80 PUSH1 0x40 MSTORE CALLVALUE DUP1 ISZERO PUSH2 0x10 JUMPI PUSH1 0x0 DUP1 REVERT JUMPDEST POP PUSH1 0x4 CALLDATASIZE LT PUSH2 0x57 JUMPI PUSH1 0x0 CALLDATALOAD PUSH1 0xE0 SHR DUP1 PUSH4 0x2E64CEC1 EQ PUSH2 0x5C JUMPI DUP1 PUSH4 0x43EDE4AE EQ PUSH2 0x7A JUMPI DUP1 PUSH4 0x6057361D EQ PUSH2 0x98 JUMPI DUP1 PUSH4 0x8A5A6561 EQ PUSH2 0xB4 JUMPI DUP1 PUSH4 0x9E7A13AD EQ PUSH2 0xD0 JUMPI JUMPDEST PUSH1 0x0 DUP1 REVERT JUMPDEST PUSH2 0x64 PUSH2 0x102 JUMP JUMPDEST PUSH1 0x40 MLOAD PUSH2 0x71 SWAP2 SWAP1 PUSH2 0x27C JUMP JUMPDEST PUSH1 0x40 MLOAD DUP1 SWAP2 SUB SWAP1 RETURN JUMPDEST PUSH2 0x82 PUSH2 0x10B JUMP JUMPDEST PUSH1 0x40 MLOAD PUSH2 0x8F SWAP2 SWAP1 PUSH2 0x27C JUMP JUMPDEST PUSH1 0x40 MLOAD DUP1 SWAP2 SUB SWAP1 RETURN JUMPDEST PUSH2 0xB2 PUSH1 0x4 DUP1 CALLDATASIZE SUB DUP2 ADD SWAP1 PUSH2 0xAD SWAP2 SWAP1 PUSH2 0x2D7 JUMP JUMPDEST PUSH2 0x111 JUMP JUMPDEST STOP JUMPDEST PUSH2 0xCE PUSH1 0x4 DUP1 CALLDATASIZE SUB DUP2 ADD SWAP1 PUSH2 0xC9 SWAP2 SWAP1 PUSH2 0x44A JUMP JUMPDEST PUSH2 0x124 JUMP JUMPDEST STOP JUMPDEST PUSH2 0xEA PUSH1 0x4 DUP1 CALLDATASIZE SUB DUP2 ADD SWAP1 PUSH2 0xE5 SWAP2 SWAP1 PUSH2 0x2D7 JUMP JUMPDEST PUSH2 0x1A1 JUMP JUMPDEST PUSH1 0x40 MLOAD PUSH2 0xF9 SWAP4 SWAP3 SWAP2 SWAP1 PUSH2 0x538 JUMP JUMPDEST PUSH1 0x40 MLOAD DUP1 SWAP2 SUB SWAP1 RETURN JUMPDEST PUSH1 0x0 DUP1 SLOAD SWAP1 POP SWAP1 JUMP JUMPDEST PUSH1 0x0 SLOAD DUP2 JUMP JUMPDEST DUP1 PUSH1 0x0 DUP2 SWAP1 SSTORE POP PUSH2 0x120 PUSH2 0x102 JUMP JUMPDEST POP POP JUMP JUMPDEST PUSH1 0x0 PUSH1 0x40 MLOAD DUP1 PUSH1 0x60 ADD PUSH1 0x40 MSTORE DUP1 DUP5 DUP2 MSTORE PUSH1 0x20 ADD DUP6 DUP2 MSTORE PUSH1 0x20 ADD DUP4 DUP2 MSTORE POP SWAP1 POP PUSH1 0x1 DUP2 SWAP1 DUP1 PUSH1 0x1 DUP2 SLOAD ADD DUP1 DUP3 SSTORE DUP1 SWAP2 POP POP PUSH1 0x1 SWAP1 SUB SWAP1 PUSH1 0x0 MSTORE PUSH1 0x20 PUSH1 0x0 KECCAK256 SWAP1 PUSH1 0x3 MUL ADD PUSH1 0x0 SWAP1 SWAP2 SWAP1 SWAP2 SWAP1 SWAP2 POP PUSH1 0x0 DUP3 ADD MLOAD DUP2 PUSH1 0x0 ADD SSTORE PUSH1 0x20 DUP3 ADD MLOAD DUP2 PUSH1 0x1 ADD SWAP1 DUP2 PUSH2 0x18E SWAP2 SWAP1 PUSH2 0x782 JUMP JUMPDEST POP PUSH1 0x40 DUP3 ADD MLOAD DUP2 PUSH1 0x2 ADD SSTORE POP POP POP POP POP POP JUMP JUMPDEST PUSH1 0x1 DUP2 DUP2 SLOAD DUP2 LT PUSH2 0x1B1 JUMPI PUSH1 0x0 DUP1 REVERT JUMPDEST SWAP1 PUSH1 0x0 MSTORE PUSH1 0x20 PUSH1 0x0 KECCAK256 SWAP1 PUSH1 0x3 MUL ADD PUSH1 0x0 SWAP2 POP SWAP1 POP DUP1 PUSH1 0x0 ADD SLOAD SWAP1 DUP1 PUSH1 0x1 ADD DUP1 SLOAD PUSH2 0x1DA SWAP1 PUSH2 0x5A5 JUMP JUMPDEST DUP1 PUSH1 0x1F ADD PUSH1 0x20 DUP1 SWAP2 DIV MUL PUSH1 0x20 ADD PUSH1 0x40 MLOAD SWAP1 DUP2 ADD PUSH1 0x40 MSTORE DUP1 SWAP3 SWAP2 SWAP1 DUP2 DUP2 MSTORE PUSH1 0x20 ADD DUP3 DUP1 SLOAD PUSH2 0x206 SWAP1 PUSH2 0x5A5 JUMP JUMPDEST DUP1 ISZERO PUSH2 0x253 JUMPI DUP1 PUSH1 0x1F LT PUSH2 0x228 JUMPI PUSH2 0x100 DUP1 DUP4 SLOAD DIV MUL DUP4 MSTORE SWAP2 PUSH1 0x20 ADD SWAP2 PUSH2 0x253 JUMP JUMPDEST DUP3 ADD SWAP2 SWAP1 PUSH1 0x0 MSTORE PUSH1 0x20 PUSH1 0x0 KECCAK256 SWAP1 JUMPDEST DUP2 SLOAD DUP2 MSTORE SWAP1 PUSH1 0x1 ADD SWAP1 PUSH1 0x20 ADD DUP1 DUP4 GT PUSH2 0x236 JUMPI DUP3 SWAP1 SUB PUSH1 0x1F AND DUP3 ADD SWAP2 JUMPDEST POP POP POP POP POP SWAP1 DUP1 PUSH1 0x2 ADD SLOAD SWAP1 POP DUP4 JUMP JUMPDEST PUSH1 0x0 DUP2 SWAP1 POP SWAP2 SWAP1 POP JUMP JUMPDEST PUSH2 0x276 DUP2 PUSH2 0x263 JUMP JUMPDEST DUP3 MSTORE POP POP JUMP JUMPDEST PUSH1 0x0 PUSH1 0x20 DUP3 ADD SWAP1 POP PUSH2 0x291 PUSH1 0x0 DUP4 ADD DUP5 PUSH2 0x26D JUMP JUMPDEST SWAP3 SWAP2 POP POP JUMP JUMPDEST PUSH1 0x0 PUSH1 0x40 MLOAD SWAP1 POP SWAP1 JUMP JUMPDEST PUSH1 0x0 DUP1 REVERT JUMPDEST PUSH1 0x0 DUP1 REVERT JUMPDEST PUSH2 0x2B4 DUP2 PUSH2 0x263 JUMP JUMPDEST DUP2 EQ PUSH2 0x2BF JUMPI PUSH1 0x0 DUP1 REVERT JUMPDEST POP JUMP JUMPDEST PUSH1 0x0 DUP2 CALLDATALOAD SWAP1 POP PUSH2 0x2D1 DUP2 PUSH2 0x2AB JUMP JUMPDEST SWAP3 SWAP2 POP POP JUMP JUMPDEST PUSH1 0x0 PUSH1 0x20 DUP3 DUP5 SUB SLT ISZERO PUSH2 0x2ED JUMPI PUSH2 0x2EC PUSH2 0x2A1 JUMP JUMPDEST JUMPDEST PUSH1 0x0 PUSH2 0x2FB DUP5 DUP3 DUP6 ADD PUSH2 0x2C2 JUMP JUMPDEST SWAP2 POP POP SWAP3 SWAP2 POP POP JUMP JUMPDEST PUSH1 0x0 DUP1 REVERT JUMPDEST PUSH1 0x0 DUP1 REVERT JUMPDEST PUSH1 0x0 PUSH1 0x1F NOT PUSH1 0x1F DUP4 ADD AND SWAP1 POP SWAP2 SWAP1 POP JUMP JUMPDEST PUSH32 0x4E487B7100000000000000000000000000000000000000000000000000000000 PUSH1 0x0 MSTORE PUSH1 0x41 PUSH1 0x4 MSTORE PUSH1 0x24 PUSH1 0x0 REVERT JUMPDEST PUSH2 0x357 DUP3 PUSH2 0x30E JUMP JUMPDEST DUP2 ADD DUP2 DUP2 LT PUSH8 0xFFFFFFFFFFFFFFFF DUP3 GT OR ISZERO PUSH2 0x376 JUMPI PUSH2 0x375 PUSH2 0x31F JUMP JUMPDEST JUMPDEST DUP1 PUSH1 0x40 MSTORE POP POP POP JUMP JUMPDEST PUSH1 0x0 PUSH2 0x389 PUSH2 0x297 JUMP JUMPDEST SWAP1 POP PUSH2 0x395 DUP3 DUP3 PUSH2 0x34E JUMP JUMPDEST SWAP2 SWAP1 POP JUMP JUMPDEST PUSH1 0x0 PUSH8 0xFFFFFFFFFFFFFFFF DUP3 GT ISZERO PUSH2 0x3B5 JUMPI PUSH2 0x3B4 PUSH2 0x31F JUMP JUMPDEST JUMPDEST PUSH2 0x3BE DUP3 PUSH2 0x30E JUMP JUMPDEST SWAP1 POP PUSH1 0x20 DUP2 ADD SWAP1 POP SWAP2 SWAP1 POP JUMP JUMPDEST DUP3 DUP2 DUP4 CALLDATACOPY PUSH1 0x0 DUP4 DUP4 ADD MSTORE POP POP POP JUMP JUMPDEST PUSH1 0x0 PUSH2 0x3ED PUSH2 0x3E8 DUP5 PUSH2 0x39A JUMP JUMPDEST PUSH2 0x37F JUMP JUMPDEST SWAP1 POP DUP3 DUP2 MSTORE PUSH1 0x20 DUP2 ADD DUP5 DUP5 DUP5 ADD GT ISZERO PUSH2 0x409 JUMPI PUSH2 0x408 PUSH2 0x309 JUMP JUMPDEST JUMPDEST PUSH2 0x414 DUP5 DUP3 DUP6 PUSH2 0x3CB JUMP JUMPDEST POP SWAP4 SWAP3 POP POP POP JUMP JUMPDEST PUSH1 0x0 DUP3 PUSH1 0x1F DUP4 ADD SLT PUSH2 0x431 JUMPI PUSH2 0x430 PUSH2 0x304 JUMP JUMPDEST JUMPDEST DUP2 CALLDATALOAD PUSH2 0x441 DUP5 DUP3 PUSH1 0x20 DUP7 ADD PUSH2 0x3DA JUMP JUMPDEST SWAP2 POP POP SWAP3 SWAP2 POP POP JUMP JUMPDEST PUSH1 0x0 DUP1 PUSH1 0x0 PUSH1 0x60 DUP5 DUP7 SUB SLT ISZERO PUSH2 0x463 JUMPI PUSH2 0x462 PUSH2 0x2A1 JUMP JUMPDEST JUMPDEST PUSH1 0x0 DUP5 ADD CALLDATALOAD PUSH8 0xFFFFFFFFFFFFFFFF DUP2 GT ISZERO PUSH2 0x481 JUMPI PUSH2 0x480 PUSH2 0x2A6 JUMP JUMPDEST JUMPDEST PUSH2 0x48D DUP7 DUP3 DUP8 ADD PUSH2 0x41C JUMP JUMPDEST SWAP4 POP POP PUSH1 0x20 PUSH2 0x49E DUP7 DUP3 DUP8 ADD PUSH2 0x2C2 JUMP JUMPDEST SWAP3 POP POP PUSH1 0x40 PUSH2 0x4AF DUP7 DUP3 DUP8 ADD PUSH2 0x2C2 JUMP JUMPDEST SWAP2 POP POP SWAP3 POP SWAP3 POP SWAP3 JUMP JUMPDEST PUSH1 0x0 DUP2 MLOAD SWAP1 POP SWAP2 SWAP1 POP JUMP JUMPDEST PUSH1 0x0 DUP3 DUP3 MSTORE PUSH1 0x20 DUP3 ADD SWAP1 POP SWAP3 SWAP2 POP POP JUMP JUMPDEST PUSH1 0x0 JUMPDEST DUP4 DUP2 LT ISZERO PUSH2 0x4F3 JUMPI DUP1 DUP3 ADD MLOAD DUP2 DUP5 ADD MSTORE PUSH1 0x20 DUP2 ADD SWAP1 POP PUSH2 0x4D8 JUMP JUMPDEST PUSH1 0x0 DUP5 DUP5 ADD MSTORE POP POP POP POP JUMP JUMPDEST PUSH1 0x0 PUSH2 0x50A DUP3 PUSH2 0x4B9 JUMP JUMPDEST PUSH2 0x514 DUP2 DUP6 PUSH2 0x4C4 JUMP JUMPDEST SWAP4 POP PUSH2 0x524 DUP2 DUP6 PUSH1 0x20 DUP7 ADD PUSH2 0x4D5 JUMP JUMPDEST PUSH2 0x52D DUP2 PUSH2 0x30E JUMP JUMPDEST DUP5 ADD SWAP2 POP POP SWAP3 SWAP2 POP POP JUMP JUMPDEST PUSH1 0x0 PUSH1 0x60 DUP3 ADD SWAP1 POP PUSH2 0x54D PUSH1 0x0 DUP4 ADD DUP7 PUSH2 0x26D JUMP JUMPDEST DUP2 DUP2 SUB PUSH1 0x20 DUP4 ADD MSTORE PUSH2 0x55F DUP2 DUP6 PUSH2 0x4FF JUMP JUMPDEST SWAP1 POP PUSH2 0x56E PUSH1 0x40 DUP4 ADD DUP5 PUSH2 0x26D JUMP JUMPDEST SWAP5 SWAP4 POP POP POP POP JUMP JUMPDEST PUSH32 0x4E487B7100000000000000000000000000000000000000000000000000000000 PUSH1 0x0 MSTORE PUSH1 0x22 PUSH1 0x4 MSTORE PUSH1 0x24 PUSH1 0x0 REVERT JUMPDEST PUSH1 0x0 PUSH1 0x2 DUP3 DIV SWAP1 POP PUSH1 0x1 DUP3 AND DUP1 PUSH2 0x5BD JUMPI PUSH1 0x7F DUP3 AND SWAP2 POP JUMPDEST PUSH1 0x20 DUP3 LT DUP2 SUB PUSH2 0x5D0 JUMPI PUSH2 0x5CF PUSH2 0x576 JUMP JUMPDEST JUMPDEST POP SWAP2 SWAP1 POP JUMP JUMPDEST PUSH1 0x0 DUP2 SWAP1 POP DUP2 PUSH1 0x0 MSTORE PUSH1 0x20 PUSH1 0x0 KECCAK256 SWAP1 POP SWAP2 SWAP1 POP JUMP JUMPDEST PUSH1 0x0 PUSH1 0x20 PUSH1 0x1F DUP4 ADD DIV SWAP1 POP SWAP2 SWAP1 POP JUMP JUMPDEST PUSH1 0x0 DUP3 DUP3 SHL SWAP1 POP SWAP3 SWAP2 POP POP JUMP JUMPDEST PUSH1 0x0 PUSH1 0x8 DUP4 MUL PUSH2 0x638 PUSH32 0xFFFFFFFFFFFFFFFFFFFFFFFFFFFFFFFFFFFFFFFFFFFFFFFFFFFFFFFFFFFFFFFF DUP3 PUSH2 0x5FB JUMP JUMPDEST PUSH2 0x642 DUP7 DUP4 PUSH2 0x5FB JUMP JUMPDEST SWAP6 POP DUP1 NOT DUP5 AND SWAP4 POP DUP1 DUP7 AND DUP5 OR SWAP3 POP POP POP SWAP4 SWAP3 POP POP POP JUMP JUMPDEST PUSH1 0x0 DUP2 SWAP1 POP SWAP2 SWAP1 POP JUMP JUMPDEST PUSH1 0x0 PUSH2 0x67F PUSH2 0x67A PUSH2 0x675 DUP5 PUSH2 0x263 JUMP JUMPDEST PUSH2 0x65A JUMP JUMPDEST PUSH2 0x263 JUMP JUMPDEST SWAP1 POP SWAP2 SWAP1 POP JUMP JUMPDEST PUSH1 0x0 DUP2 SWAP1 POP SWAP2 SWAP1 POP JUMP JUMPDEST PUSH2 0x699 DUP4 PUSH2 0x664 JUMP JUMPDEST PUSH2 0x6AD PUSH2 0x6A5 DUP3 PUSH2 0x686 JUMP JUMPDEST DUP5 DUP5 SLOAD PUSH2 0x608 JUMP JUMPDEST DUP3 SSTORE POP POP POP POP JUMP JUMPDEST PUSH1 0x0 SWAP1 JUMP JUMPDEST PUSH2 0x6C2 PUSH2 0x6B5 JUMP JUMPDEST PUSH2 0x6CD DUP2 DUP5 DUP5 PUSH2 0x690 JUMP JUMPDEST POP POP POP JUMP JUMPDEST JUMPDEST DUP2 DUP2 LT ISZERO PUSH2 0x6F1 JUMPI PUSH2 0x6E6 PUSH1 0x0 DUP3 PUSH2 0x6BA JUMP JUMPDEST PUSH1 0x1 DUP2 ADD SWAP1 POP PUSH2 0x6D3 JUMP JUMPDEST POP POP JUMP JUMPDEST PUSH1 0x1F DUP3 GT ISZERO PUSH2 0x736 JUMPI PUSH2 0x707 DUP2 PUSH2 0x5D6 JUMP JUMPDEST PUSH2 0x710 DUP5 PUSH2 0x5EB JUMP JUMPDEST DUP2 ADD PUSH1 0x20 DUP6 LT ISZERO PUSH2 0x71F JUMPI DUP2 SWAP1 POP JUMPDEST PUSH2 0x733 PUSH2 0x72B DUP6 PUSH2 0x5EB JUMP JUMPDEST DUP4 ADD DUP3 PUSH2 0x6D2 JUMP JUMPDEST POP POP JUMPDEST POP POP POP JUMP JUMPDEST PUSH1 0x0 DUP3 DUP3 SHR SWAP1 POP SWAP3 SWAP2 POP POP JUMP JUMPDEST PUSH1 0x0 PUSH2 0x759 PUSH1 0x0 NOT DUP5 PUSH1 0x8 MUL PUSH2 0x73B JUMP JUMPDEST NOT DUP1 DUP4 AND SWAP2 POP POP SWAP3 SWAP2 POP POP JUMP JUMPDEST PUSH1 0x0 PUSH2 0x772 DUP4 DUP4 PUSH2 0x748 JUMP JUMPDEST SWAP2 POP DUP3 PUSH1 0x2 MUL DUP3 OR SWAP1 POP SWAP3 SWAP2 POP POP JUMP JUMPDEST PUSH2 0x78B DUP3 PUSH2 0x4B9 JUMP JUMPDEST PUSH8 0xFFFFFFFFFFFFFFFF DUP2 GT ISZERO PUSH2 0x7A4 JUMPI PUSH2 0x7A3 PUSH2 0x31F JUMP JUMPDEST JUMPDEST PUSH2 0x7AE DUP3 SLOAD PUSH2 0x5A5 JUMP JUMPDEST PUSH2 0x7B9 DUP3 DUP3 DUP6 PUSH2 0x6F5 JUMP JUMPDEST PUSH1 0x0 PUSH1 0x20 SWAP1 POP PUSH1 0x1F DUP4 GT PUSH1 0x1 DUP2 EQ PUSH2 0x7EC JUMPI PUSH1 0x0 DUP5 ISZERO PUSH2 0x7DA JUMPI DUP3 DUP8 ADD MLOAD SWAP1 POP JUMPDEST PUSH2 0x7E4 DUP6 DUP3 PUSH2 0x766 JUMP JUMPDEST DUP7 SSTORE POP PUSH2 0x84C JUMP JUMPDEST PUSH1 0x1F NOT DUP5 AND PUSH2 0x7FA DUP7 PUSH2 0x5D6 JUMP JUMPDEST PUSH1 0x0 JUMPDEST DUP3 DUP2 LT ISZERO PUSH2 0x822 JUMPI DUP5 DUP10 ADD MLOAD DUP3 SSTORE PUSH1 0x1 DUP3 ADD SWAP2 POP PUSH1 0x20 DUP6 ADD SWAP5 POP PUSH1 0x20 DUP2 ADD SWAP1 POP PUSH2 0x7FD JUMP JUMPDEST DUP7 DUP4 LT ISZERO PUSH2 0x83F JUMPI DUP5 DUP10 ADD MLOAD PUSH2 0x83B PUSH1 0x1F DUP10 AND DUP3 PUSH2 0x748 JUMP JUMPDEST DUP4 SSTORE POP JUMPDEST PUSH1 0x1 PUSH1 0x2 DUP9 MUL ADD DUP9 SSTORE POP POP POP JUMPDEST POP POP POP POP POP POP JUMP INVALID LOG2 PUSH5 0x6970667358 0x22 SLT KECCAK256 PUSH26 0x8EFE5A4EB916617B827D1E603A1F30544D4853A83F3968A958EF 0xF9 INVALID 0xA5 0xAA 0xC9 PUSH5 0x736F6C6343 STOP ADDMOD SGT STOP CALLER "
				},
				"gasEstimates": {
					"creation": {
						"codeDepositCost": "437200",
						"executionCost": "474",
						"totalCost": "437674"
					},
					"external": {
						"addperson(string,uint256,uint256)": "infinite",
						"favouriteNumber()": "2429",
						"people(uint256)": "infinite",
						"retrieve()": "2415",
						"store(uint256)": "24682"
					}
				},
				"methodIdentifiers": {
					"addperson(string,uint256,uint256)": "8a5a6561",
					"favouriteNumber()": "43ede4ae",
					"people(uint256)": "9e7a13ad",
					"retrieve()": "2e64cec1",
					"store(uint256)": "6057361d"
				}
			},
			"storageLayout": {
				"storage": [
					{
						"astId": 3,
						"contract": "contracts/Retrieve-gas.sol:SimpleStorage",
						"label": "favouriteNumber",
						"offset": 0,
						"slot": "0",
						"type": "t_uint256"
					},
					{
						"astId": 14,
						"contract": "contracts/Retrieve-gas.sol:SimpleStorage",
						"label": "people",
						"offset": 0,
						"slot": "1",
						"type": "t_array(t_struct(People)10_storage)dyn_storage"
					}
				],
				"types": {
					"t_array(t_struct(People)10_storage)dyn_storage": {
						"base": "t_struct(People)10_storage",
						"encoding": "dynamic_array",
						"label": "struct SimpleStorage.People[]",
						"numberOfBytes": "32"
					},
					"t_string_storage": {
						"encoding": "bytes",
						"label": "string",
						"numberOfBytes": "32"
					},
					"t_struct(People)10_storage": {
						"encoding": "inplace",
						"label": "struct SimpleStorage.People",
						"members": [
							{
								"astId": 5,
								"contract": "contracts/Retrieve-gas.sol:SimpleStorage",
								"label": "favouriteNumber",
								"offset": 0,
								"slot": "0",
								"type": "t_uint256"
							},
							{
								"astId": 7,
								"contract": "contracts/Retrieve-gas.sol:SimpleStorage",
								"label": "name",
								"offset": 0,
								"slot": "1",
								"type": "t_string_storage"
							},
							{
								"astId": 9,
								"contract": "contracts/Retrieve-gas.sol:SimpleStorage",
								"label": "age",
								"offset": 0,
								"slot": "2",
								"type": "t_uint256"
							}
						],
						"numberOfBytes": "96"
					},
					"t_uint256": {
						"encoding": "inplace",
						"label": "uint256",
						"numberOfBytes": "32"
					}
				}
			},
			"userdoc": {
				"kind": "user",
				"methods": {},
				"version": 1
			}
		}
	}
}