{
	"contracts/Mapping.sol": {
		"SimpleStorage": {
			"abi": [
				{
					"inputs": [
						{
							"internalType": "string",
							"name": "_name",
							"type": "string"
						},
						{
							"internalType": "uint256",
							"name": "_favouriteNumber",
							"type": "uint256"
						},
						{
							"internalType": "uint256",
							"name": "_age",
							"type": "uint256"
						}
					],
					"name": "addperson",
					"outputs": [],
					"stateMutability": "nonpayable",
					"type": "function"
				},
				{
					"inputs": [],
					"name": "favouriteNumber",
					"outputs": [
						{
							"internalType": "uint256",
							"name": "",
							"type": "uint256"
						}
					],
					"stateMutability": "view",
					"type": "function"
				},
				{
					"inputs": [
						{
							"internalType": "string",
							"name": "",
							"type": "string"
						}
					],
					"name": "nameToFavouriteNumber",
					"outputs": [
						{
							"internalType": "uint256",
							"name": "",
							"type": "uint256"
						}
					],
					"stateMutability": "view",
					"type": "function"
				},
				{
					"inputs": [
						{
							"internalType": "uint256",
							"name": "",
							"type": "uint256"
						}
					],
					"name": "people",
					"outputs": [
						{
							"internalType": "uint256",
							"name": "favouriteNumber",
							"type": "uint256"
						},
						{
							"internalType": "string",
							"name": "name",
							"type": "string"
						},
						{
							"internalType": "uint256",
							"name": "age",
							"type": "uint256"
						}
					],
					"stateMutability": "view",
					"type": "function"
				},
				{
					"inputs": [],
					"name": "retrieve",
					"outputs": [
						{
							"internalType": "uint256",
							"name": "",
							"type": "uint256"
						}
					],
					"stateMutability": "view",
					"type": "function"
				},
				{
					"inputs": [
						{
							"internalType": "uint256",
							"name": "_favouriteNumber",
							"type": "uint256"
						}
					],
					"name": "store",
					"outputs": [],
					"stateMutability": "nonpayable",
					"type": "function"
				}
			],
			"devdoc": {
				"kind": "dev",
				"methods": {},
				"version": 1
			},
			"evm": {
				"assembly": "    /* \"contracts/Mapping.sol\":57:1419  contract SimpleStorage {... */\n  mstore(0x40, 0x80)\n  callvalue\n  dup1\n  iszero\n  tag_1\n  jumpi\n  0x00\n  dup1\n  revert\ntag_1:\n  pop\n  dataSize(sub_0)\n  dup1\n  dataOffset(sub_0)\n  0x00\n  codecopy\n  0x00\n  return\nstop\n\nsub_0: assembly {\n        /* \"contracts/Mapping.sol\":57:1419  contract SimpleStorage {... */\n      mstore(0x40, 0x80)\n      callvalue\n      dup1\n      iszero\n      tag_1\n      jumpi\n      0x00\n      dup1\n      revert\n    tag_1:\n      pop\n      jumpi(tag_2, lt(calldatasize, 0x04))\n      shr(0xe0, calldataload(0x00))\n      dup1\n      0x2e64cec1\n      eq\n      tag_3\n      jumpi\n      dup1\n      0x43ede4ae\n      eq\n      tag_4\n      jumpi\n      dup1\n      0x6057361d\n      eq\n      tag_5\n      jumpi\n      dup1\n      0x8a5a6561\n      eq\n      tag_6\n      jumpi\n      dup1\n      0x9e7a13ad\n      eq\n      tag_7\n      jumpi\n      dup1\n      0xb2ac62ef\n      eq\n      tag_8\n      jumpi\n    tag_2:\n      0x00\n      dup1\n      revert\n        /* \"contracts/Mapping.sol\":1328:1413  function retrieve() public view returns (uint256) {... */\n    tag_3:\n      tag_9\n      tag_10\n      jump\t// in\n    tag_9:\n      mload(0x40)\n      tag_11\n      swap2\n      swap1\n      tag_12\n      jump\t// in\n    tag_11:\n      mload(0x40)\n      dup1\n      swap2\n      sub\n      swap1\n      return\n        /* \"contracts/Mapping.sol\":86:117  uint256 public  favouriteNumber */\n    tag_4:\n      tag_13\n      tag_14\n      jump\t// in\n    tag_13:\n      mload(0x40)\n      tag_15\n      swap2\n      swap1\n      tag_12\n      jump\t// in\n    tag_15:\n      mload(0x40)\n      dup1\n      swap2\n      sub\n      swap1\n      return\n        /* \"contracts/Mapping.sol\":1074:1192  function store(uint256 _favouriteNumber) public{... */\n    tag_5:\n      tag_16\n      0x04\n      dup1\n      calldatasize\n      sub\n      dup2\n      add\n      swap1\n      tag_17\n      swap2\n      swap1\n      tag_18\n      jump\t// in\n    tag_17:\n      tag_19\n      jump\t// in\n    tag_16:\n      stop\n        /* \"contracts/Mapping.sol\":784:1070  function addperson (string memory _name, uint256 _favouriteNumber, uint256 _age) public {... */\n    tag_6:\n      tag_20\n      0x04\n      dup1\n      calldatasize\n      sub\n      dup2\n      add\n      swap1\n      tag_21\n      swap2\n      swap1\n      tag_22\n      jump\t// in\n    tag_21:\n      tag_23\n      jump\t// in\n    tag_20:\n      stop\n        /* \"contracts/Mapping.sol\":630:653  People[] public  people */\n    tag_7:\n      tag_24\n      0x04\n      dup1\n      calldatasize\n      sub\n      dup2\n      add\n      swap1\n      tag_25\n      swap2\n      swap1\n      tag_18\n      jump\t// in\n    tag_25:\n      tag_26\n      jump\t// in\n    tag_24:\n      mload(0x40)\n      tag_27\n      swap4\n      swap3\n      swap2\n      swap1\n      tag_28\n      jump\t// in\n    tag_27:\n      mload(0x40)\n      dup1\n      swap2\n      sub\n      swap1\n      return\n        /* \"contracts/Mapping.sol\":457:513  mapping (string => uint256) public nameToFavouriteNumber */\n    tag_8:\n      tag_29\n      0x04\n      dup1\n      calldatasize\n      sub\n      dup2\n      add\n      swap1\n      tag_30\n      swap2\n      swap1\n      tag_31\n      jump\t// in\n    tag_30:\n      tag_32\n      jump\t// in\n    tag_29:\n      mload(0x40)\n      tag_33\n      swap2\n      swap1\n      tag_12\n      jump\t// in\n    tag_33:\n      mload(0x40)\n      dup1\n      swap2\n      sub\n      swap1\n      return\n        /* \"contracts/Mapping.sol\":1328:1413  function retrieve() public view returns (uint256) {... */\n    tag_10:\n        /* \"contracts/Mapping.sol\":1369:1376  uint256 */\n      0x00\n        /* \"contracts/Mapping.sol\":1393:1408  favouriteNumber */\n      dup1\n      sload\n        /* \"contracts/Mapping.sol\":1386:1408  return favouriteNumber */\n      swap1\n      pop\n        /* \"contracts/Mapping.sol\":1328:1413  function retrieve() public view returns (uint256) {... */\n      swap1\n      jump\t// out\n        /* \"contracts/Mapping.sol\":86:117  uint256 public  favouriteNumber */\n    tag_14:\n      sload(0x00)\n      dup2\n      jump\t// out\n        /* \"contracts/Mapping.sol\":1074:1192  function store(uint256 _favouriteNumber) public{... */\n    tag_19:\n        /* \"contracts/Mapping.sol\":1148:1164  _favouriteNumber */\n      dup1\n        /* \"contracts/Mapping.sol\":1130:1145  favouriteNumber */\n      0x00\n        /* \"contracts/Mapping.sol\":1130:1164  favouriteNumber = _favouriteNumber */\n      dup2\n      swap1\n      sstore\n      pop\n        /* \"contracts/Mapping.sol\":1173:1183  retrieve() */\n      tag_36\n        /* \"contracts/Mapping.sol\":1173:1181  retrieve */\n      tag_10\n        /* \"contracts/Mapping.sol\":1173:1183  retrieve() */\n      jump\t// in\n    tag_36:\n      pop\n        /* \"contracts/Mapping.sol\":1074:1192  function store(uint256 _favouriteNumber) public{... */\n      pop\n      jump\t// out\n        /* \"contracts/Mapping.sol\":784:1070  function addperson (string memory _name, uint256 _favouriteNumber, uint256 _age) public {... */\n    tag_23:\n        /* \"contracts/Mapping.sol\":882:905  People memory newperson */\n      0x00\n        /* \"contracts/Mapping.sol\":908:974  People({favouriteNumber:_favouriteNumber, name: _name, age: _age}) */\n      mload(0x40)\n      dup1\n      0x60\n      add\n      0x40\n      mstore\n      dup1\n        /* \"contracts/Mapping.sol\":932:948  _favouriteNumber */\n      dup5\n        /* \"contracts/Mapping.sol\":908:974  People({favouriteNumber:_favouriteNumber, name: _name, age: _age}) */\n      dup2\n      mstore\n      0x20\n      add\n        /* \"contracts/Mapping.sol\":956:961  _name */\n      dup6\n        /* \"contracts/Mapping.sol\":908:974  People({favouriteNumber:_favouriteNumber, name: _name, age: _age}) */\n      dup2\n      mstore\n      0x20\n      add\n        /* \"contracts/Mapping.sol\":968:972  _age */\n      dup4\n        /* \"contracts/Mapping.sol\":908:974  People({favouriteNumber:_favouriteNumber, name: _name, age: _age}) */\n      dup2\n      mstore\n      pop\n        /* \"contracts/Mapping.sol\":882:974  People memory newperson = People({favouriteNumber:_favouriteNumber, name: _name, age: _age}) */\n      swap1\n      pop\n        /* \"contracts/Mapping.sol\":984:990  people */\n      0x02\n        /* \"contracts/Mapping.sol\":996:1005  newperson */\n      dup2\n        /* \"contracts/Mapping.sol\":984:1006  people.push(newperson) */\n      swap1\n      dup1\n      0x01\n      dup2\n      sload\n      add\n      dup1\n      dup3\n      sstore\n      dup1\n      swap2\n      pop\n      pop\n      0x01\n      swap1\n      sub\n      swap1\n      0x00\n      mstore\n      keccak256(0x00, 0x20)\n      swap1\n      0x03\n      mul\n      add\n      0x00\n      swap1\n      swap2\n      swap1\n      swap2\n      swap1\n      swap2\n      pop\n      0x00\n      dup3\n      add\n      mload\n      dup2\n      0x00\n      add\n      sstore\n      0x20\n      dup3\n      add\n      mload\n      dup2\n      0x01\n      add\n      swap1\n      dup2\n      tag_39\n      swap2\n      swap1\n      tag_40\n      jump\t// in\n    tag_39:\n      pop\n      0x40\n      dup3\n      add\n      mload\n      dup2\n      0x02\n      add\n      sstore\n      pop\n      pop\n        /* \"contracts/Mapping.sol\":1047:1063  _favouriteNumber */\n      dup3\n        /* \"contracts/Mapping.sol\":1016:1037  nameToFavouriteNumber */\n      0x01\n        /* \"contracts/Mapping.sol\":1038:1043  _name */\n      dup6\n        /* \"contracts/Mapping.sol\":1016:1044  nameToFavouriteNumber[_name] */\n      mload(0x40)\n      tag_41\n      swap2\n      swap1\n      tag_42\n      jump\t// in\n    tag_41:\n      swap1\n      dup2\n      mstore\n      0x20\n      add\n      mload(0x40)\n      dup1\n      swap2\n      sub\n      swap1\n      keccak256\n        /* \"contracts/Mapping.sol\":1016:1063  nameToFavouriteNumber[_name] = _favouriteNumber */\n      dup2\n      swap1\n      sstore\n      pop\n        /* \"contracts/Mapping.sol\":872:1070  {... */\n      pop\n        /* \"contracts/Mapping.sol\":784:1070  function addperson (string memory _name, uint256 _favouriteNumber, uint256 _age) public {... */\n      pop\n      pop\n      pop\n      jump\t// out\n        /* \"contracts/Mapping.sol\":630:653  People[] public  people */\n    tag_26:\n      0x02\n      dup2\n      dup2\n      sload\n      dup2\n      lt\n      tag_43\n      jumpi\n      0x00\n      dup1\n      revert\n    tag_43:\n      swap1\n      0x00\n      mstore\n      keccak256(0x00, 0x20)\n      swap1\n      0x03\n      mul\n      add\n      0x00\n      swap2\n      pop\n      swap1\n      pop\n      dup1\n      0x00\n      add\n      sload\n      swap1\n      dup1\n      0x01\n      add\n      dup1\n      sload\n      tag_45\n      swap1\n      tag_46\n      jump\t// in\n    tag_45:\n      dup1\n      0x1f\n      add\n      0x20\n      dup1\n      swap2\n      div\n      mul\n      0x20\n      add\n      mload(0x40)\n      swap1\n      dup2\n      add\n      0x40\n      mstore\n      dup1\n      swap3\n      swap2\n      swap1\n      dup2\n      dup2\n      mstore\n      0x20\n      add\n      dup3\n      dup1\n      sload\n      tag_47\n      swap1\n      tag_46\n      jump\t// in\n    tag_47:\n      dup1\n      iszero\n      tag_48\n      jumpi\n      dup1\n      0x1f\n      lt\n      tag_49\n      jumpi\n      0x0100\n      dup1\n      dup4\n      sload\n      div\n      mul\n      dup4\n      mstore\n      swap2\n      0x20\n      add\n      swap2\n      jump(tag_48)\n    tag_49:\n      dup3\n      add\n      swap2\n      swap1\n      0x00\n      mstore\n      keccak256(0x00, 0x20)\n      swap1\n    tag_50:\n      dup2\n      sload\n      dup2\n      mstore\n      swap1\n      0x01\n      add\n      swap1\n      0x20\n      add\n      dup1\n      dup4\n      gt\n      tag_50\n      jumpi\n      dup3\n      swap1\n      sub\n      0x1f\n      and\n      dup3\n      add\n      swap2\n    tag_48:\n      pop\n      pop\n      pop\n      pop\n      pop\n      swap1\n      dup1\n      0x02\n      add\n      sload\n      swap1\n      pop\n      dup4\n      jump\t// out\n        /* \"contracts/Mapping.sol\":457:513  mapping (string => uint256) public nameToFavouriteNumber */\n    tag_32:\n      0x01\n      dup2\n      dup1\n      mload\n      0x20\n      dup2\n      add\n      dup3\n      add\n      dup1\n      mload\n      dup5\n      dup3\n      mstore\n      0x20\n      dup4\n      add\n      0x20\n      dup6\n      add\n      keccak256\n      dup2\n      dup4\n      mstore\n      dup1\n      swap6\n      pop\n      pop\n      pop\n      pop\n      pop\n      pop\n      0x00\n      swap2\n      pop\n      swap1\n      pop\n      sload\n      dup2\n      jump\t// out\n        /* \"#utility.yul\":7:84   */\n    tag_51:\n        /* \"#utility.yul\":44:51   */\n      0x00\n        /* \"#utility.yul\":73:78   */\n      dup2\n        /* \"#utility.yul\":62:78   */\n      swap1\n      pop\n        /* \"#utility.yul\":7:84   */\n      swap2\n      swap1\n      pop\n      jump\t// out\n        /* \"#utility.yul\":90:208   */\n    tag_52:\n        /* \"#utility.yul\":177:201   */\n      tag_93\n        /* \"#utility.yul\":195:200   */\n      dup2\n        /* \"#utility.yul\":177:201   */\n      tag_51\n      jump\t// in\n    tag_93:\n        /* \"#utility.yul\":172:175   */\n      dup3\n        /* \"#utility.yul\":165:202   */\n      mstore\n        /* \"#utility.yul\":90:208   */\n      pop\n      pop\n      jump\t// out\n        /* \"#utility.yul\":214:436   */\n    tag_12:\n        /* \"#utility.yul\":307:311   */\n      0x00\n        /* \"#utility.yul\":345:347   */\n      0x20\n        /* \"#utility.yul\":334:343   */\n      dup3\n        /* \"#utility.yul\":330:348   */\n      add\n        /* \"#utility.yul\":322:348   */\n      swap1\n      pop\n        /* \"#utility.yul\":358:429   */\n      tag_95\n        /* \"#utility.yul\":426:427   */\n      0x00\n        /* \"#utility.yul\":415:424   */\n      dup4\n        /* \"#utility.yul\":411:428   */\n      add\n        /* \"#utility.yul\":402:408   */\n      dup5\n        /* \"#utility.yul\":358:429   */\n      tag_52\n      jump\t// in\n    tag_95:\n        /* \"#utility.yul\":214:436   */\n      swap3\n      swap2\n      pop\n      pop\n      jump\t// out\n        /* \"#utility.yul\":442:517   */\n    tag_53:\n        /* \"#utility.yul\":475:481   */\n      0x00\n        /* \"#utility.yul\":508:510   */\n      0x40\n        /* \"#utility.yul\":502:511   */\n      mload\n        /* \"#utility.yul\":492:511   */\n      swap1\n      pop\n        /* \"#utility.yul\":442:517   */\n      swap1\n      jump\t// out\n        /* \"#utility.yul\":523:640   */\n    tag_54:\n        /* \"#utility.yul\":632:633   */\n      0x00\n        /* \"#utility.yul\":629:630   */\n      dup1\n        /* \"#utility.yul\":622:634   */\n      revert\n        /* \"#utility.yul\":646:763   */\n    tag_55:\n        /* \"#utility.yul\":755:756   */\n      0x00\n        /* \"#utility.yul\":752:753   */\n      dup1\n        /* \"#utility.yul\":745:757   */\n      revert\n        /* \"#utility.yul\":769:891   */\n    tag_56:\n        /* \"#utility.yul\":842:866   */\n      tag_100\n        /* \"#utility.yul\":860:865   */\n      dup2\n        /* \"#utility.yul\":842:866   */\n      tag_51\n      jump\t// in\n    tag_100:\n        /* \"#utility.yul\":835:840   */\n      dup2\n        /* \"#utility.yul\":832:867   */\n      eq\n        /* \"#utility.yul\":822:885   */\n      tag_101\n      jumpi\n        /* \"#utility.yul\":881:882   */\n      0x00\n        /* \"#utility.yul\":878:879   */\n      dup1\n        /* \"#utility.yul\":871:883   */\n      revert\n        /* \"#utility.yul\":822:885   */\n    tag_101:\n        /* \"#utility.yul\":769:891   */\n      pop\n      jump\t// out\n        /* \"#utility.yul\":897:1036   */\n    tag_57:\n        /* \"#utility.yul\":943:948   */\n      0x00\n        /* \"#utility.yul\":981:987   */\n      dup2\n        /* \"#utility.yul\":968:988   */\n      calldataload\n        /* \"#utility.yul\":959:988   */\n      swap1\n      pop\n        /* \"#utility.yul\":997:1030   */\n      tag_103\n        /* \"#utility.yul\":1024:1029   */\n      dup2\n        /* \"#utility.yul\":997:1030   */\n      tag_56\n      jump\t// in\n    tag_103:\n        /* \"#utility.yul\":897:1036   */\n      swap3\n      swap2\n      pop\n      pop\n      jump\t// out\n        /* \"#utility.yul\":1042:1371   */\n    tag_18:\n        /* \"#utility.yul\":1101:1107   */\n      0x00\n        /* \"#utility.yul\":1150:1152   */\n      0x20\n        /* \"#utility.yul\":1138:1147   */\n      dup3\n        /* \"#utility.yul\":1129:1136   */\n      dup5\n        /* \"#utility.yul\":1125:1148   */\n      sub\n        /* \"#utility.yul\":1121:1153   */\n      slt\n        /* \"#utility.yul\":1118:1237   */\n      iszero\n      tag_105\n      jumpi\n        /* \"#utility.yul\":1156:1235   */\n      tag_106\n      tag_54\n      jump\t// in\n    tag_106:\n        /* \"#utility.yul\":1118:1237   */\n    tag_105:\n        /* \"#utility.yul\":1276:1277   */\n      0x00\n        /* \"#utility.yul\":1301:1354   */\n      tag_107\n        /* \"#utility.yul\":1346:1353   */\n      dup5\n        /* \"#utility.yul\":1337:1343   */\n      dup3\n        /* \"#utility.yul\":1326:1335   */\n      dup6\n        /* \"#utility.yul\":1322:1344   */\n      add\n        /* \"#utility.yul\":1301:1354   */\n      tag_57\n      jump\t// in\n    tag_107:\n        /* \"#utility.yul\":1291:1354   */\n      swap2\n      pop\n        /* \"#utility.yul\":1247:1364   */\n      pop\n        /* \"#utility.yul\":1042:1371   */\n      swap3\n      swap2\n      pop\n      pop\n      jump\t// out\n        /* \"#utility.yul\":1377:1494   */\n    tag_58:\n        /* \"#utility.yul\":1486:1487   */\n      0x00\n        /* \"#utility.yul\":1483:1484   */\n      dup1\n        /* \"#utility.yul\":1476:1488   */\n      revert\n        /* \"#utility.yul\":1500:1617   */\n    tag_59:\n        /* \"#utility.yul\":1609:1610   */\n      0x00\n        /* \"#utility.yul\":1606:1607   */\n      dup1\n        /* \"#utility.yul\":1599:1611   */\n      revert\n        /* \"#utility.yul\":1623:1725   */\n    tag_60:\n        /* \"#utility.yul\":1664:1670   */\n      0x00\n        /* \"#utility.yul\":1715:1717   */\n      0x1f\n        /* \"#utility.yul\":1711:1718   */\n      not\n        /* \"#utility.yul\":1706:1708   */\n      0x1f\n        /* \"#utility.yul\":1699:1704   */\n      dup4\n        /* \"#utility.yul\":1695:1709   */\n      add\n        /* \"#utility.yul\":1691:1719   */\n      and\n        /* \"#utility.yul\":1681:1719   */\n      swap1\n      pop\n        /* \"#utility.yul\":1623:1725   */\n      swap2\n      swap1\n      pop\n      jump\t// out\n        /* \"#utility.yul\":1731:1911   */\n    tag_61:\n        /* \"#utility.yul\":1779:1856   */\n      0x4e487b7100000000000000000000000000000000000000000000000000000000\n        /* \"#utility.yul\":1776:1777   */\n      0x00\n        /* \"#utility.yul\":1769:1857   */\n      mstore\n        /* \"#utility.yul\":1876:1880   */\n      0x41\n        /* \"#utility.yul\":1873:1874   */\n      0x04\n        /* \"#utility.yul\":1866:1881   */\n      mstore\n        /* \"#utility.yul\":1900:1904   */\n      0x24\n        /* \"#utility.yul\":1897:1898   */\n      0x00\n        /* \"#utility.yul\":1890:1905   */\n      revert\n        /* \"#utility.yul\":1917:2198   */\n    tag_62:\n        /* \"#utility.yul\":2000:2027   */\n      tag_113\n        /* \"#utility.yul\":2022:2026   */\n      dup3\n        /* \"#utility.yul\":2000:2027   */\n      tag_60\n      jump\t// in\n    tag_113:\n        /* \"#utility.yul\":1992:1998   */\n      dup2\n        /* \"#utility.yul\":1988:2028   */\n      add\n        /* \"#utility.yul\":2130:2136   */\n      dup2\n        /* \"#utility.yul\":2118:2128   */\n      dup2\n        /* \"#utility.yul\":2115:2137   */\n      lt\n        /* \"#utility.yul\":2094:2112   */\n      0xffffffffffffffff\n        /* \"#utility.yul\":2082:2092   */\n      dup3\n        /* \"#utility.yul\":2079:2113   */\n      gt\n        /* \"#utility.yul\":2076:2138   */\n      or\n        /* \"#utility.yul\":2073:2161   */\n      iszero\n      tag_114\n      jumpi\n        /* \"#utility.yul\":2141:2159   */\n      tag_115\n      tag_61\n      jump\t// in\n    tag_115:\n        /* \"#utility.yul\":2073:2161   */\n    tag_114:\n        /* \"#utility.yul\":2181:2191   */\n      dup1\n        /* \"#utility.yul\":2177:2179   */\n      0x40\n        /* \"#utility.yul\":2170:2192   */\n      mstore\n        /* \"#utility.yul\":1960:2198   */\n      pop\n        /* \"#utility.yul\":1917:2198   */\n      pop\n      pop\n      jump\t// out\n        /* \"#utility.yul\":2204:2333   */\n    tag_63:\n        /* \"#utility.yul\":2238:2244   */\n      0x00\n        /* \"#utility.yul\":2265:2285   */\n      tag_117\n      tag_53\n      jump\t// in\n    tag_117:\n        /* \"#utility.yul\":2255:2285   */\n      swap1\n      pop\n        /* \"#utility.yul\":2294:2327   */\n      tag_118\n        /* \"#utility.yul\":2322:2326   */\n      dup3\n        /* \"#utility.yul\":2314:2320   */\n      dup3\n        /* \"#utility.yul\":2294:2327   */\n      tag_62\n      jump\t// in\n    tag_118:\n        /* \"#utility.yul\":2204:2333   */\n      swap2\n      swap1\n      pop\n      jump\t// out\n        /* \"#utility.yul\":2339:2647   */\n    tag_64:\n        /* \"#utility.yul\":2401:2405   */\n      0x00\n        /* \"#utility.yul\":2491:2509   */\n      0xffffffffffffffff\n        /* \"#utility.yul\":2483:2489   */\n      dup3\n        /* \"#utility.yul\":2480:2510   */\n      gt\n        /* \"#utility.yul\":2477:2533   */\n      iszero\n      tag_120\n      jumpi\n        /* \"#utility.yul\":2513:2531   */\n      tag_121\n      tag_61\n      jump\t// in\n    tag_121:\n        /* \"#utility.yul\":2477:2533   */\n    tag_120:\n        /* \"#utility.yul\":2551:2580   */\n      tag_122\n        /* \"#utility.yul\":2573:2579   */\n      dup3\n        /* \"#utility.yul\":2551:2580   */\n      tag_60\n      jump\t// in\n    tag_122:\n        /* \"#utility.yul\":2543:2580   */\n      swap1\n      pop\n        /* \"#utility.yul\":2635:2639   */\n      0x20\n        /* \"#utility.yul\":2629:2633   */\n      dup2\n        /* \"#utility.yul\":2625:2640   */\n      add\n        /* \"#utility.yul\":2617:2640   */\n      swap1\n      pop\n        /* \"#utility.yul\":2339:2647   */\n      swap2\n      swap1\n      pop\n      jump\t// out\n        /* \"#utility.yul\":2653:2799   */\n    tag_65:\n        /* \"#utility.yul\":2750:2756   */\n      dup3\n        /* \"#utility.yul\":2745:2748   */\n      dup2\n        /* \"#utility.yul\":2740:2743   */\n      dup4\n        /* \"#utility.yul\":2727:2757   */\n      calldatacopy\n        /* \"#utility.yul\":2791:2792   */\n      0x00\n        /* \"#utility.yul\":2782:2788   */\n      dup4\n        /* \"#utility.yul\":2777:2780   */\n      dup4\n        /* \"#utility.yul\":2773:2789   */\n      add\n        /* \"#utility.yul\":2766:2793   */\n      mstore\n        /* \"#utility.yul\":2653:2799   */\n      pop\n      pop\n      pop\n      jump\t// out\n        /* \"#utility.yul\":2805:3230   */\n    tag_66:\n        /* \"#utility.yul\":2883:2888   */\n      0x00\n        /* \"#utility.yul\":2908:2974   */\n      tag_125\n        /* \"#utility.yul\":2924:2973   */\n      tag_126\n        /* \"#utility.yul\":2966:2972   */\n      dup5\n        /* \"#utility.yul\":2924:2973   */\n      tag_64\n      jump\t// in\n    tag_126:\n        /* \"#utility.yul\":2908:2974   */\n      tag_63\n      jump\t// in\n    tag_125:\n        /* \"#utility.yul\":2899:2974   */\n      swap1\n      pop\n        /* \"#utility.yul\":2997:3003   */\n      dup3\n        /* \"#utility.yul\":2990:2995   */\n      dup2\n        /* \"#utility.yul\":2983:3004   */\n      mstore\n        /* \"#utility.yul\":3035:3039   */\n      0x20\n        /* \"#utility.yul\":3028:3033   */\n      dup2\n        /* \"#utility.yul\":3024:3040   */\n      add\n        /* \"#utility.yul\":3073:3076   */\n      dup5\n        /* \"#utility.yul\":3064:3070   */\n      dup5\n        /* \"#utility.yul\":3059:3062   */\n      dup5\n        /* \"#utility.yul\":3055:3071   */\n      add\n        /* \"#utility.yul\":3052:3077   */\n      gt\n        /* \"#utility.yul\":3049:3161   */\n      iszero\n      tag_127\n      jumpi\n        /* \"#utility.yul\":3080:3159   */\n      tag_128\n      tag_59\n      jump\t// in\n    tag_128:\n        /* \"#utility.yul\":3049:3161   */\n    tag_127:\n        /* \"#utility.yul\":3170:3224   */\n      tag_129\n        /* \"#utility.yul\":3217:3223   */\n      dup5\n        /* \"#utility.yul\":3212:3215   */\n      dup3\n        /* \"#utility.yul\":3207:3210   */\n      dup6\n        /* \"#utility.yul\":3170:3224   */\n      tag_65\n      jump\t// in\n    tag_129:\n        /* \"#utility.yul\":2889:3230   */\n      pop\n        /* \"#utility.yul\":2805:3230   */\n      swap4\n      swap3\n      pop\n      pop\n      pop\n      jump\t// out\n        /* \"#utility.yul\":3250:3590   */\n    tag_67:\n        /* \"#utility.yul\":3306:3311   */\n      0x00\n        /* \"#utility.yul\":3355:3358   */\n      dup3\n        /* \"#utility.yul\":3348:3352   */\n      0x1f\n        /* \"#utility.yul\":3340:3346   */\n      dup4\n        /* \"#utility.yul\":3336:3353   */\n      add\n        /* \"#utility.yul\":3332:3359   */\n      slt\n        /* \"#utility.yul\":3322:3444   */\n      tag_131\n      jumpi\n        /* \"#utility.yul\":3363:3442   */\n      tag_132\n      tag_58\n      jump\t// in\n    tag_132:\n        /* \"#utility.yul\":3322:3444   */\n    tag_131:\n        /* \"#utility.yul\":3480:3486   */\n      dup2\n        /* \"#utility.yul\":3467:3487   */\n      calldataload\n        /* \"#utility.yul\":3505:3584   */\n      tag_133\n        /* \"#utility.yul\":3580:3583   */\n      dup5\n        /* \"#utility.yul\":3572:3578   */\n      dup3\n        /* \"#utility.yul\":3565:3569   */\n      0x20\n        /* \"#utility.yul\":3557:3563   */\n      dup7\n        /* \"#utility.yul\":3553:3570   */\n      add\n        /* \"#utility.yul\":3505:3584   */\n      tag_66\n      jump\t// in\n    tag_133:\n        /* \"#utility.yul\":3496:3584   */\n      swap2\n      pop\n        /* \"#utility.yul\":3312:3590   */\n      pop\n        /* \"#utility.yul\":3250:3590   */\n      swap3\n      swap2\n      pop\n      pop\n      jump\t// out\n        /* \"#utility.yul\":3596:4395   */\n    tag_22:\n        /* \"#utility.yul\":3683:3689   */\n      0x00\n        /* \"#utility.yul\":3691:3697   */\n      dup1\n        /* \"#utility.yul\":3699:3705   */\n      0x00\n        /* \"#utility.yul\":3748:3750   */\n      0x60\n        /* \"#utility.yul\":3736:3745   */\n      dup5\n        /* \"#utility.yul\":3727:3734   */\n      dup7\n        /* \"#utility.yul\":3723:3746   */\n      sub\n        /* \"#utility.yul\":3719:3751   */\n      slt\n        /* \"#utility.yul\":3716:3835   */\n      iszero\n      tag_135\n      jumpi\n        /* \"#utility.yul\":3754:3833   */\n      tag_136\n      tag_54\n      jump\t// in\n    tag_136:\n        /* \"#utility.yul\":3716:3835   */\n    tag_135:\n        /* \"#utility.yul\":3902:3903   */\n      0x00\n        /* \"#utility.yul\":3891:3900   */\n      dup5\n        /* \"#utility.yul\":3887:3904   */\n      add\n        /* \"#utility.yul\":3874:3905   */\n      calldataload\n        /* \"#utility.yul\":3932:3950   */\n      0xffffffffffffffff\n        /* \"#utility.yul\":3924:3930   */\n      dup2\n        /* \"#utility.yul\":3921:3951   */\n      gt\n        /* \"#utility.yul\":3918:4035   */\n      iszero\n      tag_137\n      jumpi\n        /* \"#utility.yul\":3954:4033   */\n      tag_138\n      tag_55\n      jump\t// in\n    tag_138:\n        /* \"#utility.yul\":3918:4035   */\n    tag_137:\n        /* \"#utility.yul\":4059:4122   */\n      tag_139\n        /* \"#utility.yul\":4114:4121   */\n      dup7\n        /* \"#utility.yul\":4105:4111   */\n      dup3\n        /* \"#utility.yul\":4094:4103   */\n      dup8\n        /* \"#utility.yul\":4090:4112   */\n      add\n        /* \"#utility.yul\":4059:4122   */\n      tag_67\n      jump\t// in\n    tag_139:\n        /* \"#utility.yul\":4049:4122   */\n      swap4\n      pop\n        /* \"#utility.yul\":3845:4132   */\n      pop\n        /* \"#utility.yul\":4171:4173   */\n      0x20\n        /* \"#utility.yul\":4197:4250   */\n      tag_140\n        /* \"#utility.yul\":4242:4249   */\n      dup7\n        /* \"#utility.yul\":4233:4239   */\n      dup3\n        /* \"#utility.yul\":4222:4231   */\n      dup8\n        /* \"#utility.yul\":4218:4240   */\n      add\n        /* \"#utility.yul\":4197:4250   */\n      tag_57\n      jump\t// in\n    tag_140:\n        /* \"#utility.yul\":4187:4250   */\n      swap3\n      pop\n        /* \"#utility.yul\":4142:4260   */\n      pop\n        /* \"#utility.yul\":4299:4301   */\n      0x40\n        /* \"#utility.yul\":4325:4378   */\n      tag_141\n        /* \"#utility.yul\":4370:4377   */\n      dup7\n        /* \"#utility.yul\":4361:4367   */\n      dup3\n        /* \"#utility.yul\":4350:4359   */\n      dup8\n        /* \"#utility.yul\":4346:4368   */\n      add\n        /* \"#utility.yul\":4325:4378   */\n      tag_57\n      jump\t// in\n    tag_141:\n        /* \"#utility.yul\":4315:4378   */\n      swap2\n      pop\n        /* \"#utility.yul\":4270:4388   */\n      pop\n        /* \"#utility.yul\":3596:4395   */\n      swap3\n      pop\n      swap3\n      pop\n      swap3\n      jump\t// out\n        /* \"#utility.yul\":4401:4500   */\n    tag_68:\n        /* \"#utility.yul\":4453:4459   */\n      0x00\n        /* \"#utility.yul\":4487:4492   */\n      dup2\n        /* \"#utility.yul\":4481:4493   */\n      mload\n        /* \"#utility.yul\":4471:4493   */\n      swap1\n      pop\n        /* \"#utility.yul\":4401:4500   */\n      swap2\n      swap1\n      pop\n      jump\t// out\n        /* \"#utility.yul\":4506:4675   */\n    tag_69:\n        /* \"#utility.yul\":4590:4601   */\n      0x00\n        /* \"#utility.yul\":4624:4630   */\n      dup3\n        /* \"#utility.yul\":4619:4622   */\n      dup3\n        /* \"#utility.yul\":4612:4631   */\n      mstore\n        /* \"#utility.yul\":4664:4668   */\n      0x20\n        /* \"#utility.yul\":4659:4662   */\n      dup3\n        /* \"#utility.yul\":4655:4669   */\n      add\n        /* \"#utility.yul\":4640:4669   */\n      swap1\n      pop\n        /* \"#utility.yul\":4506:4675   */\n      swap3\n      swap2\n      pop\n      pop\n      jump\t// out\n        /* \"#utility.yul\":4681:4927   */\n    tag_70:\n        /* \"#utility.yul\":4762:4763   */\n      0x00\n        /* \"#utility.yul\":4772:4885   */\n    tag_145:\n        /* \"#utility.yul\":4786:4792   */\n      dup4\n        /* \"#utility.yul\":4783:4784   */\n      dup2\n        /* \"#utility.yul\":4780:4793   */\n      lt\n        /* \"#utility.yul\":4772:4885   */\n      iszero\n      tag_147\n      jumpi\n        /* \"#utility.yul\":4871:4872   */\n      dup1\n        /* \"#utility.yul\":4866:4869   */\n      dup3\n        /* \"#utility.yul\":4862:4873   */\n      add\n        /* \"#utility.yul\":4856:4874   */\n      mload\n        /* \"#utility.yul\":4852:4853   */\n      dup2\n        /* \"#utility.yul\":4847:4850   */\n      dup5\n        /* \"#utility.yul\":4843:4854   */\n      add\n        /* \"#utility.yul\":4836:4875   */\n      mstore\n        /* \"#utility.yul\":4808:4810   */\n      0x20\n        /* \"#utility.yul\":4805:4806   */\n      dup2\n        /* \"#utility.yul\":4801:4811   */\n      add\n        /* \"#utility.yul\":4796:4811   */\n      swap1\n      pop\n        /* \"#utility.yul\":4772:4885   */\n      jump(tag_145)\n    tag_147:\n        /* \"#utility.yul\":4919:4920   */\n      0x00\n        /* \"#utility.yul\":4910:4916   */\n      dup5\n        /* \"#utility.yul\":4905:4908   */\n      dup5\n        /* \"#utility.yul\":4901:4917   */\n      add\n        /* \"#utility.yul\":4894:4921   */\n      mstore\n        /* \"#utility.yul\":4743:4927   */\n      pop\n        /* \"#utility.yul\":4681:4927   */\n      pop\n      pop\n      pop\n      jump\t// out\n        /* \"#utility.yul\":4933:5310   */\n    tag_71:\n        /* \"#utility.yul\":5021:5024   */\n      0x00\n        /* \"#utility.yul\":5049:5088   */\n      tag_149\n        /* \"#utility.yul\":5082:5087   */\n      dup3\n        /* \"#utility.yul\":5049:5088   */\n      tag_68\n      jump\t// in\n    tag_149:\n        /* \"#utility.yul\":5104:5175   */\n      tag_150\n        /* \"#utility.yul\":5168:5174   */\n      dup2\n        /* \"#utility.yul\":5163:5166   */\n      dup6\n        /* \"#utility.yul\":5104:5175   */\n      tag_69\n      jump\t// in\n    tag_150:\n        /* \"#utility.yul\":5097:5175   */\n      swap4\n      pop\n        /* \"#utility.yul\":5184:5249   */\n      tag_151\n        /* \"#utility.yul\":5242:5248   */\n      dup2\n        /* \"#utility.yul\":5237:5240   */\n      dup6\n        /* \"#utility.yul\":5230:5234   */\n      0x20\n        /* \"#utility.yul\":5223:5228   */\n      dup7\n        /* \"#utility.yul\":5219:5235   */\n      add\n        /* \"#utility.yul\":5184:5249   */\n      tag_70\n      jump\t// in\n    tag_151:\n        /* \"#utility.yul\":5274:5303   */\n      tag_152\n        /* \"#utility.yul\":5296:5302   */\n      dup2\n        /* \"#utility.yul\":5274:5303   */\n      tag_60\n      jump\t// in\n    tag_152:\n        /* \"#utility.yul\":5269:5272   */\n      dup5\n        /* \"#utility.yul\":5265:5304   */\n      add\n        /* \"#utility.yul\":5258:5304   */\n      swap2\n      pop\n        /* \"#utility.yul\":5025:5310   */\n      pop\n        /* \"#utility.yul\":4933:5310   */\n      swap3\n      swap2\n      pop\n      pop\n      jump\t// out\n        /* \"#utility.yul\":5316:5849   */\n    tag_28:\n        /* \"#utility.yul\":5485:5489   */\n      0x00\n        /* \"#utility.yul\":5523:5525   */\n      0x60\n        /* \"#utility.yul\":5512:5521   */\n      dup3\n        /* \"#utility.yul\":5508:5526   */\n      add\n        /* \"#utility.yul\":5500:5526   */\n      swap1\n      pop\n        /* \"#utility.yul\":5536:5607   */\n      tag_154\n        /* \"#utility.yul\":5604:5605   */\n      0x00\n        /* \"#utility.yul\":5593:5602   */\n      dup4\n        /* \"#utility.yul\":5589:5606   */\n      add\n        /* \"#utility.yul\":5580:5586   */\n      dup7\n        /* \"#utility.yul\":5536:5607   */\n      tag_52\n      jump\t// in\n    tag_154:\n        /* \"#utility.yul\":5654:5663   */\n      dup2\n        /* \"#utility.yul\":5648:5652   */\n      dup2\n        /* \"#utility.yul\":5644:5664   */\n      sub\n        /* \"#utility.yul\":5639:5641   */\n      0x20\n        /* \"#utility.yul\":5628:5637   */\n      dup4\n        /* \"#utility.yul\":5624:5642   */\n      add\n        /* \"#utility.yul\":5617:5665   */\n      mstore\n        /* \"#utility.yul\":5682:5760   */\n      tag_155\n        /* \"#utility.yul\":5755:5759   */\n      dup2\n        /* \"#utility.yul\":5746:5752   */\n      dup6\n        /* \"#utility.yul\":5682:5760   */\n      tag_71\n      jump\t// in\n    tag_155:\n        /* \"#utility.yul\":5674:5760   */\n      swap1\n      pop\n        /* \"#utility.yul\":5770:5842   */\n      tag_156\n        /* \"#utility.yul\":5838:5840   */\n      0x40\n        /* \"#utility.yul\":5827:5836   */\n      dup4\n        /* \"#utility.yul\":5823:5841   */\n      add\n        /* \"#utility.yul\":5814:5820   */\n      dup5\n        /* \"#utility.yul\":5770:5842   */\n      tag_52\n      jump\t// in\n    tag_156:\n        /* \"#utility.yul\":5316:5849   */\n      swap5\n      swap4\n      pop\n      pop\n      pop\n      pop\n      jump\t// out\n        /* \"#utility.yul\":5855:6364   */\n    tag_31:\n        /* \"#utility.yul\":5924:5930   */\n      0x00\n        /* \"#utility.yul\":5973:5975   */\n      0x20\n        /* \"#utility.yul\":5961:5970   */\n      dup3\n        /* \"#utility.yul\":5952:5959   */\n      dup5\n        /* \"#utility.yul\":5948:5971   */\n      sub\n        /* \"#utility.yul\":5944:5976   */\n      slt\n        /* \"#utility.yul\":5941:6060   */\n      iszero\n      tag_158\n      jumpi\n        /* \"#utility.yul\":5979:6058   */\n      tag_159\n      tag_54\n      jump\t// in\n    tag_159:\n        /* \"#utility.yul\":5941:6060   */\n    tag_158:\n        /* \"#utility.yul\":6127:6128   */\n      0x00\n        /* \"#utility.yul\":6116:6125   */\n      dup3\n        /* \"#utility.yul\":6112:6129   */\n      add\n        /* \"#utility.yul\":6099:6130   */\n      calldataload\n        /* \"#utility.yul\":6157:6175   */\n      0xffffffffffffffff\n        /* \"#utility.yul\":6149:6155   */\n      dup2\n        /* \"#utility.yul\":6146:6176   */\n      gt\n        /* \"#utility.yul\":6143:6260   */\n      iszero\n      tag_160\n      jumpi\n        /* \"#utility.yul\":6179:6258   */\n      tag_161\n      tag_55\n      jump\t// in\n    tag_161:\n        /* \"#utility.yul\":6143:6260   */\n    tag_160:\n        /* \"#utility.yul\":6284:6347   */\n      tag_162\n        /* \"#utility.yul\":6339:6346   */\n      dup5\n        /* \"#utility.yul\":6330:6336   */\n      dup3\n        /* \"#utility.yul\":6319:6328   */\n      dup6\n        /* \"#utility.yul\":6315:6337   */\n      add\n        /* \"#utility.yul\":6284:6347   */\n      tag_67\n      jump\t// in\n    tag_162:\n        /* \"#utility.yul\":6274:6347   */\n      swap2\n      pop\n        /* \"#utility.yul\":6070:6357   */\n      pop\n        /* \"#utility.yul\":5855:6364   */\n      swap3\n      swap2\n      pop\n      pop\n      jump\t// out\n        /* \"#utility.yul\":6370:6550   */\n    tag_72:\n        /* \"#utility.yul\":6418:6495   */\n      0x4e487b7100000000000000000000000000000000000000000000000000000000\n        /* \"#utility.yul\":6415:6416   */\n      0x00\n        /* \"#utility.yul\":6408:6496   */\n      mstore\n        /* \"#utility.yul\":6515:6519   */\n      0x22\n        /* \"#utility.yul\":6512:6513   */\n      0x04\n        /* \"#utility.yul\":6505:6520   */\n      mstore\n        /* \"#utility.yul\":6539:6543   */\n      0x24\n        /* \"#utility.yul\":6536:6537   */\n      0x00\n        /* \"#utility.yul\":6529:6544   */\n      revert\n        /* \"#utility.yul\":6556:6876   */\n    tag_46:\n        /* \"#utility.yul\":6600:6606   */\n      0x00\n        /* \"#utility.yul\":6637:6638   */\n      0x02\n        /* \"#utility.yul\":6631:6635   */\n      dup3\n        /* \"#utility.yul\":6627:6639   */\n      div\n        /* \"#utility.yul\":6617:6639   */\n      swap1\n      pop\n        /* \"#utility.yul\":6684:6685   */\n      0x01\n        /* \"#utility.yul\":6678:6682   */\n      dup3\n        /* \"#utility.yul\":6674:6686   */\n      and\n        /* \"#utility.yul\":6705:6723   */\n      dup1\n        /* \"#utility.yul\":6695:6776   */\n      tag_165\n      jumpi\n        /* \"#utility.yul\":6761:6765   */\n      0x7f\n        /* \"#utility.yul\":6753:6759   */\n      dup3\n        /* \"#utility.yul\":6749:6766   */\n      and\n        /* \"#utility.yul\":6739:6766   */\n      swap2\n      pop\n        /* \"#utility.yul\":6695:6776   */\n    tag_165:\n        /* \"#utility.yul\":6823:6825   */\n      0x20\n        /* \"#utility.yul\":6815:6821   */\n      dup3\n        /* \"#utility.yul\":6812:6826   */\n      lt\n        /* \"#utility.yul\":6792:6810   */\n      dup2\n        /* \"#utility.yul\":6789:6827   */\n      sub\n        /* \"#utility.yul\":6786:6870   */\n      tag_166\n      jumpi\n        /* \"#utility.yul\":6842:6860   */\n      tag_167\n      tag_72\n      jump\t// in\n    tag_167:\n        /* \"#utility.yul\":6786:6870   */\n    tag_166:\n        /* \"#utility.yul\":6607:6876   */\n      pop\n        /* \"#utility.yul\":6556:6876   */\n      swap2\n      swap1\n      pop\n      jump\t// out\n        /* \"#utility.yul\":6882:7023   */\n    tag_73:\n        /* \"#utility.yul\":6931:6935   */\n      0x00\n        /* \"#utility.yul\":6954:6957   */\n      dup2\n        /* \"#utility.yul\":6946:6957   */\n      swap1\n      pop\n        /* \"#utility.yul\":6977:6980   */\n      dup2\n        /* \"#utility.yul\":6974:6975   */\n      0x00\n        /* \"#utility.yul\":6967:6981   */\n      mstore\n        /* \"#utility.yul\":7011:7015   */\n      0x20\n        /* \"#utility.yul\":7008:7009   */\n      0x00\n        /* \"#utility.yul\":6998:7016   */\n      keccak256\n        /* \"#utility.yul\":6990:7016   */\n      swap1\n      pop\n        /* \"#utility.yul\":6882:7023   */\n      swap2\n      swap1\n      pop\n      jump\t// out\n        /* \"#utility.yul\":7029:7122   */\n    tag_74:\n        /* \"#utility.yul\":7066:7072   */\n      0x00\n        /* \"#utility.yul\":7113:7115   */\n      0x20\n        /* \"#utility.yul\":7108:7110   */\n      0x1f\n        /* \"#utility.yul\":7101:7106   */\n      dup4\n        /* \"#utility.yul\":7097:7111   */\n      add\n        /* \"#utility.yul\":7093:7116   */\n      div\n        /* \"#utility.yul\":7083:7116   */\n      swap1\n      pop\n        /* \"#utility.yul\":7029:7122   */\n      swap2\n      swap1\n      pop\n      jump\t// out\n        /* \"#utility.yul\":7128:7235   */\n    tag_75:\n        /* \"#utility.yul\":7172:7180   */\n      0x00\n        /* \"#utility.yul\":7222:7227   */\n      dup3\n        /* \"#utility.yul\":7216:7220   */\n      dup3\n        /* \"#utility.yul\":7212:7228   */\n      shl\n        /* \"#utility.yul\":7191:7228   */\n      swap1\n      pop\n        /* \"#utility.yul\":7128:7235   */\n      swap3\n      swap2\n      pop\n      pop\n      jump\t// out\n        /* \"#utility.yul\":7241:7634   */\n    tag_76:\n        /* \"#utility.yul\":7310:7316   */\n      0x00\n        /* \"#utility.yul\":7360:7361   */\n      0x08\n        /* \"#utility.yul\":7348:7358   */\n      dup4\n        /* \"#utility.yul\":7344:7362   */\n      mul\n        /* \"#utility.yul\":7383:7480   */\n      tag_172\n        /* \"#utility.yul\":7413:7479   */\n      0xffffffffffffffffffffffffffffffffffffffffffffffffffffffffffffffff\n        /* \"#utility.yul\":7402:7411   */\n      dup3\n        /* \"#utility.yul\":7383:7480   */\n      tag_75\n      jump\t// in\n    tag_172:\n        /* \"#utility.yul\":7501:7540   */\n      tag_173\n        /* \"#utility.yul\":7531:7539   */\n      dup7\n        /* \"#utility.yul\":7520:7529   */\n      dup4\n        /* \"#utility.yul\":7501:7540   */\n      tag_75\n      jump\t// in\n    tag_173:\n        /* \"#utility.yul\":7489:7540   */\n      swap6\n      pop\n        /* \"#utility.yul\":7573:7577   */\n      dup1\n        /* \"#utility.yul\":7569:7578   */\n      not\n        /* \"#utility.yul\":7562:7567   */\n      dup5\n        /* \"#utility.yul\":7558:7579   */\n      and\n        /* \"#utility.yul\":7549:7579   */\n      swap4\n      pop\n        /* \"#utility.yul\":7622:7626   */\n      dup1\n        /* \"#utility.yul\":7612:7620   */\n      dup7\n        /* \"#utility.yul\":7608:7627   */\n      and\n        /* \"#utility.yul\":7601:7606   */\n      dup5\n        /* \"#utility.yul\":7598:7628   */\n      or\n        /* \"#utility.yul\":7588:7628   */\n      swap3\n      pop\n        /* \"#utility.yul\":7317:7634   */\n      pop\n      pop\n        /* \"#utility.yul\":7241:7634   */\n      swap4\n      swap3\n      pop\n      pop\n      pop\n      jump\t// out\n        /* \"#utility.yul\":7640:7700   */\n    tag_77:\n        /* \"#utility.yul\":7668:7671   */\n      0x00\n        /* \"#utility.yul\":7689:7694   */\n      dup2\n        /* \"#utility.yul\":7682:7694   */\n      swap1\n      pop\n        /* \"#utility.yul\":7640:7700   */\n      swap2\n      swap1\n      pop\n      jump\t// out\n        /* \"#utility.yul\":7706:7848   */\n    tag_78:\n        /* \"#utility.yul\":7756:7765   */\n      0x00\n        /* \"#utility.yul\":7789:7842   */\n      tag_176\n        /* \"#utility.yul\":7807:7841   */\n      tag_177\n        /* \"#utility.yul\":7816:7840   */\n      tag_178\n        /* \"#utility.yul\":7834:7839   */\n      dup5\n        /* \"#utility.yul\":7816:7840   */\n      tag_51\n      jump\t// in\n    tag_178:\n        /* \"#utility.yul\":7807:7841   */\n      tag_77\n      jump\t// in\n    tag_177:\n        /* \"#utility.yul\":7789:7842   */\n      tag_51\n      jump\t// in\n    tag_176:\n        /* \"#utility.yul\":7776:7842   */\n      swap1\n      pop\n        /* \"#utility.yul\":7706:7848   */\n      swap2\n      swap1\n      pop\n      jump\t// out\n        /* \"#utility.yul\":7854:7929   */\n    tag_79:\n        /* \"#utility.yul\":7897:7900   */\n      0x00\n        /* \"#utility.yul\":7918:7923   */\n      dup2\n        /* \"#utility.yul\":7911:7923   */\n      swap1\n      pop\n        /* \"#utility.yul\":7854:7929   */\n      swap2\n      swap1\n      pop\n      jump\t// out\n        /* \"#utility.yul\":7935:8204   */\n    tag_80:\n        /* \"#utility.yul\":8045:8084   */\n      tag_181\n        /* \"#utility.yul\":8076:8083   */\n      dup4\n        /* \"#utility.yul\":8045:8084   */\n      tag_78\n      jump\t// in\n    tag_181:\n        /* \"#utility.yul\":8106:8197   */\n      tag_182\n        /* \"#utility.yul\":8155:8196   */\n      tag_183\n        /* \"#utility.yul\":8179:8195   */\n      dup3\n        /* \"#utility.yul\":8155:8196   */\n      tag_79\n      jump\t// in\n    tag_183:\n        /* \"#utility.yul\":8147:8153   */\n      dup5\n        /* \"#utility.yul\":8140:8144   */\n      dup5\n        /* \"#utility.yul\":8134:8145   */\n      sload\n        /* \"#utility.yul\":8106:8197   */\n      tag_76\n      jump\t// in\n    tag_182:\n        /* \"#utility.yul\":8100:8104   */\n      dup3\n        /* \"#utility.yul\":8093:8198   */\n      sstore\n        /* \"#utility.yul\":8011:8204   */\n      pop\n        /* \"#utility.yul\":7935:8204   */\n      pop\n      pop\n      pop\n      jump\t// out\n        /* \"#utility.yul\":8210:8283   */\n    tag_81:\n        /* \"#utility.yul\":8255:8258   */\n      0x00\n        /* \"#utility.yul\":8210:8283   */\n      swap1\n      jump\t// out\n        /* \"#utility.yul\":8289:8478   */\n    tag_82:\n        /* \"#utility.yul\":8366:8398   */\n      tag_186\n      tag_81\n      jump\t// in\n    tag_186:\n        /* \"#utility.yul\":8407:8472   */\n      tag_187\n        /* \"#utility.yul\":8465:8471   */\n      dup2\n        /* \"#utility.yul\":8457:8463   */\n      dup5\n        /* \"#utility.yul\":8451:8455   */\n      dup5\n        /* \"#utility.yul\":8407:8472   */\n      tag_80\n      jump\t// in\n    tag_187:\n        /* \"#utility.yul\":8342:8478   */\n      pop\n        /* \"#utility.yul\":8289:8478   */\n      pop\n      pop\n      jump\t// out\n        /* \"#utility.yul\":8484:8670   */\n    tag_83:\n        /* \"#utility.yul\":8544:8664   */\n    tag_189:\n        /* \"#utility.yul\":8561:8564   */\n      dup2\n        /* \"#utility.yul\":8554:8559   */\n      dup2\n        /* \"#utility.yul\":8551:8565   */\n      lt\n        /* \"#utility.yul\":8544:8664   */\n      iszero\n      tag_191\n      jumpi\n        /* \"#utility.yul\":8615:8654   */\n      tag_192\n        /* \"#utility.yul\":8652:8653   */\n      0x00\n        /* \"#utility.yul\":8645:8650   */\n      dup3\n        /* \"#utility.yul\":8615:8654   */\n      tag_82\n      jump\t// in\n    tag_192:\n        /* \"#utility.yul\":8588:8589   */\n      0x01\n        /* \"#utility.yul\":8581:8586   */\n      dup2\n        /* \"#utility.yul\":8577:8590   */\n      add\n        /* \"#utility.yul\":8568:8590   */\n      swap1\n      pop\n        /* \"#utility.yul\":8544:8664   */\n      jump(tag_189)\n    tag_191:\n        /* \"#utility.yul\":8484:8670   */\n      pop\n      pop\n      jump\t// out\n        /* \"#utility.yul\":8676:9219   */\n    tag_84:\n        /* \"#utility.yul\":8777:8779   */\n      0x1f\n        /* \"#utility.yul\":8772:8775   */\n      dup3\n        /* \"#utility.yul\":8769:8780   */\n      gt\n        /* \"#utility.yul\":8766:9212   */\n      iszero\n      tag_194\n      jumpi\n        /* \"#utility.yul\":8811:8849   */\n      tag_195\n        /* \"#utility.yul\":8843:8848   */\n      dup2\n        /* \"#utility.yul\":8811:8849   */\n      tag_73\n      jump\t// in\n    tag_195:\n        /* \"#utility.yul\":8895:8924   */\n      tag_196\n        /* \"#utility.yul\":8913:8923   */\n      dup5\n        /* \"#utility.yul\":8895:8924   */\n      tag_74\n      jump\t// in\n    tag_196:\n        /* \"#utility.yul\":8885:8893   */\n      dup2\n        /* \"#utility.yul\":8881:8925   */\n      add\n        /* \"#utility.yul\":9078:9080   */\n      0x20\n        /* \"#utility.yul\":9066:9076   */\n      dup6\n        /* \"#utility.yul\":9063:9081   */\n      lt\n        /* \"#utility.yul\":9060:9109   */\n      iszero\n      tag_197\n      jumpi\n        /* \"#utility.yul\":9099:9107   */\n      dup2\n        /* \"#utility.yul\":9084:9107   */\n      swap1\n      pop\n        /* \"#utility.yul\":9060:9109   */\n    tag_197:\n        /* \"#utility.yul\":9122:9202   */\n      tag_198\n        /* \"#utility.yul\":9178:9200   */\n      tag_199\n        /* \"#utility.yul\":9196:9199   */\n      dup6\n        /* \"#utility.yul\":9178:9200   */\n      tag_74\n      jump\t// in\n    tag_199:\n        /* \"#utility.yul\":9168:9176   */\n      dup4\n        /* \"#utility.yul\":9164:9201   */\n      add\n        /* \"#utility.yul\":9151:9162   */\n      dup3\n        /* \"#utility.yul\":9122:9202   */\n      tag_83\n      jump\t// in\n    tag_198:\n        /* \"#utility.yul\":8781:9212   */\n      pop\n      pop\n        /* \"#utility.yul\":8766:9212   */\n    tag_194:\n        /* \"#utility.yul\":8676:9219   */\n      pop\n      pop\n      pop\n      jump\t// out\n        /* \"#utility.yul\":9225:9342   */\n    tag_85:\n        /* \"#utility.yul\":9279:9287   */\n      0x00\n        /* \"#utility.yul\":9329:9334   */\n      dup3\n        /* \"#utility.yul\":9323:9327   */\n      dup3\n        /* \"#utility.yul\":9319:9335   */\n      shr\n        /* \"#utility.yul\":9298:9335   */\n      swap1\n      pop\n        /* \"#utility.yul\":9225:9342   */\n      swap3\n      swap2\n      pop\n      pop\n      jump\t// out\n        /* \"#utility.yul\":9348:9517   */\n    tag_86:\n        /* \"#utility.yul\":9392:9398   */\n      0x00\n        /* \"#utility.yul\":9425:9476   */\n      tag_202\n        /* \"#utility.yul\":9473:9474   */\n      0x00\n        /* \"#utility.yul\":9469:9475   */\n      not\n        /* \"#utility.yul\":9461:9466   */\n      dup5\n        /* \"#utility.yul\":9458:9459   */\n      0x08\n        /* \"#utility.yul\":9454:9467   */\n      mul\n        /* \"#utility.yul\":9425:9476   */\n      tag_85\n      jump\t// in\n    tag_202:\n        /* \"#utility.yul\":9421:9477   */\n      not\n        /* \"#utility.yul\":9506:9510   */\n      dup1\n        /* \"#utility.yul\":9500:9504   */\n      dup4\n        /* \"#utility.yul\":9496:9511   */\n      and\n        /* \"#utility.yul\":9486:9511   */\n      swap2\n      pop\n        /* \"#utility.yul\":9399:9517   */\n      pop\n        /* \"#utility.yul\":9348:9517   */\n      swap3\n      swap2\n      pop\n      pop\n      jump\t// out\n        /* \"#utility.yul\":9522:9817   */\n    tag_87:\n        /* \"#utility.yul\":9598:9602   */\n      0x00\n        /* \"#utility.yul\":9744:9773   */\n      tag_204\n        /* \"#utility.yul\":9769:9772   */\n      dup4\n        /* \"#utility.yul\":9763:9767   */\n      dup4\n        /* \"#utility.yul\":9744:9773   */\n      tag_86\n      jump\t// in\n    tag_204:\n        /* \"#utility.yul\":9736:9773   */\n      swap2\n      pop\n        /* \"#utility.yul\":9806:9809   */\n      dup3\n        /* \"#utility.yul\":9803:9804   */\n      0x02\n        /* \"#utility.yul\":9799:9810   */\n      mul\n        /* \"#utility.yul\":9793:9797   */\n      dup3\n        /* \"#utility.yul\":9790:9811   */\n      or\n        /* \"#utility.yul\":9782:9811   */\n      swap1\n      pop\n        /* \"#utility.yul\":9522:9817   */\n      swap3\n      swap2\n      pop\n      pop\n      jump\t// out\n        /* \"#utility.yul\":9822:11217   */\n    tag_40:\n        /* \"#utility.yul\":9939:9976   */\n      tag_206\n        /* \"#utility.yul\":9972:9975   */\n      dup3\n        /* \"#utility.yul\":9939:9976   */\n      tag_68\n      jump\t// in\n    tag_206:\n        /* \"#utility.yul\":10041:10059   */\n      0xffffffffffffffff\n        /* \"#utility.yul\":10033:10039   */\n      dup2\n        /* \"#utility.yul\":10030:10060   */\n      gt\n        /* \"#utility.yul\":10027:10083   */\n      iszero\n      tag_207\n      jumpi\n        /* \"#utility.yul\":10063:10081   */\n      tag_208\n      tag_61\n      jump\t// in\n    tag_208:\n        /* \"#utility.yul\":10027:10083   */\n    tag_207:\n        /* \"#utility.yul\":10107:10145   */\n      tag_209\n        /* \"#utility.yul\":10139:10143   */\n      dup3\n        /* \"#utility.yul\":10133:10144   */\n      sload\n        /* \"#utility.yul\":10107:10145   */\n      tag_46\n      jump\t// in\n    tag_209:\n        /* \"#utility.yul\":10192:10259   */\n      tag_210\n        /* \"#utility.yul\":10252:10258   */\n      dup3\n        /* \"#utility.yul\":10244:10250   */\n      dup3\n        /* \"#utility.yul\":10238:10242   */\n      dup6\n        /* \"#utility.yul\":10192:10259   */\n      tag_84\n      jump\t// in\n    tag_210:\n        /* \"#utility.yul\":10286:10287   */\n      0x00\n        /* \"#utility.yul\":10310:10314   */\n      0x20\n        /* \"#utility.yul\":10297:10314   */\n      swap1\n      pop\n        /* \"#utility.yul\":10342:10344   */\n      0x1f\n        /* \"#utility.yul\":10334:10340   */\n      dup4\n        /* \"#utility.yul\":10331:10345   */\n      gt\n        /* \"#utility.yul\":10359:10360   */\n      0x01\n        /* \"#utility.yul\":10354:10972   */\n      dup2\n      eq\n      tag_212\n      jumpi\n        /* \"#utility.yul\":11016:11017   */\n      0x00\n        /* \"#utility.yul\":11033:11039   */\n      dup5\n        /* \"#utility.yul\":11030:11107   */\n      iszero\n      tag_213\n      jumpi\n        /* \"#utility.yul\":11082:11091   */\n      dup3\n        /* \"#utility.yul\":11077:11080   */\n      dup8\n        /* \"#utility.yul\":11073:11092   */\n      add\n        /* \"#utility.yul\":11067:11093   */\n      mload\n        /* \"#utility.yul\":11058:11093   */\n      swap1\n      pop\n        /* \"#utility.yul\":11030:11107   */\n    tag_213:\n        /* \"#utility.yul\":11133:11200   */\n      tag_214\n        /* \"#utility.yul\":11193:11199   */\n      dup6\n        /* \"#utility.yul\":11186:11191   */\n      dup3\n        /* \"#utility.yul\":11133:11200   */\n      tag_87\n      jump\t// in\n    tag_214:\n        /* \"#utility.yul\":11127:11131   */\n      dup7\n        /* \"#utility.yul\":11120:11201   */\n      sstore\n        /* \"#utility.yul\":10989:11211   */\n      pop\n        /* \"#utility.yul\":10324:11211   */\n      jump(tag_211)\n        /* \"#utility.yul\":10354:10972   */\n    tag_212:\n        /* \"#utility.yul\":10406:10410   */\n      0x1f\n        /* \"#utility.yul\":10402:10411   */\n      not\n        /* \"#utility.yul\":10394:10400   */\n      dup5\n        /* \"#utility.yul\":10390:10412   */\n      and\n        /* \"#utility.yul\":10440:10477   */\n      tag_215\n        /* \"#utility.yul\":10472:10476   */\n      dup7\n        /* \"#utility.yul\":10440:10477   */\n      tag_73\n      jump\t// in\n    tag_215:\n        /* \"#utility.yul\":10499:10500   */\n      0x00\n        /* \"#utility.yul\":10513:10721   */\n    tag_216:\n        /* \"#utility.yul\":10527:10534   */\n      dup3\n        /* \"#utility.yul\":10524:10525   */\n      dup2\n        /* \"#utility.yul\":10521:10535   */\n      lt\n        /* \"#utility.yul\":10513:10721   */\n      iszero\n      tag_218\n      jumpi\n        /* \"#utility.yul\":10606:10615   */\n      dup5\n        /* \"#utility.yul\":10601:10604   */\n      dup10\n        /* \"#utility.yul\":10597:10616   */\n      add\n        /* \"#utility.yul\":10591:10617   */\n      mload\n        /* \"#utility.yul\":10583:10589   */\n      dup3\n        /* \"#utility.yul\":10576:10618   */\n      sstore\n        /* \"#utility.yul\":10657:10658   */\n      0x01\n        /* \"#utility.yul\":10649:10655   */\n      dup3\n        /* \"#utility.yul\":10645:10659   */\n      add\n        /* \"#utility.yul\":10635:10659   */\n      swap2\n      pop\n        /* \"#utility.yul\":10704:10706   */\n      0x20\n        /* \"#utility.yul\":10693:10702   */\n      dup6\n        /* \"#utility.yul\":10689:10707   */\n      add\n        /* \"#utility.yul\":10676:10707   */\n      swap5\n      pop\n        /* \"#utility.yul\":10550:10554   */\n      0x20\n        /* \"#utility.yul\":10547:10548   */\n      dup2\n        /* \"#utility.yul\":10543:10555   */\n      add\n        /* \"#utility.yul\":10538:10555   */\n      swap1\n      pop\n        /* \"#utility.yul\":10513:10721   */\n      jump(tag_216)\n    tag_218:\n        /* \"#utility.yul\":10749:10755   */\n      dup7\n        /* \"#utility.yul\":10740:10747   */\n      dup4\n        /* \"#utility.yul\":10737:10756   */\n      lt\n        /* \"#utility.yul\":10734:10913   */\n      iszero\n      tag_219\n      jumpi\n        /* \"#utility.yul\":10807:10816   */\n      dup5\n        /* \"#utility.yul\":10802:10805   */\n      dup10\n        /* \"#utility.yul\":10798:10817   */\n      add\n        /* \"#utility.yul\":10792:10818   */\n      mload\n        /* \"#utility.yul\":10850:10898   */\n      tag_220\n        /* \"#utility.yul\":10892:10896   */\n      0x1f\n        /* \"#utility.yul\":10884:10890   */\n      dup10\n        /* \"#utility.yul\":10880:10897   */\n      and\n        /* \"#utility.yul\":10869:10878   */\n      dup3\n        /* \"#utility.yul\":10850:10898   */\n      tag_86\n      jump\t// in\n    tag_220:\n        /* \"#utility.yul\":10842:10848   */\n      dup4\n        /* \"#utility.yul\":10835:10899   */\n      sstore\n        /* \"#utility.yul\":10757:10913   */\n      pop\n        /* \"#utility.yul\":10734:10913   */\n    tag_219:\n        /* \"#utility.yul\":10959:10960   */\n      0x01\n        /* \"#utility.yul\":10955:10956   */\n      0x02\n        /* \"#utility.yul\":10947:10953   */\n      dup9\n        /* \"#utility.yul\":10943:10957   */\n      mul\n        /* \"#utility.yul\":10939:10961   */\n      add\n        /* \"#utility.yul\":10933:10937   */\n      dup9\n        /* \"#utility.yul\":10926:10962   */\n      sstore\n        /* \"#utility.yul\":10361:10972   */\n      pop\n      pop\n      pop\n        /* \"#utility.yul\":10324:11211   */\n    tag_211:\n      pop\n        /* \"#utility.yul\":9914:11217   */\n      pop\n      pop\n      pop\n        /* \"#utility.yul\":9822:11217   */\n      pop\n      pop\n      jump\t// out\n        /* \"#utility.yul\":11223:11371   */\n    tag_88:\n        /* \"#utility.yul\":11325:11336   */\n      0x00\n        /* \"#utility.yul\":11362:11365   */\n      dup2\n        /* \"#utility.yul\":11347:11365   */\n      swap1\n      pop\n        /* \"#utility.yul\":11223:11371   */\n      swap3\n      swap2\n      pop\n      pop\n      jump\t// out\n        /* \"#utility.yul\":11377:11767   */\n    tag_89:\n        /* \"#utility.yul\":11483:11486   */\n      0x00\n        /* \"#utility.yul\":11511:11550   */\n      tag_223\n        /* \"#utility.yul\":11544:11549   */\n      dup3\n        /* \"#utility.yul\":11511:11550   */\n      tag_68\n      jump\t// in\n    tag_223:\n        /* \"#utility.yul\":11566:11655   */\n      tag_224\n        /* \"#utility.yul\":11648:11654   */\n      dup2\n        /* \"#utility.yul\":11643:11646   */\n      dup6\n        /* \"#utility.yul\":11566:11655   */\n      tag_88\n      jump\t// in\n    tag_224:\n        /* \"#utility.yul\":11559:11655   */\n      swap4\n      pop\n        /* \"#utility.yul\":11664:11729   */\n      tag_225\n        /* \"#utility.yul\":11722:11728   */\n      dup2\n        /* \"#utility.yul\":11717:11720   */\n      dup6\n        /* \"#utility.yul\":11710:11714   */\n      0x20\n        /* \"#utility.yul\":11703:11708   */\n      dup7\n        /* \"#utility.yul\":11699:11715   */\n      add\n        /* \"#utility.yul\":11664:11729   */\n      tag_70\n      jump\t// in\n    tag_225:\n        /* \"#utility.yul\":11754:11760   */\n      dup1\n        /* \"#utility.yul\":11749:11752   */\n      dup5\n        /* \"#utility.yul\":11745:11761   */\n      add\n        /* \"#utility.yul\":11738:11761   */\n      swap2\n      pop\n        /* \"#utility.yul\":11487:11767   */\n      pop\n        /* \"#utility.yul\":11377:11767   */\n      swap3\n      swap2\n      pop\n      pop\n      jump\t// out\n        /* \"#utility.yul\":11773:12048   */\n    tag_42:\n        /* \"#utility.yul\":11905:11908   */\n      0x00\n        /* \"#utility.yul\":11927:12022   */\n      tag_227\n        /* \"#utility.yul\":12018:12021   */\n      dup3\n        /* \"#utility.yul\":12009:12015   */\n      dup5\n        /* \"#utility.yul\":11927:12022   */\n      tag_89\n      jump\t// in\n    tag_227:\n        /* \"#utility.yul\":11920:12022   */\n      swap2\n      pop\n        /* \"#utility.yul\":12039:12042   */\n      dup2\n        /* \"#utility.yul\":12032:12042   */\n      swap1\n      pop\n        /* \"#utility.yul\":11773:12048   */\n      swap3\n      swap2\n      pop\n      pop\n      jump\t// out\n\n    auxdata: 0xa264697066735822122094d31b580d181f83c08c005f9bd6d3d89a097829a37d89b77b5040d3615094b464736f6c63430008130033\n}\n",
				"bytecode": {
					"linkReferences": {},
					"object": "608060405234801561001057600080fd5b506109b2806100206000396000f3fe608060405234801561001057600080fd5b50600436106100625760003560e01c80632e64cec11461006757806343ede4ae146100855780636057361d146100a35780638a5a6561146100bf5780639e7a13ad146100db578063b2ac62ef1461010d575b600080fd5b61006f61013d565b60405161007c9190610308565b60405180910390f35b61008d610146565b60405161009a9190610308565b60405180910390f35b6100bd60048036038101906100b89190610363565b61014c565b005b6100d960048036038101906100d491906104d6565b61015f565b005b6100f560048036038101906100f09190610363565b6101ff565b604051610104939291906105c4565b60405180910390f35b61012760048036038101906101229190610602565b6102c1565b6040516101349190610308565b60405180910390f35b60008054905090565b60005481565b8060008190555061015b61013d565b5050565b6000604051806060016040528084815260200185815260200183815250905060028190806001815401808255809150506001900390600052602060002090600302016000909190919091506000820151816000015560208201518160010190816101c99190610857565b50604082015181600201555050826001856040516101e79190610965565b90815260200160405180910390208190555050505050565b6002818154811061020f57600080fd5b90600052602060002090600302016000915090508060000154908060010180546102389061067a565b80601f01602080910402602001604051908101604052809291908181526020018280546102649061067a565b80156102b15780601f10610286576101008083540402835291602001916102b1565b820191906000526020600020905b81548152906001019060200180831161029457829003601f168201915b5050505050908060020154905083565b6001818051602081018201805184825260208301602085012081835280955050505050506000915090505481565b6000819050919050565b610302816102ef565b82525050565b600060208201905061031d60008301846102f9565b92915050565b6000604051905090565b600080fd5b600080fd5b610340816102ef565b811461034b57600080fd5b50565b60008135905061035d81610337565b92915050565b6000602082840312156103795761037861032d565b5b60006103878482850161034e565b91505092915050565b600080fd5b600080fd5b6000601f19601f8301169050919050565b7f4e487b7100000000000000000000000000000000000000000000000000000000600052604160045260246000fd5b6103e38261039a565b810181811067ffffffffffffffff82111715610402576104016103ab565b5b80604052505050565b6000610415610323565b905061042182826103da565b919050565b600067ffffffffffffffff821115610441576104406103ab565b5b61044a8261039a565b9050602081019050919050565b82818337600083830152505050565b600061047961047484610426565b61040b565b90508281526020810184848401111561049557610494610395565b5b6104a0848285610457565b509392505050565b600082601f8301126104bd576104bc610390565b5b81356104cd848260208601610466565b91505092915050565b6000806000606084860312156104ef576104ee61032d565b5b600084013567ffffffffffffffff81111561050d5761050c610332565b5b610519868287016104a8565b935050602061052a8682870161034e565b925050604061053b8682870161034e565b9150509250925092565b600081519050919050565b600082825260208201905092915050565b60005b8381101561057f578082015181840152602081019050610564565b60008484015250505050565b600061059682610545565b6105a08185610550565b93506105b0818560208601610561565b6105b98161039a565b840191505092915050565b60006060820190506105d960008301866102f9565b81810360208301526105eb818561058b565b90506105fa60408301846102f9565b949350505050565b6000602082840312156106185761061761032d565b5b600082013567ffffffffffffffff81111561063657610635610332565b5b610642848285016104a8565b91505092915050565b7f4e487b7100000000000000000000000000000000000000000000000000000000600052602260045260246000fd5b6000600282049050600182168061069257607f821691505b6020821081036106a5576106a461064b565b5b50919050565b60008190508160005260206000209050919050565b60006020601f8301049050919050565b600082821b905092915050565b60006008830261070d7fffffffffffffffffffffffffffffffffffffffffffffffffffffffffffffffff826106d0565b61071786836106d0565b95508019841693508086168417925050509392505050565b6000819050919050565b600061075461074f61074a846102ef565b61072f565b6102ef565b9050919050565b6000819050919050565b61076e83610739565b61078261077a8261075b565b8484546106dd565b825550505050565b600090565b61079761078a565b6107a2818484610765565b505050565b5b818110156107c6576107bb60008261078f565b6001810190506107a8565b5050565b601f82111561080b576107dc816106ab565b6107e5846106c0565b810160208510156107f4578190505b610808610800856106c0565b8301826107a7565b50505b505050565b600082821c905092915050565b600061082e60001984600802610810565b1980831691505092915050565b6000610847838361081d565b9150826002028217905092915050565b61086082610545565b67ffffffffffffffff811115610879576108786103ab565b5b610883825461067a565b61088e8282856107ca565b600060209050601f8311600181146108c157600084156108af578287015190505b6108b9858261083b565b865550610921565b601f1984166108cf866106ab565b60005b828110156108f7578489015182556001820191506020850194506020810190506108d2565b868310156109145784890151610910601f89168261081d565b8355505b6001600288020188555050505b505050505050565b600081905092915050565b600061093f82610545565b6109498185610929565b9350610959818560208601610561565b80840191505092915050565b60006109718284610934565b91508190509291505056fea264697066735822122094d31b580d181f83c08c005f9bd6d3d89a097829a37d89b77b5040d3615094b464736f6c63430008130033",
					"opcodes": "PUSH1 0x80 PUSH1 0x40 MSTORE CALLVALUE DUP1 ISZERO PUSH2 0x10 JUMPI PUSH1 0x0 DUP1 REVERT JUMPDEST POP PUSH2 0x9B2 DUP1 PUSH2 0x20 PUSH1 0x0 CODECOPY PUSH1 0x0 RETURN INVALID PUSH1 0x80 PUSH1 0x40 MSTORE CALLVALUE DUP1 ISZERO PUSH2 0x10 JUMPI PUSH1 0x0 DUP1 REVERT JUMPDEST POP PUSH1 0x4 CALLDATASIZE LT PUSH2 0x62 JUMPI PUSH1 0x0 CALLDATALOAD PUSH1 0xE0 SHR DUP1 PUSH4 0x2E64CEC1 EQ PUSH2 0x67 JUMPI DUP1 PUSH4 0x43EDE4AE EQ PUSH2 0x85 JUMPI DUP1 PUSH4 0x6057361D EQ PUSH2 0xA3 JUMPI DUP1 PUSH4 0x8A5A6561 EQ PUSH2 0xBF JUMPI DUP1 PUSH4 0x9E7A13AD EQ PUSH2 0xDB JUMPI DUP1 PUSH4 0xB2AC62EF EQ PUSH2 0x10D JUMPI JUMPDEST PUSH1 0x0 DUP1 REVERT JUMPDEST PUSH2 0x6F PUSH2 0x13D JUMP JUMPDEST PUSH1 0x40 MLOAD PUSH2 0x7C SWAP2 SWAP1 PUSH2 0x308 JUMP JUMPDEST PUSH1 0x40 MLOAD DUP1 SWAP2 SUB SWAP1 RETURN JUMPDEST PUSH2 0x8D PUSH2 0x146 JUMP JUMPDEST PUSH1 0x40 MLOAD PUSH2 0x9A SWAP2 SWAP1 PUSH2 0x308 JUMP JUMPDEST PUSH1 0x40 MLOAD DUP1 SWAP2 SUB SWAP1 RETURN JUMPDEST PUSH2 0xBD PUSH1 0x4 DUP1 CALLDATASIZE SUB DUP2 ADD SWAP1 PUSH2 0xB8 SWAP2 SWAP1 PUSH2 0x363 JUMP JUMPDEST PUSH2 0x14C JUMP JUMPDEST STOP JUMPDEST PUSH2 0xD9 PUSH1 0x4 DUP1 CALLDATASIZE SUB DUP2 ADD SWAP1 PUSH2 0xD4 SWAP2 SWAP1 PUSH2 0x4D6 JUMP JUMPDEST PUSH2 0x15F JUMP JUMPDEST STOP JUMPDEST PUSH2 0xF5 PUSH1 0x4 DUP1 CALLDATASIZE SUB DUP2 ADD SWAP1 PUSH2 0xF0 SWAP2 SWAP1 PUSH2 0x363 JUMP JUMPDEST PUSH2 0x1FF JUMP JUMPDEST PUSH1 0x40 MLOAD PUSH2 0x104 SWAP4 SWAP3 SWAP2 SWAP1 PUSH2 0x5C4 JUMP JUMPDEST PUSH1 0x40 MLOAD DUP1 SWAP2 SUB SWAP1 RETURN JUMPDEST PUSH2 0x127 PUSH1 0x4 DUP1 CALLDATASIZE SUB DUP2 ADD SWAP1 PUSH2 0x122 SWAP2 SWAP1 PUSH2 0x602 JUMP JUMPDEST PUSH2 0x2C1 JUMP JUMPDEST PUSH1 0x40 MLOAD PUSH2 0x134 SWAP2 SWAP1 PUSH2 0x308 JUMP JUMPDEST PUSH1 0x40 MLOAD DUP1 SWAP2 SUB SWAP1 RETURN JUMPDEST PUSH1 0x0 DUP1 SLOAD SWAP1 POP SWAP1 JUMP JUMPDEST PUSH1 0x0 SLOAD DUP2 JUMP JUMPDEST DUP1 PUSH1 0x0 DUP2 SWAP1 SSTORE POP PUSH2 0x15B PUSH2 0x13D JUMP JUMPDEST POP POP JUMP JUMPDEST PUSH1 0x0 PUSH1 0x40 MLOAD DUP1 PUSH1 0x60 ADD PUSH1 0x40 MSTORE DUP1 DUP5 DUP2 MSTORE PUSH1 0x20 ADD DUP6 DUP2 MSTORE PUSH1 0x20 ADD DUP4 DUP2 MSTORE POP SWAP1 POP PUSH1 0x2 DUP2 SWAP1 DUP1 PUSH1 0x1 DUP2 SLOAD ADD DUP1 DUP3 SSTORE DUP1 SWAP2 POP POP PUSH1 0x1 SWAP1 SUB SWAP1 PUSH1 0x0 MSTORE PUSH1 0x20 PUSH1 0x0 KECCAK256 SWAP1 PUSH1 0x3 MUL ADD PUSH1 0x0 SWAP1 SWAP2 SWAP1 SWAP2 SWAP1 SWAP2 POP PUSH1 0x0 DUP3 ADD MLOAD DUP2 PUSH1 0x0 ADD SSTORE PUSH1 0x20 DUP3 ADD MLOAD DUP2 PUSH1 0x1 ADD SWAP1 DUP2 PUSH2 0x1C9 SWAP2 SWAP1 PUSH2 0x857 JUMP JUMPDEST POP PUSH1 0x40 DUP3 ADD MLOAD DUP2 PUSH1 0x2 ADD SSTORE POP POP DUP3 PUSH1 0x1 DUP6 PUSH1 0x40 MLOAD PUSH2 0x1E7 SWAP2 SWAP1 PUSH2 0x965 JUMP JUMPDEST SWAP1 DUP2 MSTORE PUSH1 0x20 ADD PUSH1 0x40 MLOAD DUP1 SWAP2 SUB SWAP1 KECCAK256 DUP2 SWAP1 SSTORE POP POP POP POP POP JUMP JUMPDEST PUSH1 0x2 DUP2 DUP2 SLOAD DUP2 LT PUSH2 0x20F JUMPI PUSH1 0x0 DUP1 REVERT JUMPDEST SWAP1 PUSH1 0x0 MSTORE PUSH1 0x20 PUSH1 0x0 KECCAK256 SWAP1 PUSH1 0x3 MUL ADD PUSH1 0x0 SWAP2 POP SWAP1 POP DUP1 PUSH1 0x0 ADD SLOAD SWAP1 DUP1 PUSH1 0x1 ADD DUP1 SLOAD PUSH2 0x238 SWAP1 PUSH2 0x67A JUMP JUMPDEST DUP1 PUSH1 0x1F ADD PUSH1 0x20 DUP1 SWAP2 DIV MUL PUSH1 0x20 ADD PUSH1 0x40 MLOAD SWAP1 DUP2 ADD PUSH1 0x40 MSTORE DUP1 SWAP3 SWAP2 SWAP1 DUP2 DUP2 MSTORE PUSH1 0x20 ADD DUP3 DUP1 SLOAD PUSH2 0x264 SWAP1 PUSH2 0x67A JUMP JUMPDEST DUP1 ISZERO PUSH2 0x2B1 JUMPI DUP1 PUSH1 0x1F LT PUSH2 0x286 JUMPI PUSH2 0x100 DUP1 DUP4 SLOAD DIV MUL DUP4 MSTORE SWAP2 PUSH1 0x20 ADD SWAP2 PUSH2 0x2B1 JUMP JUMPDEST DUP3 ADD SWAP2 SWAP1 PUSH1 0x0 MSTORE PUSH1 0x20 PUSH1 0x0 KECCAK256 SWAP1 JUMPDEST DUP2 SLOAD DUP2 MSTORE SWAP1 PUSH1 0x1 ADD SWAP1 PUSH1 0x20 ADD DUP1 DUP4 GT PUSH2 0x294 JUMPI DUP3 SWAP1 SUB PUSH1 0x1F AND DUP3 ADD SWAP2 JUMPDEST POP POP POP POP POP SWAP1 DUP1 PUSH1 0x2 ADD SLOAD SWAP1 POP DUP4 JUMP JUMPDEST PUSH1 0x1 DUP2 DUP1 MLOAD PUSH1 0x20 DUP2 ADD DUP3 ADD DUP1 MLOAD DUP5 DUP3 MSTORE PUSH1 0x20 DUP4 ADD PUSH1 0x20 DUP6 ADD KECCAK256 DUP2 DUP4 MSTORE DUP1 SWAP6 POP POP POP POP POP POP PUSH1 0x0 SWAP2 POP SWAP1 POP SLOAD DUP2 JUMP JUMPDEST PUSH1 0x0 DUP2 SWAP1 POP SWAP2 SWAP1 POP JUMP JUMPDEST PUSH2 0x302 DUP2 PUSH2 0x2EF JUMP JUMPDEST DUP3 MSTORE POP POP JUMP JUMPDEST PUSH1 0x0 PUSH1 0x20 DUP3 ADD SWAP1 POP PUSH2 0x31D PUSH1 0x0 DUP4 ADD DUP5 PUSH2 0x2F9 JUMP JUMPDEST SWAP3 SWAP2 POP POP JUMP JUMPDEST PUSH1 0x0 PUSH1 0x40 MLOAD SWAP1 POP SWAP1 JUMP JUMPDEST PUSH1 0x0 DUP1 REVERT JUMPDEST PUSH1 0x0 DUP1 REVERT JUMPDEST PUSH2 0x340 DUP2 PUSH2 0x2EF JUMP JUMPDEST DUP2 EQ PUSH2 0x34B JUMPI PUSH1 0x0 DUP1 REVERT JUMPDEST POP JUMP JUMPDEST PUSH1 0x0 DUP2 CALLDATALOAD SWAP1 POP PUSH2 0x35D DUP2 PUSH2 0x337 JUMP JUMPDEST SWAP3 SWAP2 POP POP JUMP JUMPDEST PUSH1 0x0 PUSH1 0x20 DUP3 DUP5 SUB SLT ISZERO PUSH2 0x379 JUMPI PUSH2 0x378 PUSH2 0x32D JUMP JUMPDEST JUMPDEST PUSH1 0x0 PUSH2 0x387 DUP5 DUP3 DUP6 ADD PUSH2 0x34E JUMP JUMPDEST SWAP2 POP POP SWAP3 SWAP2 POP POP JUMP JUMPDEST PUSH1 0x0 DUP1 REVERT JUMPDEST PUSH1 0x0 DUP1 REVERT JUMPDEST PUSH1 0x0 PUSH1 0x1F NOT PUSH1 0x1F DUP4 ADD AND SWAP1 POP SWAP2 SWAP1 POP JUMP JUMPDEST PUSH32 0x4E487B7100000000000000000000000000000000000000000000000000000000 PUSH1 0x0 MSTORE PUSH1 0x41 PUSH1 0x4 MSTORE PUSH1 0x24 PUSH1 0x0 REVERT JUMPDEST PUSH2 0x3E3 DUP3 PUSH2 0x39A JUMP JUMPDEST DUP2 ADD DUP2 DUP2 LT PUSH8 0xFFFFFFFFFFFFFFFF DUP3 GT OR ISZERO PUSH2 0x402 JUMPI PUSH2 0x401 PUSH2 0x3AB JUMP JUMPDEST JUMPDEST DUP1 PUSH1 0x40 MSTORE POP POP POP JUMP JUMPDEST PUSH1 0x0 PUSH2 0x415 PUSH2 0x323 JUMP JUMPDEST SWAP1 POP PUSH2 0x421 DUP3 DUP3 PUSH2 0x3DA JUMP JUMPDEST SWAP2 SWAP1 POP JUMP JUMPDEST PUSH1 0x0 PUSH8 0xFFFFFFFFFFFFFFFF DUP3 GT ISZERO PUSH2 0x441 JUMPI PUSH2 0x440 PUSH2 0x3AB JUMP JUMPDEST JUMPDEST PUSH2 0x44A DUP3 PUSH2 0x39A JUMP JUMPDEST SWAP1 POP PUSH1 0x20 DUP2 ADD SWAP1 POP SWAP2 SWAP1 POP JUMP JUMPDEST DUP3 DUP2 DUP4 CALLDATACOPY PUSH1 0x0 DUP4 DUP4 ADD MSTORE POP POP POP JUMP JUMPDEST PUSH1 0x0 PUSH2 0x479 PUSH2 0x474 DUP5 PUSH2 0x426 JUMP JUMPDEST PUSH2 0x40B JUMP JUMPDEST SWAP1 POP DUP3 DUP2 MSTORE PUSH1 0x20 DUP2 ADD DUP5 DUP5 DUP5 ADD GT ISZERO PUSH2 0x495 JUMPI PUSH2 0x494 PUSH2 0x395 JUMP JUMPDEST JUMPDEST PUSH2 0x4A0 DUP5 DUP3 DUP6 PUSH2 0x457 JUMP JUMPDEST POP SWAP4 SWAP3 POP POP POP JUMP JUMPDEST PUSH1 0x0 DUP3 PUSH1 0x1F DUP4 ADD SLT PUSH2 0x4BD JUMPI PUSH2 0x4BC PUSH2 0x390 JUMP JUMPDEST JUMPDEST DUP2 CALLDATALOAD PUSH2 0x4CD DUP5 DUP3 PUSH1 0x20 DUP7 ADD PUSH2 0x466 JUMP JUMPDEST SWAP2 POP POP SWAP3 SWAP2 POP POP JUMP JUMPDEST PUSH1 0x0 DUP1 PUSH1 0x0 PUSH1 0x60 DUP5 DUP7 SUB SLT ISZERO PUSH2 0x4EF JUMPI PUSH2 0x4EE PUSH2 0x32D JUMP JUMPDEST JUMPDEST PUSH1 0x0 DUP5 ADD CALLDATALOAD PUSH8 0xFFFFFFFFFFFFFFFF DUP2 GT ISZERO PUSH2 0x50D JUMPI PUSH2 0x50C PUSH2 0x332 JUMP JUMPDEST JUMPDEST PUSH2 0x519 DUP7 DUP3 DUP8 ADD PUSH2 0x4A8 JUMP JUMPDEST SWAP4 POP POP PUSH1 0x20 PUSH2 0x52A DUP7 DUP3 DUP8 ADD PUSH2 0x34E JUMP JUMPDEST SWAP3 POP POP PUSH1 0x40 PUSH2 0x53B DUP7 DUP3 DUP8 ADD PUSH2 0x34E JUMP JUMPDEST SWAP2 POP POP SWAP3 POP SWAP3 POP SWAP3 JUMP JUMPDEST PUSH1 0x0 DUP2 MLOAD SWAP1 POP SWAP2 SWAP1 POP JUMP JUMPDEST PUSH1 0x0 DUP3 DUP3 MSTORE PUSH1 0x20 DUP3 ADD SWAP1 POP SWAP3 SWAP2 POP POP JUMP JUMPDEST PUSH1 0x0 JUMPDEST DUP4 DUP2 LT ISZERO PUSH2 0x57F JUMPI DUP1 DUP3 ADD MLOAD DUP2 DUP5 ADD MSTORE PUSH1 0x20 DUP2 ADD SWAP1 POP PUSH2 0x564 JUMP JUMPDEST PUSH1 0x0 DUP5 DUP5 ADD MSTORE POP POP POP POP JUMP JUMPDEST PUSH1 0x0 PUSH2 0x596 DUP3 PUSH2 0x545 JUMP JUMPDEST PUSH2 0x5A0 DUP2 DUP6 PUSH2 0x550 JUMP JUMPDEST SWAP4 POP PUSH2 0x5B0 DUP2 DUP6 PUSH1 0x20 DUP7 ADD PUSH2 0x561 JUMP JUMPDEST PUSH2 0x5B9 DUP2 PUSH2 0x39A JUMP JUMPDEST DUP5 ADD SWAP2 POP POP SWAP3 SWAP2 POP POP JUMP JUMPDEST PUSH1 0x0 PUSH1 0x60 DUP3 ADD SWAP1 POP PUSH2 0x5D9 PUSH1 0x0 DUP4 ADD DUP7 PUSH2 0x2F9 JUMP JUMPDEST DUP2 DUP2 SUB PUSH1 0x20 DUP4 ADD MSTORE PUSH2 0x5EB DUP2 DUP6 PUSH2 0x58B JUMP JUMPDEST SWAP1 POP PUSH2 0x5FA PUSH1 0x40 DUP4 ADD DUP5 PUSH2 0x2F9 JUMP JUMPDEST SWAP5 SWAP4 POP POP POP POP JUMP JUMPDEST PUSH1 0x0 PUSH1 0x20 DUP3 DUP5 SUB SLT ISZERO PUSH2 0x618 JUMPI PUSH2 0x617 PUSH2 0x32D JUMP JUMPDEST JUMPDEST PUSH1 0x0 DUP3 ADD CALLDATALOAD PUSH8 0xFFFFFFFFFFFFFFFF DUP2 GT ISZERO PUSH2 0x636 JUMPI PUSH2 0x635 PUSH2 0x332 JUMP JUMPDEST JUMPDEST PUSH2 0x642 DUP5 DUP3 DUP6 ADD PUSH2 0x4A8 JUMP JUMPDEST SWAP2 POP POP SWAP3 SWAP2 POP POP JUMP JUMPDEST PUSH32 0x4E487B7100000000000000000000000000000000000000000000000000000000 PUSH1 0x0 MSTORE PUSH1 0x22 PUSH1 0x4 MSTORE PUSH1 0x24 PUSH1 0x0 REVERT JUMPDEST PUSH1 0x0 PUSH1 0x2 DUP3 DIV SWAP1 POP PUSH1 0x1 DUP3 AND DUP1 PUSH2 0x692 JUMPI PUSH1 0x7F DUP3 AND SWAP2 POP JUMPDEST PUSH1 0x20 DUP3 LT DUP2 SUB PUSH2 0x6A5 JUMPI PUSH2 0x6A4 PUSH2 0x64B JUMP JUMPDEST JUMPDEST POP SWAP2 SWAP1 POP JUMP JUMPDEST PUSH1 0x0 DUP2 SWAP1 POP DUP2 PUSH1 0x0 MSTORE PUSH1 0x20 PUSH1 0x0 KECCAK256 SWAP1 POP SWAP2 SWAP1 POP JUMP JUMPDEST PUSH1 0x0 PUSH1 0x20 PUSH1 0x1F DUP4 ADD DIV SWAP1 POP SWAP2 SWAP1 POP JUMP JUMPDEST PUSH1 0x0 DUP3 DUP3 SHL SWAP1 POP SWAP3 SWAP2 POP POP JUMP JUMPDEST PUSH1 0x0 PUSH1 0x8 DUP4 MUL PUSH2 0x70D PUSH32 0xFFFFFFFFFFFFFFFFFFFFFFFFFFFFFFFFFFFFFFFFFFFFFFFFFFFFFFFFFFFFFFFF DUP3 PUSH2 0x6D0 JUMP JUMPDEST PUSH2 0x717 DUP7 DUP4 PUSH2 0x6D0 JUMP JUMPDEST SWAP6 POP DUP1 NOT DUP5 AND SWAP4 POP DUP1 DUP7 AND DUP5 OR SWAP3 POP POP POP SWAP4 SWAP3 POP POP POP JUMP JUMPDEST PUSH1 0x0 DUP2 SWAP1 POP SWAP2 SWAP1 POP JUMP JUMPDEST PUSH1 0x0 PUSH2 0x754 PUSH2 0x74F PUSH2 0x74A DUP5 PUSH2 0x2EF JUMP JUMPDEST PUSH2 0x72F JUMP JUMPDEST PUSH2 0x2EF JUMP JUMPDEST SWAP1 POP SWAP2 SWAP1 POP JUMP JUMPDEST PUSH1 0x0 DUP2 SWAP1 POP SWAP2 SWAP1 POP JUMP JUMPDEST PUSH2 0x76E DUP4 PUSH2 0x739 JUMP JUMPDEST PUSH2 0x782 PUSH2 0x77A DUP3 PUSH2 0x75B JUMP JUMPDEST DUP5 DUP5 SLOAD PUSH2 0x6DD JUMP JUMPDEST DUP3 SSTORE POP POP POP POP JUMP JUMPDEST PUSH1 0x0 SWAP1 JUMP JUMPDEST PUSH2 0x797 PUSH2 0x78A JUMP JUMPDEST PUSH2 0x7A2 DUP2 DUP5 DUP5 PUSH2 0x765 JUMP JUMPDEST POP POP POP JUMP JUMPDEST JUMPDEST DUP2 DUP2 LT ISZERO PUSH2 0x7C6 JUMPI PUSH2 0x7BB PUSH1 0x0 DUP3 PUSH2 0x78F JUMP JUMPDEST PUSH1 0x1 DUP2 ADD SWAP1 POP PUSH2 0x7A8 JUMP JUMPDEST POP POP JUMP JUMPDEST PUSH1 0x1F DUP3 GT ISZERO PUSH2 0x80B JUMPI PUSH2 0x7DC DUP2 PUSH2 0x6AB JUMP JUMPDEST PUSH2 0x7E5 DUP5 PUSH2 0x6C0 JUMP JUMPDEST DUP2 ADD PUSH1 0x20 DUP6 LT ISZERO PUSH2 0x7F4 JUMPI DUP2 SWAP1 POP JUMPDEST PUSH2 0x808 PUSH2 0x800 DUP6 PUSH2 0x6C0 JUMP JUMPDEST DUP4 ADD DUP3 PUSH2 0x7A7 JUMP JUMPDEST POP POP JUMPDEST POP POP POP JUMP JUMPDEST PUSH1 0x0 DUP3 DUP3 SHR SWAP1 POP SWAP3 SWAP2 POP POP JUMP JUMPDEST PUSH1 0x0 PUSH2 0x82E PUSH1 0x0 NOT DUP5 PUSH1 0x8 MUL PUSH2 0x810 JUMP JUMPDEST NOT DUP1 DUP4 AND SWAP2 POP POP SWAP3 SWAP2 POP POP JUMP JUMPDEST PUSH1 0x0 PUSH2 0x847 DUP4 DUP4 PUSH2 0x81D JUMP JUMPDEST SWAP2 POP DUP3 PUSH1 0x2 MUL DUP3 OR SWAP1 POP SWAP3 SWAP2 POP POP JUMP JUMPDEST PUSH2 0x860 DUP3 PUSH2 0x545 JUMP JUMPDEST PUSH8 0xFFFFFFFFFFFFFFFF DUP2 GT ISZERO PUSH2 0x879 JUMPI PUSH2 0x878 PUSH2 0x3AB JUMP JUMPDEST JUMPDEST PUSH2 0x883 DUP3 SLOAD PUSH2 0x67A JUMP JUMPDEST PUSH2 0x88E DUP3 DUP3 DUP6 PUSH2 0x7CA JUMP JUMPDEST PUSH1 0x0 PUSH1 0x20 SWAP1 POP PUSH1 0x1F DUP4 GT PUSH1 0x1 DUP2 EQ PUSH2 0x8C1 JUMPI PUSH1 0x0 DUP5 ISZERO PUSH2 0x8AF JUMPI DUP3 DUP8 ADD MLOAD SWAP1 POP JUMPDEST PUSH2 0x8B9 DUP6 DUP3 PUSH2 0x83B JUMP JUMPDEST DUP7 SSTORE POP PUSH2 0x921 JUMP JUMPDEST PUSH1 0x1F NOT DUP5 AND PUSH2 0x8CF DUP7 PUSH2 0x6AB JUMP JUMPDEST PUSH1 0x0 JUMPDEST DUP3 DUP2 LT ISZERO PUSH2 0x8F7 JUMPI DUP5 DUP10 ADD MLOAD DUP3 SSTORE PUSH1 0x1 DUP3 ADD SWAP2 POP PUSH1 0x20 DUP6 ADD SWAP5 POP PUSH1 0x20 DUP2 ADD SWAP1 POP PUSH2 0x8D2 JUMP JUMPDEST DUP7 DUP4 LT ISZERO PUSH2 0x914 JUMPI DUP5 DUP10 ADD MLOAD PUSH2 0x910 PUSH1 0x1F DUP10 AND DUP3 PUSH2 0x81D JUMP JUMPDEST DUP4 SSTORE POP JUMPDEST PUSH1 0x1 PUSH1 0x2 DUP9 MUL ADD DUP9 SSTORE POP POP POP JUMPDEST POP POP POP POP POP POP JUMP JUMPDEST PUSH1 0x0 DUP2 SWAP1 POP SWAP3 SWAP2 POP POP JUMP JUMPDEST PUSH1 0x0 PUSH2 0x93F DUP3 PUSH2 0x545 JUMP JUMPDEST PUSH2 0x949 DUP2 DUP6 PUSH2 0x929 JUMP JUMPDEST SWAP4 POP PUSH2 0x959 DUP2 DUP6 PUSH1 0x20 DUP7 ADD PUSH2 0x561 JUMP JUMPDEST DUP1 DUP5 ADD SWAP2 POP POP SWAP3 SWAP2 POP POP JUMP JUMPDEST PUSH1 0x0 PUSH2 0x971 DUP3 DUP5 PUSH2 0x934 JUMP JUMPDEST SWAP2 POP DUP2 SWAP1 POP SWAP3 SWAP2 POP POP JUMP INVALID LOG2 PUSH5 0x6970667358 0x22 SLT KECCAK256 SWAP5 0xD3 SHL PC 0xD XOR 0x1F DUP4 0xC0 DUP13 STOP 0x5F SWAP12 0xD6 0xD3 0xD8 SWAP11 MULMOD PUSH25 0x29A37D89B77B5040D3615094B464736F6C6343000813003300 "
				},
				"gasEstimates": {
					"creation": {
						"codeDepositCost": "496400",
						"executionCost": "530",
						"totalCost": "496930"
					},
					"external": {
						"addperson(string,uint256,uint256)": "infinite",
						"favouriteNumber()": "2429",
						"nameToFavouriteNumber(string)": "infinite",
						"people(uint256)": "infinite",
						"retrieve()": "2415",
						"store(uint256)": "24682"
					}
				},
				"methodIdentifiers": {
					"addperson(string,uint256,uint256)": "8a5a6561",
					"favouriteNumber()": "43ede4ae",
					"nameToFavouriteNumber(string)": "b2ac62ef",
					"people(uint256)": "9e7a13ad",
					"retrieve()": "2e64cec1",
					"store(uint256)": "6057361d"
				}
			},
			"storageLayout": {
				"storage": [
					{
						"astId": 3,
						"contract": "contracts/Mapping.sol:SimpleStorage",
						"label": "favouriteNumber",
						"offset": 0,
						"slot": "0",
						"type": "t_uint256"
					},
					{
						"astId": 8,
						"contract": "contracts/Mapping.sol:SimpleStorage",
						"label": "nameToFavouriteNumber",
						"offset": 0,
						"slot": "1",
						"type": "t_mapping(t_string_memory_ptr,t_uint256)"
					},
					{
						"astId": 19,
						"contract": "contracts/Mapping.sol:SimpleStorage",
						"label": "people",
						"offset": 0,
						"slot": "2",
						"type": "t_array(t_struct(People)15_storage)dyn_storage"
					}
				],
				"types": {
					"t_array(t_struct(People)15_storage)dyn_storage": {
						"base": "t_struct(People)15_storage",
						"encoding": "dynamic_array",
						"label": "struct SimpleStorage.People[]",
						"numberOfBytes": "32"
					},
					"t_mapping(t_string_memory_ptr,t_uint256)": {
						"encoding": "mapping",
						"key": "t_string_memory_ptr",
						"label": "mapping(string => uint256)",
						"numberOfBytes": "32",
						"value": "t_uint256"
					},
					"t_string_memory_ptr": {
						"encoding": "bytes",
						"label": "string",
						"numberOfBytes": "32"
					},
					"t_string_storage": {
						"encoding": "bytes",
						"label": "string",
						"numberOfBytes": "32"
					},
					"t_struct(People)15_storage": {
						"encoding": "inplace",
						"label": "struct SimpleStorage.People",
						"members": [
							{
								"astId": 10,
								"contract": "contracts/Mapping.sol:SimpleStorage",
								"label": "favouriteNumber",
								"offset": 0,
								"slot": "0",
								"type": "t_uint256"
							},
							{
								"astId": 12,
								"contract": "contracts/Mapping.sol:SimpleStorage",
								"label": "name",
								"offset": 0,
								"slot": "1",
								"type": "t_string_storage"
							},
							{
								"astId": 14,
								"contract": "contracts/Mapping.sol:SimpleStorage",
								"label": "age",
								"offset": 0,
								"slot": "2",
								"type": "t_uint256"
							}
						],
						"numberOfBytes": "96"
					},
					"t_uint256": {
						"encoding": "inplace",
						"label": "uint256",
						"numberOfBytes": "32"
					}
				}
			},
			"userdoc": {
				"kind": "user",
				"methods": {
					"nameToFavouriteNumber(string)": {
						"notice": "People public person = People({favouriteNumber: 2, name: \"Kangara\"});"
					}
				},
				"version": 1
			}
		}
	}
}