{
	"contracts/Visibility.sol": {
		"VisibilityChild": {
			"abi": [
				{
					"inputs": [],
					"name": "externalFunc",
					"outputs": [
						{
							"internalType": "uint256",
							"name": "",
							"type": "uint256"
						}
					],
					"stateMutability": "pure",
					"type": "function"
				},
				{
					"inputs": [],
					"name": "publicFunc",
					"outputs": [
						{
							"internalType": "uint256",
							"name": "",
							"type": "uint256"
						}
					],
					"stateMutability": "pure",
					"type": "function"
				},
				{
					"inputs": [],
					"name": "test1",
					"outputs": [],
					"stateMutability": "view",
					"type": "function"
				},
				{
					"inputs": [],
					"name": "test2",
					"outputs": [],
					"stateMutability": "view",
					"type": "function"
				},
				{
					"inputs": [],
					"name": "z",
					"outputs": [
						{
							"internalType": "uint256",
							"name": "",
							"type": "uint256"
						}
					],
					"stateMutability": "view",
					"type": "function"
				}
			],
			"devdoc": {
				"kind": "dev",
				"methods": {},
				"version": 1
			},
			"evm": {
				"assembly": "    /* \"contracts/Visibility.sol\":926:1131  contract VisibilityChild is visibility {... */\n  mstore(0x40, 0x80)\n    /* \"contracts/Visibility.sol\":332:333  0 */\n  0x00\n    /* \"contracts/Visibility.sol\":315:333  uint private x = 0 */\n  dup1\n  sstore\n    /* \"contracts/Visibility.sol\":357:358  1 */\n  0x01\n    /* \"contracts/Visibility.sol\":339:358  uint internal y = 1 */\n  dup1\n  sstore\n    /* \"contracts/Visibility.sol\":380:381  2 */\n  0x02\n    /* \"contracts/Visibility.sol\":364:381  uint public z = 2 */\n  dup1\n  sstore\n    /* \"contracts/Visibility.sol\":926:1131  contract VisibilityChild is visibility {... */\n  callvalue\n  dup1\n  iszero\n  tag_1\n  jumpi\n  0x00\n  dup1\n  revert\ntag_1:\n  pop\n  dataSize(sub_0)\n  dup1\n  dataOffset(sub_0)\n  0x00\n  codecopy\n  0x00\n  return\nstop\n\nsub_0: assembly {\n        /* \"contracts/Visibility.sol\":926:1131  contract VisibilityChild is visibility {... */\n      mstore(0x40, 0x80)\n      callvalue\n      dup1\n      iszero\n      tag_1\n      jumpi\n      0x00\n      dup1\n      revert\n    tag_1:\n      pop\n      jumpi(tag_2, lt(calldatasize, 0x04))\n      shr(0xe0, calldataload(0x00))\n      dup1\n      0x42b148aa\n      eq\n      tag_3\n      jumpi\n      dup1\n      0x4b73383f\n      eq\n      tag_4\n      jumpi\n      dup1\n      0x66e41cb7\n      eq\n      tag_5\n      jumpi\n      dup1\n      0x6b59084d\n      eq\n      tag_6\n      jumpi\n      dup1\n      0xc5d7802e\n      eq\n      tag_7\n      jumpi\n    tag_2:\n      0x00\n      dup1\n      revert\n        /* \"contracts/Visibility.sol\":641:720  function externalFunc() external   pure returns (uint){... */\n    tag_3:\n      tag_8\n      tag_9\n      jump\t// in\n    tag_8:\n      mload(0x40)\n      tag_10\n      swap2\n      swap1\n      tag_11\n      jump\t// in\n    tag_10:\n      mload(0x40)\n      dup1\n      swap2\n      sub\n      swap1\n      return\n        /* \"contracts/Visibility.sol\":558:636  function publicFunc() public   pure returns (uint){... */\n    tag_4:\n      tag_12\n      tag_13\n      jump\t// in\n    tag_12:\n      mload(0x40)\n      tag_14\n      swap2\n      swap1\n      tag_11\n      jump\t// in\n    tag_14:\n      mload(0x40)\n      dup1\n      swap2\n      sub\n      swap1\n      return\n        /* \"contracts/Visibility.sol\":971:1127  function test2() external view{... */\n    tag_5:\n      tag_15\n      tag_16\n      jump\t// in\n    tag_15:\n      stop\n        /* \"contracts/Visibility.sol\":726:920  function test1() external view{... */\n    tag_6:\n      tag_17\n      tag_18\n      jump\t// in\n    tag_17:\n      stop\n        /* \"contracts/Visibility.sol\":364:381  uint public z = 2 */\n    tag_7:\n      tag_19\n      tag_20\n      jump\t// in\n    tag_19:\n      mload(0x40)\n      tag_21\n      swap2\n      swap1\n      tag_11\n      jump\t// in\n    tag_21:\n      mload(0x40)\n      dup1\n      swap2\n      sub\n      swap1\n      return\n        /* \"contracts/Visibility.sol\":641:720  function externalFunc() external   pure returns (uint){... */\n    tag_9:\n        /* \"contracts/Visibility.sol\":690:694  uint */\n      0x00\n        /* \"contracts/Visibility.sol\":641:720  function externalFunc() external   pure returns (uint){... */\n      swap1\n      jump\t// out\n        /* \"contracts/Visibility.sol\":558:636  function publicFunc() public   pure returns (uint){... */\n    tag_13:\n        /* \"contracts/Visibility.sol\":603:607  uint */\n      0x00\n        /* \"contracts/Visibility.sol\":625:629  2000 */\n      0x07d0\n        /* \"contracts/Visibility.sol\":618:629  return 2000 */\n      swap1\n      pop\n        /* \"contracts/Visibility.sol\":558:636  function publicFunc() public   pure returns (uint){... */\n      swap1\n      jump\t// out\n        /* \"contracts/Visibility.sol\":971:1127  function test2() external view{... */\n    tag_16:\n        /* \"contracts/Visibility.sol\":1015:1016  z */\n      sload(0x02)\n        /* \"contracts/Visibility.sol\":1011:1012  y */\n      sload(0x01)\n        /* \"contracts/Visibility.sol\":1011:1016  y + z */\n      tag_25\n      swap2\n      swap1\n      tag_26\n      jump\t// in\n    tag_25:\n      pop\n        /* \"contracts/Visibility.sol\":1026:1038  publicFunc() */\n      tag_27\n        /* \"contracts/Visibility.sol\":1026:1036  publicFunc */\n      tag_13\n        /* \"contracts/Visibility.sol\":1026:1038  publicFunc() */\n      jump\t// in\n    tag_27:\n      pop\n        /* \"contracts/Visibility.sol\":1048:1062  internalFunc() */\n      tag_28\n        /* \"contracts/Visibility.sol\":1048:1060  internalFunc */\n      tag_29\n        /* \"contracts/Visibility.sol\":1048:1062  internalFunc() */\n      jump\t// in\n    tag_28:\n      pop\n        /* \"contracts/Visibility.sol\":971:1127  function test2() external view{... */\n      jump\t// out\n        /* \"contracts/Visibility.sol\":726:920  function test1() external view{... */\n    tag_18:\n        /* \"contracts/Visibility.sol\":772:773  z */\n      sload(0x02)\n        /* \"contracts/Visibility.sol\":770:771  y */\n      sload(0x01)\n        /* \"contracts/Visibility.sol\":766:767  x */\n      sload(0x00)\n        /* \"contracts/Visibility.sol\":766:771  x + y */\n      tag_31\n      swap2\n      swap1\n      tag_26\n      jump\t// in\n    tag_31:\n        /* \"contracts/Visibility.sol\":766:773  x + y+z */\n      tag_32\n      swap2\n      swap1\n      tag_26\n      jump\t// in\n    tag_32:\n      pop\n        /* \"contracts/Visibility.sol\":783:796  privateFunc() */\n      tag_33\n        /* \"contracts/Visibility.sol\":783:794  privateFunc */\n      tag_34\n        /* \"contracts/Visibility.sol\":783:796  privateFunc() */\n      jump\t// in\n    tag_33:\n      pop\n        /* \"contracts/Visibility.sol\":806:820  internalFunc() */\n      tag_35\n        /* \"contracts/Visibility.sol\":806:818  internalFunc */\n      tag_29\n        /* \"contracts/Visibility.sol\":806:820  internalFunc() */\n      jump\t// in\n    tag_35:\n      pop\n        /* \"contracts/Visibility.sol\":830:842  publicFunc() */\n      tag_36\n        /* \"contracts/Visibility.sol\":830:840  publicFunc */\n      tag_13\n        /* \"contracts/Visibility.sol\":830:842  publicFunc() */\n      jump\t// in\n    tag_36:\n      pop\n        /* \"contracts/Visibility.sol\":853:857  this */\n      address\n        /* \"contracts/Visibility.sol\":853:870  this.externalFunc */\n      0xffffffffffffffffffffffffffffffffffffffff\n      and\n      0x42b148aa\n        /* \"contracts/Visibility.sol\":853:872  this.externalFunc() */\n      mload(0x40)\n      dup2\n      0xffffffff\n      and\n      0xe0\n      shl\n      dup2\n      mstore\n      0x04\n      add\n      0x20\n      mload(0x40)\n      dup1\n      dup4\n      sub\n      dup2\n      dup7\n      gas\n      staticcall\n      iszero\n      dup1\n      iszero\n      tag_38\n      jumpi\n      returndatasize\n      0x00\n      dup1\n      returndatacopy\n      revert(0x00, returndatasize)\n    tag_38:\n      pop\n      pop\n      pop\n      pop\n      mload(0x40)\n      returndatasize\n      not(0x1f)\n      0x1f\n      dup3\n      add\n      and\n      dup3\n      add\n      dup1\n      0x40\n      mstore\n      pop\n      dup2\n      add\n      swap1\n      tag_39\n      swap2\n      swap1\n      tag_40\n      jump\t// in\n    tag_39:\n      pop\n        /* \"contracts/Visibility.sol\":726:920  function test1() external view{... */\n      jump\t// out\n        /* \"contracts/Visibility.sol\":364:381  uint public z = 2 */\n    tag_20:\n      sload(0x02)\n      dup2\n      jump\t// out\n        /* \"contracts/Visibility.sol\":471:553  function internalFunc() internal   pure returns (uint){... */\n    tag_29:\n        /* \"contracts/Visibility.sol\":520:524  uint */\n      0x00\n        /* \"contracts/Visibility.sol\":542:546  1000 */\n      0x03e8\n        /* \"contracts/Visibility.sol\":535:546  return 1000 */\n      swap1\n      pop\n        /* \"contracts/Visibility.sol\":471:553  function internalFunc() internal   pure returns (uint){... */\n      swap1\n      jump\t// out\n        /* \"contracts/Visibility.sol\":389:465  function privateFunc() private  pure returns (uint){... */\n    tag_34:\n        /* \"contracts/Visibility.sol\":435:439  uint */\n      0x00\n        /* \"contracts/Visibility.sol\":389:465  function privateFunc() private  pure returns (uint){... */\n      swap1\n      jump\t// out\n        /* \"#utility.yul\":7:84   */\n    tag_43:\n        /* \"#utility.yul\":44:51   */\n      0x00\n        /* \"#utility.yul\":73:78   */\n      dup2\n        /* \"#utility.yul\":62:78   */\n      swap1\n      pop\n        /* \"#utility.yul\":7:84   */\n      swap2\n      swap1\n      pop\n      jump\t// out\n        /* \"#utility.yul\":90:208   */\n    tag_44:\n        /* \"#utility.yul\":177:201   */\n      tag_54\n        /* \"#utility.yul\":195:200   */\n      dup2\n        /* \"#utility.yul\":177:201   */\n      tag_43\n      jump\t// in\n    tag_54:\n        /* \"#utility.yul\":172:175   */\n      dup3\n        /* \"#utility.yul\":165:202   */\n      mstore\n        /* \"#utility.yul\":90:208   */\n      pop\n      pop\n      jump\t// out\n        /* \"#utility.yul\":214:436   */\n    tag_11:\n        /* \"#utility.yul\":307:311   */\n      0x00\n        /* \"#utility.yul\":345:347   */\n      0x20\n        /* \"#utility.yul\":334:343   */\n      dup3\n        /* \"#utility.yul\":330:348   */\n      add\n        /* \"#utility.yul\":322:348   */\n      swap1\n      pop\n        /* \"#utility.yul\":358:429   */\n      tag_56\n        /* \"#utility.yul\":426:427   */\n      0x00\n        /* \"#utility.yul\":415:424   */\n      dup4\n        /* \"#utility.yul\":411:428   */\n      add\n        /* \"#utility.yul\":402:408   */\n      dup5\n        /* \"#utility.yul\":358:429   */\n      tag_44\n      jump\t// in\n    tag_56:\n        /* \"#utility.yul\":214:436   */\n      swap3\n      swap2\n      pop\n      pop\n      jump\t// out\n        /* \"#utility.yul\":442:622   */\n    tag_45:\n        /* \"#utility.yul\":490:567   */\n      0x4e487b7100000000000000000000000000000000000000000000000000000000\n        /* \"#utility.yul\":487:488   */\n      0x00\n        /* \"#utility.yul\":480:568   */\n      mstore\n        /* \"#utility.yul\":587:591   */\n      0x11\n        /* \"#utility.yul\":584:585   */\n      0x04\n        /* \"#utility.yul\":577:592   */\n      mstore\n        /* \"#utility.yul\":611:615   */\n      0x24\n        /* \"#utility.yul\":608:609   */\n      0x00\n        /* \"#utility.yul\":601:616   */\n      revert\n        /* \"#utility.yul\":628:819   */\n    tag_26:\n        /* \"#utility.yul\":668:671   */\n      0x00\n        /* \"#utility.yul\":687:707   */\n      tag_59\n        /* \"#utility.yul\":705:706   */\n      dup3\n        /* \"#utility.yul\":687:707   */\n      tag_43\n      jump\t// in\n    tag_59:\n        /* \"#utility.yul\":682:707   */\n      swap2\n      pop\n        /* \"#utility.yul\":721:741   */\n      tag_60\n        /* \"#utility.yul\":739:740   */\n      dup4\n        /* \"#utility.yul\":721:741   */\n      tag_43\n      jump\t// in\n    tag_60:\n        /* \"#utility.yul\":716:741   */\n      swap3\n      pop\n        /* \"#utility.yul\":764:765   */\n      dup3\n        /* \"#utility.yul\":761:762   */\n      dup3\n        /* \"#utility.yul\":757:766   */\n      add\n        /* \"#utility.yul\":750:766   */\n      swap1\n      pop\n        /* \"#utility.yul\":785:788   */\n      dup1\n        /* \"#utility.yul\":782:783   */\n      dup3\n        /* \"#utility.yul\":779:789   */\n      gt\n        /* \"#utility.yul\":776:812   */\n      iszero\n      tag_61\n      jumpi\n        /* \"#utility.yul\":792:810   */\n      tag_62\n      tag_45\n      jump\t// in\n    tag_62:\n        /* \"#utility.yul\":776:812   */\n    tag_61:\n        /* \"#utility.yul\":628:819   */\n      swap3\n      swap2\n      pop\n      pop\n      jump\t// out\n        /* \"#utility.yul\":906:1023   */\n    tag_47:\n        /* \"#utility.yul\":1015:1016   */\n      0x00\n        /* \"#utility.yul\":1012:1013   */\n      dup1\n        /* \"#utility.yul\":1005:1017   */\n      revert\n        /* \"#utility.yul\":1152:1274   */\n    tag_49:\n        /* \"#utility.yul\":1225:1249   */\n      tag_67\n        /* \"#utility.yul\":1243:1248   */\n      dup2\n        /* \"#utility.yul\":1225:1249   */\n      tag_43\n      jump\t// in\n    tag_67:\n        /* \"#utility.yul\":1218:1223   */\n      dup2\n        /* \"#utility.yul\":1215:1250   */\n      eq\n        /* \"#utility.yul\":1205:1268   */\n      tag_68\n      jumpi\n        /* \"#utility.yul\":1264:1265   */\n      0x00\n        /* \"#utility.yul\":1261:1262   */\n      dup1\n        /* \"#utility.yul\":1254:1266   */\n      revert\n        /* \"#utility.yul\":1205:1268   */\n    tag_68:\n        /* \"#utility.yul\":1152:1274   */\n      pop\n      jump\t// out\n        /* \"#utility.yul\":1280:1423   */\n    tag_50:\n        /* \"#utility.yul\":1337:1342   */\n      0x00\n        /* \"#utility.yul\":1368:1374   */\n      dup2\n        /* \"#utility.yul\":1362:1375   */\n      mload\n        /* \"#utility.yul\":1353:1375   */\n      swap1\n      pop\n        /* \"#utility.yul\":1384:1417   */\n      tag_70\n        /* \"#utility.yul\":1411:1416   */\n      dup2\n        /* \"#utility.yul\":1384:1417   */\n      tag_49\n      jump\t// in\n    tag_70:\n        /* \"#utility.yul\":1280:1423   */\n      swap3\n      swap2\n      pop\n      pop\n      jump\t// out\n        /* \"#utility.yul\":1429:1780   */\n    tag_40:\n        /* \"#utility.yul\":1499:1505   */\n      0x00\n        /* \"#utility.yul\":1548:1550   */\n      0x20\n        /* \"#utility.yul\":1536:1545   */\n      dup3\n        /* \"#utility.yul\":1527:1534   */\n      dup5\n        /* \"#utility.yul\":1523:1546   */\n      sub\n        /* \"#utility.yul\":1519:1551   */\n      slt\n        /* \"#utility.yul\":1516:1635   */\n      iszero\n      tag_72\n      jumpi\n        /* \"#utility.yul\":1554:1633   */\n      tag_73\n      tag_47\n      jump\t// in\n    tag_73:\n        /* \"#utility.yul\":1516:1635   */\n    tag_72:\n        /* \"#utility.yul\":1674:1675   */\n      0x00\n        /* \"#utility.yul\":1699:1763   */\n      tag_74\n        /* \"#utility.yul\":1755:1762   */\n      dup5\n        /* \"#utility.yul\":1746:1752   */\n      dup3\n        /* \"#utility.yul\":1735:1744   */\n      dup6\n        /* \"#utility.yul\":1731:1753   */\n      add\n        /* \"#utility.yul\":1699:1763   */\n      tag_50\n      jump\t// in\n    tag_74:\n        /* \"#utility.yul\":1689:1763   */\n      swap2\n      pop\n        /* \"#utility.yul\":1645:1773   */\n      pop\n        /* \"#utility.yul\":1429:1780   */\n      swap3\n      swap2\n      pop\n      pop\n      jump\t// out\n\n    auxdata: 0xa264697066735822122005710e22802bad3dbcb295824ef31d29a3a600baf80f62ee2974ffe7b9520cab64736f6c63430008130033\n}\n",
				"bytecode": {
					"linkReferences": {},
					"object": "608060405260008055600180556002805534801561001c57600080fd5b506102e98061002c6000396000f3fe608060405234801561001057600080fd5b50600436106100575760003560e01c806342b148aa1461005c5780634b73383f1461007a57806366e41cb7146100985780636b59084d146100a2578063c5d7802e146100ac575b600080fd5b6100646100ca565b60405161007191906101d7565b60405180910390f35b6100826100cf565b60405161008f91906101d7565b60405180910390f35b6100a06100d9565b005b6100aa6100fe565b005b6100b46101a9565b6040516100c191906101d7565b60405180910390f35b600090565b60006107d0905090565b6002546001546100e99190610221565b506100f26100cf565b506100fb6101af565b50565b6002546001546000546101119190610221565b61011b9190610221565b506101246101b9565b5061012d6101af565b506101366100cf565b503073ffffffffffffffffffffffffffffffffffffffff166342b148aa6040518163ffffffff1660e01b8152600401602060405180830381865afa158015610182573d6000803e3d6000fd5b505050506040513d601f19601f820116820180604052508101906101a69190610286565b50565b60025481565b60006103e8905090565b600090565b6000819050919050565b6101d1816101be565b82525050565b60006020820190506101ec60008301846101c8565b92915050565b7f4e487b7100000000000000000000000000000000000000000000000000000000600052601160045260246000fd5b600061022c826101be565b9150610237836101be565b925082820190508082111561024f5761024e6101f2565b5b92915050565b600080fd5b610263816101be565b811461026e57600080fd5b50565b6000815190506102808161025a565b92915050565b60006020828403121561029c5761029b610255565b5b60006102aa84828501610271565b9150509291505056fea264697066735822122005710e22802bad3dbcb295824ef31d29a3a600baf80f62ee2974ffe7b9520cab64736f6c63430008130033",
					"opcodes": "PUSH1 0x80 PUSH1 0x40 MSTORE PUSH1 0x0 DUP1 SSTORE PUSH1 0x1 DUP1 SSTORE PUSH1 0x2 DUP1 SSTORE CALLVALUE DUP1 ISZERO PUSH2 0x1C JUMPI PUSH1 0x0 DUP1 REVERT JUMPDEST POP PUSH2 0x2E9 DUP1 PUSH2 0x2C PUSH1 0x0 CODECOPY PUSH1 0x0 RETURN INVALID PUSH1 0x80 PUSH1 0x40 MSTORE CALLVALUE DUP1 ISZERO PUSH2 0x10 JUMPI PUSH1 0x0 DUP1 REVERT JUMPDEST POP PUSH1 0x4 CALLDATASIZE LT PUSH2 0x57 JUMPI PUSH1 0x0 CALLDATALOAD PUSH1 0xE0 SHR DUP1 PUSH4 0x42B148AA EQ PUSH2 0x5C JUMPI DUP1 PUSH4 0x4B73383F EQ PUSH2 0x7A JUMPI DUP1 PUSH4 0x66E41CB7 EQ PUSH2 0x98 JUMPI DUP1 PUSH4 0x6B59084D EQ PUSH2 0xA2 JUMPI DUP1 PUSH4 0xC5D7802E EQ PUSH2 0xAC JUMPI JUMPDEST PUSH1 0x0 DUP1 REVERT JUMPDEST PUSH2 0x64 PUSH2 0xCA JUMP JUMPDEST PUSH1 0x40 MLOAD PUSH2 0x71 SWAP2 SWAP1 PUSH2 0x1D7 JUMP JUMPDEST PUSH1 0x40 MLOAD DUP1 SWAP2 SUB SWAP1 RETURN JUMPDEST PUSH2 0x82 PUSH2 0xCF JUMP JUMPDEST PUSH1 0x40 MLOAD PUSH2 0x8F SWAP2 SWAP1 PUSH2 0x1D7 JUMP JUMPDEST PUSH1 0x40 MLOAD DUP1 SWAP2 SUB SWAP1 RETURN JUMPDEST PUSH2 0xA0 PUSH2 0xD9 JUMP JUMPDEST STOP JUMPDEST PUSH2 0xAA PUSH2 0xFE JUMP JUMPDEST STOP JUMPDEST PUSH2 0xB4 PUSH2 0x1A9 JUMP JUMPDEST PUSH1 0x40 MLOAD PUSH2 0xC1 SWAP2 SWAP1 PUSH2 0x1D7 JUMP JUMPDEST PUSH1 0x40 MLOAD DUP1 SWAP2 SUB SWAP1 RETURN JUMPDEST PUSH1 0x0 SWAP1 JUMP JUMPDEST PUSH1 0x0 PUSH2 0x7D0 SWAP1 POP SWAP1 JUMP JUMPDEST PUSH1 0x2 SLOAD PUSH1 0x1 SLOAD PUSH2 0xE9 SWAP2 SWAP1 PUSH2 0x221 JUMP JUMPDEST POP PUSH2 0xF2 PUSH2 0xCF JUMP JUMPDEST POP PUSH2 0xFB PUSH2 0x1AF JUMP JUMPDEST POP JUMP JUMPDEST PUSH1 0x2 SLOAD PUSH1 0x1 SLOAD PUSH1 0x0 SLOAD PUSH2 0x111 SWAP2 SWAP1 PUSH2 0x221 JUMP JUMPDEST PUSH2 0x11B SWAP2 SWAP1 PUSH2 0x221 JUMP JUMPDEST POP PUSH2 0x124 PUSH2 0x1B9 JUMP JUMPDEST POP PUSH2 0x12D PUSH2 0x1AF JUMP JUMPDEST POP PUSH2 0x136 PUSH2 0xCF JUMP JUMPDEST POP ADDRESS PUSH20 0xFFFFFFFFFFFFFFFFFFFFFFFFFFFFFFFFFFFFFFFF AND PUSH4 0x42B148AA PUSH1 0x40 MLOAD DUP2 PUSH4 0xFFFFFFFF AND PUSH1 0xE0 SHL DUP2 MSTORE PUSH1 0x4 ADD PUSH1 0x20 PUSH1 0x40 MLOAD DUP1 DUP4 SUB DUP2 DUP7 GAS STATICCALL ISZERO DUP1 ISZERO PUSH2 0x182 JUMPI RETURNDATASIZE PUSH1 0x0 DUP1 RETURNDATACOPY RETURNDATASIZE PUSH1 0x0 REVERT JUMPDEST POP POP POP POP PUSH1 0x40 MLOAD RETURNDATASIZE PUSH1 0x1F NOT PUSH1 0x1F DUP3 ADD AND DUP3 ADD DUP1 PUSH1 0x40 MSTORE POP DUP2 ADD SWAP1 PUSH2 0x1A6 SWAP2 SWAP1 PUSH2 0x286 JUMP JUMPDEST POP JUMP JUMPDEST PUSH1 0x2 SLOAD DUP2 JUMP JUMPDEST PUSH1 0x0 PUSH2 0x3E8 SWAP1 POP SWAP1 JUMP JUMPDEST PUSH1 0x0 SWAP1 JUMP JUMPDEST PUSH1 0x0 DUP2 SWAP1 POP SWAP2 SWAP1 POP JUMP JUMPDEST PUSH2 0x1D1 DUP2 PUSH2 0x1BE JUMP JUMPDEST DUP3 MSTORE POP POP JUMP JUMPDEST PUSH1 0x0 PUSH1 0x20 DUP3 ADD SWAP1 POP PUSH2 0x1EC PUSH1 0x0 DUP4 ADD DUP5 PUSH2 0x1C8 JUMP JUMPDEST SWAP3 SWAP2 POP POP JUMP JUMPDEST PUSH32 0x4E487B7100000000000000000000000000000000000000000000000000000000 PUSH1 0x0 MSTORE PUSH1 0x11 PUSH1 0x4 MSTORE PUSH1 0x24 PUSH1 0x0 REVERT JUMPDEST PUSH1 0x0 PUSH2 0x22C DUP3 PUSH2 0x1BE JUMP JUMPDEST SWAP2 POP PUSH2 0x237 DUP4 PUSH2 0x1BE JUMP JUMPDEST SWAP3 POP DUP3 DUP3 ADD SWAP1 POP DUP1 DUP3 GT ISZERO PUSH2 0x24F JUMPI PUSH2 0x24E PUSH2 0x1F2 JUMP JUMPDEST JUMPDEST SWAP3 SWAP2 POP POP JUMP JUMPDEST PUSH1 0x0 DUP1 REVERT JUMPDEST PUSH2 0x263 DUP2 PUSH2 0x1BE JUMP JUMPDEST DUP2 EQ PUSH2 0x26E JUMPI PUSH1 0x0 DUP1 REVERT JUMPDEST POP JUMP JUMPDEST PUSH1 0x0 DUP2 MLOAD SWAP1 POP PUSH2 0x280 DUP2 PUSH2 0x25A JUMP JUMPDEST SWAP3 SWAP2 POP POP JUMP JUMPDEST PUSH1 0x0 PUSH1 0x20 DUP3 DUP5 SUB SLT ISZERO PUSH2 0x29C JUMPI PUSH2 0x29B PUSH2 0x255 JUMP JUMPDEST JUMPDEST PUSH1 0x0 PUSH2 0x2AA DUP5 DUP3 DUP6 ADD PUSH2 0x271 JUMP JUMPDEST SWAP2 POP POP SWAP3 SWAP2 POP POP JUMP INVALID LOG2 PUSH5 0x6970667358 0x22 SLT KECCAK256 SDIV PUSH18 0xE22802BAD3DBCB295824EF31D29A3A600BA 0xF8 0xF PUSH3 0xEE2974 SELFDESTRUCT 0xE7 0xB9 MSTORE 0xC 0xAB PUSH5 0x736F6C6343 STOP ADDMOD SGT STOP CALLER "
				},
				"gasEstimates": {
					"creation": {
						"codeDepositCost": "149000",
						"executionCost": "49414",
						"totalCost": "198414"
					},
					"external": {
						"externalFunc()": "307",
						"publicFunc()": "337",
						"test1()": "infinite",
						"test2()": "infinite",
						"z()": "2495"
					}
				},
				"methodIdentifiers": {
					"externalFunc()": "42b148aa",
					"publicFunc()": "4b73383f",
					"test1()": "6b59084d",
					"test2()": "66e41cb7",
					"z()": "c5d7802e"
				}
			},
			"storageLayout": {
				"storage": [
					{
						"astId": 4,
						"contract": "contracts/Visibility.sol:VisibilityChild",
						"label": "x",
						"offset": 0,
						"slot": "0",
						"type": "t_uint256"
					},
					{
						"astId": 7,
						"contract": "contracts/Visibility.sol:VisibilityChild",
						"label": "y",
						"offset": 0,
						"slot": "1",
						"type": "t_uint256"
					},
					{
						"astId": 10,
						"contract": "contracts/Visibility.sol:VisibilityChild",
						"label": "z",
						"offset": 0,
						"slot": "2",
						"type": "t_uint256"
					}
				],
				"types": {
					"t_uint256": {
						"encoding": "inplace",
						"label": "uint256",
						"numberOfBytes": "32"
					}
				}
			},
			"userdoc": {
				"kind": "user",
				"methods": {},
				"version": 1
			}
		}
	}
}