{
	"contracts/Events.sol": {
		"Events": {
			"abi": [
				{
					"anonymous": false,
					"inputs": [
						{
							"indexed": false,
							"internalType": "string",
							"name": "message",
							"type": "string"
						},
						{
							"indexed": false,
							"internalType": "uint256",
							"name": "val",
							"type": "uint256"
						}
					],
					"name": "Log",
					"type": "event"
				},
				{
					"anonymous": false,
					"inputs": [
						{
							"indexed": true,
							"internalType": "address",
							"name": "_from",
							"type": "address"
						},
						{
							"indexed": false,
							"internalType": "address",
							"name": "_to",
							"type": "address"
						},
						{
							"indexed": false,
							"internalType": "string",
							"name": "message",
							"type": "string"
						}
					],
					"name": "Message",
					"type": "event"
				},
				{
					"anonymous": false,
					"inputs": [
						{
							"indexed": true,
							"internalType": "address",
							"name": "sender",
							"type": "address"
						},
						{
							"indexed": false,
							"internalType": "uint256",
							"name": "val",
							"type": "uint256"
						}
					],
					"name": "indexedLog",
					"type": "event"
				},
				{
					"inputs": [],
					"name": "example",
					"outputs": [],
					"stateMutability": "nonpayable",
					"type": "function"
				},
				{
					"inputs": [
						{
							"internalType": "address",
							"name": "_to",
							"type": "address"
						},
						{
							"internalType": "string",
							"name": "message",
							"type": "string"
						}
					],
					"name": "sendMessage",
					"outputs": [],
					"stateMutability": "nonpayable",
					"type": "function"
				}
			],
			"devdoc": {
				"kind": "dev",
				"methods": {},
				"version": 1
			},
			"evm": {
				"assembly": "    /* \"contracts/Events.sol\":57:690  contract Events {... */\n  mstore(0x40, 0x80)\n  callvalue\n  dup1\n  iszero\n  tag_1\n  jumpi\n  0x00\n  dup1\n  revert\ntag_1:\n  pop\n  dataSize(sub_0)\n  dup1\n  dataOffset(sub_0)\n  0x00\n  codecopy\n  0x00\n  return\nstop\n\nsub_0: assembly {\n        /* \"contracts/Events.sol\":57:690  contract Events {... */\n      mstore(0x40, 0x80)\n      callvalue\n      dup1\n      iszero\n      tag_1\n      jumpi\n      0x00\n      dup1\n      revert\n    tag_1:\n      pop\n      jumpi(tag_2, lt(calldatasize, 0x04))\n      shr(0xe0, calldataload(0x00))\n      dup1\n      0x54353f2f\n      eq\n      tag_3\n      jumpi\n      dup1\n      0xde6f24bb\n      eq\n      tag_4\n      jumpi\n    tag_2:\n      0x00\n      dup1\n      revert\n        /* \"contracts/Events.sol\":357:466  function example() external {... */\n    tag_3:\n      tag_5\n      tag_6\n      jump\t// in\n    tag_5:\n      stop\n        /* \"contracts/Events.sol\":546:669  function sendMessage(address _to, string calldata message) external {... */\n    tag_4:\n      tag_7\n      0x04\n      dup1\n      calldatasize\n      sub\n      dup2\n      add\n      swap1\n      tag_8\n      swap2\n      swap1\n      tag_9\n      jump\t// in\n    tag_8:\n      tag_10\n      jump\t// in\n    tag_7:\n      stop\n        /* \"contracts/Events.sol\":357:466  function example() external {... */\n    tag_6:\n        /* \"contracts/Events.sol\":400:417  Log (\"foo\", 1234) */\n      0xdd970dd9b5bfe707922155b058a407655cb18288b807e2216442bca8ad83d6b5\n        /* \"contracts/Events.sol\":412:416  1234 */\n      0x04d2\n        /* \"contracts/Events.sol\":400:417  Log (\"foo\", 1234) */\n      mload(0x40)\n      tag_12\n      swap2\n      swap1\n      tag_13\n      jump\t// in\n    tag_12:\n      mload(0x40)\n      dup1\n      swap2\n      sub\n      swap1\n      log1\n        /* \"contracts/Events.sol\":443:453  msg.sender */\n      caller\n        /* \"contracts/Events.sol\":432:459  indexedLog(msg.sender, 789) */\n      0xffffffffffffffffffffffffffffffffffffffff\n      and\n      0x498ad7cd4214d8ac7be140823454bc075f6e9c33cf81a1b50218e1307e2ea07f\n        /* \"contracts/Events.sol\":455:458  789 */\n      0x0315\n        /* \"contracts/Events.sol\":432:459  indexedLog(msg.sender, 789) */\n      mload(0x40)\n      tag_14\n      swap2\n      swap1\n      tag_15\n      jump\t// in\n    tag_14:\n      mload(0x40)\n      dup1\n      swap2\n      sub\n      swap1\n      log2\n        /* \"contracts/Events.sol\":357:466  function example() external {... */\n      jump\t// out\n        /* \"contracts/Events.sol\":546:669  function sendMessage(address _to, string calldata message) external {... */\n    tag_10:\n        /* \"contracts/Events.sol\":637:647  msg.sender */\n      caller\n        /* \"contracts/Events.sol\":629:662  Message(msg.sender, _to, message) */\n      0xffffffffffffffffffffffffffffffffffffffff\n      and\n      0xb3dbe9e9894ca2c11cb6c80bd0b0bccb9f5b41d612dbeeda0d5474de40b874fe\n        /* \"contracts/Events.sol\":649:652  _to */\n      dup5\n        /* \"contracts/Events.sol\":654:661  message */\n      dup5\n      dup5\n        /* \"contracts/Events.sol\":629:662  Message(msg.sender, _to, message) */\n      mload(0x40)\n      tag_17\n      swap4\n      swap3\n      swap2\n      swap1\n      tag_18\n      jump\t// in\n    tag_17:\n      mload(0x40)\n      dup1\n      swap2\n      sub\n      swap1\n      log2\n        /* \"contracts/Events.sol\":546:669  function sendMessage(address _to, string calldata message) external {... */\n      pop\n      pop\n      pop\n      jump\t// out\n        /* \"#utility.yul\":7:146   */\n    tag_20:\n        /* \"#utility.yul\":53:58   */\n      0x00\n        /* \"#utility.yul\":91:97   */\n      dup2\n        /* \"#utility.yul\":78:98   */\n      calldataload\n        /* \"#utility.yul\":69:98   */\n      swap1\n      pop\n        /* \"#utility.yul\":107:140   */\n      tag_22\n        /* \"#utility.yul\":134:139   */\n      dup2\n        /* \"#utility.yul\":107:140   */\n      tag_23\n      jump\t// in\n    tag_22:\n        /* \"#utility.yul\":7:146   */\n      swap3\n      swap2\n      pop\n      pop\n      jump\t// out\n        /* \"#utility.yul\":166:719   */\n    tag_24:\n        /* \"#utility.yul\":224:232   */\n      0x00\n        /* \"#utility.yul\":234:240   */\n      dup1\n        /* \"#utility.yul\":284:287   */\n      dup4\n        /* \"#utility.yul\":277:281   */\n      0x1f\n        /* \"#utility.yul\":269:275   */\n      dup5\n        /* \"#utility.yul\":265:282   */\n      add\n        /* \"#utility.yul\":261:288   */\n      slt\n        /* \"#utility.yul\":251:373   */\n      tag_26\n      jumpi\n        /* \"#utility.yul\":292:371   */\n      tag_27\n      tag_28\n      jump\t// in\n    tag_27:\n        /* \"#utility.yul\":251:373   */\n    tag_26:\n        /* \"#utility.yul\":405:411   */\n      dup3\n        /* \"#utility.yul\":392:412   */\n      calldataload\n        /* \"#utility.yul\":382:412   */\n      swap1\n      pop\n        /* \"#utility.yul\":435:453   */\n      0xffffffffffffffff\n        /* \"#utility.yul\":427:433   */\n      dup2\n        /* \"#utility.yul\":424:454   */\n      gt\n        /* \"#utility.yul\":421:538   */\n      iszero\n      tag_29\n      jumpi\n        /* \"#utility.yul\":457:536   */\n      tag_30\n      tag_31\n      jump\t// in\n    tag_30:\n        /* \"#utility.yul\":421:538   */\n    tag_29:\n        /* \"#utility.yul\":571:575   */\n      0x20\n        /* \"#utility.yul\":563:569   */\n      dup4\n        /* \"#utility.yul\":559:576   */\n      add\n        /* \"#utility.yul\":547:576   */\n      swap2\n      pop\n        /* \"#utility.yul\":625:628   */\n      dup4\n        /* \"#utility.yul\":617:621   */\n      0x01\n        /* \"#utility.yul\":609:615   */\n      dup3\n        /* \"#utility.yul\":605:622   */\n      mul\n        /* \"#utility.yul\":595:603   */\n      dup4\n        /* \"#utility.yul\":591:623   */\n      add\n        /* \"#utility.yul\":588:629   */\n      gt\n        /* \"#utility.yul\":585:713   */\n      iszero\n      tag_32\n      jumpi\n        /* \"#utility.yul\":632:711   */\n      tag_33\n      tag_34\n      jump\t// in\n    tag_33:\n        /* \"#utility.yul\":585:713   */\n    tag_32:\n        /* \"#utility.yul\":166:719   */\n      swap3\n      pop\n      swap3\n      swap1\n      pop\n      jump\t// out\n        /* \"#utility.yul\":725:1399   */\n    tag_9:\n        /* \"#utility.yul\":805:811   */\n      0x00\n        /* \"#utility.yul\":813:819   */\n      dup1\n        /* \"#utility.yul\":821:827   */\n      0x00\n        /* \"#utility.yul\":870:872   */\n      0x40\n        /* \"#utility.yul\":858:867   */\n      dup5\n        /* \"#utility.yul\":849:856   */\n      dup7\n        /* \"#utility.yul\":845:868   */\n      sub\n        /* \"#utility.yul\":841:873   */\n      slt\n        /* \"#utility.yul\":838:957   */\n      iszero\n      tag_36\n      jumpi\n        /* \"#utility.yul\":876:955   */\n      tag_37\n      tag_38\n      jump\t// in\n    tag_37:\n        /* \"#utility.yul\":838:957   */\n    tag_36:\n        /* \"#utility.yul\":996:997   */\n      0x00\n        /* \"#utility.yul\":1021:1074   */\n      tag_39\n        /* \"#utility.yul\":1066:1073   */\n      dup7\n        /* \"#utility.yul\":1057:1063   */\n      dup3\n        /* \"#utility.yul\":1046:1055   */\n      dup8\n        /* \"#utility.yul\":1042:1064   */\n      add\n        /* \"#utility.yul\":1021:1074   */\n      tag_20\n      jump\t// in\n    tag_39:\n        /* \"#utility.yul\":1011:1074   */\n      swap4\n      pop\n        /* \"#utility.yul\":967:1084   */\n      pop\n        /* \"#utility.yul\":1151:1153   */\n      0x20\n        /* \"#utility.yul\":1140:1149   */\n      dup5\n        /* \"#utility.yul\":1136:1154   */\n      add\n        /* \"#utility.yul\":1123:1155   */\n      calldataload\n        /* \"#utility.yul\":1182:1200   */\n      0xffffffffffffffff\n        /* \"#utility.yul\":1174:1180   */\n      dup2\n        /* \"#utility.yul\":1171:1201   */\n      gt\n        /* \"#utility.yul\":1168:1285   */\n      iszero\n      tag_40\n      jumpi\n        /* \"#utility.yul\":1204:1283   */\n      tag_41\n      tag_42\n      jump\t// in\n    tag_41:\n        /* \"#utility.yul\":1168:1285   */\n    tag_40:\n        /* \"#utility.yul\":1317:1382   */\n      tag_43\n        /* \"#utility.yul\":1374:1381   */\n      dup7\n        /* \"#utility.yul\":1365:1371   */\n      dup3\n        /* \"#utility.yul\":1354:1363   */\n      dup8\n        /* \"#utility.yul\":1350:1372   */\n      add\n        /* \"#utility.yul\":1317:1382   */\n      tag_24\n      jump\t// in\n    tag_43:\n        /* \"#utility.yul\":1299:1382   */\n      swap3\n      pop\n      swap3\n      pop\n        /* \"#utility.yul\":1094:1392   */\n      pop\n        /* \"#utility.yul\":725:1399   */\n      swap3\n      pop\n      swap3\n      pop\n      swap3\n      jump\t// out\n        /* \"#utility.yul\":1405:1523   */\n    tag_44:\n        /* \"#utility.yul\":1492:1516   */\n      tag_46\n        /* \"#utility.yul\":1510:1515   */\n      dup2\n        /* \"#utility.yul\":1492:1516   */\n      tag_47\n      jump\t// in\n    tag_46:\n        /* \"#utility.yul\":1487:1490   */\n      dup3\n        /* \"#utility.yul\":1480:1517   */\n      mstore\n        /* \"#utility.yul\":1405:1523   */\n      pop\n      pop\n      jump\t// out\n        /* \"#utility.yul\":1529:1682   */\n    tag_48:\n        /* \"#utility.yul\":1627:1675   */\n      tag_50\n        /* \"#utility.yul\":1669:1674   */\n      dup2\n        /* \"#utility.yul\":1627:1675   */\n      tag_51\n      jump\t// in\n    tag_50:\n        /* \"#utility.yul\":1622:1625   */\n      dup3\n        /* \"#utility.yul\":1615:1676   */\n      mstore\n        /* \"#utility.yul\":1529:1682   */\n      pop\n      pop\n      jump\t// out\n        /* \"#utility.yul\":1688:1839   */\n    tag_52:\n        /* \"#utility.yul\":1785:1832   */\n      tag_54\n        /* \"#utility.yul\":1826:1831   */\n      dup2\n        /* \"#utility.yul\":1785:1832   */\n      tag_55\n      jump\t// in\n    tag_54:\n        /* \"#utility.yul\":1780:1783   */\n      dup3\n        /* \"#utility.yul\":1773:1833   */\n      mstore\n        /* \"#utility.yul\":1688:1839   */\n      pop\n      pop\n      jump\t// out\n        /* \"#utility.yul\":1869:2173   */\n    tag_56:\n        /* \"#utility.yul\":1967:1970   */\n      0x00\n        /* \"#utility.yul\":1988:2059   */\n      tag_58\n        /* \"#utility.yul\":2052:2058   */\n      dup4\n        /* \"#utility.yul\":2047:2050   */\n      dup6\n        /* \"#utility.yul\":1988:2059   */\n      tag_59\n      jump\t// in\n    tag_58:\n        /* \"#utility.yul\":1981:2059   */\n      swap4\n      pop\n        /* \"#utility.yul\":2069:2112   */\n      tag_60\n        /* \"#utility.yul\":2105:2111   */\n      dup4\n        /* \"#utility.yul\":2100:2103   */\n      dup6\n        /* \"#utility.yul\":2093:2098   */\n      dup5\n        /* \"#utility.yul\":2069:2112   */\n      tag_61\n      jump\t// in\n    tag_60:\n        /* \"#utility.yul\":2137:2166   */\n      tag_62\n        /* \"#utility.yul\":2159:2165   */\n      dup4\n        /* \"#utility.yul\":2137:2166   */\n      tag_63\n      jump\t// in\n    tag_62:\n        /* \"#utility.yul\":2132:2135   */\n      dup5\n        /* \"#utility.yul\":2128:2167   */\n      add\n        /* \"#utility.yul\":2121:2167   */\n      swap1\n      pop\n        /* \"#utility.yul\":1869:2173   */\n      swap4\n      swap3\n      pop\n      pop\n      pop\n      jump\t// out\n        /* \"#utility.yul\":2179:2544   */\n    tag_64:\n        /* \"#utility.yul\":2321:2324   */\n      0x00\n        /* \"#utility.yul\":2342:2408   */\n      tag_66\n        /* \"#utility.yul\":2406:2407   */\n      0x03\n        /* \"#utility.yul\":2401:2404   */\n      dup4\n        /* \"#utility.yul\":2342:2408   */\n      tag_59\n      jump\t// in\n    tag_66:\n        /* \"#utility.yul\":2335:2408   */\n      swap2\n      pop\n        /* \"#utility.yul\":2417:2510   */\n      tag_67\n        /* \"#utility.yul\":2506:2509   */\n      dup3\n        /* \"#utility.yul\":2417:2510   */\n      tag_68\n      jump\t// in\n    tag_67:\n        /* \"#utility.yul\":2535:2537   */\n      0x20\n        /* \"#utility.yul\":2530:2533   */\n      dup3\n        /* \"#utility.yul\":2526:2538   */\n      add\n        /* \"#utility.yul\":2519:2538   */\n      swap1\n      pop\n        /* \"#utility.yul\":2179:2544   */\n      swap2\n      swap1\n      pop\n      jump\t// out\n        /* \"#utility.yul\":2550:2993   */\n    tag_18:\n        /* \"#utility.yul\":2701:2705   */\n      0x00\n        /* \"#utility.yul\":2739:2741   */\n      0x40\n        /* \"#utility.yul\":2728:2737   */\n      dup3\n        /* \"#utility.yul\":2724:2742   */\n      add\n        /* \"#utility.yul\":2716:2742   */\n      swap1\n      pop\n        /* \"#utility.yul\":2752:2823   */\n      tag_70\n        /* \"#utility.yul\":2820:2821   */\n      0x00\n        /* \"#utility.yul\":2809:2818   */\n      dup4\n        /* \"#utility.yul\":2805:2822   */\n      add\n        /* \"#utility.yul\":2796:2802   */\n      dup7\n        /* \"#utility.yul\":2752:2823   */\n      tag_44\n      jump\t// in\n    tag_70:\n        /* \"#utility.yul\":2870:2879   */\n      dup2\n        /* \"#utility.yul\":2864:2868   */\n      dup2\n        /* \"#utility.yul\":2860:2880   */\n      sub\n        /* \"#utility.yul\":2855:2857   */\n      0x20\n        /* \"#utility.yul\":2844:2853   */\n      dup4\n        /* \"#utility.yul\":2840:2858   */\n      add\n        /* \"#utility.yul\":2833:2881   */\n      mstore\n        /* \"#utility.yul\":2898:2986   */\n      tag_71\n        /* \"#utility.yul\":2981:2985   */\n      dup2\n        /* \"#utility.yul\":2972:2978   */\n      dup5\n        /* \"#utility.yul\":2964:2970   */\n      dup7\n        /* \"#utility.yul\":2898:2986   */\n      tag_56\n      jump\t// in\n    tag_71:\n        /* \"#utility.yul\":2890:2986   */\n      swap1\n      pop\n        /* \"#utility.yul\":2550:2993   */\n      swap5\n      swap4\n      pop\n      pop\n      pop\n      pop\n      jump\t// out\n        /* \"#utility.yul\":2999:3241   */\n    tag_15:\n        /* \"#utility.yul\":3102:3106   */\n      0x00\n        /* \"#utility.yul\":3140:3142   */\n      0x20\n        /* \"#utility.yul\":3129:3138   */\n      dup3\n        /* \"#utility.yul\":3125:3143   */\n      add\n        /* \"#utility.yul\":3117:3143   */\n      swap1\n      pop\n        /* \"#utility.yul\":3153:3234   */\n      tag_73\n        /* \"#utility.yul\":3231:3232   */\n      0x00\n        /* \"#utility.yul\":3220:3229   */\n      dup4\n        /* \"#utility.yul\":3216:3233   */\n      add\n        /* \"#utility.yul\":3207:3213   */\n      dup5\n        /* \"#utility.yul\":3153:3234   */\n      tag_52\n      jump\t// in\n    tag_73:\n        /* \"#utility.yul\":2999:3241   */\n      swap3\n      swap2\n      pop\n      pop\n      jump\t// out\n        /* \"#utility.yul\":3247:3798   */\n    tag_13:\n        /* \"#utility.yul\":3452:3456   */\n      0x00\n        /* \"#utility.yul\":3490:3492   */\n      0x40\n        /* \"#utility.yul\":3479:3488   */\n      dup3\n        /* \"#utility.yul\":3475:3493   */\n      add\n        /* \"#utility.yul\":3467:3493   */\n      swap1\n      pop\n        /* \"#utility.yul\":3539:3548   */\n      dup2\n        /* \"#utility.yul\":3533:3537   */\n      dup2\n        /* \"#utility.yul\":3529:3549   */\n      sub\n        /* \"#utility.yul\":3525:3526   */\n      0x00\n        /* \"#utility.yul\":3514:3523   */\n      dup4\n        /* \"#utility.yul\":3510:3527   */\n      add\n        /* \"#utility.yul\":3503:3550   */\n      mstore\n        /* \"#utility.yul\":3567:3698   */\n      tag_75\n        /* \"#utility.yul\":3693:3697   */\n      dup2\n        /* \"#utility.yul\":3567:3698   */\n      tag_64\n      jump\t// in\n    tag_75:\n        /* \"#utility.yul\":3559:3698   */\n      swap1\n      pop\n        /* \"#utility.yul\":3708:3791   */\n      tag_76\n        /* \"#utility.yul\":3787:3789   */\n      0x20\n        /* \"#utility.yul\":3776:3785   */\n      dup4\n        /* \"#utility.yul\":3772:3790   */\n      add\n        /* \"#utility.yul\":3763:3769   */\n      dup5\n        /* \"#utility.yul\":3708:3791   */\n      tag_48\n      jump\t// in\n    tag_76:\n        /* \"#utility.yul\":3247:3798   */\n      swap3\n      swap2\n      pop\n      pop\n      jump\t// out\n        /* \"#utility.yul\":3885:4054   */\n    tag_59:\n        /* \"#utility.yul\":3969:3980   */\n      0x00\n        /* \"#utility.yul\":4003:4009   */\n      dup3\n        /* \"#utility.yul\":3998:4001   */\n      dup3\n        /* \"#utility.yul\":3991:4010   */\n      mstore\n        /* \"#utility.yul\":4043:4047   */\n      0x20\n        /* \"#utility.yul\":4038:4041   */\n      dup3\n        /* \"#utility.yul\":4034:4048   */\n      add\n        /* \"#utility.yul\":4019:4048   */\n      swap1\n      pop\n        /* \"#utility.yul\":3885:4054   */\n      swap3\n      swap2\n      pop\n      pop\n      jump\t// out\n        /* \"#utility.yul\":4060:4156   */\n    tag_47:\n        /* \"#utility.yul\":4097:4104   */\n      0x00\n        /* \"#utility.yul\":4126:4150   */\n      tag_81\n        /* \"#utility.yul\":4144:4149   */\n      dup3\n        /* \"#utility.yul\":4126:4150   */\n      tag_82\n      jump\t// in\n    tag_81:\n        /* \"#utility.yul\":4115:4150   */\n      swap1\n      pop\n        /* \"#utility.yul\":4060:4156   */\n      swap2\n      swap1\n      pop\n      jump\t// out\n        /* \"#utility.yul\":4162:4288   */\n    tag_82:\n        /* \"#utility.yul\":4199:4206   */\n      0x00\n        /* \"#utility.yul\":4239:4281   */\n      0xffffffffffffffffffffffffffffffffffffffff\n        /* \"#utility.yul\":4232:4237   */\n      dup3\n        /* \"#utility.yul\":4228:4282   */\n      and\n        /* \"#utility.yul\":4217:4282   */\n      swap1\n      pop\n        /* \"#utility.yul\":4162:4288   */\n      swap2\n      swap1\n      pop\n      jump\t// out\n        /* \"#utility.yul\":4294:4371   */\n    tag_84:\n        /* \"#utility.yul\":4331:4338   */\n      0x00\n        /* \"#utility.yul\":4360:4365   */\n      dup2\n        /* \"#utility.yul\":4349:4365   */\n      swap1\n      pop\n        /* \"#utility.yul\":4294:4371   */\n      swap2\n      swap1\n      pop\n      jump\t// out\n        /* \"#utility.yul\":4377:4501   */\n    tag_51:\n        /* \"#utility.yul\":4438:4447   */\n      0x00\n        /* \"#utility.yul\":4471:4495   */\n      tag_87\n        /* \"#utility.yul\":4489:4494   */\n      dup3\n        /* \"#utility.yul\":4471:4495   */\n      tag_84\n      jump\t// in\n    tag_87:\n        /* \"#utility.yul\":4458:4495   */\n      swap1\n      pop\n        /* \"#utility.yul\":4377:4501   */\n      swap2\n      swap1\n      pop\n      jump\t// out\n        /* \"#utility.yul\":4507:4630   */\n    tag_55:\n        /* \"#utility.yul\":4567:4576   */\n      0x00\n        /* \"#utility.yul\":4600:4624   */\n      tag_89\n        /* \"#utility.yul\":4618:4623   */\n      dup3\n        /* \"#utility.yul\":4600:4624   */\n      tag_84\n      jump\t// in\n    tag_89:\n        /* \"#utility.yul\":4587:4624   */\n      swap1\n      pop\n        /* \"#utility.yul\":4507:4630   */\n      swap2\n      swap1\n      pop\n      jump\t// out\n        /* \"#utility.yul\":4636:4790   */\n    tag_61:\n        /* \"#utility.yul\":4720:4726   */\n      dup3\n        /* \"#utility.yul\":4715:4718   */\n      dup2\n        /* \"#utility.yul\":4710:4713   */\n      dup4\n        /* \"#utility.yul\":4697:4727   */\n      calldatacopy\n        /* \"#utility.yul\":4782:4783   */\n      0x00\n        /* \"#utility.yul\":4773:4779   */\n      dup4\n        /* \"#utility.yul\":4768:4771   */\n      dup4\n        /* \"#utility.yul\":4764:4780   */\n      add\n        /* \"#utility.yul\":4757:4784   */\n      mstore\n        /* \"#utility.yul\":4636:4790   */\n      pop\n      pop\n      pop\n      jump\t// out\n        /* \"#utility.yul\":4796:4913   */\n    tag_31:\n        /* \"#utility.yul\":4905:4906   */\n      0x00\n        /* \"#utility.yul\":4902:4903   */\n      dup1\n        /* \"#utility.yul\":4895:4907   */\n      revert\n        /* \"#utility.yul\":4919:5036   */\n    tag_28:\n        /* \"#utility.yul\":5028:5029   */\n      0x00\n        /* \"#utility.yul\":5025:5026   */\n      dup1\n        /* \"#utility.yul\":5018:5030   */\n      revert\n        /* \"#utility.yul\":5042:5159   */\n    tag_34:\n        /* \"#utility.yul\":5151:5152   */\n      0x00\n        /* \"#utility.yul\":5148:5149   */\n      dup1\n        /* \"#utility.yul\":5141:5153   */\n      revert\n        /* \"#utility.yul\":5165:5282   */\n    tag_42:\n        /* \"#utility.yul\":5274:5275   */\n      0x00\n        /* \"#utility.yul\":5271:5272   */\n      dup1\n        /* \"#utility.yul\":5264:5276   */\n      revert\n        /* \"#utility.yul\":5288:5405   */\n    tag_38:\n        /* \"#utility.yul\":5397:5398   */\n      0x00\n        /* \"#utility.yul\":5394:5395   */\n      dup1\n        /* \"#utility.yul\":5387:5399   */\n      revert\n        /* \"#utility.yul\":5411:5513   */\n    tag_63:\n        /* \"#utility.yul\":5452:5458   */\n      0x00\n        /* \"#utility.yul\":5503:5505   */\n      0x1f\n        /* \"#utility.yul\":5499:5506   */\n      not\n        /* \"#utility.yul\":5494:5496   */\n      0x1f\n        /* \"#utility.yul\":5487:5492   */\n      dup4\n        /* \"#utility.yul\":5483:5497   */\n      add\n        /* \"#utility.yul\":5479:5507   */\n      and\n        /* \"#utility.yul\":5469:5507   */\n      swap1\n      pop\n        /* \"#utility.yul\":5411:5513   */\n      swap2\n      swap1\n      pop\n      jump\t// out\n        /* \"#utility.yul\":5519:5672   */\n    tag_68:\n        /* \"#utility.yul\":5659:5664   */\n      0x666f6f0000000000000000000000000000000000000000000000000000000000\n        /* \"#utility.yul\":5655:5656   */\n      0x00\n        /* \"#utility.yul\":5647:5653   */\n      dup3\n        /* \"#utility.yul\":5643:5657   */\n      add\n        /* \"#utility.yul\":5636:5665   */\n      mstore\n        /* \"#utility.yul\":5519:5672   */\n      pop\n      jump\t// out\n        /* \"#utility.yul\":5678:5800   */\n    tag_23:\n        /* \"#utility.yul\":5751:5775   */\n      tag_99\n        /* \"#utility.yul\":5769:5774   */\n      dup2\n        /* \"#utility.yul\":5751:5775   */\n      tag_47\n      jump\t// in\n    tag_99:\n        /* \"#utility.yul\":5744:5749   */\n      dup2\n        /* \"#utility.yul\":5741:5776   */\n      eq\n        /* \"#utility.yul\":5731:5794   */\n      tag_100\n      jumpi\n        /* \"#utility.yul\":5790:5791   */\n      0x00\n        /* \"#utility.yul\":5787:5788   */\n      dup1\n        /* \"#utility.yul\":5780:5792   */\n      revert\n        /* \"#utility.yul\":5731:5794   */\n    tag_100:\n        /* \"#utility.yul\":5678:5800   */\n      pop\n      jump\t// out\n\n    auxdata: 0xa2646970667358221220d7c6f742e80407e342808bf9d2a2b1d655dcf947924bb7f680fd6f513bb1dd7064736f6c63430008070033\n}\n",
				"bytecode": {
					"linkReferences": {},
					"object": "608060405234801561001057600080fd5b50610426806100206000396000f3fe608060405234801561001057600080fd5b50600436106100365760003560e01c806354353f2f1461003b578063de6f24bb14610045575b600080fd5b610043610061565b005b61005f600480360381019061005a91906101ae565b6100ec565b005b7fdd970dd9b5bfe707922155b058a407655cb18288b807e2216442bca8ad83d6b56104d260405161009291906102d8565b60405180910390a13373ffffffffffffffffffffffffffffffffffffffff167f498ad7cd4214d8ac7be140823454bc075f6e9c33cf81a1b50218e1307e2ea07f6103156040516100e291906102bd565b60405180910390a2565b3373ffffffffffffffffffffffffffffffffffffffff167fb3dbe9e9894ca2c11cb6c80bd0b0bccb9f5b41d612dbeeda0d5474de40b874fe8484846040516101369392919061028b565b60405180910390a2505050565b600081359050610152816103d9565b92915050565b60008083601f84011261016e5761016d61038b565b5b8235905067ffffffffffffffff81111561018b5761018a610386565b5b6020830191508360018202830111156101a7576101a6610390565b5b9250929050565b6000806000604084860312156101c7576101c661039a565b5b60006101d586828701610143565b935050602084013567ffffffffffffffff8111156101f6576101f5610395565b5b61020286828701610158565b92509250509250925092565b61021781610317565b82525050565b61022681610353565b82525050565b61023581610365565b82525050565b60006102478385610306565b9350610254838584610377565b61025d8361039f565b840190509392505050565b6000610275600383610306565b9150610280826103b0565b602082019050919050565b60006040820190506102a0600083018661020e565b81810360208301526102b381848661023b565b9050949350505050565b60006020820190506102d2600083018461022c565b92915050565b600060408201905081810360008301526102f181610268565b9050610300602083018461021d565b92915050565b600082825260208201905092915050565b600061032282610329565b9050919050565b600073ffffffffffffffffffffffffffffffffffffffff82169050919050565b6000819050919050565b600061035e82610349565b9050919050565b600061037082610349565b9050919050565b82818337600083830152505050565b600080fd5b600080fd5b600080fd5b600080fd5b600080fd5b6000601f19601f8301169050919050565b7f666f6f0000000000000000000000000000000000000000000000000000000000600082015250565b6103e281610317565b81146103ed57600080fd5b5056fea2646970667358221220d7c6f742e80407e342808bf9d2a2b1d655dcf947924bb7f680fd6f513bb1dd7064736f6c63430008070033",
					"opcodes": "PUSH1 0x80 PUSH1 0x40 MSTORE CALLVALUE DUP1 ISZERO PUSH2 0x10 JUMPI PUSH1 0x0 DUP1 REVERT JUMPDEST POP PUSH2 0x426 DUP1 PUSH2 0x20 PUSH1 0x0 CODECOPY PUSH1 0x0 RETURN INVALID PUSH1 0x80 PUSH1 0x40 MSTORE CALLVALUE DUP1 ISZERO PUSH2 0x10 JUMPI PUSH1 0x0 DUP1 REVERT JUMPDEST POP PUSH1 0x4 CALLDATASIZE LT PUSH2 0x36 JUMPI PUSH1 0x0 CALLDATALOAD PUSH1 0xE0 SHR DUP1 PUSH4 0x54353F2F EQ PUSH2 0x3B JUMPI DUP1 PUSH4 0xDE6F24BB EQ PUSH2 0x45 JUMPI JUMPDEST PUSH1 0x0 DUP1 REVERT JUMPDEST PUSH2 0x43 PUSH2 0x61 JUMP JUMPDEST STOP JUMPDEST PUSH2 0x5F PUSH1 0x4 DUP1 CALLDATASIZE SUB DUP2 ADD SWAP1 PUSH2 0x5A SWAP2 SWAP1 PUSH2 0x1AE JUMP JUMPDEST PUSH2 0xEC JUMP JUMPDEST STOP JUMPDEST PUSH32 0xDD970DD9B5BFE707922155B058A407655CB18288B807E2216442BCA8AD83D6B5 PUSH2 0x4D2 PUSH1 0x40 MLOAD PUSH2 0x92 SWAP2 SWAP1 PUSH2 0x2D8 JUMP JUMPDEST PUSH1 0x40 MLOAD DUP1 SWAP2 SUB SWAP1 LOG1 CALLER PUSH20 0xFFFFFFFFFFFFFFFFFFFFFFFFFFFFFFFFFFFFFFFF AND PUSH32 0x498AD7CD4214D8AC7BE140823454BC075F6E9C33CF81A1B50218E1307E2EA07F PUSH2 0x315 PUSH1 0x40 MLOAD PUSH2 0xE2 SWAP2 SWAP1 PUSH2 0x2BD JUMP JUMPDEST PUSH1 0x40 MLOAD DUP1 SWAP2 SUB SWAP1 LOG2 JUMP JUMPDEST CALLER PUSH20 0xFFFFFFFFFFFFFFFFFFFFFFFFFFFFFFFFFFFFFFFF AND PUSH32 0xB3DBE9E9894CA2C11CB6C80BD0B0BCCB9F5B41D612DBEEDA0D5474DE40B874FE DUP5 DUP5 DUP5 PUSH1 0x40 MLOAD PUSH2 0x136 SWAP4 SWAP3 SWAP2 SWAP1 PUSH2 0x28B JUMP JUMPDEST PUSH1 0x40 MLOAD DUP1 SWAP2 SUB SWAP1 LOG2 POP POP POP JUMP JUMPDEST PUSH1 0x0 DUP2 CALLDATALOAD SWAP1 POP PUSH2 0x152 DUP2 PUSH2 0x3D9 JUMP JUMPDEST SWAP3 SWAP2 POP POP JUMP JUMPDEST PUSH1 0x0 DUP1 DUP4 PUSH1 0x1F DUP5 ADD SLT PUSH2 0x16E JUMPI PUSH2 0x16D PUSH2 0x38B JUMP JUMPDEST JUMPDEST DUP3 CALLDATALOAD SWAP1 POP PUSH8 0xFFFFFFFFFFFFFFFF DUP2 GT ISZERO PUSH2 0x18B JUMPI PUSH2 0x18A PUSH2 0x386 JUMP JUMPDEST JUMPDEST PUSH1 0x20 DUP4 ADD SWAP2 POP DUP4 PUSH1 0x1 DUP3 MUL DUP4 ADD GT ISZERO PUSH2 0x1A7 JUMPI PUSH2 0x1A6 PUSH2 0x390 JUMP JUMPDEST JUMPDEST SWAP3 POP SWAP3 SWAP1 POP JUMP JUMPDEST PUSH1 0x0 DUP1 PUSH1 0x0 PUSH1 0x40 DUP5 DUP7 SUB SLT ISZERO PUSH2 0x1C7 JUMPI PUSH2 0x1C6 PUSH2 0x39A JUMP JUMPDEST JUMPDEST PUSH1 0x0 PUSH2 0x1D5 DUP7 DUP3 DUP8 ADD PUSH2 0x143 JUMP JUMPDEST SWAP4 POP POP PUSH1 0x20 DUP5 ADD CALLDATALOAD PUSH8 0xFFFFFFFFFFFFFFFF DUP2 GT ISZERO PUSH2 0x1F6 JUMPI PUSH2 0x1F5 PUSH2 0x395 JUMP JUMPDEST JUMPDEST PUSH2 0x202 DUP7 DUP3 DUP8 ADD PUSH2 0x158 JUMP JUMPDEST SWAP3 POP SWAP3 POP POP SWAP3 POP SWAP3 POP SWAP3 JUMP JUMPDEST PUSH2 0x217 DUP2 PUSH2 0x317 JUMP JUMPDEST DUP3 MSTORE POP POP JUMP JUMPDEST PUSH2 0x226 DUP2 PUSH2 0x353 JUMP JUMPDEST DUP3 MSTORE POP POP JUMP JUMPDEST PUSH2 0x235 DUP2 PUSH2 0x365 JUMP JUMPDEST DUP3 MSTORE POP POP JUMP JUMPDEST PUSH1 0x0 PUSH2 0x247 DUP4 DUP6 PUSH2 0x306 JUMP JUMPDEST SWAP4 POP PUSH2 0x254 DUP4 DUP6 DUP5 PUSH2 0x377 JUMP JUMPDEST PUSH2 0x25D DUP4 PUSH2 0x39F JUMP JUMPDEST DUP5 ADD SWAP1 POP SWAP4 SWAP3 POP POP POP JUMP JUMPDEST PUSH1 0x0 PUSH2 0x275 PUSH1 0x3 DUP4 PUSH2 0x306 JUMP JUMPDEST SWAP2 POP PUSH2 0x280 DUP3 PUSH2 0x3B0 JUMP JUMPDEST PUSH1 0x20 DUP3 ADD SWAP1 POP SWAP2 SWAP1 POP JUMP JUMPDEST PUSH1 0x0 PUSH1 0x40 DUP3 ADD SWAP1 POP PUSH2 0x2A0 PUSH1 0x0 DUP4 ADD DUP7 PUSH2 0x20E JUMP JUMPDEST DUP2 DUP2 SUB PUSH1 0x20 DUP4 ADD MSTORE PUSH2 0x2B3 DUP2 DUP5 DUP7 PUSH2 0x23B JUMP JUMPDEST SWAP1 POP SWAP5 SWAP4 POP POP POP POP JUMP JUMPDEST PUSH1 0x0 PUSH1 0x20 DUP3 ADD SWAP1 POP PUSH2 0x2D2 PUSH1 0x0 DUP4 ADD DUP5 PUSH2 0x22C JUMP JUMPDEST SWAP3 SWAP2 POP POP JUMP JUMPDEST PUSH1 0x0 PUSH1 0x40 DUP3 ADD SWAP1 POP DUP2 DUP2 SUB PUSH1 0x0 DUP4 ADD MSTORE PUSH2 0x2F1 DUP2 PUSH2 0x268 JUMP JUMPDEST SWAP1 POP PUSH2 0x300 PUSH1 0x20 DUP4 ADD DUP5 PUSH2 0x21D JUMP JUMPDEST SWAP3 SWAP2 POP POP JUMP JUMPDEST PUSH1 0x0 DUP3 DUP3 MSTORE PUSH1 0x20 DUP3 ADD SWAP1 POP SWAP3 SWAP2 POP POP JUMP JUMPDEST PUSH1 0x0 PUSH2 0x322 DUP3 PUSH2 0x329 JUMP JUMPDEST SWAP1 POP SWAP2 SWAP1 POP JUMP JUMPDEST PUSH1 0x0 PUSH20 0xFFFFFFFFFFFFFFFFFFFFFFFFFFFFFFFFFFFFFFFF DUP3 AND SWAP1 POP SWAP2 SWAP1 POP JUMP JUMPDEST PUSH1 0x0 DUP2 SWAP1 POP SWAP2 SWAP1 POP JUMP JUMPDEST PUSH1 0x0 PUSH2 0x35E DUP3 PUSH2 0x349 JUMP JUMPDEST SWAP1 POP SWAP2 SWAP1 POP JUMP JUMPDEST PUSH1 0x0 PUSH2 0x370 DUP3 PUSH2 0x349 JUMP JUMPDEST SWAP1 POP SWAP2 SWAP1 POP JUMP JUMPDEST DUP3 DUP2 DUP4 CALLDATACOPY PUSH1 0x0 DUP4 DUP4 ADD MSTORE POP POP POP JUMP JUMPDEST PUSH1 0x0 DUP1 REVERT JUMPDEST PUSH1 0x0 DUP1 REVERT JUMPDEST PUSH1 0x0 DUP1 REVERT JUMPDEST PUSH1 0x0 DUP1 REVERT JUMPDEST PUSH1 0x0 DUP1 REVERT JUMPDEST PUSH1 0x0 PUSH1 0x1F NOT PUSH1 0x1F DUP4 ADD AND SWAP1 POP SWAP2 SWAP1 POP JUMP JUMPDEST PUSH32 0x666F6F0000000000000000000000000000000000000000000000000000000000 PUSH1 0x0 DUP3 ADD MSTORE POP JUMP JUMPDEST PUSH2 0x3E2 DUP2 PUSH2 0x317 JUMP JUMPDEST DUP2 EQ PUSH2 0x3ED JUMPI PUSH1 0x0 DUP1 REVERT JUMPDEST POP JUMP INVALID LOG2 PUSH5 0x6970667358 0x22 SLT KECCAK256 0xD7 0xC6 0xF7 TIMESTAMP 0xE8 DIV SMOD 0xE3 TIMESTAMP DUP1 DUP12 0xF9 0xD2 LOG2 0xB1 0xD6 SSTORE 0xDC 0xF9 SELFBALANCE SWAP3 0x4B 0xB7 0xF6 DUP1 REVERT PUSH16 0x513BB1DD7064736F6C63430008070033 "
				},
				"gasEstimates": {
					"creation": {
						"codeDepositCost": "212400",
						"executionCost": "257",
						"totalCost": "212657"
					},
					"external": {
						"example()": "infinite",
						"sendMessage(address,string)": "infinite"
					}
				},
				"methodIdentifiers": {
					"example()": "54353f2f",
					"sendMessage(address,string)": "de6f24bb"
				}
			},
			"storageLayout": {
				"storage": [],
				"types": null
			},
			"userdoc": {
				"kind": "user",
				"methods": {},
				"version": 1
			}
		}
	}
}