{
	"contracts/Retrieve-gas.sol": {
		"SimpleStorage": {
			"abi": [
				{
					"inputs": [
						{
							"internalType": "string",
							"name": "_name",
							"type": "string"
						},
						{
							"internalType": "uint256",
							"name": "_favouriteNumber",
							"type": "uint256"
						},
						{
							"internalType": "uint256",
							"name": "_age",
							"type": "uint256"
						}
					],
					"name": "addperson",
					"outputs": [],
					"stateMutability": "nonpayable",
					"type": "function"
				},
				{
					"inputs": [],
					"name": "favouriteNumber",
					"outputs": [
						{
							"internalType": "uint256",
							"name": "",
							"type": "uint256"
						}
					],
					"stateMutability": "view",
					"type": "function"
				},
				{
					"inputs": [
						{
							"internalType": "uint256",
							"name": "",
							"type": "uint256"
						}
					],
					"name": "people",
					"outputs": [
						{
							"internalType": "uint256",
							"name": "favouriteNumber",
							"type": "uint256"
						},
						{
							"internalType": "string",
							"name": "name",
							"type": "string"
						},
						{
							"internalType": "uint256",
							"name": "age",
							"type": "uint256"
						}
					],
					"stateMutability": "view",
					"type": "function"
				},
				{
					"inputs": [],
					"name": "retrieve",
					"outputs": [
						{
							"internalType": "uint256",
							"name": "",
							"type": "uint256"
						}
					],
					"stateMutability": "view",
					"type": "function"
				},
				{
					"inputs": [
						{
							"internalType": "uint256",
							"name": "_favouriteNumber",
							"type": "uint256"
						}
					],
					"name": "store",
					"outputs": [],
					"stateMutability": "nonpayable",
					"type": "function"
				}
			],
			"devdoc": {
				"kind": "dev",
				"methods": {},
				"version": 1
			},
			"evm": {
				"assembly": "    /* \"contracts/Retrieve-gas.sol\":57:1181  contract SimpleStorage {... */\n  mstore(0x40, 0x80)\n  callvalue\n  dup1\n  iszero\n  tag_1\n  jumpi\n  0x00\n  dup1\n  revert\ntag_1:\n  pop\n  dataSize(sub_0)\n  dup1\n  dataOffset(sub_0)\n  0x00\n  codecopy\n  0x00\n  return\nstop\n\nsub_0: assembly {\n        /* \"contracts/Retrieve-gas.sol\":57:1181  contract SimpleStorage {... */\n      mstore(0x40, 0x80)\n      callvalue\n      dup1\n      iszero\n      tag_1\n      jumpi\n      0x00\n      dup1\n      revert\n    tag_1:\n      pop\n      jumpi(tag_2, lt(calldatasize, 0x04))\n      shr(0xe0, calldataload(0x00))\n      dup1\n      0x2e64cec1\n      eq\n      tag_3\n      jumpi\n      dup1\n      0x43ede4ae\n      eq\n      tag_4\n      jumpi\n      dup1\n      0x6057361d\n      eq\n      tag_5\n      jumpi\n      dup1\n      0x8a5a6561\n      eq\n      tag_6\n      jumpi\n      dup1\n      0x9e7a13ad\n      eq\n      tag_7\n      jumpi\n    tag_2:\n      0x00\n      dup1\n      revert\n        /* \"contracts/Retrieve-gas.sol\":1090:1175  function retrieve() public view returns (uint256) {... */\n    tag_3:\n      tag_8\n      tag_9\n      jump\t// in\n    tag_8:\n      mload(0x40)\n      tag_10\n      swap2\n      swap1\n      tag_11\n      jump\t// in\n    tag_10:\n      mload(0x40)\n      dup1\n      swap2\n      sub\n      swap1\n      return\n        /* \"contracts/Retrieve-gas.sol\":86:117  uint256 public  favouriteNumber */\n    tag_4:\n      tag_12\n      tag_13\n      jump\t// in\n    tag_12:\n      mload(0x40)\n      tag_14\n      swap2\n      swap1\n      tag_11\n      jump\t// in\n    tag_14:\n      mload(0x40)\n      dup1\n      swap2\n      sub\n      swap1\n      return\n        /* \"contracts/Retrieve-gas.sol\":836:954  function store(uint256 _favouriteNumber) public{... */\n    tag_5:\n      tag_15\n      0x04\n      dup1\n      calldatasize\n      sub\n      dup2\n      add\n      swap1\n      tag_16\n      swap2\n      swap1\n      tag_17\n      jump\t// in\n    tag_16:\n      tag_18\n      jump\t// in\n    tag_15:\n      stop\n        /* \"contracts/Retrieve-gas.sol\":603:832  function addperson (string memory _name, uint256 _favouriteNumber, uint256 _age) public {... */\n    tag_6:\n      tag_19\n      0x04\n      dup1\n      calldatasize\n      sub\n      dup2\n      add\n      swap1\n      tag_20\n      swap2\n      swap1\n      tag_21\n      jump\t// in\n    tag_20:\n      tag_22\n      jump\t// in\n    tag_19:\n      stop\n        /* \"contracts/Retrieve-gas.sol\":573:596  People[] public  people */\n    tag_7:\n      tag_23\n      0x04\n      dup1\n      calldatasize\n      sub\n      dup2\n      add\n      swap1\n      tag_24\n      swap2\n      swap1\n      tag_17\n      jump\t// in\n    tag_24:\n      tag_25\n      jump\t// in\n    tag_23:\n      mload(0x40)\n      tag_26\n      swap4\n      swap3\n      swap2\n      swap1\n      tag_27\n      jump\t// in\n    tag_26:\n      mload(0x40)\n      dup1\n      swap2\n      sub\n      swap1\n      return\n        /* \"contracts/Retrieve-gas.sol\":1090:1175  function retrieve() public view returns (uint256) {... */\n    tag_9:\n        /* \"contracts/Retrieve-gas.sol\":1131:1138  uint256 */\n      0x00\n        /* \"contracts/Retrieve-gas.sol\":1155:1170  favouriteNumber */\n      dup1\n      sload\n        /* \"contracts/Retrieve-gas.sol\":1148:1170  return favouriteNumber */\n      swap1\n      pop\n        /* \"contracts/Retrieve-gas.sol\":1090:1175  function retrieve() public view returns (uint256) {... */\n      swap1\n      jump\t// out\n        /* \"contracts/Retrieve-gas.sol\":86:117  uint256 public  favouriteNumber */\n    tag_13:\n      sload(0x00)\n      dup2\n      jump\t// out\n        /* \"contracts/Retrieve-gas.sol\":836:954  function store(uint256 _favouriteNumber) public{... */\n    tag_18:\n        /* \"contracts/Retrieve-gas.sol\":910:926  _favouriteNumber */\n      dup1\n        /* \"contracts/Retrieve-gas.sol\":892:907  favouriteNumber */\n      0x00\n        /* \"contracts/Retrieve-gas.sol\":892:926  favouriteNumber = _favouriteNumber */\n      dup2\n      swap1\n      sstore\n      pop\n        /* \"contracts/Retrieve-gas.sol\":935:945  retrieve() */\n      tag_30\n        /* \"contracts/Retrieve-gas.sol\":935:943  retrieve */\n      tag_9\n        /* \"contracts/Retrieve-gas.sol\":935:945  retrieve() */\n      jump\t// in\n    tag_30:\n      pop\n        /* \"contracts/Retrieve-gas.sol\":836:954  function store(uint256 _favouriteNumber) public{... */\n      pop\n      jump\t// out\n        /* \"contracts/Retrieve-gas.sol\":603:832  function addperson (string memory _name, uint256 _favouriteNumber, uint256 _age) public {... */\n    tag_22:\n        /* \"contracts/Retrieve-gas.sol\":701:724  People memory newperson */\n      0x00\n        /* \"contracts/Retrieve-gas.sol\":727:793  People({favouriteNumber:_favouriteNumber, name: _name, age: _age}) */\n      mload(0x40)\n      dup1\n      0x60\n      add\n      0x40\n      mstore\n      dup1\n        /* \"contracts/Retrieve-gas.sol\":751:767  _favouriteNumber */\n      dup5\n        /* \"contracts/Retrieve-gas.sol\":727:793  People({favouriteNumber:_favouriteNumber, name: _name, age: _age}) */\n      dup2\n      mstore\n      0x20\n      add\n        /* \"contracts/Retrieve-gas.sol\":775:780  _name */\n      dup6\n        /* \"contracts/Retrieve-gas.sol\":727:793  People({favouriteNumber:_favouriteNumber, name: _name, age: _age}) */\n      dup2\n      mstore\n      0x20\n      add\n        /* \"contracts/Retrieve-gas.sol\":787:791  _age */\n      dup4\n        /* \"contracts/Retrieve-gas.sol\":727:793  People({favouriteNumber:_favouriteNumber, name: _name, age: _age}) */\n      dup2\n      mstore\n      pop\n        /* \"contracts/Retrieve-gas.sol\":701:793  People memory newperson = People({favouriteNumber:_favouriteNumber, name: _name, age: _age}) */\n      swap1\n      pop\n        /* \"contracts/Retrieve-gas.sol\":803:809  people */\n      0x01\n        /* \"contracts/Retrieve-gas.sol\":815:824  newperson */\n      dup2\n        /* \"contracts/Retrieve-gas.sol\":803:825  people.push(newperson) */\n      swap1\n      dup1\n      0x01\n      dup2\n      sload\n      add\n      dup1\n      dup3\n      sstore\n      dup1\n      swap2\n      pop\n      pop\n      0x01\n      swap1\n      sub\n      swap1\n      0x00\n      mstore\n      keccak256(0x00, 0x20)\n      swap1\n      0x03\n      mul\n      add\n      0x00\n      swap1\n      swap2\n      swap1\n      swap2\n      swap1\n      swap2\n      pop\n      0x00\n      dup3\n      add\n      mload\n      dup2\n      0x00\n      add\n      sstore\n      0x20\n      dup3\n      add\n      mload\n      dup2\n      0x01\n      add\n      swap1\n      dup1\n      mload\n      swap1\n      0x20\n      add\n      swap1\n      tag_33\n      swap3\n      swap2\n      swap1\n      tag_34\n      jump\t// in\n    tag_33:\n      pop\n      0x40\n      dup3\n      add\n      mload\n      dup2\n      0x02\n      add\n      sstore\n      pop\n      pop\n        /* \"contracts/Retrieve-gas.sol\":691:832  {... */\n      pop\n        /* \"contracts/Retrieve-gas.sol\":603:832  function addperson (string memory _name, uint256 _favouriteNumber, uint256 _age) public {... */\n      pop\n      pop\n      pop\n      jump\t// out\n        /* \"contracts/Retrieve-gas.sol\":573:596  People[] public  people */\n    tag_25:\n      0x01\n      dup2\n      dup2\n      sload\n      dup2\n      lt\n      tag_35\n      jumpi\n      0x00\n      dup1\n      revert\n    tag_35:\n      swap1\n      0x00\n      mstore\n      keccak256(0x00, 0x20)\n      swap1\n      0x03\n      mul\n      add\n      0x00\n      swap2\n      pop\n      swap1\n      pop\n      dup1\n      0x00\n      add\n      sload\n      swap1\n      dup1\n      0x01\n      add\n      dup1\n      sload\n      tag_37\n      swap1\n      tag_38\n      jump\t// in\n    tag_37:\n      dup1\n      0x1f\n      add\n      0x20\n      dup1\n      swap2\n      div\n      mul\n      0x20\n      add\n      mload(0x40)\n      swap1\n      dup2\n      add\n      0x40\n      mstore\n      dup1\n      swap3\n      swap2\n      swap1\n      dup2\n      dup2\n      mstore\n      0x20\n      add\n      dup3\n      dup1\n      sload\n      tag_39\n      swap1\n      tag_38\n      jump\t// in\n    tag_39:\n      dup1\n      iszero\n      tag_40\n      jumpi\n      dup1\n      0x1f\n      lt\n      tag_41\n      jumpi\n      0x0100\n      dup1\n      dup4\n      sload\n      div\n      mul\n      dup4\n      mstore\n      swap2\n      0x20\n      add\n      swap2\n      jump(tag_40)\n    tag_41:\n      dup3\n      add\n      swap2\n      swap1\n      0x00\n      mstore\n      keccak256(0x00, 0x20)\n      swap1\n    tag_42:\n      dup2\n      sload\n      dup2\n      mstore\n      swap1\n      0x01\n      add\n      swap1\n      0x20\n      add\n      dup1\n      dup4\n      gt\n      tag_42\n      jumpi\n      dup3\n      swap1\n      sub\n      0x1f\n      and\n      dup3\n      add\n      swap2\n    tag_40:\n      pop\n      pop\n      pop\n      pop\n      pop\n      swap1\n      dup1\n      0x02\n      add\n      sload\n      swap1\n      pop\n      dup4\n      jump\t// out\n    tag_34:\n      dup3\n      dup1\n      sload\n      tag_43\n      swap1\n      tag_38\n      jump\t// in\n    tag_43:\n      swap1\n      0x00\n      mstore\n      keccak256(0x00, 0x20)\n      swap1\n      0x1f\n      add\n      0x20\n      swap1\n      div\n      dup2\n      add\n      swap3\n      dup3\n      tag_45\n      jumpi\n      0x00\n      dup6\n      sstore\n      jump(tag_44)\n    tag_45:\n      dup3\n      0x1f\n      lt\n      tag_46\n      jumpi\n      dup1\n      mload\n      not(0xff)\n      and\n      dup4\n      dup1\n      add\n      or\n      dup6\n      sstore\n      jump(tag_44)\n    tag_46:\n      dup3\n      dup1\n      add\n      0x01\n      add\n      dup6\n      sstore\n      dup3\n      iszero\n      tag_44\n      jumpi\n      swap2\n      dup3\n      add\n    tag_47:\n      dup3\n      dup2\n      gt\n      iszero\n      tag_48\n      jumpi\n      dup3\n      mload\n      dup3\n      sstore\n      swap2\n      0x20\n      add\n      swap2\n      swap1\n      0x01\n      add\n      swap1\n      jump(tag_47)\n    tag_48:\n    tag_44:\n      pop\n      swap1\n      pop\n      tag_49\n      swap2\n      swap1\n      tag_50\n      jump\t// in\n    tag_49:\n      pop\n      swap1\n      jump\t// out\n    tag_50:\n    tag_51:\n      dup1\n      dup3\n      gt\n      iszero\n      tag_52\n      jumpi\n      0x00\n      dup2\n      0x00\n      swap1\n      sstore\n      pop\n      0x01\n      add\n      jump(tag_51)\n    tag_52:\n      pop\n      swap1\n      jump\t// out\n        /* \"#utility.yul\":7:84   */\n    tag_53:\n        /* \"#utility.yul\":44:51   */\n      0x00\n        /* \"#utility.yul\":73:78   */\n      dup2\n        /* \"#utility.yul\":62:78   */\n      swap1\n      pop\n        /* \"#utility.yul\":7:84   */\n      swap2\n      swap1\n      pop\n      jump\t// out\n        /* \"#utility.yul\":90:208   */\n    tag_54:\n        /* \"#utility.yul\":177:201   */\n      tag_78\n        /* \"#utility.yul\":195:200   */\n      dup2\n        /* \"#utility.yul\":177:201   */\n      tag_53\n      jump\t// in\n    tag_78:\n        /* \"#utility.yul\":172:175   */\n      dup3\n        /* \"#utility.yul\":165:202   */\n      mstore\n        /* \"#utility.yul\":90:208   */\n      pop\n      pop\n      jump\t// out\n        /* \"#utility.yul\":214:436   */\n    tag_11:\n        /* \"#utility.yul\":307:311   */\n      0x00\n        /* \"#utility.yul\":345:347   */\n      0x20\n        /* \"#utility.yul\":334:343   */\n      dup3\n        /* \"#utility.yul\":330:348   */\n      add\n        /* \"#utility.yul\":322:348   */\n      swap1\n      pop\n        /* \"#utility.yul\":358:429   */\n      tag_80\n        /* \"#utility.yul\":426:427   */\n      0x00\n        /* \"#utility.yul\":415:424   */\n      dup4\n        /* \"#utility.yul\":411:428   */\n      add\n        /* \"#utility.yul\":402:408   */\n      dup5\n        /* \"#utility.yul\":358:429   */\n      tag_54\n      jump\t// in\n    tag_80:\n        /* \"#utility.yul\":214:436   */\n      swap3\n      swap2\n      pop\n      pop\n      jump\t// out\n        /* \"#utility.yul\":442:517   */\n    tag_55:\n        /* \"#utility.yul\":475:481   */\n      0x00\n        /* \"#utility.yul\":508:510   */\n      0x40\n        /* \"#utility.yul\":502:511   */\n      mload\n        /* \"#utility.yul\":492:511   */\n      swap1\n      pop\n        /* \"#utility.yul\":442:517   */\n      swap1\n      jump\t// out\n        /* \"#utility.yul\":523:640   */\n    tag_56:\n        /* \"#utility.yul\":632:633   */\n      0x00\n        /* \"#utility.yul\":629:630   */\n      dup1\n        /* \"#utility.yul\":622:634   */\n      revert\n        /* \"#utility.yul\":646:763   */\n    tag_57:\n        /* \"#utility.yul\":755:756   */\n      0x00\n        /* \"#utility.yul\":752:753   */\n      dup1\n        /* \"#utility.yul\":745:757   */\n      revert\n        /* \"#utility.yul\":769:891   */\n    tag_58:\n        /* \"#utility.yul\":842:866   */\n      tag_85\n        /* \"#utility.yul\":860:865   */\n      dup2\n        /* \"#utility.yul\":842:866   */\n      tag_53\n      jump\t// in\n    tag_85:\n        /* \"#utility.yul\":835:840   */\n      dup2\n        /* \"#utility.yul\":832:867   */\n      eq\n        /* \"#utility.yul\":822:885   */\n      tag_86\n      jumpi\n        /* \"#utility.yul\":881:882   */\n      0x00\n        /* \"#utility.yul\":878:879   */\n      dup1\n        /* \"#utility.yul\":871:883   */\n      revert\n        /* \"#utility.yul\":822:885   */\n    tag_86:\n        /* \"#utility.yul\":769:891   */\n      pop\n      jump\t// out\n        /* \"#utility.yul\":897:1036   */\n    tag_59:\n        /* \"#utility.yul\":943:948   */\n      0x00\n        /* \"#utility.yul\":981:987   */\n      dup2\n        /* \"#utility.yul\":968:988   */\n      calldataload\n        /* \"#utility.yul\":959:988   */\n      swap1\n      pop\n        /* \"#utility.yul\":997:1030   */\n      tag_88\n        /* \"#utility.yul\":1024:1029   */\n      dup2\n        /* \"#utility.yul\":997:1030   */\n      tag_58\n      jump\t// in\n    tag_88:\n        /* \"#utility.yul\":897:1036   */\n      swap3\n      swap2\n      pop\n      pop\n      jump\t// out\n        /* \"#utility.yul\":1042:1371   */\n    tag_17:\n        /* \"#utility.yul\":1101:1107   */\n      0x00\n        /* \"#utility.yul\":1150:1152   */\n      0x20\n        /* \"#utility.yul\":1138:1147   */\n      dup3\n        /* \"#utility.yul\":1129:1136   */\n      dup5\n        /* \"#utility.yul\":1125:1148   */\n      sub\n        /* \"#utility.yul\":1121:1153   */\n      slt\n        /* \"#utility.yul\":1118:1237   */\n      iszero\n      tag_90\n      jumpi\n        /* \"#utility.yul\":1156:1235   */\n      tag_91\n      tag_56\n      jump\t// in\n    tag_91:\n        /* \"#utility.yul\":1118:1237   */\n    tag_90:\n        /* \"#utility.yul\":1276:1277   */\n      0x00\n        /* \"#utility.yul\":1301:1354   */\n      tag_92\n        /* \"#utility.yul\":1346:1353   */\n      dup5\n        /* \"#utility.yul\":1337:1343   */\n      dup3\n        /* \"#utility.yul\":1326:1335   */\n      dup6\n        /* \"#utility.yul\":1322:1344   */\n      add\n        /* \"#utility.yul\":1301:1354   */\n      tag_59\n      jump\t// in\n    tag_92:\n        /* \"#utility.yul\":1291:1354   */\n      swap2\n      pop\n        /* \"#utility.yul\":1247:1364   */\n      pop\n        /* \"#utility.yul\":1042:1371   */\n      swap3\n      swap2\n      pop\n      pop\n      jump\t// out\n        /* \"#utility.yul\":1377:1494   */\n    tag_60:\n        /* \"#utility.yul\":1486:1487   */\n      0x00\n        /* \"#utility.yul\":1483:1484   */\n      dup1\n        /* \"#utility.yul\":1476:1488   */\n      revert\n        /* \"#utility.yul\":1500:1617   */\n    tag_61:\n        /* \"#utility.yul\":1609:1610   */\n      0x00\n        /* \"#utility.yul\":1606:1607   */\n      dup1\n        /* \"#utility.yul\":1599:1611   */\n      revert\n        /* \"#utility.yul\":1623:1725   */\n    tag_62:\n        /* \"#utility.yul\":1664:1670   */\n      0x00\n        /* \"#utility.yul\":1715:1717   */\n      0x1f\n        /* \"#utility.yul\":1711:1718   */\n      not\n        /* \"#utility.yul\":1706:1708   */\n      0x1f\n        /* \"#utility.yul\":1699:1704   */\n      dup4\n        /* \"#utility.yul\":1695:1709   */\n      add\n        /* \"#utility.yul\":1691:1719   */\n      and\n        /* \"#utility.yul\":1681:1719   */\n      swap1\n      pop\n        /* \"#utility.yul\":1623:1725   */\n      swap2\n      swap1\n      pop\n      jump\t// out\n        /* \"#utility.yul\":1731:1911   */\n    tag_63:\n        /* \"#utility.yul\":1779:1856   */\n      0x4e487b7100000000000000000000000000000000000000000000000000000000\n        /* \"#utility.yul\":1776:1777   */\n      0x00\n        /* \"#utility.yul\":1769:1857   */\n      mstore\n        /* \"#utility.yul\":1876:1880   */\n      0x41\n        /* \"#utility.yul\":1873:1874   */\n      0x04\n        /* \"#utility.yul\":1866:1881   */\n      mstore\n        /* \"#utility.yul\":1900:1904   */\n      0x24\n        /* \"#utility.yul\":1897:1898   */\n      0x00\n        /* \"#utility.yul\":1890:1905   */\n      revert\n        /* \"#utility.yul\":1917:2198   */\n    tag_64:\n        /* \"#utility.yul\":2000:2027   */\n      tag_98\n        /* \"#utility.yul\":2022:2026   */\n      dup3\n        /* \"#utility.yul\":2000:2027   */\n      tag_62\n      jump\t// in\n    tag_98:\n        /* \"#utility.yul\":1992:1998   */\n      dup2\n        /* \"#utility.yul\":1988:2028   */\n      add\n        /* \"#utility.yul\":2130:2136   */\n      dup2\n        /* \"#utility.yul\":2118:2128   */\n      dup2\n        /* \"#utility.yul\":2115:2137   */\n      lt\n        /* \"#utility.yul\":2094:2112   */\n      0xffffffffffffffff\n        /* \"#utility.yul\":2082:2092   */\n      dup3\n        /* \"#utility.yul\":2079:2113   */\n      gt\n        /* \"#utility.yul\":2076:2138   */\n      or\n        /* \"#utility.yul\":2073:2161   */\n      iszero\n      tag_99\n      jumpi\n        /* \"#utility.yul\":2141:2159   */\n      tag_100\n      tag_63\n      jump\t// in\n    tag_100:\n        /* \"#utility.yul\":2073:2161   */\n    tag_99:\n        /* \"#utility.yul\":2181:2191   */\n      dup1\n        /* \"#utility.yul\":2177:2179   */\n      0x40\n        /* \"#utility.yul\":2170:2192   */\n      mstore\n        /* \"#utility.yul\":1960:2198   */\n      pop\n        /* \"#utility.yul\":1917:2198   */\n      pop\n      pop\n      jump\t// out\n        /* \"#utility.yul\":2204:2333   */\n    tag_65:\n        /* \"#utility.yul\":2238:2244   */\n      0x00\n        /* \"#utility.yul\":2265:2285   */\n      tag_102\n      tag_55\n      jump\t// in\n    tag_102:\n        /* \"#utility.yul\":2255:2285   */\n      swap1\n      pop\n        /* \"#utility.yul\":2294:2327   */\n      tag_103\n        /* \"#utility.yul\":2322:2326   */\n      dup3\n        /* \"#utility.yul\":2314:2320   */\n      dup3\n        /* \"#utility.yul\":2294:2327   */\n      tag_64\n      jump\t// in\n    tag_103:\n        /* \"#utility.yul\":2204:2333   */\n      swap2\n      swap1\n      pop\n      jump\t// out\n        /* \"#utility.yul\":2339:2647   */\n    tag_66:\n        /* \"#utility.yul\":2401:2405   */\n      0x00\n        /* \"#utility.yul\":2491:2509   */\n      0xffffffffffffffff\n        /* \"#utility.yul\":2483:2489   */\n      dup3\n        /* \"#utility.yul\":2480:2510   */\n      gt\n        /* \"#utility.yul\":2477:2533   */\n      iszero\n      tag_105\n      jumpi\n        /* \"#utility.yul\":2513:2531   */\n      tag_106\n      tag_63\n      jump\t// in\n    tag_106:\n        /* \"#utility.yul\":2477:2533   */\n    tag_105:\n        /* \"#utility.yul\":2551:2580   */\n      tag_107\n        /* \"#utility.yul\":2573:2579   */\n      dup3\n        /* \"#utility.yul\":2551:2580   */\n      tag_62\n      jump\t// in\n    tag_107:\n        /* \"#utility.yul\":2543:2580   */\n      swap1\n      pop\n        /* \"#utility.yul\":2635:2639   */\n      0x20\n        /* \"#utility.yul\":2629:2633   */\n      dup2\n        /* \"#utility.yul\":2625:2640   */\n      add\n        /* \"#utility.yul\":2617:2640   */\n      swap1\n      pop\n        /* \"#utility.yul\":2339:2647   */\n      swap2\n      swap1\n      pop\n      jump\t// out\n        /* \"#utility.yul\":2653:2807   */\n    tag_67:\n        /* \"#utility.yul\":2737:2743   */\n      dup3\n        /* \"#utility.yul\":2732:2735   */\n      dup2\n        /* \"#utility.yul\":2727:2730   */\n      dup4\n        /* \"#utility.yul\":2714:2744   */\n      calldatacopy\n        /* \"#utility.yul\":2799:2800   */\n      0x00\n        /* \"#utility.yul\":2790:2796   */\n      dup4\n        /* \"#utility.yul\":2785:2788   */\n      dup4\n        /* \"#utility.yul\":2781:2797   */\n      add\n        /* \"#utility.yul\":2774:2801   */\n      mstore\n        /* \"#utility.yul\":2653:2807   */\n      pop\n      pop\n      pop\n      jump\t// out\n        /* \"#utility.yul\":2813:3225   */\n    tag_68:\n        /* \"#utility.yul\":2891:2896   */\n      0x00\n        /* \"#utility.yul\":2916:2982   */\n      tag_110\n        /* \"#utility.yul\":2932:2981   */\n      tag_111\n        /* \"#utility.yul\":2974:2980   */\n      dup5\n        /* \"#utility.yul\":2932:2981   */\n      tag_66\n      jump\t// in\n    tag_111:\n        /* \"#utility.yul\":2916:2982   */\n      tag_65\n      jump\t// in\n    tag_110:\n        /* \"#utility.yul\":2907:2982   */\n      swap1\n      pop\n        /* \"#utility.yul\":3005:3011   */\n      dup3\n        /* \"#utility.yul\":2998:3003   */\n      dup2\n        /* \"#utility.yul\":2991:3012   */\n      mstore\n        /* \"#utility.yul\":3043:3047   */\n      0x20\n        /* \"#utility.yul\":3036:3041   */\n      dup2\n        /* \"#utility.yul\":3032:3048   */\n      add\n        /* \"#utility.yul\":3081:3084   */\n      dup5\n        /* \"#utility.yul\":3072:3078   */\n      dup5\n        /* \"#utility.yul\":3067:3070   */\n      dup5\n        /* \"#utility.yul\":3063:3079   */\n      add\n        /* \"#utility.yul\":3060:3085   */\n      gt\n        /* \"#utility.yul\":3057:3169   */\n      iszero\n      tag_112\n      jumpi\n        /* \"#utility.yul\":3088:3167   */\n      tag_113\n      tag_61\n      jump\t// in\n    tag_113:\n        /* \"#utility.yul\":3057:3169   */\n    tag_112:\n        /* \"#utility.yul\":3178:3219   */\n      tag_114\n        /* \"#utility.yul\":3212:3218   */\n      dup5\n        /* \"#utility.yul\":3207:3210   */\n      dup3\n        /* \"#utility.yul\":3202:3205   */\n      dup6\n        /* \"#utility.yul\":3178:3219   */\n      tag_67\n      jump\t// in\n    tag_114:\n        /* \"#utility.yul\":2897:3225   */\n      pop\n        /* \"#utility.yul\":2813:3225   */\n      swap4\n      swap3\n      pop\n      pop\n      pop\n      jump\t// out\n        /* \"#utility.yul\":3245:3585   */\n    tag_69:\n        /* \"#utility.yul\":3301:3306   */\n      0x00\n        /* \"#utility.yul\":3350:3353   */\n      dup3\n        /* \"#utility.yul\":3343:3347   */\n      0x1f\n        /* \"#utility.yul\":3335:3341   */\n      dup4\n        /* \"#utility.yul\":3331:3348   */\n      add\n        /* \"#utility.yul\":3327:3354   */\n      slt\n        /* \"#utility.yul\":3317:3439   */\n      tag_116\n      jumpi\n        /* \"#utility.yul\":3358:3437   */\n      tag_117\n      tag_60\n      jump\t// in\n    tag_117:\n        /* \"#utility.yul\":3317:3439   */\n    tag_116:\n        /* \"#utility.yul\":3475:3481   */\n      dup2\n        /* \"#utility.yul\":3462:3482   */\n      calldataload\n        /* \"#utility.yul\":3500:3579   */\n      tag_118\n        /* \"#utility.yul\":3575:3578   */\n      dup5\n        /* \"#utility.yul\":3567:3573   */\n      dup3\n        /* \"#utility.yul\":3560:3564   */\n      0x20\n        /* \"#utility.yul\":3552:3558   */\n      dup7\n        /* \"#utility.yul\":3548:3565   */\n      add\n        /* \"#utility.yul\":3500:3579   */\n      tag_68\n      jump\t// in\n    tag_118:\n        /* \"#utility.yul\":3491:3579   */\n      swap2\n      pop\n        /* \"#utility.yul\":3307:3585   */\n      pop\n        /* \"#utility.yul\":3245:3585   */\n      swap3\n      swap2\n      pop\n      pop\n      jump\t// out\n        /* \"#utility.yul\":3591:4390   */\n    tag_21:\n        /* \"#utility.yul\":3678:3684   */\n      0x00\n        /* \"#utility.yul\":3686:3692   */\n      dup1\n        /* \"#utility.yul\":3694:3700   */\n      0x00\n        /* \"#utility.yul\":3743:3745   */\n      0x60\n        /* \"#utility.yul\":3731:3740   */\n      dup5\n        /* \"#utility.yul\":3722:3729   */\n      dup7\n        /* \"#utility.yul\":3718:3741   */\n      sub\n        /* \"#utility.yul\":3714:3746   */\n      slt\n        /* \"#utility.yul\":3711:3830   */\n      iszero\n      tag_120\n      jumpi\n        /* \"#utility.yul\":3749:3828   */\n      tag_121\n      tag_56\n      jump\t// in\n    tag_121:\n        /* \"#utility.yul\":3711:3830   */\n    tag_120:\n        /* \"#utility.yul\":3897:3898   */\n      0x00\n        /* \"#utility.yul\":3886:3895   */\n      dup5\n        /* \"#utility.yul\":3882:3899   */\n      add\n        /* \"#utility.yul\":3869:3900   */\n      calldataload\n        /* \"#utility.yul\":3927:3945   */\n      0xffffffffffffffff\n        /* \"#utility.yul\":3919:3925   */\n      dup2\n        /* \"#utility.yul\":3916:3946   */\n      gt\n        /* \"#utility.yul\":3913:4030   */\n      iszero\n      tag_122\n      jumpi\n        /* \"#utility.yul\":3949:4028   */\n      tag_123\n      tag_57\n      jump\t// in\n    tag_123:\n        /* \"#utility.yul\":3913:4030   */\n    tag_122:\n        /* \"#utility.yul\":4054:4117   */\n      tag_124\n        /* \"#utility.yul\":4109:4116   */\n      dup7\n        /* \"#utility.yul\":4100:4106   */\n      dup3\n        /* \"#utility.yul\":4089:4098   */\n      dup8\n        /* \"#utility.yul\":4085:4107   */\n      add\n        /* \"#utility.yul\":4054:4117   */\n      tag_69\n      jump\t// in\n    tag_124:\n        /* \"#utility.yul\":4044:4117   */\n      swap4\n      pop\n        /* \"#utility.yul\":3840:4127   */\n      pop\n        /* \"#utility.yul\":4166:4168   */\n      0x20\n        /* \"#utility.yul\":4192:4245   */\n      tag_125\n        /* \"#utility.yul\":4237:4244   */\n      dup7\n        /* \"#utility.yul\":4228:4234   */\n      dup3\n        /* \"#utility.yul\":4217:4226   */\n      dup8\n        /* \"#utility.yul\":4213:4235   */\n      add\n        /* \"#utility.yul\":4192:4245   */\n      tag_59\n      jump\t// in\n    tag_125:\n        /* \"#utility.yul\":4182:4245   */\n      swap3\n      pop\n        /* \"#utility.yul\":4137:4255   */\n      pop\n        /* \"#utility.yul\":4294:4296   */\n      0x40\n        /* \"#utility.yul\":4320:4373   */\n      tag_126\n        /* \"#utility.yul\":4365:4372   */\n      dup7\n        /* \"#utility.yul\":4356:4362   */\n      dup3\n        /* \"#utility.yul\":4345:4354   */\n      dup8\n        /* \"#utility.yul\":4341:4363   */\n      add\n        /* \"#utility.yul\":4320:4373   */\n      tag_59\n      jump\t// in\n    tag_126:\n        /* \"#utility.yul\":4310:4373   */\n      swap2\n      pop\n        /* \"#utility.yul\":4265:4383   */\n      pop\n        /* \"#utility.yul\":3591:4390   */\n      swap3\n      pop\n      swap3\n      pop\n      swap3\n      jump\t// out\n        /* \"#utility.yul\":4396:4495   */\n    tag_70:\n        /* \"#utility.yul\":4448:4454   */\n      0x00\n        /* \"#utility.yul\":4482:4487   */\n      dup2\n        /* \"#utility.yul\":4476:4488   */\n      mload\n        /* \"#utility.yul\":4466:4488   */\n      swap1\n      pop\n        /* \"#utility.yul\":4396:4495   */\n      swap2\n      swap1\n      pop\n      jump\t// out\n        /* \"#utility.yul\":4501:4670   */\n    tag_71:\n        /* \"#utility.yul\":4585:4596   */\n      0x00\n        /* \"#utility.yul\":4619:4625   */\n      dup3\n        /* \"#utility.yul\":4614:4617   */\n      dup3\n        /* \"#utility.yul\":4607:4626   */\n      mstore\n        /* \"#utility.yul\":4659:4663   */\n      0x20\n        /* \"#utility.yul\":4654:4657   */\n      dup3\n        /* \"#utility.yul\":4650:4664   */\n      add\n        /* \"#utility.yul\":4635:4664   */\n      swap1\n      pop\n        /* \"#utility.yul\":4501:4670   */\n      swap3\n      swap2\n      pop\n      pop\n      jump\t// out\n        /* \"#utility.yul\":4676:4983   */\n    tag_72:\n        /* \"#utility.yul\":4744:4745   */\n      0x00\n        /* \"#utility.yul\":4754:4867   */\n    tag_130:\n        /* \"#utility.yul\":4768:4774   */\n      dup4\n        /* \"#utility.yul\":4765:4766   */\n      dup2\n        /* \"#utility.yul\":4762:4775   */\n      lt\n        /* \"#utility.yul\":4754:4867   */\n      iszero\n      tag_132\n      jumpi\n        /* \"#utility.yul\":4853:4854   */\n      dup1\n        /* \"#utility.yul\":4848:4851   */\n      dup3\n        /* \"#utility.yul\":4844:4855   */\n      add\n        /* \"#utility.yul\":4838:4856   */\n      mload\n        /* \"#utility.yul\":4834:4835   */\n      dup2\n        /* \"#utility.yul\":4829:4832   */\n      dup5\n        /* \"#utility.yul\":4825:4836   */\n      add\n        /* \"#utility.yul\":4818:4857   */\n      mstore\n        /* \"#utility.yul\":4790:4792   */\n      0x20\n        /* \"#utility.yul\":4787:4788   */\n      dup2\n        /* \"#utility.yul\":4783:4793   */\n      add\n        /* \"#utility.yul\":4778:4793   */\n      swap1\n      pop\n        /* \"#utility.yul\":4754:4867   */\n      jump(tag_130)\n    tag_132:\n        /* \"#utility.yul\":4885:4891   */\n      dup4\n        /* \"#utility.yul\":4882:4883   */\n      dup2\n        /* \"#utility.yul\":4879:4892   */\n      gt\n        /* \"#utility.yul\":4876:4977   */\n      iszero\n      tag_133\n      jumpi\n        /* \"#utility.yul\":4965:4966   */\n      0x00\n        /* \"#utility.yul\":4956:4962   */\n      dup5\n        /* \"#utility.yul\":4951:4954   */\n      dup5\n        /* \"#utility.yul\":4947:4963   */\n      add\n        /* \"#utility.yul\":4940:4967   */\n      mstore\n        /* \"#utility.yul\":4876:4977   */\n    tag_133:\n        /* \"#utility.yul\":4725:4983   */\n      pop\n        /* \"#utility.yul\":4676:4983   */\n      pop\n      pop\n      pop\n      jump\t// out\n        /* \"#utility.yul\":4989:5353   */\n    tag_73:\n        /* \"#utility.yul\":5077:5080   */\n      0x00\n        /* \"#utility.yul\":5105:5144   */\n      tag_135\n        /* \"#utility.yul\":5138:5143   */\n      dup3\n        /* \"#utility.yul\":5105:5144   */\n      tag_70\n      jump\t// in\n    tag_135:\n        /* \"#utility.yul\":5160:5231   */\n      tag_136\n        /* \"#utility.yul\":5224:5230   */\n      dup2\n        /* \"#utility.yul\":5219:5222   */\n      dup6\n        /* \"#utility.yul\":5160:5231   */\n      tag_71\n      jump\t// in\n    tag_136:\n        /* \"#utility.yul\":5153:5231   */\n      swap4\n      pop\n        /* \"#utility.yul\":5240:5292   */\n      tag_137\n        /* \"#utility.yul\":5285:5291   */\n      dup2\n        /* \"#utility.yul\":5280:5283   */\n      dup6\n        /* \"#utility.yul\":5273:5277   */\n      0x20\n        /* \"#utility.yul\":5266:5271   */\n      dup7\n        /* \"#utility.yul\":5262:5278   */\n      add\n        /* \"#utility.yul\":5240:5292   */\n      tag_72\n      jump\t// in\n    tag_137:\n        /* \"#utility.yul\":5317:5346   */\n      tag_138\n        /* \"#utility.yul\":5339:5345   */\n      dup2\n        /* \"#utility.yul\":5317:5346   */\n      tag_62\n      jump\t// in\n    tag_138:\n        /* \"#utility.yul\":5312:5315   */\n      dup5\n        /* \"#utility.yul\":5308:5347   */\n      add\n        /* \"#utility.yul\":5301:5347   */\n      swap2\n      pop\n        /* \"#utility.yul\":5081:5353   */\n      pop\n        /* \"#utility.yul\":4989:5353   */\n      swap3\n      swap2\n      pop\n      pop\n      jump\t// out\n        /* \"#utility.yul\":5359:5892   */\n    tag_27:\n        /* \"#utility.yul\":5528:5532   */\n      0x00\n        /* \"#utility.yul\":5566:5568   */\n      0x60\n        /* \"#utility.yul\":5555:5564   */\n      dup3\n        /* \"#utility.yul\":5551:5569   */\n      add\n        /* \"#utility.yul\":5543:5569   */\n      swap1\n      pop\n        /* \"#utility.yul\":5579:5650   */\n      tag_140\n        /* \"#utility.yul\":5647:5648   */\n      0x00\n        /* \"#utility.yul\":5636:5645   */\n      dup4\n        /* \"#utility.yul\":5632:5649   */\n      add\n        /* \"#utility.yul\":5623:5629   */\n      dup7\n        /* \"#utility.yul\":5579:5650   */\n      tag_54\n      jump\t// in\n    tag_140:\n        /* \"#utility.yul\":5697:5706   */\n      dup2\n        /* \"#utility.yul\":5691:5695   */\n      dup2\n        /* \"#utility.yul\":5687:5707   */\n      sub\n        /* \"#utility.yul\":5682:5684   */\n      0x20\n        /* \"#utility.yul\":5671:5680   */\n      dup4\n        /* \"#utility.yul\":5667:5685   */\n      add\n        /* \"#utility.yul\":5660:5708   */\n      mstore\n        /* \"#utility.yul\":5725:5803   */\n      tag_141\n        /* \"#utility.yul\":5798:5802   */\n      dup2\n        /* \"#utility.yul\":5789:5795   */\n      dup6\n        /* \"#utility.yul\":5725:5803   */\n      tag_73\n      jump\t// in\n    tag_141:\n        /* \"#utility.yul\":5717:5803   */\n      swap1\n      pop\n        /* \"#utility.yul\":5813:5885   */\n      tag_142\n        /* \"#utility.yul\":5881:5883   */\n      0x40\n        /* \"#utility.yul\":5870:5879   */\n      dup4\n        /* \"#utility.yul\":5866:5884   */\n      add\n        /* \"#utility.yul\":5857:5863   */\n      dup5\n        /* \"#utility.yul\":5813:5885   */\n      tag_54\n      jump\t// in\n    tag_142:\n        /* \"#utility.yul\":5359:5892   */\n      swap5\n      swap4\n      pop\n      pop\n      pop\n      pop\n      jump\t// out\n        /* \"#utility.yul\":5898:6078   */\n    tag_74:\n        /* \"#utility.yul\":5946:6023   */\n      0x4e487b7100000000000000000000000000000000000000000000000000000000\n        /* \"#utility.yul\":5943:5944   */\n      0x00\n        /* \"#utility.yul\":5936:6024   */\n      mstore\n        /* \"#utility.yul\":6043:6047   */\n      0x22\n        /* \"#utility.yul\":6040:6041   */\n      0x04\n        /* \"#utility.yul\":6033:6048   */\n      mstore\n        /* \"#utility.yul\":6067:6071   */\n      0x24\n        /* \"#utility.yul\":6064:6065   */\n      0x00\n        /* \"#utility.yul\":6057:6072   */\n      revert\n        /* \"#utility.yul\":6084:6404   */\n    tag_38:\n        /* \"#utility.yul\":6128:6134   */\n      0x00\n        /* \"#utility.yul\":6165:6166   */\n      0x02\n        /* \"#utility.yul\":6159:6163   */\n      dup3\n        /* \"#utility.yul\":6155:6167   */\n      div\n        /* \"#utility.yul\":6145:6167   */\n      swap1\n      pop\n        /* \"#utility.yul\":6212:6213   */\n      0x01\n        /* \"#utility.yul\":6206:6210   */\n      dup3\n        /* \"#utility.yul\":6202:6214   */\n      and\n        /* \"#utility.yul\":6233:6251   */\n      dup1\n        /* \"#utility.yul\":6223:6304   */\n      tag_145\n      jumpi\n        /* \"#utility.yul\":6289:6293   */\n      0x7f\n        /* \"#utility.yul\":6281:6287   */\n      dup3\n        /* \"#utility.yul\":6277:6294   */\n      and\n        /* \"#utility.yul\":6267:6294   */\n      swap2\n      pop\n        /* \"#utility.yul\":6223:6304   */\n    tag_145:\n        /* \"#utility.yul\":6351:6353   */\n      0x20\n        /* \"#utility.yul\":6343:6349   */\n      dup3\n        /* \"#utility.yul\":6340:6354   */\n      lt\n        /* \"#utility.yul\":6320:6338   */\n      dup2\n        /* \"#utility.yul\":6317:6355   */\n      eq\n        /* \"#utility.yul\":6314:6398   */\n      iszero\n      tag_146\n      jumpi\n        /* \"#utility.yul\":6370:6388   */\n      tag_147\n      tag_74\n      jump\t// in\n    tag_147:\n        /* \"#utility.yul\":6314:6398   */\n    tag_146:\n        /* \"#utility.yul\":6135:6404   */\n      pop\n        /* \"#utility.yul\":6084:6404   */\n      swap2\n      swap1\n      pop\n      jump\t// out\n\n    auxdata: 0xa264697066735822122096d0d2b725a689de894245c197690b596f109846c229002f002bacfac1aceba464736f6c63430008080033\n}\n",
				"bytecode": {
					"linkReferences": {},
					"object": "608060405234801561001057600080fd5b506106c0806100206000396000f3fe608060405234801561001057600080fd5b50600436106100575760003560e01c80632e64cec11461005c57806343ede4ae1461007a5780636057361d146100985780638a5a6561146100b45780639e7a13ad146100d0575b600080fd5b610064610102565b6040516100719190610326565b60405180910390f35b61008261010b565b60405161008f9190610326565b60405180910390f35b6100b260048036038101906100ad9190610381565b610111565b005b6100ce60048036038101906100c991906104f4565b610124565b005b6100ea60048036038101906100e59190610381565b6101a8565b6040516100f9939291906105eb565b60405180910390f35b60008054905090565b60005481565b80600081905550610120610102565b5050565b60006040518060600160405280848152602001858152602001838152509050600181908060018154018082558091505060019003906000526020600020906003020160009091909190915060008201518160000155602082015181600101908051906020019061019592919061026a565b5060408201518160020155505050505050565b600181815481106101b857600080fd5b90600052602060002090600302016000915090508060000154908060010180546101e190610658565b80601f016020809104026020016040519081016040528092919081815260200182805461020d90610658565b801561025a5780601f1061022f5761010080835404028352916020019161025a565b820191906000526020600020905b81548152906001019060200180831161023d57829003601f168201915b5050505050908060020154905083565b82805461027690610658565b90600052602060002090601f01602090048101928261029857600085556102df565b82601f106102b157805160ff19168380011785556102df565b828001600101855582156102df579182015b828111156102de5782518255916020019190600101906102c3565b5b5090506102ec91906102f0565b5090565b5b808211156103095760008160009055506001016102f1565b5090565b6000819050919050565b6103208161030d565b82525050565b600060208201905061033b6000830184610317565b92915050565b6000604051905090565b600080fd5b600080fd5b61035e8161030d565b811461036957600080fd5b50565b60008135905061037b81610355565b92915050565b6000602082840312156103975761039661034b565b5b60006103a58482850161036c565b91505092915050565b600080fd5b600080fd5b6000601f19601f8301169050919050565b7f4e487b7100000000000000000000000000000000000000000000000000000000600052604160045260246000fd5b610401826103b8565b810181811067ffffffffffffffff821117156104205761041f6103c9565b5b80604052505050565b6000610433610341565b905061043f82826103f8565b919050565b600067ffffffffffffffff82111561045f5761045e6103c9565b5b610468826103b8565b9050602081019050919050565b82818337600083830152505050565b600061049761049284610444565b610429565b9050828152602081018484840111156104b3576104b26103b3565b5b6104be848285610475565b509392505050565b600082601f8301126104db576104da6103ae565b5b81356104eb848260208601610484565b91505092915050565b60008060006060848603121561050d5761050c61034b565b5b600084013567ffffffffffffffff81111561052b5761052a610350565b5b610537868287016104c6565b93505060206105488682870161036c565b92505060406105598682870161036c565b9150509250925092565b600081519050919050565b600082825260208201905092915050565b60005b8381101561059d578082015181840152602081019050610582565b838111156105ac576000848401525b50505050565b60006105bd82610563565b6105c7818561056e565b93506105d781856020860161057f565b6105e0816103b8565b840191505092915050565b60006060820190506106006000830186610317565b818103602083015261061281856105b2565b90506106216040830184610317565b949350505050565b7f4e487b7100000000000000000000000000000000000000000000000000000000600052602260045260246000fd5b6000600282049050600182168061067057607f821691505b6020821081141561068457610683610629565b5b5091905056fea264697066735822122096d0d2b725a689de894245c197690b596f109846c229002f002bacfac1aceba464736f6c63430008080033",
					"opcodes": "PUSH1 0x80 PUSH1 0x40 MSTORE CALLVALUE DUP1 ISZERO PUSH2 0x10 JUMPI PUSH1 0x0 DUP1 REVERT JUMPDEST POP PUSH2 0x6C0 DUP1 PUSH2 0x20 PUSH1 0x0 CODECOPY PUSH1 0x0 RETURN INVALID PUSH1 0x80 PUSH1 0x40 MSTORE CALLVALUE DUP1 ISZERO PUSH2 0x10 JUMPI PUSH1 0x0 DUP1 REVERT JUMPDEST POP PUSH1 0x4 CALLDATASIZE LT PUSH2 0x57 JUMPI PUSH1 0x0 CALLDATALOAD PUSH1 0xE0 SHR DUP1 PUSH4 0x2E64CEC1 EQ PUSH2 0x5C JUMPI DUP1 PUSH4 0x43EDE4AE EQ PUSH2 0x7A JUMPI DUP1 PUSH4 0x6057361D EQ PUSH2 0x98 JUMPI DUP1 PUSH4 0x8A5A6561 EQ PUSH2 0xB4 JUMPI DUP1 PUSH4 0x9E7A13AD EQ PUSH2 0xD0 JUMPI JUMPDEST PUSH1 0x0 DUP1 REVERT JUMPDEST PUSH2 0x64 PUSH2 0x102 JUMP JUMPDEST PUSH1 0x40 MLOAD PUSH2 0x71 SWAP2 SWAP1 PUSH2 0x326 JUMP JUMPDEST PUSH1 0x40 MLOAD DUP1 SWAP2 SUB SWAP1 RETURN JUMPDEST PUSH2 0x82 PUSH2 0x10B JUMP JUMPDEST PUSH1 0x40 MLOAD PUSH2 0x8F SWAP2 SWAP1 PUSH2 0x326 JUMP JUMPDEST PUSH1 0x40 MLOAD DUP1 SWAP2 SUB SWAP1 RETURN JUMPDEST PUSH2 0xB2 PUSH1 0x4 DUP1 CALLDATASIZE SUB DUP2 ADD SWAP1 PUSH2 0xAD SWAP2 SWAP1 PUSH2 0x381 JUMP JUMPDEST PUSH2 0x111 JUMP JUMPDEST STOP JUMPDEST PUSH2 0xCE PUSH1 0x4 DUP1 CALLDATASIZE SUB DUP2 ADD SWAP1 PUSH2 0xC9 SWAP2 SWAP1 PUSH2 0x4F4 JUMP JUMPDEST PUSH2 0x124 JUMP JUMPDEST STOP JUMPDEST PUSH2 0xEA PUSH1 0x4 DUP1 CALLDATASIZE SUB DUP2 ADD SWAP1 PUSH2 0xE5 SWAP2 SWAP1 PUSH2 0x381 JUMP JUMPDEST PUSH2 0x1A8 JUMP JUMPDEST PUSH1 0x40 MLOAD PUSH2 0xF9 SWAP4 SWAP3 SWAP2 SWAP1 PUSH2 0x5EB JUMP JUMPDEST PUSH1 0x40 MLOAD DUP1 SWAP2 SUB SWAP1 RETURN JUMPDEST PUSH1 0x0 DUP1 SLOAD SWAP1 POP SWAP1 JUMP JUMPDEST PUSH1 0x0 SLOAD DUP2 JUMP JUMPDEST DUP1 PUSH1 0x0 DUP2 SWAP1 SSTORE POP PUSH2 0x120 PUSH2 0x102 JUMP JUMPDEST POP POP JUMP JUMPDEST PUSH1 0x0 PUSH1 0x40 MLOAD DUP1 PUSH1 0x60 ADD PUSH1 0x40 MSTORE DUP1 DUP5 DUP2 MSTORE PUSH1 0x20 ADD DUP6 DUP2 MSTORE PUSH1 0x20 ADD DUP4 DUP2 MSTORE POP SWAP1 POP PUSH1 0x1 DUP2 SWAP1 DUP1 PUSH1 0x1 DUP2 SLOAD ADD DUP1 DUP3 SSTORE DUP1 SWAP2 POP POP PUSH1 0x1 SWAP1 SUB SWAP1 PUSH1 0x0 MSTORE PUSH1 0x20 PUSH1 0x0 KECCAK256 SWAP1 PUSH1 0x3 MUL ADD PUSH1 0x0 SWAP1 SWAP2 SWAP1 SWAP2 SWAP1 SWAP2 POP PUSH1 0x0 DUP3 ADD MLOAD DUP2 PUSH1 0x0 ADD SSTORE PUSH1 0x20 DUP3 ADD MLOAD DUP2 PUSH1 0x1 ADD SWAP1 DUP1 MLOAD SWAP1 PUSH1 0x20 ADD SWAP1 PUSH2 0x195 SWAP3 SWAP2 SWAP1 PUSH2 0x26A JUMP JUMPDEST POP PUSH1 0x40 DUP3 ADD MLOAD DUP2 PUSH1 0x2 ADD SSTORE POP POP POP POP POP POP JUMP JUMPDEST PUSH1 0x1 DUP2 DUP2 SLOAD DUP2 LT PUSH2 0x1B8 JUMPI PUSH1 0x0 DUP1 REVERT JUMPDEST SWAP1 PUSH1 0x0 MSTORE PUSH1 0x20 PUSH1 0x0 KECCAK256 SWAP1 PUSH1 0x3 MUL ADD PUSH1 0x0 SWAP2 POP SWAP1 POP DUP1 PUSH1 0x0 ADD SLOAD SWAP1 DUP1 PUSH1 0x1 ADD DUP1 SLOAD PUSH2 0x1E1 SWAP1 PUSH2 0x658 JUMP JUMPDEST DUP1 PUSH1 0x1F ADD PUSH1 0x20 DUP1 SWAP2 DIV MUL PUSH1 0x20 ADD PUSH1 0x40 MLOAD SWAP1 DUP2 ADD PUSH1 0x40 MSTORE DUP1 SWAP3 SWAP2 SWAP1 DUP2 DUP2 MSTORE PUSH1 0x20 ADD DUP3 DUP1 SLOAD PUSH2 0x20D SWAP1 PUSH2 0x658 JUMP JUMPDEST DUP1 ISZERO PUSH2 0x25A JUMPI DUP1 PUSH1 0x1F LT PUSH2 0x22F JUMPI PUSH2 0x100 DUP1 DUP4 SLOAD DIV MUL DUP4 MSTORE SWAP2 PUSH1 0x20 ADD SWAP2 PUSH2 0x25A JUMP JUMPDEST DUP3 ADD SWAP2 SWAP1 PUSH1 0x0 MSTORE PUSH1 0x20 PUSH1 0x0 KECCAK256 SWAP1 JUMPDEST DUP2 SLOAD DUP2 MSTORE SWAP1 PUSH1 0x1 ADD SWAP1 PUSH1 0x20 ADD DUP1 DUP4 GT PUSH2 0x23D JUMPI DUP3 SWAP1 SUB PUSH1 0x1F AND DUP3 ADD SWAP2 JUMPDEST POP POP POP POP POP SWAP1 DUP1 PUSH1 0x2 ADD SLOAD SWAP1 POP DUP4 JUMP JUMPDEST DUP3 DUP1 SLOAD PUSH2 0x276 SWAP1 PUSH2 0x658 JUMP JUMPDEST SWAP1 PUSH1 0x0 MSTORE PUSH1 0x20 PUSH1 0x0 KECCAK256 SWAP1 PUSH1 0x1F ADD PUSH1 0x20 SWAP1 DIV DUP2 ADD SWAP3 DUP3 PUSH2 0x298 JUMPI PUSH1 0x0 DUP6 SSTORE PUSH2 0x2DF JUMP JUMPDEST DUP3 PUSH1 0x1F LT PUSH2 0x2B1 JUMPI DUP1 MLOAD PUSH1 0xFF NOT AND DUP4 DUP1 ADD OR DUP6 SSTORE PUSH2 0x2DF JUMP JUMPDEST DUP3 DUP1 ADD PUSH1 0x1 ADD DUP6 SSTORE DUP3 ISZERO PUSH2 0x2DF JUMPI SWAP2 DUP3 ADD JUMPDEST DUP3 DUP2 GT ISZERO PUSH2 0x2DE JUMPI DUP3 MLOAD DUP3 SSTORE SWAP2 PUSH1 0x20 ADD SWAP2 SWAP1 PUSH1 0x1 ADD SWAP1 PUSH2 0x2C3 JUMP JUMPDEST JUMPDEST POP SWAP1 POP PUSH2 0x2EC SWAP2 SWAP1 PUSH2 0x2F0 JUMP JUMPDEST POP SWAP1 JUMP JUMPDEST JUMPDEST DUP1 DUP3 GT ISZERO PUSH2 0x309 JUMPI PUSH1 0x0 DUP2 PUSH1 0x0 SWAP1 SSTORE POP PUSH1 0x1 ADD PUSH2 0x2F1 JUMP JUMPDEST POP SWAP1 JUMP JUMPDEST PUSH1 0x0 DUP2 SWAP1 POP SWAP2 SWAP1 POP JUMP JUMPDEST PUSH2 0x320 DUP2 PUSH2 0x30D JUMP JUMPDEST DUP3 MSTORE POP POP JUMP JUMPDEST PUSH1 0x0 PUSH1 0x20 DUP3 ADD SWAP1 POP PUSH2 0x33B PUSH1 0x0 DUP4 ADD DUP5 PUSH2 0x317 JUMP JUMPDEST SWAP3 SWAP2 POP POP JUMP JUMPDEST PUSH1 0x0 PUSH1 0x40 MLOAD SWAP1 POP SWAP1 JUMP JUMPDEST PUSH1 0x0 DUP1 REVERT JUMPDEST PUSH1 0x0 DUP1 REVERT JUMPDEST PUSH2 0x35E DUP2 PUSH2 0x30D JUMP JUMPDEST DUP2 EQ PUSH2 0x369 JUMPI PUSH1 0x0 DUP1 REVERT JUMPDEST POP JUMP JUMPDEST PUSH1 0x0 DUP2 CALLDATALOAD SWAP1 POP PUSH2 0x37B DUP2 PUSH2 0x355 JUMP JUMPDEST SWAP3 SWAP2 POP POP JUMP JUMPDEST PUSH1 0x0 PUSH1 0x20 DUP3 DUP5 SUB SLT ISZERO PUSH2 0x397 JUMPI PUSH2 0x396 PUSH2 0x34B JUMP JUMPDEST JUMPDEST PUSH1 0x0 PUSH2 0x3A5 DUP5 DUP3 DUP6 ADD PUSH2 0x36C JUMP JUMPDEST SWAP2 POP POP SWAP3 SWAP2 POP POP JUMP JUMPDEST PUSH1 0x0 DUP1 REVERT JUMPDEST PUSH1 0x0 DUP1 REVERT JUMPDEST PUSH1 0x0 PUSH1 0x1F NOT PUSH1 0x1F DUP4 ADD AND SWAP1 POP SWAP2 SWAP1 POP JUMP JUMPDEST PUSH32 0x4E487B7100000000000000000000000000000000000000000000000000000000 PUSH1 0x0 MSTORE PUSH1 0x41 PUSH1 0x4 MSTORE PUSH1 0x24 PUSH1 0x0 REVERT JUMPDEST PUSH2 0x401 DUP3 PUSH2 0x3B8 JUMP JUMPDEST DUP2 ADD DUP2 DUP2 LT PUSH8 0xFFFFFFFFFFFFFFFF DUP3 GT OR ISZERO PUSH2 0x420 JUMPI PUSH2 0x41F PUSH2 0x3C9 JUMP JUMPDEST JUMPDEST DUP1 PUSH1 0x40 MSTORE POP POP POP JUMP JUMPDEST PUSH1 0x0 PUSH2 0x433 PUSH2 0x341 JUMP JUMPDEST SWAP1 POP PUSH2 0x43F DUP3 DUP3 PUSH2 0x3F8 JUMP JUMPDEST SWAP2 SWAP1 POP JUMP JUMPDEST PUSH1 0x0 PUSH8 0xFFFFFFFFFFFFFFFF DUP3 GT ISZERO PUSH2 0x45F JUMPI PUSH2 0x45E PUSH2 0x3C9 JUMP JUMPDEST JUMPDEST PUSH2 0x468 DUP3 PUSH2 0x3B8 JUMP JUMPDEST SWAP1 POP PUSH1 0x20 DUP2 ADD SWAP1 POP SWAP2 SWAP1 POP JUMP JUMPDEST DUP3 DUP2 DUP4 CALLDATACOPY PUSH1 0x0 DUP4 DUP4 ADD MSTORE POP POP POP JUMP JUMPDEST PUSH1 0x0 PUSH2 0x497 PUSH2 0x492 DUP5 PUSH2 0x444 JUMP JUMPDEST PUSH2 0x429 JUMP JUMPDEST SWAP1 POP DUP3 DUP2 MSTORE PUSH1 0x20 DUP2 ADD DUP5 DUP5 DUP5 ADD GT ISZERO PUSH2 0x4B3 JUMPI PUSH2 0x4B2 PUSH2 0x3B3 JUMP JUMPDEST JUMPDEST PUSH2 0x4BE DUP5 DUP3 DUP6 PUSH2 0x475 JUMP JUMPDEST POP SWAP4 SWAP3 POP POP POP JUMP JUMPDEST PUSH1 0x0 DUP3 PUSH1 0x1F DUP4 ADD SLT PUSH2 0x4DB JUMPI PUSH2 0x4DA PUSH2 0x3AE JUMP JUMPDEST JUMPDEST DUP2 CALLDATALOAD PUSH2 0x4EB DUP5 DUP3 PUSH1 0x20 DUP7 ADD PUSH2 0x484 JUMP JUMPDEST SWAP2 POP POP SWAP3 SWAP2 POP POP JUMP JUMPDEST PUSH1 0x0 DUP1 PUSH1 0x0 PUSH1 0x60 DUP5 DUP7 SUB SLT ISZERO PUSH2 0x50D JUMPI PUSH2 0x50C PUSH2 0x34B JUMP JUMPDEST JUMPDEST PUSH1 0x0 DUP5 ADD CALLDATALOAD PUSH8 0xFFFFFFFFFFFFFFFF DUP2 GT ISZERO PUSH2 0x52B JUMPI PUSH2 0x52A PUSH2 0x350 JUMP JUMPDEST JUMPDEST PUSH2 0x537 DUP7 DUP3 DUP8 ADD PUSH2 0x4C6 JUMP JUMPDEST SWAP4 POP POP PUSH1 0x20 PUSH2 0x548 DUP7 DUP3 DUP8 ADD PUSH2 0x36C JUMP JUMPDEST SWAP3 POP POP PUSH1 0x40 PUSH2 0x559 DUP7 DUP3 DUP8 ADD PUSH2 0x36C JUMP JUMPDEST SWAP2 POP POP SWAP3 POP SWAP3 POP SWAP3 JUMP JUMPDEST PUSH1 0x0 DUP2 MLOAD SWAP1 POP SWAP2 SWAP1 POP JUMP JUMPDEST PUSH1 0x0 DUP3 DUP3 MSTORE PUSH1 0x20 DUP3 ADD SWAP1 POP SWAP3 SWAP2 POP POP JUMP JUMPDEST PUSH1 0x0 JUMPDEST DUP4 DUP2 LT ISZERO PUSH2 0x59D JUMPI DUP1 DUP3 ADD MLOAD DUP2 DUP5 ADD MSTORE PUSH1 0x20 DUP2 ADD SWAP1 POP PUSH2 0x582 JUMP JUMPDEST DUP4 DUP2 GT ISZERO PUSH2 0x5AC JUMPI PUSH1 0x0 DUP5 DUP5 ADD MSTORE JUMPDEST POP POP POP POP JUMP JUMPDEST PUSH1 0x0 PUSH2 0x5BD DUP3 PUSH2 0x563 JUMP JUMPDEST PUSH2 0x5C7 DUP2 DUP6 PUSH2 0x56E JUMP JUMPDEST SWAP4 POP PUSH2 0x5D7 DUP2 DUP6 PUSH1 0x20 DUP7 ADD PUSH2 0x57F JUMP JUMPDEST PUSH2 0x5E0 DUP2 PUSH2 0x3B8 JUMP JUMPDEST DUP5 ADD SWAP2 POP POP SWAP3 SWAP2 POP POP JUMP JUMPDEST PUSH1 0x0 PUSH1 0x60 DUP3 ADD SWAP1 POP PUSH2 0x600 PUSH1 0x0 DUP4 ADD DUP7 PUSH2 0x317 JUMP JUMPDEST DUP2 DUP2 SUB PUSH1 0x20 DUP4 ADD MSTORE PUSH2 0x612 DUP2 DUP6 PUSH2 0x5B2 JUMP JUMPDEST SWAP1 POP PUSH2 0x621 PUSH1 0x40 DUP4 ADD DUP5 PUSH2 0x317 JUMP JUMPDEST SWAP5 SWAP4 POP POP POP POP JUMP JUMPDEST PUSH32 0x4E487B7100000000000000000000000000000000000000000000000000000000 PUSH1 0x0 MSTORE PUSH1 0x22 PUSH1 0x4 MSTORE PUSH1 0x24 PUSH1 0x0 REVERT JUMPDEST PUSH1 0x0 PUSH1 0x2 DUP3 DIV SWAP1 POP PUSH1 0x1 DUP3 AND DUP1 PUSH2 0x670 JUMPI PUSH1 0x7F DUP3 AND SWAP2 POP JUMPDEST PUSH1 0x20 DUP3 LT DUP2 EQ ISZERO PUSH2 0x684 JUMPI PUSH2 0x683 PUSH2 0x629 JUMP JUMPDEST JUMPDEST POP SWAP2 SWAP1 POP JUMP INVALID LOG2 PUSH5 0x6970667358 0x22 SLT KECCAK256 SWAP7 0xD0 0xD2 0xB7 0x25 0xA6 DUP10 0xDE DUP10 TIMESTAMP GASLIMIT 0xC1 SWAP8 PUSH10 0xB596F109846C229002F STOP 0x2B 0xAC STATICCALL 0xC1 0xAC 0xEB LOG4 PUSH5 0x736F6C6343 STOP ADDMOD ADDMOD STOP CALLER "
				},
				"gasEstimates": {
					"creation": {
						"codeDepositCost": "345600",
						"executionCost": "380",
						"totalCost": "345980"
					},
					"external": {
						"addperson(string,uint256,uint256)": "infinite",
						"favouriteNumber()": "2429",
						"people(uint256)": "infinite",
						"retrieve()": "2415",
						"store(uint256)": "24682"
					}
				},
				"methodIdentifiers": {
					"addperson(string,uint256,uint256)": "8a5a6561",
					"favouriteNumber()": "43ede4ae",
					"people(uint256)": "9e7a13ad",
					"retrieve()": "2e64cec1",
					"store(uint256)": "6057361d"
				}
			},
			"storageLayout": {
				"storage": [
					{
						"astId": 3,
						"contract": "contracts/Retrieve-gas.sol:SimpleStorage",
						"label": "favouriteNumber",
						"offset": 0,
						"slot": "0",
						"type": "t_uint256"
					},
					{
						"astId": 14,
						"contract": "contracts/Retrieve-gas.sol:SimpleStorage",
						"label": "people",
						"offset": 0,
						"slot": "1",
						"type": "t_array(t_struct(People)10_storage)dyn_storage"
					}
				],
				"types": {
					"t_array(t_struct(People)10_storage)dyn_storage": {
						"base": "t_struct(People)10_storage",
						"encoding": "dynamic_array",
						"label": "struct SimpleStorage.People[]",
						"numberOfBytes": "32"
					},
					"t_string_storage": {
						"encoding": "bytes",
						"label": "string",
						"numberOfBytes": "32"
					},
					"t_struct(People)10_storage": {
						"encoding": "inplace",
						"label": "struct SimpleStorage.People",
						"members": [
							{
								"astId": 5,
								"contract": "contracts/Retrieve-gas.sol:SimpleStorage",
								"label": "favouriteNumber",
								"offset": 0,
								"slot": "0",
								"type": "t_uint256"
							},
							{
								"astId": 7,
								"contract": "contracts/Retrieve-gas.sol:SimpleStorage",
								"label": "name",
								"offset": 0,
								"slot": "1",
								"type": "t_string_storage"
							},
							{
								"astId": 9,
								"contract": "contracts/Retrieve-gas.sol:SimpleStorage",
								"label": "age",
								"offset": 0,
								"slot": "2",
								"type": "t_uint256"
							}
						],
						"numberOfBytes": "96"
					},
					"t_uint256": {
						"encoding": "inplace",
						"label": "uint256",
						"numberOfBytes": "32"
					}
				}
			},
			"userdoc": {
				"kind": "user",
				"methods": {},
				"version": 1
			}
		}
	}
}