{
	"data": {
		"bytecode": {
			"linkReferences": {},
			"object": "608060405234801561001057600080fd5b5061022b806100206000396000f3fe608060405234801561001057600080fd5b50600436106100415760003560e01c8063430e4cae14610046578063477e4a021461007657806355278c5b146100a6575b600080fd5b610060600480360381019061005b919061019e565b6100d6565b60405161006d91906101da565b60405180910390f35b610090600480360381019061008b919061019e565b6100fe565b60405161009d91906101da565b60405180910390f35b6100c060048036038101906100bb919061019e565b610134565b6040516100cd91906101da565b60405180910390f35b6000600a82106100ec576501d1a94a20006100ef565b60015b65ffffffffffff169050919050565b6000600a821015610112576001905061012f565b6014821015610124576002905061012f565b660aa87bee53800090505b919050565b6000600a82101561014d57655af3107a4000905061015e565b6cfc6f7c40458122964d0000000090505b919050565b600080fd5b6000819050919050565b61017b81610168565b811461018657600080fd5b50565b60008135905061019881610172565b92915050565b6000602082840312156101b4576101b3610163565b5b60006101c284828501610189565b91505092915050565b6101d481610168565b82525050565b60006020820190506101ef60008301846101cb565b9291505056fea26469706673582212205da18fac47c68d143273809d48214824c23b3a24eab09b8584d9f1589ae0293764736f6c63430008130033",
			"opcodes": "PUSH1 0x80 PUSH1 0x40 MSTORE CALLVALUE DUP1 ISZERO PUSH2 0x10 JUMPI PUSH1 0x0 DUP1 REVERT JUMPDEST POP PUSH2 0x22B DUP1 PUSH2 0x20 PUSH1 0x0 CODECOPY PUSH1 0x0 RETURN INVALID PUSH1 0x80 PUSH1 0x40 MSTORE CALLVALUE DUP1 ISZERO PUSH2 0x10 JUMPI PUSH1 0x0 DUP1 REVERT JUMPDEST POP PUSH1 0x4 CALLDATASIZE LT PUSH2 0x41 JUMPI PUSH1 0x0 CALLDATALOAD PUSH1 0xE0 SHR DUP1 PUSH4 0x430E4CAE EQ PUSH2 0x46 JUMPI DUP1 PUSH4 0x477E4A02 EQ PUSH2 0x76 JUMPI DUP1 PUSH4 0x55278C5B EQ PUSH2 0xA6 JUMPI JUMPDEST PUSH1 0x0 DUP1 REVERT JUMPDEST PUSH2 0x60 PUSH1 0x4 DUP1 CALLDATASIZE SUB DUP2 ADD SWAP1 PUSH2 0x5B SWAP2 SWAP1 PUSH2 0x19E JUMP JUMPDEST PUSH2 0xD6 JUMP JUMPDEST PUSH1 0x40 MLOAD PUSH2 0x6D SWAP2 SWAP1 PUSH2 0x1DA JUMP JUMPDEST PUSH1 0x40 MLOAD DUP1 SWAP2 SUB SWAP1 RETURN JUMPDEST PUSH2 0x90 PUSH1 0x4 DUP1 CALLDATASIZE SUB DUP2 ADD SWAP1 PUSH2 0x8B SWAP2 SWAP1 PUSH2 0x19E JUMP JUMPDEST PUSH2 0xFE JUMP JUMPDEST PUSH1 0x40 MLOAD PUSH2 0x9D SWAP2 SWAP1 PUSH2 0x1DA JUMP JUMPDEST PUSH1 0x40 MLOAD DUP1 SWAP2 SUB SWAP1 RETURN JUMPDEST PUSH2 0xC0 PUSH1 0x4 DUP1 CALLDATASIZE SUB DUP2 ADD SWAP1 PUSH2 0xBB SWAP2 SWAP1 PUSH2 0x19E JUMP JUMPDEST PUSH2 0x134 JUMP JUMPDEST PUSH1 0x40 MLOAD PUSH2 0xCD SWAP2 SWAP1 PUSH2 0x1DA JUMP JUMPDEST PUSH1 0x40 MLOAD DUP1 SWAP2 SUB SWAP1 RETURN JUMPDEST PUSH1 0x0 PUSH1 0xA DUP3 LT PUSH2 0xEC JUMPI PUSH6 0x1D1A94A2000 PUSH2 0xEF JUMP JUMPDEST PUSH1 0x1 JUMPDEST PUSH6 0xFFFFFFFFFFFF AND SWAP1 POP SWAP2 SWAP1 POP JUMP JUMPDEST PUSH1 0x0 PUSH1 0xA DUP3 LT ISZERO PUSH2 0x112 JUMPI PUSH1 0x1 SWAP1 POP PUSH2 0x12F JUMP JUMPDEST PUSH1 0x14 DUP3 LT ISZERO PUSH2 0x124 JUMPI PUSH1 0x2 SWAP1 POP PUSH2 0x12F JUMP JUMPDEST PUSH7 0xAA87BEE538000 SWAP1 POP JUMPDEST SWAP2 SWAP1 POP JUMP JUMPDEST PUSH1 0x0 PUSH1 0xA DUP3 LT ISZERO PUSH2 0x14D JUMPI PUSH6 0x5AF3107A4000 SWAP1 POP PUSH2 0x15E JUMP JUMPDEST PUSH13 0xFC6F7C40458122964D00000000 SWAP1 POP JUMPDEST SWAP2 SWAP1 POP JUMP JUMPDEST PUSH1 0x0 DUP1 REVERT JUMPDEST PUSH1 0x0 DUP2 SWAP1 POP SWAP2 SWAP1 POP JUMP JUMPDEST PUSH2 0x17B DUP2 PUSH2 0x168 JUMP JUMPDEST DUP2 EQ PUSH2 0x186 JUMPI PUSH1 0x0 DUP1 REVERT JUMPDEST POP JUMP JUMPDEST PUSH1 0x0 DUP2 CALLDATALOAD SWAP1 POP PUSH2 0x198 DUP2 PUSH2 0x172 JUMP JUMPDEST SWAP3 SWAP2 POP POP JUMP JUMPDEST PUSH1 0x0 PUSH1 0x20 DUP3 DUP5 SUB SLT ISZERO PUSH2 0x1B4 JUMPI PUSH2 0x1B3 PUSH2 0x163 JUMP JUMPDEST JUMPDEST PUSH1 0x0 PUSH2 0x1C2 DUP5 DUP3 DUP6 ADD PUSH2 0x189 JUMP JUMPDEST SWAP2 POP POP SWAP3 SWAP2 POP POP JUMP JUMPDEST PUSH2 0x1D4 DUP2 PUSH2 0x168 JUMP JUMPDEST DUP3 MSTORE POP POP JUMP JUMPDEST PUSH1 0x0 PUSH1 0x20 DUP3 ADD SWAP1 POP PUSH2 0x1EF PUSH1 0x0 DUP4 ADD DUP5 PUSH2 0x1CB JUMP JUMPDEST SWAP3 SWAP2 POP POP JUMP INVALID LOG2 PUSH5 0x6970667358 0x22 SLT KECCAK256 0x5D LOG1 DUP16 0xAC SELFBALANCE 0xC6 DUP14 EQ ORIGIN PUSH20 0x809D48214824C23B3A24EAB09B8584D9F1589AE0 0x29 CALLDATACOPY PUSH5 0x736F6C6343 STOP ADDMOD SGT STOP CALLER "
		},
		"gasEstimates": {
			"creation": {
				"codeDepositCost": "111000",
				"executionCost": "159",
				"totalCost": "111159"
			},
			"external": {
				"example(uint256)": "infinite",
				"ternary(uint256)": "infinite",
				"ternarycalculator2(uint256)": "infinite"
			}
		},
		"methodIdentifiers": {
			"example(uint256)": "477e4a02",
			"ternary(uint256)": "55278c5b",
			"ternarycalculator2(uint256)": "430e4cae"
		}
	},
	"abi": [
		{
			"inputs": [
				{
					"internalType": "uint256",
					"name": "_x",
					"type": "uint256"
				}
			],
			"name": "example",
			"outputs": [
				{
					"internalType": "uint256",
					"name": "",
					"type": "uint256"
				}
			],
			"stateMutability": "pure",
			"type": "function"
		},
		{
			"inputs": [
				{
					"internalType": "uint256",
					"name": "Y",
					"type": "uint256"
				}
			],
			"name": "ternary",
			"outputs": [
				{
					"internalType": "uint256",
					"name": "",
					"type": "uint256"
				}
			],
			"stateMutability": "pure",
			"type": "function"
		},
		{
			"inputs": [
				{
					"internalType": "uint256",
					"name": "z",
					"type": "uint256"
				}
			],
			"name": "ternarycalculator2",
			"outputs": [
				{
					"internalType": "uint256",
					"name": "",
					"type": "uint256"
				}
			],
			"stateMutability": "pure",
			"type": "function"
		}
	]
}